S00E00004449435F32332E7372656382
S113000097C00000B4C00000B2C00000B0C000003F
S1130010AEC00000ACC00000AAC00000A8C0000030
S1130020A6C00000A4C00000A2C00000A0C0000040
S11300309EC000009CC000009AC0000098C0000050
S11300400C94D11994C0000092C0000090C000002C
S11300500C94FA148CC000008AC0000088C0000010
S113006086C0000084C0000082C0000080C0000080
S11300707EC000007CC000007AC0000078C0000090
S113008076C0000074C0000072C0000070C00000A0
S11300906EC0000070109110B210D310F41015113E
S11300A03611571178119911BA11DB11FC111D1277
S11300B0881291129A12A312AC12B512BE12C71270
S11300C0D012D9128C159A159315AF15A115A81530
S11300D0BD15B615E315EB15E715F715EF15F31573
S11300E0FF15FB1522162A16261636162E1632165C
S11300F03E163A16A717B117BB17C517CF17D9174E
S1130100E317ED17F71701180B1815181F182918FE
S113011033185D18671871187B1885188F1899188B
S1130120A318AD18B718C118CB18D518DF18E918DB
S113013011241FBECFEFD0E1DEBFCDBF12E0A0E09F
S1130140B1E0EAE8F4E300E00BBF02C007900D92CF
S1130150A835B107D9F723E0A8E5B2E001C01D92A4
S1130160A135B207E1F70E942A130C94431A48CF31
S1130170CF93DF93CDB7DEB780E092E09093E202B5
S11301808093E1028FEF9FEF9093E4028093E30268
S11301901092E6021092E50281E092E09093CA0286
S11301A08093C9028FEF9FEF9093CC028093CB0290
S11301B081E090E09093CE028093CD0280E094E0C1
S11301C09093B2028093B1028FEF9FEF9093B402A9
S11301D08093B30282E090E09093B6028093B502DC
S11301E080E194E09093DC028093DB028FEF9FEF39
S11301F09093DE028093DD0283E090E09093E0022E
S11302008093DF0280E294E09093BE028093BD026B
S11302108FEF9FEF9093C0028093BF0284E090E041
S11302209093C2028093C10280E095E09093A6026D
S11302308093A5028FEF9FEF9093A8028093A7026B
S113024085E090E09093AA028093A90280E096E072
S113025090934803809347038FEF9FEF90934A0353
S11302608093490386E090E090934C0380934B0382
S113027080E597E09093AC028093AB028FEF9FEF01
S11302809093AE028093AD0287E090E09093B00229
S11302908093AF021092B8021092B7028FEF9FEFD3
S11302A09093BA028093B90288E090E09093BC02E4
S11302B08093BB028AE594E09093D6028093D502A2
S11302C08FEF9FEF9093D8028093D70289E090E05C
S11302D09093DA028093D9028AE594E09093C40261
S11302E08093C3028FEF9FEF9093C6028093C50261
S11302F08AE090E09093C8028093C7028AE494E075
S11303009093D0028093CF028FEF9FEF9093D2020D
S11303108093D1028BE090E09093D4028093D30237
S11303200000DF91CF910895CF93DF931F92CDB753
S1130330DEB767EE72E081EE92E0A4D28091EE0225
S1130340898380919E029981981731F480919D024E
S11303508F5F80939D0202C010929D0289818093D9
S11303609E0280919D02853620F480915E0288234E
S113037021F081E00E94F81803C080E00E94F81880
S11303806FEE72E089EC92E07DD267EF72E081EB70
S113039092E078D26FEF72E08BED92E073D267E077
S11303A073E08DEB92E06ED267E173E087E493E053
S11303B069D26FE173E08BEA92E064D26FE273E09A
S11303C085ED92E05FD26FE373E08FEC92E05AD256
S11303D000000F90DF91CF910895CF93DF93CDB7B5
S11303E0DEB76FE073E085EA92E0E8D20000DF91C7
S11303F0CF910895CF93DF93CDB7DEB780911F03DC
S1130400DF91CF910895CF93DF931F92CDB7DEB7DD
S113041089838981882F90E0880F991F880F991FFD
S1130420880F991F89519D4F0F90DF91CF910895A7
S1130430CF93DF93CDB7DEB78091E702282F30E06A
S11304408091E802882F90E0982F8827822B932BA5
S113045090935902809358028091580290915902C6
S113046096958795969587959C01ABE7B4E10E9494
S1130470341A9695879590935902809358028091E7
S1130480ED02881F8827881F80935E028091ED0209
S11304908295869586958370817080935F028091A2
S11304A05F02882349F482E290E022E230E0F9011D
S11304B02081FC01208309C082E290E022E230E046
S11304C0F90120812460FC0120838091ED02829552
S11304D08F708170809361028091F502282F30E043
S11304E08091F602882F90E0982F8827822B932BF7
S11304F024E630E0B9010E94181ACB0190936802F7
S1130500809367028091F702282F30E08091F802EF
S1130510882F90E0982F8827822B932B90936C023E
S113052080936B028091F902282F30E08091FA02C7
S1130530882F90E0982F8827822B932B90936E021C
S113054080936D028091FF02282F30E08091000398
S1130550882F90E0982F8827822B932B90937002FA
S113056080936F0280910103282F30E08091020371
S1130570882F90E0982F8827822B932B90937202D8
S11305808093710280E290E0FC018081882F90E0EA
S11305908170992721E0892B09F020E0822F809334
S11305A082021092810280917102909172020A97E4
S11305B068F080E290E0FC018081882F90E08095D3
S11305C09095959587958170809381028091190308
S11305D0282F30E080911A03882F90E0982F8827E5
S11305E0822B932B90938502809384028091320313
S11305F0282F30E080913103882F90E0982F8827AE
S1130600822B932B90939B0280939A0280914203B6
S1130610282F30E080914103882F90E0982F88277D
S1130620822B932B909396028093950220919A02A9
S113063030919B02809195029091960282179307C4
S113064048F480919A0290919B0290937E02809349
S11306507D0208C0809195029091960290937E024B
S113066080937D0280913003282F30E080912F0306
S1130670882F90E0982F8827822B932B90939402B5
S11306808093930280914003282F30E080913F03B0
S1130690882F90E0982F8827822B932B9093990290
S11306A0809398022091980230919902809193024C
S11306B0909194028217930748F480919802909144
S11306C099029093800280937F0208C080919302E4
S11306D0909194029093800280937F028091820291
S11306E080930F0380918102809310038091830291
S11306F0809311030000DF91CF910895CF93DF938E
S113070000D0CDB7DEB78A8319828A818830C0F0E1
S11307108DED90E0FC018081882F90E02A81222FCA
S113072030E02850310902C0959587952A95E2F763
S11307308170992721E0892B09F020E0298315C0D5
S11307408CED90E0FC018081882F90E02A81222F9B
S113075030E002C0959587952A95E2F78170992734
S113076021E0892B09F020E0298389810F900F90E3
S1130770DF91CF910895CF93DF9300D0CDB7DEB74B
S113078088ED90E0FC011082198256C08DEE90E055
S11307902981222F30E022953295307F3227207F25
S11307A032272860FC0120838EEE90E0FC01108249
S11307B08FEE90E0FC01108280EF90E0FC0110824B
S11307C081EF90E0FC01108282EF90E0FC01108246
S11307D083EF90E0FC01108284EF90E0FC01108232
S11307E085EF90E0FC01108286EF90E0FC0110821E
S11307F087EF90E0FC0110821A8218C08DEE90E021
S11308002981222F30E022953295307F3227207FB4
S11308103227322F2A81232B2860FC0120838AEF80
S113082090E0FC0110828A818F5F8A838A818830FC
S113083028F389818F5F898389818F3008F4A6CF5B
S113084082EE90E022E0FC01208383EE90E02CE035
S1130850FC01208384EE90E027E3FC0120838BEDF0
S113086090E0FC01108288ED90E028ED30E0F90181
S113087020812260FC01208300000F900F90DF9103
S1130880CF910895CF93DF9300D000D01F92CDB7BE
S1130890DEB79B838A837D836C838DEE90E02A810F
S11308A03B81F901248135812295207FFC0120833D
S11308B08A819B81FC018481958120DF882309F44E
S11308C050C083EF90E02A813B81F901208131817E
S11308D0369527953695279536952795FC012083DF
S11308E082EF90E02A813B81F901208131812295B8
S11308F0220F207EFC01208381EF90E0FC01108216
S113090080EF90E024E0FC01208387EF90E02A81CF
S11309103B81F901228133813695279536952795B8
S113092036952795FC01208386EF90E02A813B8150
S1130930F901228133812295220F207EFC0120833C
S113094085EF90E0FC01108284EF90E0FC011082BE
S11309508FEE90E028ECFC0120838EEE90E0FC0109
S1130960108219821FC08DEE90E02A813B81F9012B
S113097024813581322F3295307F2981232B2860C1
S1130980FC0120838981882F90E02C813D81820F96
S1130990931F2AEF30E0F9012081FC012083898133
S11309A08F5F898389818830F0F200000F900F9067
S11309B00F900F900F90DF91CF910895CF93DF9315
S11309C000D000D01F92CDB7DEB79B838A837D838E
S11309D06C8319821FC08DEE90E02A813B81F9015E
S11309E024813581322F3295307F2981232B286051
S11309F0FC0120838AEF90E02981222F30E04C8192
S1130A005D81240F351FF9012081FC012083898138
S1130A108F5F898389818830F0F28DEE90E02A819E
S1130A203B81F901248135812295207FFC012083BB
S1130A308A819B81FC018481958160DE882309F48D
S1130A4044C08EEE90E0FC01108283EF90E02A8196
S1130A503B81F9012081318136952795369527957B
S1130A6036952795FC01208382EF90E02A813B8113
S1130A70F901208131812295220F207EFC012083FF
S1130A8081EF90E0FC01108280EF90E0FC01108285
S1130A9087EF90E0FC01108286EF90E0FC01108269
S1130AA085EF90E0FC01108284EF90E0FC0110825D
S1130AB08EEE90E0FC0110828FEE90E028E4FC01C1
S1130AC020838EEE90E0FC01108200000F900F90C6
S1130AD00F900F900F90DF91CF910895CF93DF93F4
S1130AE000D000D0CDB7DEB79A8389837C836B8333
S1130AF08B819C81FC0181818431D1F48B819C8127
S1130B00FC018081882F90E0895F9E4FFC018081E9
S1130B1060E0AAD08B819C81FC0111828B819C8135
S1130B20FC01808121E0280F8B819C81FC012083C2
S1130B308B819C81FC018081843021F48B819C8198
S1130B40FC0110828B819C81FC018081682F70E004
S1130B508B819C81FC018181882F90E049815A819D
S1130B60E4E1E69F9001E79F300D1124240F351F27
S1130B70820F931FFC01808161E076D08B819C8180
S1130B80FC01818121E0280F8B819C81FC01218360
S1130B9000000F900F900F900F90DF91CF91089568
S1130BA0CF93DF9300D0CDB7DEB719821A82898143
S1130BB09A810F900F90DF91CF910895CF93DF9397
S1130BC0CDB7DEB7C455D1090FB6F894DEBF0FBE5A
S1130BD0CDBF9E012D5A3F4FF90191838083198225
S1130BE022C01A821AC08981482F50E08A81882F36
S1130BF090E064E1649F9001659F300D1124AE0183
S1130C004F5F5F4F240F351F820F931F029620E121
S1130C10FC0120838A818F5F8A838A81843118F35F
S1130C2089818F5F898389818430D8F2CE018D5A7E
S1130C309F4FFC018081918120E5FE013396DC0108
S1130C4001900D922A95E1F7CE018D5A9F4FFC0138
S1130C5080819181CC5ADF4F0FB6F894DEBF0FBE6E
S1130C60CDBFDF91CF9108950F931F93CF93DF935F
S1130C7000D000D0CDB7DEB78B836C830EE210E0DA
S1130C808B810E94F412F80180838C81813051F4AD
S1130C9085E290E025E230E0F90120812064FC0146
S1130CA0208309C085E290E025E230E0F90120814B
S1130CB02F7BFC01208385E290E025E230E0F901FE
S1130CC020812061FC0120831A8219820EC085E2F2
S1130CD090E025E230E0F90120812F7EFC012083A1
S1130CE089819A8101969A83898389819A8184363C
S1130CF091056CF300000F900F900F900F90DF910F
S1130D00CF911F910F9108958F92AF92CF92EF924E
S1130D100F93CF93DF93CDB7DEB7812CA12CC12CD9
S1130D20E12C00E020E04FE16FE181E07AD00F2E6A
S1130D30FFEE8F2EF02D0F2EFFEEAF2EF02D0F2E87
S1130D40FFEECF2EF02D0F2EFFEEEF2EF02D0FEE37
S1130D502FEE4FEE6FEE82E064D00F2EFEE18F2E69
S1130D60F02D0F2EFEE1AF2EF02D0F2EFEE1CF2E33
S1130D70F02D0F2EFEE1EF2EF02D0EE12EE14EE1CF
S1130D806EE183E04ED0812CA12CC12CE12C0FEF1D
S1130D902FEF4FEF6FEF84E044D00F2EFFEE8F2E36
S1130DA0F02D0F2EFFEEAF2EF02D0F2EFFEECF2ED7
S1130DB0F02D0F2EFFEEEF2EF02D0FEF2FEF4FEF54
S1130DC06FEF85E02ED0812C6894AA24A1F80F2E11
S1130DD0F5E1CF2EF02D0F2EFAE0EF2EF02D04E0EA
S1130DE02AE045E168E086E01CD00F2EFFE18F2E5B
S1130DF0F02D0F2EFFE1AF2EF02D0F2EFFE1CF2EA1
S1130E00F02DE12C00E020E040E060E087E009D034
S1130E100000DF91CF910F91EF90CF90AF908F9022
S1130E2008958F92AF92CF92EF920F93CF93DF9367
S1130E30CDB7DEB729970FB6F894DEBF0FBECDBF8E
S1130E4089836A834B832C830D83EE82CF82A886A9
S1130E5089868981882F90E00896880F880F880FEB
S1130E6060E002DF61E08A81FFDE61E08B81FCDE0D
S1130E7061E08C81F9DE61E08D81F6DE61E08E81D6
S1130E80F3DE61E08F81F0DE61E08885EDDE61E014
S1130E908985EADE60E082E0E7DE000029960FB68D
S1130EA0F894DEBF0FBECDBFDF91CF910F91EF90CD
S1130EB0CF90AF908F900895CF93DF93CDB7DEB7E7
S1130EC027970FB6F894DEBF0FBECDBF9B838A83EE
S1130ED07D836C834E832F83198225C08E81682F76
S1130EE070E08981282F30E08F81882F90E0820F75
S1130EF0931F2981222F30E04C815D81240F351FFF
S1130F00D901EC914A815B81F4E1F69F9001F79F4E
S1130F10300D1124240F351F820F931FDC01EC9335
S1130F2089818F5F89838981882F90E02C813D811D
S1130F30820F931FFC018081882351F08F81282F19
S1130F4030E08981882F90E0820F931F449734F218
S1130F50000027960FB6F894DEBF0FBECDBFDF9119
S1130F60CF910895CF93DF9300D0CDB7DEB71A8227
S1130F7019820DC089819A8180509F4FFC01808124
S1130F8060E072DE89819A8101969A8389838981DE
S1130F909A8107977CF300000F900F90DF91CF9117
S1130FA00895CF93DF9300D000D0CDB7DEB79C83F4
S1130FB08B8319821A8280E290E0FC018081882F61
S1130FC090E08170992721E0892B09F020E02983A2
S1130FD080E290E0FC018081882F90E080959095DC
S1130FE082709927959587958A838B819C8120E0CF
S1130FF040E06CE071E060DF8B819C8120E041E0A7
S113100061E271E059DF8B819C8120E042E066E37C
S113101071E052DF8B819C8120E043E06BE471E05E
S11310204BDF40917D0250917E029A01ADECBCEC05
S11310300E94341A969587959695879596958795E7
S1131040880F991F9C01220F331F220F331F820F19
S1131050931F9A01281B390BC901282F8B819C816E
S113106040E062E10E94671280917D0290917E02CD
S11310709C01ADECBCEC0E94341AAC01569547952A
S113108056954795569547959A01ADECBCEC0E9450
S1131090341A969587959695879596958795880F92
S11310A0991F9C01220F331F220F331F820F931F9E
S11310B0FA01E81BF90BCF01282F8B819C8140E0BA
S11310C060E10E94671280917D0290917E02969564
S11310D08795969587959C01ABE7B4E10E94341AF5
S11310E0AC01569547959A01ADECBCEC0E94341ABC
S11310F0969587959695879596958795880F991FC8
S11311009C01220F331F220F331F820F931F9A015A
S1131110281B390BC901282F8B819C8140E06FE08B
S11311200E94671240917F02509180029A01ADECB7
S1131130BCEC0E94341A969587959695879596955A
S11311408795880F991F9C01220F331F220F331F8D
S1131150820F931FFA01E81BF90BCF01282F8B8113
S11311609C8140E067E00E94671280917F02909129
S113117080029C01ADECBCEC0E94341AAC01569583
S1131180479556954795569547959A01ADECBCEC15
S11311900E94341A96958795969587959695879586
S11311A0880F991F9C01220F331F220F331F820FB8
S11311B0931F9A01281B390BC901282F8B819C810D
S11311C040E065E00E94671280917F029091800266
S11311D096958795969587959C01ABE7B4E10E9417
S11311E0341AAC01569547959A01ADECBCEC0E94BB
S11311F0341A969587959695879596958795880F31
S1131200991F9C01220F331F220F331F820F931F3C
S1131210FA01E81BF90BCF01282F8B819C8140E058
S113122064E00E94671240915802509159029A0159
S1131230ADECBCEC0E94341A9695879596958795EB
S113124096958795880F991F9C01220F331F220FB3
S1131250331F820F931F9A01281B390BC901282FB2
S11312608B819C8141E066E00E9467128091580264
S1131270909159029C01ADECBCEC0E94341AAC0173
S11312805695479556954795569547959A01ADECD1
S1131290BCEC0E94341A96958795969587959695F9
S11312A08795880F991F9C01220F331F220F331F2C
S11312B0820F931FFA01E81BF90BCF01282F8B81B2
S11312C09C8141E065E00E946712809158029091F0
S11312D0590296958795969587959C01ABE7B4E15D
S11312E00E94341AAC01569547959A01ADECBCECBA
S11312F00E94341A96958795969587959695879525
S1131300880F991F9C01220F331F220F331F820F56
S1131310931F9A01281B390BC901282F8B819C81AB
S113132041E064E00E9467124091670250916802B4
S11313309A01ADECBCEC0E94341A9695879596956B
S1131340879596958795880F991F9C01220F331FC7
S1131350220F331F820F931FFA01E81BF90BCF01F1
S1131360282F8B819C8141E062E10E946712809169
S11313706702909168029C01ADECBCEC0E94341AA7
S1131380AC015695479556954795569547959A01BC
S1131390ADECBCEC0E94341A96958795969587958A
S11313A096958795880F991F9C01220F331F220F52
S11313B0331F820F931F9A01281B390BC901282F51
S11313C08B819C8141E060E10E94671280916702F9
S11313D09091680296958795969587959C01ABE7C1
S11313E0B4E10E94341AAC01569547959A01ADECCC
S11313F0BCEC0E94341A9695879596958795969598
S11314008795880F991F9C01220F331F220F331FCA
S1131410820F931FFA01E81BF90BCF01282F8B8150
S11314209C8141E06FE00E946712409184025091D8
S113143085029A01ADECBCEC0E94341A969587950E
S11314409695879596958795880F991F9C01220FED
S1131450331F220F331F820F931F9A01281B390B4E
S1131460C901282F8B819C8142E067E00E946712AA
S113147080918402909185029C01ADECBCEC0E94A9
S1131480341AAC0156954795569547955695479508
S11314909A01ADECBCEC0E94341A9695879596950A
S11314A0879596958795880F991F9C01220F331F66
S11314B0220F331F820F931FFA01E81BF90BCF0190
S11314C0282F8B819C8142E065E00E946712809105
S11314D084029091850296958795969587959C01AF
S11314E0ABE7B4E10E94341AAC01569547959A01D2
S11314F0ADECBCEC0E94341A969587959695879529
S113150096958795880F991F9C01220F331F220FF0
S1131510331F820F931F9A01281B390BC901282FEF
S11315208B819C8142E064E0D2D740916D0250915E
S11315306E029A01ADECBCEC0E94341A9695879524
S11315409695879596958795880F991F9C01220FEC
S1131550331F220F331F820F931FFA01E81BF90B6D
S1131560CF01282F8B819C8143E066E0B0D7809126
S11315706D0290916E029C01ADECBCEC0E94341A99
S1131580AC015695479556954795569547959A01BA
S1131590ADECBCEC0E94341A969587959695879588
S11315A096958795880F991F9C01220F331F220F50
S11315B0331F820F931F9A01281B390BC901282F4F
S11315C08B819C8143E065E082D700000F900F90EF
S11315D00F900F90DF91CF910895CF93DF9300D0B8
S11315E000D0CDB7DEB79C838B8319821A8280E248
S11315F090E0FC018081882F90E08170992721E0A0
S1131600892B09F020E0298380E290E0FC018081AD
S1131610882F90E08095909582709927959587956D
S11316208A838B819C8120E040E061E271E044DCAC
S11316308B819C8120E041E060E671E03DDC8B81A0
S11316409C8120E042E065E771E036DC8B819C817F
S113165020E043E06AE871E02FDC409158025091A9
S113166059029A01ADECBCEC0E94341A9695879508
S11316709695879596958795880F991F9C01220FBB
S1131680331F220F331F820F931F9A01281B390B1C
S1131690C901282F8B819C8140E066E018D7809196
S11316A05802909159029C01ADECBCEC0E94341A92
S11316B0AC015695479556954795569547959A0189
S11316C0ADECBCEC0E94341A969587959695879557
S11316D096958795880F991F9C01220F331F220F1F
S11316E0331F820F931FFA01E81BF90BCF01282F38
S11316F08B819C8140E065E0EAD68091580290910C
S1131700590296958795969587959C01ABE7B4E128
S11317100E94341AAC01569547959A01ADECBCEC85
S11317200E94341A969587959695879596958795F0
S1131730880F991F9C01220F331F220F331F820F22
S1131740931F9A01281B390BC901282F8B819C8177
S113175040E064E0BCD640916702509168029A016F
S1131760ADECBCEC0E94341A9695879596958795B6
S113177096958795880F991F9C01220F331F220F7E
S1131780331F820F931FFA01E81BF90BCF01282F97
S11317908B819C8140E062E19AD6809167029091AE
S11317A068029C01ADECBCEC0E94341AAC01569565
S11317B0479556954795569547959A01ADECBCECDF
S11317C00E94341A96958795969587959695879550
S11317D0880F991F9C01220F331F220F331F820F82
S11317E0931F9A01281B390BC901282F8B819C81D7
S11317F040E060E16CD68091670290916802969512
S11318008795969587959C01ABE7B4E10E94341ABD
S1131810AC01569547959A01ADECBCEC0E94341A84
S1131820969587959695879596958795880F991F90
S11318309C01220F331F220F331F820F931FFA01C3
S1131840E81BF90BCF01282F8B819C8140E06FE0CE
S11318503ED640918402509185029A01ADECBCECD5
S11318600E94341A969587959695879596958795AF
S1131870880F991F9C01220F331F220F331F820FE1
S1131880931F9A01281B390BC901282F8B819C8136
S113189041E067E01CD680918402909185029C010E
S11318A0ADECBCEC0E94341AAC01569547955695A4
S11318B04795569547959A01ADECBCEC0E94341AB5
S11318C0969587959695879596958795880F991FF0
S11318D09C01220F331F220F331F820F931FFA0123
S11318E0E81BF90BCF01282F8B819C8141E065E037
S11318F0EED5809184029091850296958795969570
S113190087959C01ABE7B4E10E94341AAC0156956B
S113191047959A01ADECBCEC0E94341A96958795D4
S11319209695879596958795880F991F9C01220F08
S1131930331F220F331F820F931F9A01281B390B69
S1131940C901282F8B819C8141E064E0C0D540917E
S11319507302509174029A01ADECBCEC0E94341AEB
S1131960969587959695879596958795880F991F4F
S11319709C01220F331F220F331F820F931FFA0182
S1131980E81BF90BCF01282F8B819C8141E062E198
S11319909ED580917302909174029C01ADECBCECD5
S11319A00E94341AAC01569547955695479556951D
S11319B047959A01ADECBCEC0E94341A9695879534
S11319C09695879596958795880F991F9C01220F68
S11319D0331F220F331F820F931F9A01281B390BC9
S11319E0C901282F8B819C8141E060E170D58091F1
S11319F073029091740296958795969587959C01AC
S1131A00ABE7B4E10E94341AAC01569547959A01AC
S1131A10ADECBCEC0E94341A969587959695879503
S1131A2096958795880F991F9C01220F331F220FCB
S1131A30331F820F931FFA01E81BF90BCF01282FE4
S1131A408B819C8141E06FE042D540916B025091C3
S1131A506C029A01ADECBCEC0E94341A9695879501
S1131A609695879596958795880F991F9C01220FC7
S1131A70331F220F331F820F931F9A01281B390B28
S1131A80C901282F8B819C8142E067E020D5809199
S1131A906B0290916C029C01ADECBCEC0E94341A78
S1131AA0AC015695479556954795569547959A0195
S1131AB0ADECBCEC0E94341A969587959695879563
S1131AC096958795880F991F9C01220F331F220F2B
S1131AD0331F820F931FFA01E81BF90BCF01282F44
S1131AE08B819C8142E066E0F2D440916D0250917A
S1131AF06E029A01ADECBCEC0E94341A969587955F
S1131B009695879596958795880F991F9C01220F26
S1131B10331F220F331F820F931F9A01281B390B87
S1131B20C901282F8B819C8142E060E1D0D480914F
S1131B306D0290916E029C01ADECBCEC0E94341AD3
S1131B40AC015695479556954795569547959A01F4
S1131B50ADECBCEC0E94341A9695879596958795C2
S1131B6096958795880F991F9C01220F331F220F8A
S1131B70331F820F931FFA01E81BF90BCF01282FA3
S1131B808B819C8142E06FE0A2D480916F0290919E
S1131B9070029C01ADECBCEC0E94341AAC01569569
S1131BA0479556954795569547959A01ADECBCECEB
S1131BB00E94341A9695879596958795969587955C
S1131BC0880F991F9C01220F331F220F331F820F8E
S1131BD0931F9A01281B390BC901282F8B819C81E3
S1131BE043E065E074D480916F0290917002969501
S1131BF08795969587959C01ABE7B4E10E94341ACA
S1131C00AC01569547959A01ADECBCEC0E94341A90
S1131C10969587959695879596958795880F991F9C
S1131C209C01220F331F220F331F820F931FFA01CF
S1131C30E81BF90BCF01282F8B819C8143E064E0E2
S1131C4046D480917102909172029C01ADECBCEC7F
S1131C500E94341AAC01569547955695479556956A
S1131C6047959A01ADECBCEC0E94341A9695879581
S1131C709695879596958795880F991F9C01220FB5
S1131C80331F220F331F820F931F9A01281B390B16
S1131C90C901282F8B819C8143E06BE018D480918B
S1131CA071029091720296958795969587959C01FD
S1131CB0ABE7B4E10E94341AAC01569547959A01FA
S1131CC0ADECBCEC0E94341A969587959695879551
S1131CD096958795880F991F9C01220F331F220F19
S1131CE0331F820F931FFA01E81BF90BCF01282F32
S1131CF08B819C8143E06AE0EAD300000F900F904F
S1131D000F900F90DF91CF910895CF93DF9300D080
S1131D10CDB7DEB79A8389830E94840600000F90B2
S1131D200F90DF91CF910895CF93DF9300D000D02F
S1131D30CDB7DEB79A8389837C836B8389819A814B
S1131D404BE06EE0ADD189819A8124E043E06FE9F4
S1131D5071E0B2D84B815C819A01ADECBCEC0E947D
S1131D60341A969587959695879596958795880FB5
S1131D70991F9C01220F331F220F331F820F931FC1
S1131D809A01281B390BC901282F89819A81422F76
S1131D906AE086D18B819C819C01ADECBCEC0E94F5
S1131DA0341A9695879596958795969587959C83ED
S1131DB08B834B815C819A01ADECBCEC0E94341A9C
S1131DC0969587959695879596958795880F991FEB
S1131DD09C01220F331F220F331F820F931F9A017E
S1131DE0281B390BC901282F89819A81422F66E06B
S1131DF057D18B819C819C01ADECBCEC0E94341AC0
S1131E009695879596958795969587959C838B83CC
S1131E104B815C819A01ADECBCEC0E94341A96951E
S1131E2087959695879596958795880F991F9C0118
S1131E30220F331F220F331F820F931F9A01281B77
S1131E40390BC901282F89819A81422F60E028D15A
S1131E5000000F900F900F900F90DF91CF91089595
S1131E60CF93DF9300D000D0CDB7DEB79A838983B8
S1131E707C836B8389819A814DE060E111D18981F2
S1131E809A812EE040E061EA71E016D889819A8156
S1131E9028E043E06FE971E00FD84B815C819A013F
S1131EA0ADECBCEC0E94341A96958795969587956F
S1131EB096958795880F991F9C01220F331F220F37
S1131EC0331F820F931F9A01281B390BC901282F36
S1131ED089819A81422F6AE0E3D08B819C819C01A5
S1131EE0ADECBCEC0E94341A96958795969587952F
S1131EF0969587959C838B834B815C819A01ADEC8D
S1131F00BCEC0E94341A969587959695879596957C
S1131F108795880F991F9C01220F331F220F331FAF
S1131F20820F931F9A01281B390BC901282F89811D
S1131F309A81422F64E0B4D08B819C819C01ADECEA
S1131F40BCEC0E94341A969587959695879596953C
S1131F5087959C838B834B815C819A01ADECBCECAF
S1131F600E94341A969587959695879596958795A8
S1131F70880F991F9C01220F331F220F331F820FDA
S1131F80931F9A01281B390BC901282F89819A8133
S1131F90422F60E085D000000F900F900F900F90BB
S1131FA0DF91CF910895EF920F931F93CF93DF9317
S1131FB0CDB7DEB72A970FB6F894DEBF0FBECDBFFC
S1131FC09C838B836D834E832F8319870887EA86CE
S1131FD01A82198253C09A8589819817A8F09A8524
S1131FE08981981709F047C09E818D81980F898156
S1131FF0292F281B8B819C814F8163EA71E00E9409
S11320005C0781E08A8337C0488559859A01ADEC25
S1132010BCEC0E94341A969587959695879596956B
S11320208795880F991F9C01220F331F220F331F9E
S1132030820F931F9A01281B390BC901282F9D81F8
S11320408981981B8A81981B8E81392F380F8B8147
S11320509C814F81632F3BD2888599859C01ADEC8F
S1132060BCEC0E94341A969587959695879596951B
S113207087959987888789818F5F898399818D81E5
S1132080981708F0A8CF00002A960FB6F894DEBF80
S11320900FBECDBFDF91CF911F910F91EF900895A7
S11320A0CF93DF9300D000D0CDB7DEB79A83898376
S11320B06B834C838C81882F90E0092E000CAA0B33
S11320C0BB0B40E050E02DE030E0841B950B28175B
S11320D0390708F4D3C1865B9F4FFC010C942B1A7B
S11320E089819A812B8140E065EA71E00E945C0756
S11320F089819A812B8141E069EA71E00E945C0741
S113210089819A812B8142E069EA71E00E945C072F
S113211089819A812B8143E065EA71E00E945C0722
S1132120CEC189819A812B8140E06DEA71E00E94E1
S11321305C0789819A812B8141E061EB71E00E9407
S11321405C0789819A812B8142E061EB71E00E94F6
S11321505C0789819A812B8143E061EB71E00E94E5
S11321605C07ADC189819A812B8140E065EA71E009
S11321700E945C0789819A812B8141E065EB71E0C3
S11321800E945C0789819A812B8142E069EB71E0AE
S11321900E945C0789819A812B8143E065EA71E0A2
S11321A00E945C078CC189819A812B8140E065EA99
S11321B071E00E945C0789819A812B8141E065EB83
S11321C071E00E945C0789819A812B8142E06DEB6A
S11321D071E00E945C0789819A812B8143E065EA62
S11321E071E00E945C076BC189819A812B8140E078
S11321F061EC71E00E945C0789819A812B8141E046
S113220065EC71E00E945C0789819A812B8142E030
S113221069EC71E00E945C0789819A812B8143E01B
S11322206DEC71E00E945C074AC189819A812B811F
S113223040E065EA71E00E945C0789819A812B8104
S113224041E061ED71E00E945C0789819A812B81F4
S113225042E06DEB71E00E945C0789819A812B81D9
S113226043E065EA71E00E945C0729C189819A8193
S11322702B8140E065EA71E00E945C0789819A81C4
S11322802B8141E061ED71E00E945C0789819A81B4
S11322902B8142E065ED71E00E945C0789819A819F
S11322A02B8143E065EA71E00E945C0708C18981E3
S11322B09A812B8140E065EA71E00E945C07898184
S11322C09A812B8141E061EB71E00E945C07898176
S11322D09A812B8142E069ED71E00E945C0789815B
S11322E09A812B8143E069ED71E00E945C07E7C0AD
S11322F089819A812B8140E065EA71E00E945C0744
S113230089819A812B8141E06DED71E00E945C0727
S113231089819A812B8142E065ED71E00E945C071E
S113232089819A812B8143E06DED71E00E945C0705
S1132330C6C089819A812B8140E065EA71E00E94E0
S11323405C0789819A812B8141E06DED71E00E94E7
S11323505C0789819A812B8142E06DEB71E00E94D8
S11323605C0789819A812B8143E061EB71E00E94D3
S11323705C07A5C089819A812B8140E061EE71E000
S11323800E945C0789819A812B8141E061EE71E0B2
S11323900E945C0789819A812B8142E061EE71E0A1
S11323A00E945C0789819A812B8143E061EE71E090
S11323B00E945C0784C089819A812B8140E069EA8C
S11323C071E00E945C0789819A812B8141E069EA6E
S11323D071E00E945C0789819A812B8142E065EE5D
S11323E071E00E945C0789819A812B8143E069ED49
S11323F071E00E945C0763C089819A812B8140E06F
S113240069EA71E00E945C0789819A812B8141E02D
S113241069EA71E00E945C0789819A812B8142E01C
S113242069EA71E00E945C0789819A812B8143E00B
S113243065EA71E00E945C0742C089819A812B8120
S113244040E065EA71E00E945C0789819A812B81F2
S113245041E069EE71E00E945C0789819A812B81D9
S113246042E069EE71E00E945C0789819A812B81C8
S113247043E065EA71E00E945C0721C089819A818A
S11324802B8140E065EA71E00E945C0789819A81B2
S11324902B8141E065EA71E00E945C0789819A81A1
S11324A02B8142E065EA71E00E945C0789819A8190
S11324B02B8143E065EA71E00E945C0700000000A4
S11324C00F900F900F900F90DF91CF910895CF93BD
S11324D0DF9300D000D01F92CDB7DEB79A838983F3
S11324E06B834C832D838D81882F90E0092E000C03
S11324F0AA0BBB0B40E050E029E030E0841B950BB5
S11325002817390708F45EC0885A9F4FFC01A3C7F7
S113251089819A812B814C816DEE71E00E945C0768
S11325205AC089819A812B814C816FEE71E00E949F
S11325305C0751C089819A812B814C8161EF71E0E4
S11325400E945C0748C089819A812B814C8163EF8A
S113255071E00E945C073FC089819A812B814C8184
S113256065EF71E00E945C0736C089819A812B81F6
S11325704C8167EF71E00E945C072DC089819A81CC
S11325802B814C8169EF71E00E945C0724C0898132
S11325909A812B814C816BEF71E00E945C071BC018
S11325A089819A812B814C816DEF71E00E945C07D7
S11325B012C089819A812B814C816FEF71E00E9456
S11325C05C0709C089819A812B814C8161E072E0AA
S11325D00E945C07000000000F900F900F900F9076
S11325E00F90DF91CF910895CF93DF9300D01F9286
S11325F0CDB7DEB78B8319821A8222C08B81882FD4
S113260090E02A81222F30E002C0959587952A9583
S1132610E2F7817099272A81222F30E047E050E0C9
S1132620BA01621B730B9B0102C0880F991F2A9584
S1132630E2F7982F8981892B89838A818F5F8A8326
S11326408A818830D8F289810F900F900F90DF91A2
S1132650CF910895CF93DF93CDB7DEB7C155D14065
S11326600FB6F894DEBF0FBECDBF0ED60E94B207E0
S11326700E948406C3D07ED60E94B8000E94BB0389
S113268018861982198682E08A871B861A821B8221
S11326901C821D82789409D287E023D20E94D0053F
S11326A0998B888BCE0142960E94DE05CE018E590D
S11326B09F4F0E94DE05CE018E549F4F0E94DE057F
S11326C0CE018E5F9E4F0E94DE05CE01429620E031
S11326D040E063E072E00E945C07CE01429620E095
S11326E041E068E172E00E945C07CE01429620E07E
S11326F042E06DE272E00E945C07CE01429620E067
S113270043E062E472E00E945C07CE0142969F833C
S11327108E838091A402882351F01092A4029E011A
S1132720205F3F4F8E819F81B9010E946E052091E9
S1132730A0023091A1024091A2025091A3028C8583
S11327409D85AE85BF85281739074A075B0779F051
S11327508091A0029091A102A091A202B091A30243
S11327608C879D87AE87BF8789818F5F89838981A5
S11327708A3028F10E94ED010E9494010E941802FF
S11327808E819F810E94D10780910B01813059F481
S113279081E02ED582E290E022E230E0F90120814E
S11327A02460FC01208319828A819B81AC81BD81D4
S11327B00196A11DB11D8A839B83AC83BD838A814D
S11327C09B81AC81BD818C329140A105B10508F497
S11327D0A0CFCE018E5F9E4F9F838E8310920B01FC
S11327E082E290E022E230E0F90120812B7FFC01BB
S11327F020831A821B821C821D828BCFCF93DF938E
S1132800CDB7DEB784E290E024E230E0F901208124
S11328102160FC01208384E290E024E230E0F901AD
S113282020812660FC0120838CE490E020EDFC01F3
S113283020838CE490E02CE430E0F90120812160D5
S1132840FC01208381E290E021E230E0F901208163
S11328502860FC01208384E290E024E230E0F90166
S113286020812068FC01208382E290E022E230E0B3
S1132870F90120812860FC01208382E290E022E2B9
S113288030E0F90120812860FC0120830000DF9101
S1132890CF910895CF93DF93CDB7DEB780919F0298
S11328A0882311F481E001C080E0DF91CF91089585
S11328B0CF93DF9300D000D0CDB7DEB789836A838E
S11328C04B832C83898180934D038B8180934F03A9
S11328D08A8180934E038C818093500381E080939E
S11328E09F028981882F90E0009719F00197A1F049
S11328F026C082E290E022E230E0F9012081277FC5
S1132900FC01208385E290E025E230E0F90120819A
S11329102068FC01208313C085E290E025E230E0CA
S1132920F90120812F77FC01208382E290E022E2EA
S113293030E0F90120812860FC01208300008EE44E
S113294090E02A81FC01208300000F900F900F90EB
S11329500F90DF91CF910895CF93DF9300D000D0F3
S11329601F92CDB7DEB78A836B834C832D8309C056
S11329708FEF898303C0898181508983898188236A
S1132980D1F788DF8823A1F32D814C816B818A8163
S11329908FDF00000F900F900F900F900F90DF913A
S11329A0CF910895CF93DF9300D0CDB7DEB789835D
S11329B06A838A818095282F4AE060E4898178DFE0
S11329C000000F900F90DF91CF910895CF93DF9384
S11329D000D0CDB7DEB789836A838A818095282F9A
S11329E04AE060E48981B8DF00000F900F90DF9126
S11329F0CF9108951F920F9200905F000F921124BF
S1132A0000905B000F922F933F938F939F93EF93CC
S1132A10FF93CF93DF93CDB7DEB780919F02882FCA
S1132A2090E08230910581F083309105B9F00197EF
S1132A3009F029C08EE490E020914F03FC0120832B
S1132A4082E080939F021FC08EE490E020915003A7
S1132A50FC01208383E080939F0215C085E290E00F
S1132A6025E230E0F90120812068FC01208382E224
S1132A7090E022E230E0F90120812860FC0120830B
S1132A8010929F0200000000DF91CF91FF91EF911F
S1132A909F918F913F912F910F9000925B000F9027
S1132AA000925F000F901F901895CF93DF93CDB7DE
S1132AB0DEB720E040E064E480E04EDF20E040E068
S1132AC062E481E049DF20E045E064E480E044DF43
S1132AD020E045E062E481E03FDF0000DF91CF9138
S1132AE00895CF93DF931F92CDB7DEB78983898191
S1132AF0882F90E0092E000CAA0BBB0B40E050E09D
S1132B0027E030E0841B950B2817390708F43CC0F4
S1132B108E599F4FFC019FC469E080E057DF69E054
S1132B2081E054DF31C066E080E050DF66E081E0A0
S1132B304DDF2AC060E380E049DF60E381E046DFE7
S1132B4023C069E380E042DF69E381E03FDF1CC02A
S1132B5066E380E03BDF66E381E038DF15C06FEFBA
S1132B6080E034DF6FEF81E031DF0EC060E080E0B1
S1132B702DDF60E081E02ADF07C06FE080E026DF20
S1132B806FE081E023DF000000000F90DF91CF9120
S1132B900895CF93DF931F92CDB7DEB789838981E0
S1132BA0882F90E0092E000CAA0BBB0B40E050E0EC
S1132BB027E030E0841B950B2817390720F186594C
S1132BC09F4FFC0148C469E081E000DF1CC066E05F
S1132BD081E0FCDE18C060E381E0F8DE14C069E344
S1132BE081E0F4DE10C066E381E0F0DE0CC06FEF3C
S1132BF081E0ECDE08C060E081E0E8DE04C06FE064
S1132C0081E0E4DE000000000F90DF91CF91089591
S1132C10CF93DF931F92CDB7DEB789838981882F45
S1132C2090E0092E000CAA0BBB0B40E050E027E01B
S1132C3030E0841B950B2817390720F18E589F4FDD
S1132C40FC0109C469E080E0C1DE1CC066E080E0EC
S1132C50BDDE18C060E380E0B9DE14C069E380E043
S1132C60B5DE10C066E380E0B1DE0CC06FEF80E03B
S1132C70ADDE08C060E080E0A9DE04C06FE080E063
S1132C80A5DE000000000F90DF91CF910895CF934F
S1132C90DF93CDB7DEB782E290E022E230E0F901C3
S1132CA020812F70FC01208384E390E024E330E052
S1132CB0F90120812B7FFC0120830000DF91CF915B
S1132CC00895CF93DF93CDB7DEB788E290E0FC019F
S1132CD0108284E390E024E330E0F90120812C7F2A
S1132CE0FC0120830000DF91CF910895CF93DF93FF
S1132CF0CDB7DEB729970FB6F894DEBF0FBECDBFB0
S1132D009D838C837F836E8359874887C0DF2C81A2
S1132D103D818E819F81A901481B590BCA0196955B
S1132D208795969587959A838983288539858E8199
S1132D309F81281B390B89819A81820F931F2981D6
S1132D403A81B90161D3CB018B838B8118161CF4B2
S1132D508B8154D002C080E051D0000029960FB678
S1132D60F894DEBF0FBECDBFDF91CF910895CF930E
S1132D70DF93CDB7DEB729970FB6F894DEBF0FBE49
S1132D80CDBF9D838C837F836E835987488799DF6A
S1132D902C813D818E819F81A901481B590BCA0159
S1132DA09C01AFE8B3EE60D3969587959695879589
S1132DB0969587959A838983288539858E819F8105
S1132DC0281B390B89819A81820F931F29813A81AB
S1132DD0B9011AD3CB018B838B8118161CF48B8118
S1132DE049D002C080E046D0000029960FB6F8947E
S1132DF0DEBF0FBECDBFDF91CF910895CF93DF9398
S1132E001F92CDB7DEB7898382E290E022E230E000
S1132E10F9012081622F2981422F50E02FEF30E009
S1132E2002C0220F331F4A95E2F720953095229570
S1132E303295307F3227207F3227262BFC012083D6
S1132E4084E390E024E330E0F9012081622F2981BA
S1132E50422F50E020E830E002C0359527954A958E
S1132E60E2F72470262BFC01208300000F90DF91F1
S1132E70CF910895CF93DF931F92CDB7DEB78983A7
S1132E8088E290E028E230E0F9012081622F298174
S1132E90422F50E02FEF30E002C0359527954A9538
S1132EA0E2F72095262BFC01208384E390E024E3C1
S1132EB030E0F9012081622F398129E3329F212DED
S1132EC011242695422F50E02FEF30E002C0220F4C
S1132ED0331F4A95E2F720953095598149E3549F71
S1132EE0412D11244695442F50E002C0220F331F78
S1132EF04A95E2F7422F39812DEC329F212D11247E
S1132F00269526952695240F262BFC012083000068
S1132F100F90DF91CF910895CF93DF931F92CDB798
S1132F20DEB789838981882F90E0092E000CAA0BD3
S1132F30BB0B40E050E02EE030E0841B950B2817DB
S1132F40390708F49AC086589F4FFC0184C282E274
S1132F5090E022E230E0F90120812061FC0120832D
S1132F608CC082E290E022E230E0F901208120620C
S1132F70FC01208382C082E290E022E230E0F90189
S1132F8020812064FC01208378C082E290E022E268
S1132F9030E0F90120812068FC0120836EC084E3C5
S1132FA090E024E330E0F90120812460FC012083D7
S1132FB064C088E290E028E230E0F90120812068D2
S1132FC0FC0120835AC088E290E028E230E0F90155
S1132FD020812064FC01208350C088E290E028E234
S1132FE030E0F90120812062FC01208346C088E2A0
S1132FF090E028E230E0F90120812061FC01208387
S11330003CC088E290E028E230E0F90120812860A9
S1133010FC01208332C088E290E028E230E0F9012C
S113302020812460FC01208328C088E290E028E20B
S113303030E0F90120812260FC0120831EC088E277
S113304090E028E230E0F90120812160FC01208336
S113305014C084E390E024E330E0F901208122608D
S1133060FC0120830AC084E390E024E330E0F9010A
S113307020812160FC012083000000000F90DF917B
S1133080CF910895CF93DF931F92CDB7DEB7898395
S11330908981882F90E0092E000CAA0BBB0B40E01D
S11330A050E02EE030E0841B950B2817390708F414
S11330B09AC087579F4FFC01CEC182E290E022E282
S11330C030E0F90120812071FC0120838CC082E270
S11330D090E022E230E0F90120812072FC0120839B
S11330E082C082E290E022E230E0F9012081207483
S11330F0FC01208378C082E290E022E230E0F90112
S113310020812078FC0120836EC084E390E024E3D6
S113311030E0F90120812470FC01208364C088E23E
S113312090E028E230E0F90120812078FC0120833E
S11331305AC088E290E028E230E0F901208120744E
S1133140FC01208350C088E290E028E230E0F901DD
S113315020812072FC01208346C088E290E028E2AE
S113316030E0F90120812071FC0120833CC088E219
S113317090E028E230E0F90120812870FC012083EE
S113318032C088E290E028E230E0F9012081247026
S1133190FC01208328C088E290E028E230E0F901B5
S11331A020812270FC0120831EC088E290E028E286
S11331B030E0F90120812170FC01208314C084E3F4
S11331C090E024E330E0F90120812270FC012083A7
S11331D00AC084E390E024E330E0F9012081217007
S11331E0FC012083000000000F90DF91CF9108952F
S11331F0CF93DF931F92CDB7DEB789838981882F60
S113320090E0009719F0019759F014C08BE290E018
S11332102BE230E0F90120812076FC0120830AC0F2
S11332208BE290E02BE230E0F90120812F69FC0170
S11332302083000000000F90DF91CF910895CF9379
S1133240DF931F92CDB7DEB789838981895F64DEFE
S113325097E08981292F281B822F5EDE898188309F
S113326010F082E03EDC8981893010F081E0C0DF1B
S113327089818E3020F087E034DC80E0B9DF000003
S11332800F90DF91CF910895CF93DF93CDB7DEB741
S113329081E290E021E230E0F90120812C6FFC0111
S11332A0208381E290E021E230E0F90120812C7F4B
S11332B0FC01208384E290E024E230E0F9012081E3
S11332C0266FFC01208384E290E024E230E0F901DF
S11332D02081277FFC01208387E290E02FEFFC010F
S11332E020838AE290E02AE230E0F90120812F690C
S11332F0FC0120838DE290E02FEFFC01208380E32A
S113330090E020E330E0F9012081217FFC0120835B
S113331083E390E023E330E0F90120812F61FC0195
S1133320208382E290E0FC01108285E290E0FC01BF
S1133330108288E290E0FC0110828BE290E0FC01B4
S113334010828EE290E0FC01108281E390E0FC01A7
S1133350108284E390E0FC01108282E290E022E299
S113336030E0F90120812360FC0120830000DF911B
S1133370CF910895CF93DF93CDB7DEB784E490E087
S11333802BE0FC0120838EE690E022E0FC01208308
S113339087E490E02AEFFC0120830000DF91CF91C5
S11333A008951F920F9200905F000F9211248F9343
S11333B09F93AF93BF93CF93DF93CDB7DEB7809145
S11333C0A0029091A102A091A202B091A302019641
S11333D0A11DB11D8093A0029093A102A093A2020B
S11333E0B093A3028091A4028F5F8093A402000093
S11333F0DF91CF91BF91AF919F918F910F900092E8
S11334005F000F901F901895AA1BBB1B51E107C0CA
S1133410AA1FBB1FA617B70710F0A61BB70B881F60
S1133420991F5A95A9F780959095BC01CD010895EF
S113343097FB072E16F4009406D077FD08D0E4DF3E
S113344007FC05D03EF4909581959F4F08957095A3
S113345061957F4F0895EE0FFF1F0024001C0BBEE3
S11334600790F691E02D0994A29FB001B39FC0018B
S1133470A39F700D811D1124911DB29F700D811D9C
S10D34801124911D0895F894FFCF64
S113348A3908061700020CC094D48001494E563AF2
S113349A20202E2043204D54523A2020202E20430F
S11334AA005453563A202020562020414343553A8B
S11334BA20202E2043004C56563A20202E205620F7
S11334CA434F4F4C3A32352E304300415050533A11
S11334DA20202020202020202020202020202000FE
S11334EA4C56563A20202E205620434F4F4C3A2011
S11334FA202E20430041505053313A2020252020C9
S113350A41505053323A202025004250463A202056
S113351A4250523A20202020202020202020000738
S113352A006F002C00FFFFFF00FF20FF0020FFFFB9
S113353A002020FF000707FF00FF0101000101FF2F
S113354A00032020000302200004050400200220B6
S113355A00FF070700FF01FF0020FF2000FF07FF0D
S113356A002020200002070300FF20200030003141
S113357A0032003300340035003600370038003991
S113358A00FF0020202042616C6469672052657341
S113359A696E67202020200020202020202020205F
S11335AA2E2D2D2E202020202020202000202020F7
S11335BA2E2D2D2D2D27202020272D2D2E20202085
S11335CA2000202020272D28292D2D2D2D2D282996
S10B35DA2D2720202020000011
S9030000FC
