:100000008DC00000AAC00000A8C00000A6C000006B
:10001000A4C00000A2C00000A0C000009EC000005C
:100020009CC000009AC0000098C0000096C000006C
:1000300094C0000092C0000090C000008EC000007C
:100040000C94EC1E8AC0000088C0000086C000002E
:100050000C94151A82C0000080C000007EC0000011
:100060007CC000007AC0000078C0000076C00000AC
:1000700074C0000072C0000070C000006EC00000BC
:100080006CC000006AC0000068C0000066C00000CC
:1000900064C00000F409110A2E0A4B0A680A850A96
:1000A000A20ABF0ADC0AF90A160B330B500B6D0BC0
:1000B000A61AAE1AAA1ABA1AB21AB61AC21ABE1AD0
:1000C000E51AED1AE91AF91AF11AF51A011BFD1AC7
:1000D000251B331B2C1B481B3A1B411B561B4F1B5C
:1000E000C21CCC1CD61CE01CEA1CF41CFE1C081D07
:1000F000121D1C1D261D301D3A1D441D4E1D781D50
:10010000821D8C1D961DA01DAA1DB41DBE1DC81DDF
:10011000D21DDC1DE61DF01DFA1D041E11241FBE9C
:10012000CFEFD0E1DEBFCDBF13E0A0E0B1E0ECE364
:10013000FFE300E00BBF02C007900D92AE37B1079E
:10014000D9F724E0AEE7B3E001C01D92A438B207AE
:10015000E1F70E94E50B0C949C1F52CFCF93DF93E5
:10016000CDB7DEB780E092E090930F0480930E0449
:100170008FEF9FEF9093110480931004109213045B
:100180001092120481E092E09093030480930204A1
:100190008FEF9FEF909305048093040481E090E03B
:1001A000909307048093060480E094E09093EB031F
:1001B0008093EA038FEF9FEF9093ED038093EC031E
:1001C00082E090E09093EF038093EE0381E094E06F
:1001D00090937504809374048FEF9FEF909377044E
:1001E0008093760483E090E0909379048093780480
:1001F00080E294E09093F7038093F6038FEF9FEFF4
:100200009093F9038093F80384E090E09093FB03CC
:100210008093FA0380E095E09093DF038093DE0300
:100220008FEF9FEF9093E1038093E00385E090E0F0
:100230009093E3038093E20380E096E090937B0445
:1002400080937A048FEF9FEF90937D0480937C04DA
:1002500086E090E090937F0480937E0480E597E0B1
:100260009093E5038093E4038FEF9FEF9093E70370
:100270008093E60387E090E09093E9038093E8039E
:1002800080E093E09093FD038093FC038FEF9FEF5A
:100290009093FF038093FE0388E090E09093010425
:1002A000809300048AE494E09093F1038093F00338
:1002B0008FEF9FEF9093F3038093F20389E090E038
:1002C0009093F5038093F40383E594E090930904FD
:1002D000809308048FEF9FEF90930B0480930A04A0
:1002E0008AE090E090930D0480930C040000DF916D
:1002F000CF910895EF92FF920F931F93CF93DF93C7
:100300001F92CDB7DEB764E174E08EE094E071D364
:1003100080911B0489838091D0039981981781F083
:100320008091D9039091DA03A091DB03B091DC03B3
:100330008093D1039093D203A093D303B093D403BB
:1003400089818093D0032091D9033091DA034091C1
:10035000DB035091DC038091D1039091D203A091F3
:10036000D303B091D40379018A01E81AF90A0A0B80
:100370001B0BD801C701883E9340A105B10520F0B1
:1003800081E00E94131E03C080E00E94131E6CE1F6
:1003900074E082E094E02DD364E274E08AEE93E0AE
:1003A00028D36CE274E084E794E023D364E374E040
:1003B00086EF93E01ED364E474E08AE794E019D3F7
:1003C0006CE474E084EE93E014D364E574E08CEFA5
:1003D00093E00FD36CE574E080EF93E00AD364E61A
:1003E00074E088E094E005D300000F90DF91CF9196
:1003F0001F910F91FF90EF900895CF93DF93CDB7AA
:10040000DEB76CE374E08EED93E08FD30000DF91F4
:10041000CF910895CF93DF93CDB7DEB780914D0490
:10042000DF91CF910895CF93DF931F92CDB7DEB7C1
:10043000198280914E04282F80914F04882F90E0DC
:10044000880F991F282B80915004882F90E081708D
:100450009927892B11F484E001C080E0282B80913A
:100460005204882F90E081709927892B11F488E03D
:1004700001C080E0822B898389810F90DF91CF9129
:100480000895CF93DF931F92CDB7DEB7898389811B
:10049000882F90E0880F991F880F991F880F991F48
:1004A0008C5E9B4F0F90DF91CF910895CF93DF9398
:1004B000CDB7DEB780911404282F30E08091150469
:1004C000882F90E0982F8827822B932B90937F037F
:1004D00080937E0380917E0390917F03969587950C
:1004E000969587959C01ABE7B4E10E946B1F9695AA
:1004F000879590937F0380937E0380911A04881FD1
:100500008827881F8093840380911A04829586959A
:1005100086958370817080938503809185038823FD
:1005200049F482E290E022E230E0F9012081FC010E
:10053000208309C082E290E022E230E0F9012081CC
:100540002460FC01208380911A0482958F70817051
:100550008093870380912204282F30E08091230428
:10056000882F90E0982F8827822B932B90938E03CF
:1005700080938D0380918D0390918E03969587953E
:10058000969587959C01ABE7B4E10E946B1F969509
:10059000879590938E0380938D0380915404282F28
:1005A00030E080915504882F90E0982F8827822B87
:1005B000932B2AE030E0B9010E94331FCB019093C6
:1005C00092038093910380915604282F30E080910C
:1005D0005704882F90E0982F8827822B932B2AE0AE
:1005E00030E0B9010E94331FCB01909394038093B4
:1005F000930380912C04282F30E080912D04882FC4
:1006000090E0982F8827822B932B2AE030E0B901C5
:100610000E94331FCB0190939603809395038091A2
:100620002E04282F30E080912F04882F90E0982FFF
:100630008827822B932B2AE030E0B9010E94331FD8
:10064000CB0190939803809397038091D903909165
:10065000DA03A091DB03B091DC0388399A43A1054A
:10066000B105E8F08091D6038823C9F480E290E0D8
:10067000FC018081882F90E08170992721E0892BEF
:1006800009F020E0822F8093A8038091A90388239A
:1006900019F487E00E940A1B81E08093A90380E29D
:1006A00090E0FC018081882F90E082709927892B4F
:1006B00021F481E08093A70302C01092A7038091E8
:1006C0004604282F30E080914704882F90E0982F2F
:1006D0008827822B932B9093AC038093AB0380915C
:1006E0004B04882F90E0A0E0B0E0867C9A78A97A4D
:1006F000BB272AE030E040E050E0BC01CD010E9481
:10070000461FDA01C9019093AF038093AE03809135
:100710004B0481708093B0038091B003813051F419
:100720008091AE039091AF038F549C4F21E0FC0168
:10073000208308C08091AE039091AF038F549C4FEB
:10074000FC01108280914A0481708093BF038091E4
:100750005F04282F30E080915E04882F90E0982F6E
:100760008827822B932B9093CC038093CB0380918B
:100770006704282F30E080916604882F90E0982F3E
:100780008827822B932B9093010180930001209165
:10079000CB033091CC03809100019091010182172D
:1007A000930748F48091CB039091CC039093A403DA
:1007B0008093A30308C08091000190910101909360
:1007C000A4038093A30380915D04282F30E08091DF
:1007D0005C04882F90E0982F8827822B932B90938E
:1007E000C7038093C60380916504282F30E0809171
:1007F0006404882F90E0982F8827822B932B909366
:10080000CA038093C9032091C9033091CA03809120
:10081000C6039091C7038217930748F48091C903D8
:100820009091CA039093A6038093A50308C080917A
:10083000C6039091C7039093A6038093A50380916C
:10084000A80380933C048091A70380933D0480918A
:10085000AA0380933E041092410480910E0180937C
:1008600043040000DF91CF910895CF93DF9300D030
:10087000CDB7DEB78A8319828A818830C0F08DEDCA
:1008800090E0FC018081882F90E02A81222F30E0C7
:100890002850310902C0959587952A95E2F7817015
:1008A000992721E0892B09F020E0298315C08CEDE0
:1008B00090E0FC018081882F90E02A81222F30E097
:1008C00002C0959587952A95E2F78170992721E0D6
:1008D000892B09F020E0298389810F900F90DF9107
:1008E000CF910895CF93DF9300D0CDB7DEB788EDD9
:1008F00090E0FC011082198256C08DEE90E02981B3
:10090000222F30E022953295307F3227207F322708
:100910002860FC0120838EEE90E0FC0110828FEEB7
:1009200090E0FC01108280EF90E0FC01108281EFEA
:1009300090E0FC01108282EF90E0FC01108283EFD6
:1009400090E0FC01108284EF90E0FC01108285EFC2
:1009500090E0FC01108286EF90E0FC01108287EFAE
:1009600090E0FC0110821A8218C08DEE90E029817F
:10097000222F30E022953295307F3227207F322798
:10098000322F2A81232B2860FC0120838AEF90E0FC
:10099000FC0110828A818F5F8A838A81883028F3E4
:1009A00089818F5F898389818F3008F4A6CF82EE99
:1009B00090E022E0FC01208383EE90E02CE0FC013B
:1009C000208384EE90E027E3FC0120838BED90E010
:1009D000FC01108288ED90E028ED30E0F9012081E3
:1009E0002260FC01208300000F900F90DF91CF91D7
:1009F0000895CF93DF9300D000D01F92CDB7DEB71C
:100A00009B838A837D836C838DEE90E02A813B817A
:100A1000F901248135812295207FFC0120838A8180
:100A20009B81FC018481958120DF882309F450C0DB
:100A300083EF90E02A813B81F90120813181369555
:100A400027953695279536952795FC01208382EFCB
:100A500090E02A813B81F901208131812295220F8A
:100A6000207EFC01208381EF90E0FC01108280EF6A
:100A700090E024E0FC01208387EF90E02A813B8115
:100A8000F90122813381369527953695279536953C
:100A90002795FC01208386EF90E02A813B81F901B4
:100AA000228133812295220F207EFC01208385EF55
:100AB00090E0FC01108284EF90E0FC0110828FEE48
:100AC00090E028ECFC0120838EEE90E0FC01108287
:100AD00019821FC08DEE90E02A813B81F9012481AB
:100AE0003581322F3295307F2981232B2860FC01FC
:100AF00020838981882F90E02C813D81820F931F74
:100B00002AEF30E0F9012081FC01208389818F5F89
:100B1000898389818830F0F200000F900F900F9048
:100B20000F900F90DF91CF910895CF93DF9300D076
:100B300000D01F92CDB7DEB79B838A837D836C8301
:100B400019821FC08DEE90E02A813B81F90124813A
:100B50003581322F3295307F2981232B2860FC018B
:100B600020838AEF90E02981222F30E04C815D8143
:100B7000240F351FF9012081FC01208389818F5FBB
:100B8000898389818830F0F28DEE90E02A813B8163
:100B9000F901248135812295207FFC0120838A81FF
:100BA0009B81FC018481958160DE882309F444C027
:100BB0008EEE90E0FC01108283EF90E02A813B8171
:100BC000F9012081318136952795369527953695FF
:100BD0002795FC01208382EF90E02A813B81F90177
:100BE000208131812295220F207EFC01208381EF1C
:100BF00090E0FC01108280EF90E0FC01108287EF12
:100C000090E0FC01108286EF90E0FC01108285EFFD
:100C100090E0FC01108284EF90E0FC0110828EEEE7
:100C200090E0FC0110828FEE90E028E4FC0120832C
:100C30008EEE90E0FC01108200000F900F900F905C
:100C40000F900F90DF91CF910895CF93DF9300D055
:100C500000D0CDB7DEB79A8389837C836B838B8189
:100C60009C81FC0181818431D1F48B819C81FC01C8
:100C70008081882F90E0875F9E4FFC01808160E03B
:100C8000AAD08B819C81FC0111828B819C81FC010B
:100C9000808121E0280F8B819C81FC0120838B8146
:100CA0009C81FC018081843021F48B819C81FC013A
:100CB00010828B819C81FC018081682F70E08B8188
:100CC0009C81FC018181882F90E049815A81E4E177
:100CD000E69F9001E79F300D1124240F351F820FEE
:100CE000931FFC01808161E076D08B819C81FC01A7
:100CF000818121E0280F8B819C81FC0121830000F0
:100D00000F900F900F900F90DF91CF910895CF9398
:100D1000DF9300D0CDB7DEB719821A8289819A811C
:100D20000F900F90DF91CF910895CF93DF93CDB7C0
:100D3000DEB7C455D1090FB6F894DEBF0FBECDBFE4
:100D40009E012D5A3F4FF90191838083198222C061
:100D50001A821AC08981482F50E08A81882F90E03A
:100D600064E1649F9001659F300D1124AE014F5FD7
:100D70005F4F240F351F820F931F029620E1FC0165
:100D800020838A818F5F8A838A81843118F38981E5
:100D90008F5F898389818430D8F2CE018D5A9F4F2D
:100DA000FC018081918120E5FE013396DC010190F8
:100DB0000D922A95E1F7CE018D5A9F4FFC0180815B
:100DC0009181CC5ADF4F0FB6F894DEBF0FBECDBF76
:100DD000DF91CF9108950F931F93CF93DF9300D0AE
:100DE00000D0CDB7DEB78B836C830EE210E08B8131
:100DF000B6D4F80180838C81813051F485E290E093
:100E000025E230E0F90120812064FC01208309C043
:100E100085E290E025E230E0F90120812F7BFC01A2
:100E2000208385E290E025E230E0F9012081206115
:100E3000FC0120831A8219820EC085E290E025E22F
:100E400030E0F90120812F7EFC01208389819A8185
:100E500001969A83898389819A81843691056CF3FE
:100E600000000F900F900F900F90DF91CF911F9186
:100E70000F9108958F92AF92CF92EF920F93CF93ED
:100E8000DF93CDB7DEB7812CA12CC12CE12C00E083
:100E900020E04FE16FE181E07AD00F2EFFEE8F2E40
:100EA000F02D0F2EFFEEAF2EF02D0F2EFFEECF2EDA
:100EB000F02D0F2EFFEEEF2EF02D0FEE2FEE4FEE5A
:100EC0006FEE82E064D00F2EFEE18F2EF02D0F2EFC
:100ED000FEE1AF2EF02D0F2EFEE1CF2EF02D0F2EC6
:100EE000FEE1EF2EF02D0EE12EE14EE16EE183E00A
:100EF0004ED0812CA12CC12CE12C0FEF2FEF4FEF06
:100F00006FEF84E044D00F2EFFEE8F2EF02D0F2ECA
:100F1000FFEEAF2EF02D0F2EFFEECF2EF02D0F2E69
:100F2000FFEEEF2EF02D0FEF2FEF4FEF6FEF85E07D
:100F30002ED0812C6894AA24A1F80F2EF5E1CF2E93
:100F4000F02D0F2EFAE0EF2EF02D04E02AE045E11F
:100F500068E086E01CD00F2EFFE18F2EF02D0F2EC3
:100F6000FFE1AF2EF02D0F2EFFE1CF2EF02DE12C63
:100F700000E020E040E060E087E009D00000DF9181
:100F8000CF910F91EF90CF90AF908F9008958F9267
:100F9000AF92CF92EF920F93CF93DF93CDB7DEB79F
:100FA00029970FB6F894DEBF0FBECDBF89836A8341
:100FB0004B832C830D83EE82CF82A886898689811C
:100FC000882F90E00896880F880F880F60E003DF75
:100FD00061E08A8100DF61E08B81FDDE61E08C8170
:100FE000FADE61E08D81F7DE61E08E81F4DE61E0A2
:100FF0008F81F1DE61E08885EEDE61E08985EBDEE0
:1010000060E082E0E8DE000029960FB6F894DEBFCB
:101010000FBECDBFDF91CF910F91EF90CF90AF90EA
:101020008F900895CF93DF93CDB7DEB727970FB694
:10103000F894DEBF0FBECDBF9B838A837D836C8314
:101040004E832F83198225C08E81682F70E089819D
:10105000282F30E08F81882F90E0820F931F298105
:10106000222F30E04C815D81240F351FD901EC9196
:101070004A815B81F4E1F69F9001F79F300D1124C6
:10108000240F351F820F931FDC01EC9389818F5F42
:1010900089838981882F90E02C813D81820F931F65
:1010A000FC018081882351F08F81282F30E08981D5
:1010B000882F90E0820F931F449734F20000279608
:1010C0000FB6F894DEBF0FBECDBFDF91CF9108956C
:1010D000CF93DF9300D0CDB7DEB71A8219820DC04F
:1010E00089819A818E5F9E4FFC01808160E073DE72
:1010F00089819A8101969A83898389819A81079748
:101100007CF300000F900F90DF91CF910895CF9363
:10111000DF9300D0CDB7DEB79A838983ABDE0000C2
:101120000F900F90DF91CF910895CF93DF9300D070
:1011300000D0CDB7DEB79A8389837C836B838981A6
:101140009A814BE06EE030D189819A8124E043E0BE
:1011500060E171E067DF4B815C819A01ADECBCEC32
:101160000E946B1F9695879596958795969587957E
:10117000880F991F9C01220F331F220F331F820FEC
:10118000931F9A01281B390BC901282F89819A8145
:10119000422F6AE009D18B819C819C01ADECBCECB3
:1011A0000E946B1F9695879596958795969587953E
:1011B0009C838B834B815C819A01ADECBCEC0E94DB
:1011C0006B1F969587959695879596958795880F29
:1011D000991F9C01220F331F220F331F820F931F71
:1011E0009A01281B390BC901282F89819A81422F26
:1011F00066E0DAD08B819C819C01ADECBCEC0E9456
:101200006B1F9695879596958795969587959C8360
:101210008B834B815C819A01ADECBCEC0E946B1F0F
:10122000969587959695879596958795880F991F9A
:101230009C01220F331F220F331F820F931F9A012D
:10124000281B390BC901282F89819A81422F60E020
:10125000ABD000000F900F900F900F90DF91CF91C7
:101260000895CF93DF9300D000D0CDB7DEB79A8337
:1012700089837C836B8389819A814DE060E194D07E
:1012800089819A812EE040E062E171E0CBDE8981C4
:101290009A8128E043E060E171E0C4DE4B815C812B
:1012A0009A01ADECBCEC0E946B1F969587959695C4
:1012B000879596958795880F991F9C01220F331F5C
:1012C000220F331F820F931F9A01281B390BC9016C
:1012D000282F89819A81422F6AE066D08B819C8178
:1012E0009C01ADECBCEC0E946B1F96958795969582
:1012F0008795969587959C838B834B815C819A011A
:10130000ADECBCEC0E946B1F9695879596958795E2
:1013100096958795880F991F9C01220F331F220FE6
:10132000331F820F931F9A01281B390BC901282FE5
:1013300089819A81422F64E037D08B819C819C0106
:10134000ADECBCEC0E946B1F9695879596958795A2
:10135000969587959C838B834B815C819A01ADEC3C
:10136000BCEC0E946B1F96958795969587959695F0
:101370008795880F991F9C01220F331F220F331F5F
:10138000820F931F9A01281B390BC901282F8981CD
:101390009A81422F60E008D000000F900F900F90CC
:1013A0000F90DF91CF910895CF93DF9300D000D0BD
:1013B000CDB7DEB79A8389836B834C838C81882F6A
:1013C00090E0092E000CAA0BBB0B40E050E02DE092
:1013D00030E0841B950B2817390708F49BC1865B06
:1013E0009F4FFC010C94621F89819A812B8140E000
:1013F00064E171E017DE89819A812B8141E068E127
:1014000071E010DE89819A812B8142E068E171E010
:1014100009DE89819A812B8143E064E171E002DE7B
:1014200096C189819A812B8140E06CE171E0FADDFF
:1014300089819A812B8141E060E271E0F3DD89814D
:101440009A812B8142E060E271E0ECDD89819A8132
:101450002B8143E060E271E0E5DD79C189819A8109
:101460002B8140E064E171E0DDDD89819A812B818F
:1014700041E064E271E0D6DD89819A812B8142E00E
:1014800068E271E0CFDD89819A812B8143E064E1DC
:1014900071E0C8DD5CC189819A812B8140E064E103
:1014A00071E0C0DD89819A812B8141E064E271E0C5
:1014B000B9DD89819A812B8142E06CE271E0B2DD75
:1014C00089819A812B8143E064E171E0ABDD3FC10A
:1014D00089819A812B8140E060E371E0A3DD8981FD
:1014E0009A812B8141E064E371E09CDD89819A81DE
:1014F0002B8142E068E371E095DD89819A812B813F
:1015000043E06CE371E08EDD22C189819A812B81F9
:1015100040E064E171E086DD89819A812B8141E0C0
:1015200060E471E07FDD89819A812B8142E06CE289
:1015300071E078DD89819A812B8143E064E171E07B
:1015400071DD05C189819A812B8140E064E171E000
:1015500069DD89819A812B8141E060E471E062DD7F
:1015600089819A812B8142E064E471E05BDD8981AD
:101570009A812B8143E064E171E054DDE8C0898108
:101580009A812B8140E064E171E04CDD89819A8190
:101590002B8141E060E271E045DD89819A812B81F8
:1015A00042E068E471E03EDD89819A812B8143E06D
:1015B00068E471E037DDCBC089819A812B8140E0FE
:1015C00064E171E02FDD89819A812B8141E06CE437
:1015D00071E028DD89819A812B8142E064E471E029
:1015E00021DD89819A812B8143E06CE471E01ADD71
:1015F000AEC089819A812B8140E064E171E012DD07
:1016000089819A812B8141E06CE471E00BDD898155
:101610009A812B8142E06CE271E004DD89819A813C
:101620002B8143E060E271E0FDDC91C089819A8109
:101630002B8140E060E571E0F5DC89819A812B81A6
:1016400041E060E571E0EEDC89819A812B8142E026
:1016500060E571E0E7DC89819A812B8143E060E5F8
:1016600071E0E0DC74C089819A812B8140E068E1FF
:1016700071E0D8DC89819A812B8141E068E171E0D9
:10168000D1DC89819A812B8142E064E571E0CADC7A
:1016900089819A812B8143E068E471E0C3DC57C003
:1016A00089819A812B8140E068E171E0BBDC89810E
:1016B0009A812B8141E068E171E0B4DC89819A81F3
:1016C0002B8142E068E171E0ADDC89819A812B8158
:1016D00043E064E171E0A6DC3AC089819A812B8104
:1016E00040E064E171E09EDC89819A812B8141E0D8
:1016F00068E571E097DC89819A812B8142E068E599
:1017000071E090DC89819A812B8143E064E171E092
:1017100089DC1DC089819A812B8140E064E171E000
:1017200081DC89819A812B8141E064E171E07ADC7E
:1017300089819A812B8142E064E171E073DC8981C7
:101740009A812B8143E064E171E06CDC00000000D1
:101750000F900F900F900F90DF91CF910895CF933E
:10176000DF9300D01F92CDB7DEB78B8319821A8228
:1017700022C08B81882F90E02A81222F30E002C086
:10178000959587952A95E2F7817099272A81222FCE
:1017900030E047E050E0BA01621B730B9B0102C0CE
:1017A000880F991F2A95E2F7982F8981892B8983C1
:1017B0008A818F5F8A838A818830D8F289810F90ED
:1017C0000F900F90DF91CF910895CF93DF93CDB716
:1017D000DEB7CE5AD2400FB6F894DEBF0FBECDBFF3
:1017E0000E945F1E75DC46DB0E9419190E94D51EFF
:1017F0000E94AE0077D8198619821A861A8282E072
:101800008B871C861B821C821D821E8278940E94FC
:10181000701A80E00E940A1B7ADA9A8B898BCE01BB
:10182000439683DACE01439620E040E06CE571E018
:10183000F9DBCE01439620E041E061E771E0F2DBA5
:10184000CE01439620E042E066E871E0EBDBCE019A
:10185000439620E043E06BE971E0E4DBCE018D5973
:101860009F4F63DACE018D599F4F20E040E060EB3F
:1018700071E0D8DBCE018D599F4F20E041E065EC4F
:1018800071E0D0DBCE018D599F4F20E042E06AED40
:1018900071E0C8DBCE018D599F4F20E043E06FEE31
:1018A00071E0C0DBCE018D549F4F3FDACE018D5FDA
:1018B0009E4F3BDACE018D5F9E4F20E040E064E01A
:1018C00072E0B0DBCE018D5F9E4F20E041E060EB27
:1018D00071E0A8DBCE018D5F9E4F20E042E065EC19
:1018E00071E0A0DBCE018D5F9E4F20E043E069E117
:1018F00072E098DBCE018D5A9E4F17DACE018D5AD9
:101900009E4F20E040E06EE272E08CDBCE018D5A0B
:101910009E4F20E041E063E472E084DBCE018D5A0B
:101920009E4F20E042E068E572E07CDBCE018D5AFC
:101930009E4F20E043E06DE672E074DBCE018D55F2
:101940009E4FF3D9CE018D559E4F20E040E062E8D6
:1019500072E068DBCE018D559E4F20E041E067E9E3
:1019600072E060DBCE018D559E4F20E042E06CEAD4
:1019700072E058DBCE018D559E4F20E043E061ECD4
:1019800072E050DBCE018D509E4FCFD9CE018D50ED
:101990009E4F20E040E060EB71E044DBCE018D50D3
:1019A0009E4F20E041E066ED72E03CDBCE018D50C1
:1019B0009E4F20E042E065EC71E034DBCE018D50BB
:1019C0009E4F20E043E066ED72E02CDBCE018D5BA4
:1019D0009D4FABD9CE018D5B9D4F20E040E06BEE7B
:1019E00072E020DBCE018D5B9D4F20E041E060E0A6
:1019F00073E018DBCE018D5B9D4F20E042E066ED89
:101A000072E010DBCE018D5B9D4F20E043E066ED80
:101A100072E008DBCE01439698878F83CE01439610
:101A2000092E000CAA0BBB0B9E012D563D4FF90150
:101A300080839183A283B383CE018D5F9E4F092E55
:101A4000000CAA0BBB0B9E012D563D4FF901848360
:101A50009583A683B783CE018D599F4F092E000C25
:101A6000AA0BBB0B9E012D563D4FF9018087918734
:101A7000A287B387CE018D5A9E4F092E000CAA0B68
:101A8000BB0B9E012D563D4FF90184879587A68794
:101A9000B787CE018D559E4F092E000CAA0BBB0BAC
:101AA0009E012D563D4FF901808B918BA28BB38BFC
:101AB000CE018D509E4F092E000CAA0BBB0B9E0130
:101AC0002D563D4FF901848B958BA68BB78BCE019C
:101AD0008D5B9D4F092E000CAA0BBB0B9E012D5652
:101AE0003D4FF901808F918FA28FB38FCE01439626
:101AF00098878F838091DD03882349F01092DD035E
:101B00009E012F5E3F4F8F819885B9019ED820910D
:101B1000D9033091DA034091DB035091DC038D85CA
:101B20009E85AF85B889281739074A075B0791F06A
:101B30008091D9039091DA03A091DB03B091DC038B
:101B40008D879E87AF87B88B89818F5F89838A81D4
:101B50008F5F8A8389818A3010F40C940F190E9458
:101B60007A010E945602CE018D5F9E4F2F813885EB
:101B70002817390709F08DC34091A3035091A4039E
:101B80009A01ADECBCEC0E946B1F969587959695DB
:101B9000879596958795880F991F9C01220F331F73
:101BA000220F331F820F931F9A01281B390BC90183
:101BB00020E3280FCE018D5F9E4FFC01228B809188
:101BC000A3039091A4039C01ADECBCEC0E946B1F9D
:101BD000AC015695479556954795569547959A0168
:101BE000ADECBCEC0E946B1F9695879596958795FA
:101BF00096958795880F991F9C01220F331F220FFE
:101C0000331F820F931F9A01281B390BC90120E350
:101C1000280FCE018D5F9E4FFC01208B8091A30386
:101C20009091A40396958795969587959C01ABE72F
:101C3000B4E10E946B1FAC01569547959A01ADEC3B
:101C4000BCEC0E946B1F9695879596958795969507
:101C50008795880F991F9C01220F331F220F331F76
:101C6000820F931F9A01281B390BC90120E3280F0B
:101C7000CE018D5F9E4FFC0127874091A5035091B7
:101C8000A6039A01ADECBCEC0E946B1F969587955C
:101C90009695879596958795880F991F9C01220F99
:101CA000331F220F331F820F931F9A01281B390BFA
:101CB000C90120E3280FCE018D5F9E4FFC012783D1
:101CC0008091A5039091A6039C01ADECBCEC0E9411
:101CD0006B1FAC0156954795569547955695479578
:101CE0009A01ADECBCEC0E946B1F9695879596957A
:101CF000879596958795880F991F9C01220F331F12
:101D0000220F331F820F931F9A01281B390BC90121
:101D100020E3280FCE018D5F9E4FFC01258380912B
:101D2000A5039091A60396958795969587959C0116
:101D3000ABE7B4E10E946B1FAC01569547959A0141
:101D4000ADECBCEC0E946B1F969587959695879598
:101D500096958795880F991F9C01220F331F220F9C
:101D6000331F820F931F9A01281B390BC90120E3EF
:101D7000280FCE018D5F9E4FFC01248340917E038E
:101D800050917F039A01ADECBCEC0E946B1F9695BD
:101D900087959695879596958795880F991F9C01AD
:101DA000220F331F220F331F820F931F9A01281B0C
:101DB000390BC90120E3280FCE018D5F9E4FFC0136
:101DC000228F80917E0390917F039C01ADECBCEC4F
:101DD0000E946B1FAC0156954795569547955695B1
:101DE00047959A01ADECBCEC0E946B1F96958795C8
:101DF0009695879596958795880F991F9C01220F38
:101E0000331F220F331F820F931F9A01281B390B98
:101E1000C90120E3280FCE018D5F9E4FFC01218F69
:101E200080917E0390917F039695879596958795EF
:101E30009C01ABE7B4E10E946B1FAC01569547953E
:101E40009A01ADECBCEC0E946B1F96958795969518
:101E5000879596958795880F991F9C01220F331FB0
:101E6000220F331F820F931F9A01281B390BC901C0
:101E700020E3280FCE018D5F9E4FFC01208F409103
:101E80008D0350918E039A01ADECBCEC0E946B1F48
:101E9000969587959695879596958795880F991F1E
:101EA0009C01220F331F220F331F820F931F9A01B1
:101EB000281B390BC90120E3280FCE018D5F9E4FEF
:101EC000FC0126A380918D0390918E039C01ADECC3
:101ED000BCEC0E946B1FAC015695479556954795F3
:101EE000569547959A01ADECBCEC0E946B1F9695F8
:101EF00087959695879596958795880F991F9C014C
:101F0000220F331F220F331F820F931F9A01281BAA
:101F1000390BC90120E3280FCE018D5F9E4FFC01D4
:101F200024A380918D0390918E0396958795969525
:101F300087959C01ABE7B4E10E946B1FAC015695FD
:101F400047959A01ADECBCEC0E946B1F9695879566
:101F50009695879596958795880F991F9C01220FD6
:101F6000331F220F331F820F931F9A01281B390B37
:101F7000C90120E3280FCE018D5F9E4FFC0123A3F2
:101F80004091AB035091AC039A01ADECBCEC0E94C4
:101F90006B1F969587959695879596958795880F4B
:101FA000991F9C01220F331F220F331F820F931F93
:101FB0009A01281B390BC90120E3280FCE018D5F40
:101FC0009E4FFC0127A78091AB039091AC039C012D
:101FD000ADECBCEC0E946B1FAC0156954795569535
:101FE0004795569547959A01ADECBCEC0E946B1F46
:101FF000969587959695879596958795880F991FBD
:102000009C01220F331F220F331F820F931F9A014F
:10201000281B390BC90120E3280FCE018D5F9E4F8D
:10202000FC0125A78091AB039091AC039695879511
:10203000969587959C01ABE7B4E10E946B1FAC01BC
:10204000569547959A01ADECBCEC0E946B1F969596
:1020500087959695879596958795880F991F9C01EA
:10206000220F331F220F331F820F931F9A01281B49
:10207000390BC90120E3280FCE018D5F9E4FFC0173
:1020800024A74091990350919A039A01ADECBCECBE
:102090000E946B1F9695879596958795969587953F
:1020A000880F991F9C01220F331F220F331F820FAD
:1020B000931F9A01281B390BC90120E3280FCE0179
:1020C0008D5F9E4FFC0122AF8091990390919A03FE
:1020D0009C01ADECBCEC0E946B1FAC015695479582
:1020E00056954795569547959A01ADECBCEC0E94E4
:1020F0006B1F969587959695879596958795880FEA
:10210000991F9C01220F331F220F331F820F931F31
:102110009A01281B390BC90120E3280FCE018D5FDE
:102120009E4FFC0120AF8091990390919A03969560
:102130008795969587959C01ABE7B4E10E946B1F4C
:10214000AC01569547959A01ADECBCEC0E946B1F13
:10215000969587959695879596958795880F991F5B
:102160009C01220F331F220F331F820F931F9A01EE
:10217000281B390BC90120E3280FCE018D5F9E4F2C
:10218000FC0127AB40919103509192039A01ADEC71
:10219000BCEC0E946B1F96958795969587959695B2
:1021A0008795880F991F9C01220F331F220F331F21
:1021B000820F931F9A01281B390BC90120E3280FB6
:1021C000CE018D5F9E4F8C5B9F4FFC0120838091E1
:1021D0009103909192039C01ADECBCEC0E946B1FAB
:1021E000AC015695479556954795569547959A0152
:1021F000ADECBCEC0E946B1F9695879596958795E4
:1022000096958795880F991F9C01220F331F220FE7
:10221000331F820F931F9A01281B390BC90120E33A
:10222000280FCE018D5F9E4F8D5B9F4FFC01208359
:1022300080919103909192039695879596958795B5
:102240009C01ABE7B4E10E946B1FAC01569547952A
:102250009A01ADECBCEC0E946B1F96958795969504
:10226000879596958795880F991F9C01220F331F9C
:10227000220F331F820F931F9A01281B390BC901AC
:1022800020E3280FCE018D5F9E4F8E5B9F4FFC0198
:102290002083CE018D599F4F2F813885281739070C
:1022A00009F0B2C340917E0350917F039A01ADECD7
:1022B000BCEC0E946B1F9695879596958795969591
:1022C0008795880F991F9C01220F331F220F331F00
:1022D000820F931F9A01281B390BC90120E3280F95
:1022E000CE018D599F4FFC01268380917E039091F2
:1022F0007F039C01ADECBCEC0E946B1FAC015695BA
:10230000479556954795569547959A01ADECBCEC87
:102310000E946B1F969587959695879596958795BC
:10232000880F991F9C01220F331F220F331F820F2A
:10233000931F9A01281B390BC90120E3280FCE01F6
:102340008D599F4FFC01258380917E0390917F03DF
:1023500096958795969587959C01ABE7B4E10E9489
:102360006B1FAC01569547959A01ADECBCEC0E94F1
:102370006B1F969587959695879596958795880F67
:10238000991F9C01220F331F220F331F820F931FAF
:102390009A01281B390BC90120E3280FCE018D5962
:1023A0009F4FFC01248340918D0350918E039A012D
:1023B000ADECBCEC0E946B1F969587959695879522
:1023C00096958795880F991F9C01220F331F220F26
:1023D000331F820F931F9A01281B390BC90120E379
:1023E000280FCE018D599F4FFC01228B80918D03C8
:1023F00090918E039C01ADECBCEC0E946B1FAC0174
:102400005695479556954795569547959A01ADEC43
:10241000BCEC0E946B1F969587959695879596952F
:102420008795880F991F9C01220F331F220F331F9E
:10243000820F931F9A01281B390BC90120E3280F33
:10244000CE018D599F4FFC01208B80918D0390917F
:102450008E0396958795969587959C01ABE7B4E199
:102460000E946B1FAC01569547959A01ADECBCECF0
:102470000E946B1F9695879596958795969587955B
:10248000880F991F9C01220F331F220F331F820FC9
:10249000931F9A01281B390BC90120E3280FCE0195
:1024A0008D599F4FFC0127874091AB035091AC039E
:1024B0009A01ADECBCEC0E946B1F969587959695A2
:1024C000879596958795880F991F9C01220F331F3A
:1024D000220F331F820F931F9A01281B390BC9014A
:1024E00020E3280FCE018D599F4FFC01238F80914F
:1024F000AB039091AC039C01ADECBCEC0E946B1F54
:10250000AC015695479556954795569547959A012E
:10251000ADECBCEC0E946B1F9695879596958795C0
:1025200096958795880F991F9C01220F331F220FC4
:10253000331F820F931F9A01281B390BC90120E317
:10254000280FCE018D599F4FFC01218F8091AB0345
:102550009091AC0396958795969587959C01ABE7EE
:10256000B4E10E946B1FAC01569547959A01ADEC02
:10257000BCEC0E946B1F96958795969587959695CE
:102580008795880F991F9C01220F331F220F331F3D
:10259000820F931F9A01281B390BC90120E3280FD2
:1025A000CE018D599F4FFC01208F4091990350918E
:1025B0009A039A01ADECBCEC0E946B1F969587952F
:1025C0009695879596958795880F991F9C01220F60
:1025D000331F220F331F820F931F9A01281B390BC1
:1025E000C90120E3280FCE018D599F4FFC0126A37E
:1025F0008091990390919A039C01ADECBCEC0E94F0
:102600006B1FAC015695479556954795569547953E
:102610009A01ADECBCEC0E946B1F96958795969540
:10262000879596958795880F991F9C01220F331FD8
:10263000220F331F820F931F9A01281B390BC901E8
:1026400020E3280FCE018D599F4FFC0124A38091D8
:10265000990390919A0396958795969587959C01F5
:10266000ABE7B4E10E946B1FAC01569547959A0108
:10267000ADECBCEC0E946B1F96958795969587955F
:1026800096958795880F991F9C01220F331F220F63
:10269000331F820F931F9A01281B390BC90120E3B6
:1026A000280FCE018D599F4FFC0123A34091910328
:1026B000509192039A01ADECBCEC0E946B1F969571
:1026C00087959695879596958795880F991F9C0174
:1026D000220F331F220F331F820F931F9A01281BD3
:1026E000390BC90120E3280FCE018D599F4FFC0102
:1026F00020AB80919103909192039C01ADECBCECD6
:102700000E946B1FAC015695479556954795569577
:1027100047959A01ADECBCEC0E946B1F969587958E
:102720009695879596958795880F991F9C01220FFE
:10273000331F220F331F820F931F9A01281B390B5F
:10274000C90120E3280FCE018D599F4FFC0127A717
:102750008091910390919203969587959695879590
:102760009C01ABE7B4E10E946B1FAC015695479505
:102770009A01ADECBCEC0E946B1F969587959695DF
:10278000879596958795880F991F9C01220F331F77
:10279000220F331F820F931F9A01281B390BC90187
:1027A00020E3280FCE018D599F4FFC0126A74091B1
:1027B0009303509194039A01ADECBCEC0E946B1F03
:1027C000969587959695879596958795880F991FE5
:1027D0009C01220F331F220F331F820F931F9A0178
:1027E000281B390BC90120E3280FCE018D599F4FBB
:1027F000FC0122AF80919303909194039C01ADEC76
:10280000BCEC0E946B1FAC015695479556954795B9
:10281000569547959A01ADECBCEC0E946B1F9695BE
:1028200087959695879596958795880F991F9C0112
:10283000220F331F220F331F820F931F9A01281B71
:10284000390BC90120E3280FCE018D599F4FFC01A0
:1028500021AF8091930390919403969587959695D7
:1028600087959C01ABE7B4E10E946B1FAC015695C4
:1028700047959A01ADECBCEC0E946B1F969587952D
:102880009695879596958795880F991F9C01220F9D
:10289000331F220F331F820F931F9A01281B390BFE
:1028A000C90120E3280FCE018D599F4FFC0120AFB5
:1028B00040919503509196039A01ADECBCEC0E94B7
:1028C0006B1F969587959695879596958795880F12
:1028D000991F9C01220F331F220F331F820F931F5A
:1028E0009A01281B390BC90120E3280FCE018D590D
:1028F0009F4F8F5B9F4FFC012083809195039091A8
:1029000096039C01ADECBCEC0E946B1FAC0156958C
:10291000479556954795569547959A01ADECBCEC71
:102920000E946B1F969587959695879596958795A6
:10293000880F991F9C01220F331F220F331F820F14
:10294000931F9A01281B390BC90120E3280FCE01E0
:102950008D599F4F805C9F4FFC01208340919703CE
:10296000509198039A01ADECBCEC0E946B1F9695B8
:1029700087959695879596958795880F991F9C01C1
:10298000220F331F220F331F820F931F9A01281B20
:10299000390BC90120E3280FCE018D599F4F895B68
:1029A0009F4FFC01208380919703909198039C0195
:1029B000ADECBCEC0E946B1FAC015695479556954B
:1029C0004795569547959A01ADECBCEC0E946B1F5C
:1029D000969587959695879596958795880F991FD3
:1029E0009C01220F331F220F331F820F931F9A0166
:1029F000281B390BC90120E3280FCE018D599F4FA9
:102A00008A5B9F4FFC012083CE018D5A9E4F2F8100
:102A100038852817390709F054C08091BD03882FE5
:102A200090E081709927892B11F020E201C028E500
:102A3000CE018D5A9E4FFC01228F8091BC03882FBE
:102A400090E081709927892B11F020E201C028E5E0
:102A5000CE018D5A9E4FFC0126A78091BB03882F83
:102A600090E081709927892B11F020E201C028E5C0
:102A7000CE018D5A9E4FFC0125A38091BA03882F69
:102A800090E081709927892B11F020E201C028E5A0
:102A9000CE018D5A9E4F8E5B9F4FFC01208380910B
:102AA000B903882F90E081709927892B11F020E2DB
:102AB00001C028E5CE018D5A9E4F835B9F4FFC01DC
:102AC0002083CE018D559E4F2F81388528173907D9
:102AD00009F084C08091B803882F90E08170992715
:102AE000892B11F020E201C028E5CE018D559E4FC3
:102AF000FC0126838091B703882F90E0817099278D
:102B0000892B11F020E201C028E5CE018D559E4FA2
:102B1000FC01218B8091B603882F90E0817099276A
:102B2000892B11F020E201C028E5CE018D559E4F82
:102B3000FC01228F8091B503882F90E08170992746
:102B4000892B11F020E201C028E5CE018D559E4F62
:102B5000FC0125A38091B403882F90E08170992710
:102B6000892B11F020E201C028E5CE018D559E4F42
:102B7000FC0126A78091B303882F90E081709927EC
:102B8000892B11F020E201C028E5CE018D559E4F22
:102B9000FC0121AF8091B203882F90E081709927CA
:102BA000892B11F020E201C028E5CE018D559E4F02
:102BB0008E5B9F4FFC0120838091B103882F90E0B2
:102BC00081709927892B11F020E201C028E5CE0100
:102BD0008D559E4F835B9F4FFC012083CE018D500E
:102BE0009E4F2F8138852817390709F00AC2409176
:102BF0007E0350917F039A01ADECBCEC0E946B1FE9
:102C0000969587959695879596958795880F991FA0
:102C10009C01220F331F220F331F820F931F9A0133
:102C2000281B390BC90120E3280FCE018D509E4F80
:102C3000FC01268380917E0390917F039C01ADEC83
:102C4000BCEC0E946B1FAC01569547955695479575
:102C5000569547959A01ADECBCEC0E946B1F96957A
:102C600087959695879596958795880F991F9C01CE
:102C7000220F331F220F331F820F931F9A01281B2D
:102C8000390BC90120E3280FCE018D509E4FFC0166
:102C9000258380917E0390917F03969587959695E5
:102CA00087959C01ABE7B4E10E946B1FAC01569580
:102CB00047959A01ADECBCEC0E946B1F96958795E9
:102CC0009695879596958795880F991F9C01220F59
:102CD000331F220F331F820F931F9A01281B390BBA
:102CE000C90120E3280FCE018D509E4FFC012483A3
:102CF00040918D0350918E039A01ADECBCEC0E9483
:102D00006B1F969587959695879596958795880FCD
:102D1000991F9C01220F331F220F331F820F931F15
:102D20009A01281B390BC90120E3280FCE018D50D1
:102D30009E4FFC01228B80918D0390918E039C010C
:102D4000ADECBCEC0E946B1FAC01569547955695B7
:102D50004795569547959A01ADECBCEC0E946B1FC8
:102D6000969587959695879596958795880F991F3F
:102D70009C01220F331F220F331F820F931F9A01D2
:102D8000281B390BC90120E3280FCE018D509E4F1F
:102D9000FC01208B80918D0390918E0396958795F1
:102DA000969587959C01ABE7B4E10E946B1FAC013F
:102DB000569547959A01ADECBCEC0E946B1F969519
:102DC00087959695879596958795880F991F9C016D
:102DD000220F331F220F331F820F931F9A01281BCC
:102DE000390BC90120E3280FCE018D509E4FFC0105
:102DF00027874091AB035091AC039A01ADECBCEC3A
:102E00000E946B1F969587959695879596958795C1
:102E1000880F991F9C01220F331F220F331F820F2F
:102E2000931F9A01281B390BC90120E3280FCE01FB
:102E30008D509E4FFC0127A78091AB039091AC036E
:102E40009C01ADECBCEC0E946B1FAC015695479504
:102E500056954795569547959A01ADECBCEC0E9466
:102E60006B1F969587959695879596958795880F6C
:102E7000991F9C01220F331F220F331F820F931FB4
:102E80009A01281B390BC90120E3280FCE018D5070
:102E90009E4FFC0125A78091AB039091AC039695C2
:102EA0008795969587959C01ABE7B4E10E946B1FCF
:102EB000AC01569547959A01ADECBCEC0E946B1F96
:102EC000969587959695879596958795880F991FDE
:102ED0009C01220F331F220F331F820F931F9A0171
:102EE000281B390BC90120E3280FCE018D509E4FBE
:102EF000FC0124A74091990350919A039A01ADECEB
:102F0000BCECE9D796958795969587959695879584
:102F1000880F991F9C01220F331F220F331F820F2E
:102F2000931F9A01281B390BC90120E3280FCE01FA
:102F30008D509E4FFC0122AF8091990390919A038E
:102F40009C01ADECBCECC7D7AC01569547955695A6
:102F50004795569547959A01ADECBCECBCD7969534
:102F600087959695879596958795880F991F9C01CB
:102F7000220F331F220F331F820F931F9A01281B2A
:102F8000390BC90120E3280FCE018D509E4FFC0163
:102F900020AF8091990390919A0396958795969585
:102FA00087959C01ABE7B4E196D7AC015695479560
:102FB0009A01ADECBCEC8FD7969587959695879541
:102FC00096958795880F991F9C01220F331F220F1A
:102FD000331F820F931F9A01281B390BC90120E36D
:102FE000280FCE018D509E4FFC0127AB0E9413028B
:102FF00020E3280FCE018D509E4F825B9F4FFC0136
:103000002083CE018D5B9D4F2F813885281739078E
:1030100009F090C00E941302029741F486E0FAD2B0
:1030200081E08093D70381E08093D6038091D7031A
:103030008130F1F40E940A02282F8BEA289F812D0B
:103040001124982F96959695892F880F890F880FB0
:10305000922F981B90930F010E941302019741F445
:1030600080910F0180930E0182E0D4D21092D70399
:103070000E9413020C9751F41092D7031092D603BA
:1030800087E0C8D280910E0180930F0180910F01DB
:10309000882F90E08230910529F1833091052CF43E
:1030A000009761F00197A1F045C08430910571F15E
:1030B000843091050CF1059799F13CC0CE018D5BF0
:1030C0009D4F20E041E065E173E00E94120832C0AC
:1030D000CE018D5B9D4F20E041E06AE273E00E94EB
:1030E000120828C0CE018D5B9D4F20E041E06FE3C8
:1030F00073E00E9412081EC0CE018D5B9D4F20E040
:1031000041E060E073E00E94120814C0CE018D5BC4
:103110009D4F20E041E064E573E00E9412080AC080
:10312000CE018D5B9D4F20E041E069E673E00E9497
:103130001208000080910D01882319F181E073D5F8
:1031400082E290E022E230E0F90120812460FC017B
:1031500020838091D9039091DA03A091DB03B09191
:10316000DC03883B9B40A105B10558F082E290E06A
:1031700022E230E0F90120812B7FFC0120831092B4
:103180000D0184E390E024E330E0F901308128E090
:103190002327FC01208319828B819C81AD81BE8114
:1031A0000196A11DB11D8B839C83AD83BE8380914D
:1031B000D9039091DA03A091DB03B091DC03803A4C
:1031C0009F40A105B10558F18091D603882339F5B8
:1031D0000E940A02282F85E2289F812D1124922F18
:1031E000981B9695890F982F96959695892F880FFD
:1031F000880F880F891B922F981B892F90E09E01C2
:103200002D563D4F880F991F880F991F820F931FCE
:10321000FC0180819181A281B38198878F838A810B
:10322000843610F40C947A0D0E94FD011A820C94DD
:103230007A0DCF93DF93CDB7DEB784E290E024E23E
:1032400030E0F90120812160FC01208384E290E0DC
:1032500024E230E0F90120812660FC0120838CE427
:1032600090E020EDFC0120838CE490E02CE430E041
:10327000F90120812160FC01208381E290E021E2BC
:1032800030E0F90120812860FC01208384E290E095
:1032900024E230E0F90120812068FC01208382E2F1
:1032A00090E022E230E0F90120812860FC012083D7
:1032B00082E290E022E230E0F90120812860FC0106
:1032C00020830000DF91CF910895CF93DF93CDB796
:1032D000DEB78091D803882311F481E001C080E03B
:1032E000DF91CF910895CF93DF9300D000D0CDB779
:1032F000DEB789836A834B832C8389818093800422
:103300008B81809382048A81809381048C81809355
:10331000830481E08093D8038981882F90E000970F
:1033200019F00197A1F026C082E290E022E230E09D
:10333000F9012081277FFC01208385E290E025E2CE
:1033400030E0F90120812068FC01208313C085E270
:1033500090E025E230E0F90120812F77FC01208305
:1033600082E290E022E230E0F90120812860FC0155
:10337000208300008EE490E02A81FC01208300007D
:103380000F900F900F900F90DF91CF910895CF93F2
:10339000DF9300D000D01F92CDB7DEB78A836B8356
:1033A0004C832D8309C08FEF898303C089818150AD
:1033B000898389818823D1F788DF8823A1F32D8130
:1033C0004C816B818A818FDF00000F900F900F90EE
:1033D0000F900F90DF91CF910895CF93DF9300D09E
:1033E000CDB7DEB789836A838A818095282F4AE02A
:1033F00060E4898178DF00000F900F90DF91CF911A
:103400000895CF93DF9300D0CDB7DEB789836A8369
:103410008A818095282F4AE060E48981B8DF000026
:103420000F900F90DF91CF9108951F920F9200900F
:103430005F000F92112400905B000F922F933F9337
:103440008F939F93EF93FF93CF93DF93CDB7DEB727
:103450008091D803882F90E08230910581F08330ED
:103460009105B9F0019709F029C08EE490E0209110
:103470008204FC01208382E08093D8031FC08EE485
:1034800090E020918304FC01208383E08093D803A3
:1034900015C085E290E025E230E0F9012081206846
:1034A000FC01208382E290E022E230E0F9012081F9
:1034B0002860FC0120831092D80300000000DF91F7
:1034C000CF91FF91EF919F918F913F912F910F900D
:1034D00000925B000F9000925F000F901F90189574
:1034E000CF93DF93CDB7DEB720E040E064E480E027
:1034F0004EDF20E040E062E481E049DF20E045E08B
:1035000064E480E044DF20E045E062E481E03FDF06
:103510000000DF91CF910895CF93DF931F92CDB735
:10352000DEB789838981882F90E0092E000CAA0BD1
:10353000BB0B40E050E027E030E0841B950B2817E0
:10354000390720F1885A9F4FFC01BCC469E081E033
:1035500058DF1CC066E081E054DF18C060E381E002
:1035600050DF14C069E381E04CDF10C066E381E006
:1035700048DF0CC06FEF81E044DF08C060E081E00D
:1035800040DF04C06FE081E03CDF000000000F90EE
:10359000DF91CF910895CF93DF931F92CDB7DEB720
:1035A00089838981882F90E0092E000CAA0BBB0B20
:1035B00040E050E027E030E0841B950B28173907E6
:1035C00020F1805A9F4FFC017DC469E080E019DF43
:1035D0001CC066E080E015DF18C060E380E011DF0A
:1035E00014C069E380E00DDF10C066E380E009DF0E
:1035F0000CC06FEF80E005DF08C060E080E001DF15
:1036000004C06FE080E0FDDE000000000F90DF915D
:10361000CF910895CF93DF931F92CDB7DEB7898303
:103620008981882F90E0092E000CAA0BBB0B40E08B
:1036300050E027E030E0841B950B2817390708F489
:103640003CC088599F4FFC013DC469E080E0D9DE51
:1036500069E081E0D6DE31C066E080E0D2DE66E07F
:1036600081E0CFDE2AC060E380E0CBDE60E381E072
:10367000C8DE23C069E380E0C4DE69E381E0C1DE27
:103680001CC066E380E0BDDE66E381E0BADE15C003
:103690006FEF80E0B6DE6FEF81E0B3DE0EC060E07A
:1036A00080E0AFDE60E081E0ACDE07C06FE080E08C
:1036B000A8DE6FE081E0A5DE000000000F90DF9142
:1036C000CF910895CF93DF93CDB7DEB782E290E03C
:1036D00022E230E0F90120812F70FC01208384E395
:1036E00090E024E330E0F90120812B7FFC0120836E
:1036F0000000DF91CF910895CF93DF93CDB7DEB770
:1037000088E290E0FC01108284E390E024E330E062
:10371000F90120812C7FFC0120830000DF91CF91F3
:103720000895CF93DF93CDB7DEB729970FB6F894FE
:10373000DEBF0FBECDBF9D838C837F836E83598791
:103740004887C0DF2C813D818E819F81A901481B64
:10375000590BCA0196958795969587959A83898383
:10376000288539858E819F81281B390B89819A8113
:10377000820F931F29813A81B90161D3CB018B83D9
:103780008B8118161CF48B8154D002C080E051D07C
:10379000000029960FB6F894DEBF0FBECDBFDF91B3
:1037A000CF910895CF93DF93CDB7DEB729970FB6AA
:1037B000F894DEBF0FBECDBF9D838C837F836E8365
:1037C0005987488799DF2C813D818E819F81A9018E
:1037D000481B590BCA019C01AFE8B3EE7CD3969508
:1037E000879596958795969587959A838983288559
:1037F00039858E819F81281B390B89819A81820F9F
:10380000931F29813A81B9011AD3CB018B838B8114
:1038100018161CF48B8149D002C080E046D000000D
:1038200029960FB6F894DEBF0FBECDBFDF91CF91C2
:103830000895CF93DF931F92CDB7DEB7898382E2DD
:1038400090E022E230E0F9012081622F2981422FAD
:1038500050E02FEF30E002C0220F331F4A95E2F70D
:103860002095309522953295307F3227207F322760
:10387000262BFC01208384E390E024E330E0F9016F
:103880002081622F2981422F50E020E830E002C0E1
:10389000359527954A95E2F72470262BFC01208365
:1038A00000000F90DF91CF910895CF93DF931F9287
:1038B000CDB7DEB7898388E290E028E230E0F901F5
:1038C0002081622F2981422F50E02FEF30E002C08B
:1038D000359527954A95E2F72095262BFC01208304
:1038E00084E390E024E330E0F9012081622F398104
:1038F00029E3329F212D11242695422F50E02FEFEE
:1039000030E002C0220F331F4A95E2F72095309530
:10391000598149E3549F412D11244695442F50E08D
:1039200002C0220F331F4A95E2F7422F39812DEC56
:10393000329F212D1124269526952695240F262B7E
:10394000FC01208300000F90DF91CF910895CF9369
:10395000DF931F92CDB7DEB789838981882F90E0EE
:10396000092E000CAA0BBB0B40E050E02EE030E02B
:10397000841B950B2817390708F49AC080599F4F6C
:10398000FC01A0C282E290E022E230E0F901208155
:103990002061FC0120838CC082E290E022E230E0D2
:1039A000F90120812062FC01208382C082E290E044
:1039B00022E230E0F90120812064FC01208378C0FC
:1039C00082E290E022E230E0F90120812068FC01EF
:1039D00020836EC084E390E024E330E0F90120818D
:1039E0002460FC01208364C088E290E028E230E09B
:1039F000F90120812068FC0120835AC088E290E010
:103A000028E230E0F90120812064FC01208350C0CD
:103A100088E290E028E230E0F90120812062FC0198
:103A2000208346C088E290E028E230E0F90120815E
:103A30002061FC0120833CC088E290E028E230E075
:103A4000F90120812860FC01208332C088E290E0E7
:103A500028E230E0F90120812460FC01208328C0A5
:103A600088E290E028E230E0F90120812260FC0148
:103A700020831EC088E290E028E230E0F901208136
:103A80002160FC01208314C084E390E024E330E053
:103A9000F90120812260FC0120830AC084E390E0C8
:103AA00024E330E0F90120812160FC012083000043
:103AB00000000F90DF91CF910895CF93DF931F9275
:103AC000CDB7DEB789838981882F90E0092E000C5D
:103AD000AA0BBB0B40E050E02EE030E0841B950BBE
:103AE0002817390708F49AC081589F4FFC01EAC192
:103AF00082E290E022E230E0F90120812071FC01B5
:103B000020838CC082E290E022E230E0F901208143
:103B10002072FC01208382C082E290E022E230E049
:103B2000F90120812074FC01208378C082E290E0BA
:103B300022E230E0F90120812078FC0120836EC070
:103B400084E390E024E330E0F90120812470FC015B
:103B5000208364C088E290E028E230E0F90120810F
:103B60002078FC0120835AC088E290E028E230E00F
:103B7000F90120812074FC01208350C088E290E08C
:103B800028E230E0F90120812072FC01208346C048
:103B900088E290E028E230E0F90120812071FC0108
:103BA00020833CC088E290E028E230E0F9012081E7
:103BB0002870FC01208332C088E290E028E230E0E7
:103BC000F90120812470FC01208328C088E290E064
:103BD00028E230E0F90120812270FC0120831EC020
:103BE00088E290E028E230E0F90120812170FC01B8
:103BF000208314C084E390E024E330E0F9012081C5
:103C00002270FC0120830AC084E390E024E330E0CA
:103C1000F90120812170FC012083000000000F9039
:103C2000DF91CF910895CF93DF931F92CDB7DEB789
:103C300089838981882F90E0009719F0019759F0C6
:103C400014C08BE290E02BE230E0F9012081207675
:103C5000FC0120830AC08BE290E02BE230E0F90106
:103C600020812F69FC012083000000000F90DF916C
:103C7000CF910895CF93DF931F92CDB7DEB789839D
:103C80008981895F64DE97E08981292F281B822F33
:103C90005EDE8981883010F082E0BCDC8981893069
:103CA00010F081E0C0DF89818E3020F087E0B2DC47
:103CB00080E0B9DF00000F90DF91CF910895CF939E
:103CC000DF93CDB7DEB781E290E021E230E0F90189
:103CD00020812C6FFC01208381E290E021E230E022
:103CE000F90120812C7FFC01208384E290E024E212
:103CF00030E0F9012081266FFC01208384E290E00E
:103D000024E230E0F9012081277FFC01208387E253
:103D100090E02FEFFC0120838AE290E02AE230E07D
:103D2000F90120812F69FC0120838DE290E02FEFC3
:103D3000FC01208380E390E020E330E0F901208162
:103D4000217FFC01208383E390E023E330E0F9014D
:103D500020812F61FC01208382E290E0FC0110822F
:103D600085E290E0FC01108288E290E0FC01108284
:103D70008BE290E0FC0110828EE290E0FC01108268
:103D800081E390E0FC01108284E390E0FC0110826A
:103D900082E290E022E230E0F90120812360FC0120
:103DA00020830000DF91CF910895CF93DF93CDB7AB
:103DB000DEB784E490E02BE0FC0120838EE690E007
:103DC00022E0FC01208387E490E029EFFC012083BE
:103DD0000000DF91CF9108951F920F9200905F0035
:103DE0000F9211248F939F93AF93BF93CF93DF9341
:103DF000CDB7DEB78091D9039091DA03A091DB03B0
:103E0000B091DC030196A11DB11D8093D90390935D
:103E1000DA03A093DB03B093DC038091DD038F5FB3
:103E20008093DD030000DF91CF91BF91AF919F910F
:103E30008F910F9000925F000F901F901895AA1B12
:103E4000BB1B51E107C0AA1FBB1FA617B70710F085
:103E5000A61BB70B881F991F5A95A9F780959095B7
:103E6000BC01CD01089597FB072E16F4009406D0EF
:103E700077FD08D0E4DF07FC05D03EF490958195EE
:103E80009F4F0895709561957F4F0895052E97FB7C
:103E900016F400940FD057FD05D02CD007FC02D0AB
:103EA00046F408C050954095309521953F4F4F4FAF
:103EB0005F4F089590958095709561957F4F8F4FD6
:103EC0009F4F0895EE0FFF1F0024001C0BBE0790AC
:103ED000F691E02D0994A29FB001B39FC001A39F6A
:103EE000700D811D1124911DB29F700D811D112433
:103EF000911D0895A1E21A2EAA1BBB1BFD010DC046
:103F0000AA1FBB1FEE1FFF1FA217B307E407F50789
:103F100020F0A21BB30BE40BF50B661F771F881F65
:103F2000991F1A9469F760957095809590959B01FB
:0C3F3000AC01BD01CF010895F894FFCF53
:103F3C00D1003908061700020CC094D48001030389
:103F4C0007006F00FFFFFF00FF20FF0020FFFF00B6
:103F5C002020FF000707FF00FF0101000101FF0007
:103F6C00032020000302200004050400200220008E
:103F7C00FF070700FF01FF0020FF2000FF07FF00E5
:103F8C002020200002070300FF2020007C2020209E
:103F9C002057454C434F4D4520544F202020207C2A
:103FAC00007C202020202020545920323520202035
:103FBC00202020207C007C2020202042455741528C
:103FCC0045204F4620202020207C007C20202048AB
:103FDC0041492020544F52515545202020207C002F
:103FEC005453563A202020562020414343553A2022
:103FFC00202E2043004C56563A20202E205620438B
:10400C004F4F4C3A20202E20430041505053313A10
:10401C002020202541505053323A202020250042A8
:10402C0050463A20204250523A2020202020202076
:10403C0020202000494E563A20202E2043204D545B
:10404C00523A2020202E204300415050533A202039
:10405C0020202020202020202020202020002D2D5A
:10406C002D465553452052454144204F55542D2D36
:10407C002D2D0041494D203A2020202020202020A9
:10408C002020202020202000494E56313A2020208C
:10409C00202020494E56303A202020200052324415
:1040AC00323A202020202020575020203A20202057
:1040BC002000424C20203A20202020202053455222
:1040CC00563A2020202000534443203A2020202020
:1040DC0020205453414C3A2020202000545341437B
:1040EC003A20202020202048565F443A20202020CF
:1040FC0000465453413A2020202020204650552081
:10410C00203A2020200020202020202020202020A9
:10411C0020202020202020202020002D2D2D2D2D72
:10412C002D2D2D5345542D2D2D2D2D2D2D2D2D007B
:10413C004D4F44453A2020202020454E44555241B5
:10414C004E434520004D4F44453A2020202020412D
:10415C004343454C2020202020004D4F44453A201D
:10416C0020202020534B4944504144202020004D16
:10417C004F44453A20202020204155544F43524F64
:10418C00535320004D4F44453A20202020204655C3
:10419C004E31202020202020004D4F44453A202035
:0E41AC0020202046554E3220202020202000CA
:00000001FF
