S00E00004449435F32332E7372656382
S11300007DC000009AC0000098C0000096C00000A7
S113001094C0000092C0000090C000008EC0000098
S11300208CC000008AC0000088C0000086C00000A8
S113003084C0000082C0000080C000007EC00000B8
S11300400C94AF187AC0000078C0000076C000009D
S11300500C94561472C0000070C000006EC0000002
S11300606CC000006AC0000068C0000066C00000E8
S113007064C0000062C0000060C000005EC00000F8
S11300805CC000005AC0000058C0000056C0000008
S113009054C00000350952096F098C09A909C60921
S11300A0E309000A1D0A3A0A570A740A910AAE0AB9
S11300B0E814F614EF140B15FD1404151915121594
S11300C085168F169916A316AD16B716C116CB163C
S11300D0D516DF16E916F316FD16071711173B1789
S11300E045174F17591763176D17771781178B1714
S11300F095179F17A917B317BD17C71711241FBE4C
S1130100CFEFD0E1DEBFCDBF12E0A0E0B1E0E0E28E
S1130110F2E300E00BBF02C007900D92AC32B107CE
S1130120D9F723E0ACE2B2E001C01D92A032B207DD
S1130130E1F70E94260B0C940E1962CFCF93DF9344
S1130140CDB7DEB780E092E09093B1028093B00225
S11301508FEF9FEF9093B3028093B2021092B50297
S11301601092B40281E092E09093990280939802F5
S11301708FEF9FEF90939B0280939A0281E090E02F
S113018090939D0280939C0280E094E0909381027E
S1130190809380028FEF9FEF90938302809382027B
S11301A082E090E0909385028093840280E194E061
S11301B09093AB028093AA028FEF9FEF9093AD02CE
S11301C08093AC0283E090E09093AF028093AE0200
S11301D080E294E090938D0280938C028FEF9FEFE6
S11301E090938F0280938E0284E090E0909391022A
S11301F08093900280E095E090937502809374025E
S11302008FEF9FEF909377028093760285E090E0E2
S1130210909379028093780280E096E0909317039C
S1130220809316038FEF9FEF909319038093180325
S113023086E090E090931B0380931A0380E597E097
S113024090937B0280937A028FEF9FEF90937D02CD
S113025080937C0287E090E090937F0280937E02FB
S11302608AE090E090938702809386028FEF9FEF5D
S1130270909389028093880288E090E090938B02A7
S113028080938A028AE490E09093A5028093A4026A
S11302908FEF9FEF9093A7028093A60289E090E0EE
S11302A09093A9028093A8028AE490E09093930229
S11302B0809392028FEF9FEF909395028093940224
S11302C08AE090E0909397028093960284E590E010
S11302D090939F0280939E028FEF9FEF9093A102D1
S11302E08093A0028BE090E09093A3028093A202FB
S11302F00000DF91CF910895CF93DF931F92CDB784
S1130300DEB766EB72E080EB92E0B4D28091BD027E
S1130310898380916D029981981751F480916B02C1
S113032090916C02019690936C0280936B0204C0CE
S113033010926C0210926B02898180936D028091FD
S11303406B0290916C02893E934020F480913202BA
S1130350882321F081E00E94D61703C080E00E9428
S1130360D6176EEB72E088E992E084D266EC72E014
S113037080E892E07FD26EEC72E08AEA92E07AD270
S113038066ED72E08CE892E075D266EE72E086E18A
S113039093E070D26EEE72E08AE792E06BD26EEF79
S11303A072E084EA92E066D26EE073E08EE992E055
S11303B061D200000F90DF91CF910895CF93DF9326
S11303C0CDB7DEB76EED72E084E792E0EFD20000C5
S11303D0DF91CF910895CF93DF93CDB7DEB78091AE
S11303E0EF02DF91CF910895CF93DF931F92CDB7A2
S11303F0DEB789838981882F90E0880F991F880F41
S1130400991F880F991F8A549D4F0F90DF91CF91A8
S11304100895CF93DF93CDB7DEB78091B602282F2E
S113042030E08091B702882F90E0982F8827822BA4
S1130430932B90932D0280932C0280912C02909107
S11304402D0296958795969587959C01ABE7B4E127
S11304500E94FF189695879590932D0280932C0205
S11304608091BC02881F8827881F80933202809164
S1130470BC02829586958695837081708093330241
S113048080913302882349F482E290E022E230E052
S1130490F9012081FC01208309C082E290E022E27C
S11304A030E0F90120812460FC0120838091BC02AA
S11304B082958F708170809335028091C402282FB9
S11304C030E08091C502882F90E0982F8827822BF6
S11304D0932B90933C0280933B0280913B0290913A
S11304E03C0296958795969587959C01ABE7B4E178
S11304F00E94FF189695879590933C0280933B0247
S11305008091C602282F30E08091C702882F90E0A6
S1130510982F8827822B932B9093400280933F023D
S11305208091C802282F30E08091C902882F90E082
S1130530982F8827822B932B909342028093410219
S11305408091CE02282F30E08091CF02882F90E056
S1130550982F8827822B932B9093440280934302F5
S11305608091D002282F30E08091D102882F90E032
S1130570982F8827822B932B9093460280934502D1
S113058080E290E0FC018081882F90E081709927BF
S113059021E0892B09F020E0822F809356021092EB
S11305A0550280E290E0FC018081882F90E08095E4
S11305B09095959587958170809355028091E80276
S11305C0282F30E08091E902882F90E0982F882727
S11305D0822B932B909359028093580280910103AC
S11305E0282F30E080910003882F90E0982F8827EF
S11305F0822B932B9093690280936802809111035C
S1130600282F30E080911003882F90E0982F8827BE
S1130610822B932B90930101809300012091680217
S11306203091690280910001909101018217930732
S113063048F48091680290916902909352028093E9
S1130640510208C0809100019091010190935202DF
S1130650809351028091FF02282F30E08091FE02A6
S1130660882F90E0982F8827822B932B90936402F5
S11306708093630280910F03282F30E080910E0352
S1130680882F90E0982F8827822B932B90936702D2
S11306908093660220916602309167028091630222
S11306A0909164028217930748F4809166029091B6
S11306B06702909354028093530208C080916302AE
S11306C09091640290935402809353028091560255
S11306D08093DE02809155028093DF02809157025D
S11306E08093E0020000DF91CF910895CF93DF93D0
S11306F000D0CDB7DEB78A8319828A818830C0F0F2
S11307008DED90E0FC018081882F90E02A81222FDA
S113071030E02850310902C0959587952A95E2F773
S11307208170992721E0892B09F020E0298315C0E5
S11307308CED90E0FC018081882F90E02A81222FAB
S113074030E002C0959587952A95E2F78170992744
S113075021E0892B09F020E0298389810F900F90F3
S1130760DF91CF910895CF93DF9300D0CDB7DEB75B
S113077088ED90E0FC011082198256C08DEE90E065
S11307802981222F30E022953295307F3227207F35
S113079032272860FC0120838EEE90E0FC01108259
S11307A08FEE90E0FC01108280EF90E0FC0110825B
S11307B081EF90E0FC01108282EF90E0FC01108256
S11307C083EF90E0FC01108284EF90E0FC01108242
S11307D085EF90E0FC01108286EF90E0FC0110822E
S11307E087EF90E0FC0110821A8218C08DEE90E031
S11307F02981222F30E022953295307F3227207FC5
S11308003227322F2A81232B2860FC0120838AEF90
S113081090E0FC0110828A818F5F8A838A8188300C
S113082028F389818F5F898389818F3008F4A6CF6B
S113083082EE90E022E0FC01208383EE90E02CE045
S1130840FC01208384EE90E027E3FC0120838BED00
S113085090E0FC01108288ED90E028ED30E0F90191
S113086020812260FC01208300000F900F90DF9113
S1130870CF910895CF93DF9300D000D01F92CDB7CE
S1130880DEB79B838A837D836C838DEE90E02A811F
S11308903B81F901248135812295207FFC0120834D
S11308A08A819B81FC018481958120DF882309F45E
S11308B050C083EF90E02A813B81F901208131818E
S11308C0369527953695279536952795FC012083EF
S11308D082EF90E02A813B81F901208131812295C8
S11308E0220F207EFC01208381EF90E0FC01108226
S11308F080EF90E024E0FC01208387EF90E02A81E0
S11309003B81F901228133813695279536952795C8
S113091036952795FC01208386EF90E02A813B8160
S1130920F901228133812295220F207EFC0120834C
S113093085EF90E0FC01108284EF90E0FC011082CE
S11309408FEE90E028ECFC0120838EEE90E0FC0119
S1130950108219821FC08DEE90E02A813B81F9013B
S113096024813581322F3295307F2981232B2860D1
S1130970FC0120838981882F90E02C813D81820FA6
S1130980931F2AEF30E0F9012081FC012083898143
S11309908F5F898389818830F0F200000F900F9077
S11309A00F900F900F90DF91CF910895CF93DF9325
S11309B000D000D01F92CDB7DEB79B838A837D839E
S11309C06C8319821FC08DEE90E02A813B81F9016E
S11309D024813581322F3295307F2981232B286061
S11309E0FC0120838AEF90E02981222F30E04C81A2
S11309F05D81240F351FF9012081FC012083898149
S1130A008F5F898389818830F0F28DEE90E02A81AE
S1130A103B81F901248135812295207FFC012083CB
S1130A208A819B81FC018481958160DE882309F49D
S1130A3044C08EEE90E0FC01108283EF90E02A81A6
S1130A403B81F9012081318136952795369527958B
S1130A5036952795FC01208382EF90E02A813B8123
S1130A60F901208131812295220F207EFC0120830F
S1130A7081EF90E0FC01108280EF90E0FC01108295
S1130A8087EF90E0FC01108286EF90E0FC01108279
S1130A9085EF90E0FC01108284EF90E0FC0110826D
S1130AA08EEE90E0FC0110828FEE90E028E4FC01D1
S1130AB020838EEE90E0FC01108200000F900F90D6
S1130AC00F900F900F90DF91CF910895CF93DF9304
S1130AD000D000D0CDB7DEB79A8389837C836B8343
S1130AE08B819C81FC0181818431D1F48B819C8137
S1130AF0FC018081882F90E0875F9E4FFC018081FC
S1130B0060E0AAD08B819C81FC0111828B819C8145
S1130B10FC01808121E0280F8B819C81FC012083D2
S1130B208B819C81FC018081843021F48B819C81A8
S1130B30FC0110828B819C81FC018081682F70E014
S1130B408B819C81FC018181882F90E049815A81AD
S1130B50E4E1E69F9001E79F300D1124240F351F37
S1130B60820F931FFC01808161E076D08B819C8190
S1130B70FC01818121E0280F8B819C81FC01218370
S1130B8000000F900F900F900F90DF91CF91089578
S1130B90CF93DF9300D0CDB7DEB719821A82898153
S1130BA09A810F900F90DF91CF910895CF93DF93A7
S1130BB0CDB7DEB7C455D1090FB6F894DEBF0FBE6A
S1130BC0CDBF9E012D5A3F4FF90191838083198235
S1130BD022C01A821AC08981482F50E08A81882F46
S1130BE090E064E1649F9001659F300D1124AE0193
S1130BF04F5F5F4F240F351F820F931F029620E132
S1130C00FC0120838A818F5F8A838A81843118F36F
S1130C1089818F5F898389818430D8F2CE018D5A8E
S1130C209F4FFC018081918120E5FE013396DC0118
S1130C3001900D922A95E1F7CE018D5A9F4FFC0148
S1130C4080819181CC5ADF4F0FB6F894DEBF0FBE7E
S1130C50CDBFDF91CF9108950F931F93CF93DF936F
S1130C6000D000D0CDB7DEB78B836C830EE210E0EA
S1130C708B81B6D4F80180838C81813051F485E274
S1130C8090E025E230E0F90120812064FC0120831A
S1130C9009C085E290E025E230E0F90120812F7B54
S1130CA0FC01208385E290E025E230E0F901208117
S1130CB02061FC0120831A8219820EC085E290E033
S1130CC025E230E0F90120812F7EFC012083898117
S1130CD09A8101969A83898389819A8184369105C0
S1130CE06CF300000F900F900F900F90DF91CF9155
S1130CF01F910F9108958F92AF92CF92EF920F931D
S1130D00CF93DF93CDB7DEB7812CA12CC12CE12C7E
S1130D1000E020E04FE16FE181E07AD00F2EFFEE9A
S1130D208F2EF02D0F2EFFEEAF2EF02D0F2EFFEE97
S1130D30CF2EF02D0F2EFFEEEF2EF02D0FEE2FEE17
S1130D404FEE6FEE82E064D00F2EFEE18F2EF02D79
S1130D500F2EFEE1AF2EF02D0F2EFEE1CF2EF02D43
S1130D600F2EFEE1EF2EF02D0EE12EE14EE16EE1AD
S1130D7083E04ED0812CA12CC12CE12C0FEF2FEF5E
S1130D804FEF6FEF84E044D00F2EFFEE8F2EF02D47
S1130D900F2EFFEEAF2EF02D0F2EFFEECF2EF02DE7
S1130DA00F2EFFEEEF2EF02D0FEF2FEF4FEF6FEF23
S1130DB085E02ED0812C6894AA24A1F80F2EF5E1A9
S1130DC0CF2EF02D0F2EFAE0EF2EF02D04E02AE0C6
S1130DD045E168E086E01CD00F2EFFE18F2EF02D58
S1130DE00F2EFFE1AF2EF02D0F2EFFE1CF2EF02DB1
S1130DF0E12C00E020E040E060E087E009D0000062
S1130E00DF91CF910F91EF90CF90AF908F90089595
S1130E108F92AF92CF92EF920F93CF93DF93CDB790
S1130E20DEB729970FB6F894DEBF0FBECDBF898316
S1130E306A834B832C830D83EE82CF82A8868986B6
S1130E408981882F90E00896880F880F880F60E0CA
S1130E5003DF61E08A8100DF61E08B81FDDE61E018
S1130E608C81FADE61E08D81F7DE61E08E81F4DE53
S1130E7061E08F81F1DE61E08885EEDE61E08985E5
S1130E80EBDE60E082E0E8DE000029960FB6F8941D
S1130E90DEBF0FBECDBFDF91CF910F91EF90CF900A
S1130EA0AF908F900895CF93DF93CDB7DEB7279798
S1130EB00FB6F894DEBF0FBECDBF9B838A837D83BC
S1130EC06C834E832F83198225C08E81682F70E036
S1130ED08981282F30E08F81882F90E0820F931F23
S1130EE02981222F30E04C815D81240F351FD901E7
S1130EF0EC914A815B81F4E1F69F9001F79F300DFC
S1130F001124240F351F820F931FDC01EC93898178
S1130F108F5F89838981882F90E02C813D81820FA6
S1130F20931FFC018081882351F08F81282F30E0AA
S1130F308981882F90E0820F931F449734F2000038
S1130F4027960FB6F894DEBF0FBECDBFDF91CF91C9
S1130F500895CF93DF9300D0CDB7DEB71A821982FC
S1130F600DC089819A818E5F9E4FFC01808160E073
S1130F7073DE89819A8101969A83898389819A8112
S1130F8007977CF300000F900F90DF91CF910895A5
S1130F90CF93DF9300D0CDB7DEB79A838983ABDEDE
S1130FA000000F900F90DF91CF910895CF93DF93BE
S1130FB000D000D0CDB7DEB79A8389837C836B835E
S1130FC089819A814BE06EE030D189819A8124E055
S1130FD043E06EE071E067DF4B815C819A01ADEC28
S1130FE0BCEC0E94FF1896958795969587959695E3
S1130FF08795880F991F9C01220F331F220F331FDF
S1131000820F931F9A01281B390BC901282F89814C
S11310109A81422F6AE009D18B819C819C01ADECBD
S1131020BCEC0E94FF1896958795969587959695A2
S113103087959C838B834B815C819A01ADECBCECDE
S11310400E94FF189695879596958795969587950E
S1131050880F991F9C01220F331F220F331F820F09
S1131060931F9A01281B390BC901282F89819A8162
S1131070422F66E0DAD08B819C819C01ADECBCEC04
S11310800E94FF18969587959695879596958795CE
S11310909C838B834B815C819A01ADECBCEC0E94F8
S11310A0FF18969587959695879596958795880FB9
S11310B0991F9C01220F331F220F331F820F931F8E
S11310C09A01281B390BC901282F89819A81422F43
S11310D060E0ABD000000F900F900F900F90DF9165
S11310E0CF910895CF93DF9300D000D0CDB7DEB772
S11310F09A8389837C836B8389819A814DE060E143
S113110094D089819A812EE040E060E171E0CBDEE9
S113111089819A8128E043E06EE071E0C4DE4B816E
S11311205C819A01ADECBCEC0E94FF189695879502
S11311309695879596958795880F991F9C01220F00
S1131140331F220F331F820F931F9A01281B390B61
S1131150C901282F89819A81422F6AE066D08B8148
S11311609C819C01ADECBCEC0E94FF189695879580
S113117096958795969587959C838B834B815C8107
S11311809A01ADECBCEC0E94FF1896958795969554
S1131190879596958795880F991F9C01220F331F79
S11311A0220F331F820F931F9A01281B390BC90189
S11311B0282F89819A81422F64E037D08B819C81CA
S11311C09C01ADECBCEC0E94FF1896958795969512
S11311D08795969587959C838B834B815C819A0137
S11311E0ADECBCEC0E94FF18969587959695879573
S11311F096958795880F991F9C01220F331F220F04
S1131200331F820F931F9A01281B390BC901282F02
S113121089819A81422F60E008D000000F900F90DE
S11312200F900F90DF91CF910895CF93DF9300D06B
S113123000D0CDB7DEB79A8389836B834C838C81CE
S1131240882F90E0092E000CAA0BBB0B40E050E065
S11312502DE030E0841B950B2817390708F49BC157
S1131260865B9F4FFC010C94F61889819A812B812F
S113127040E062E171E017DE89819A812B8141E0CF
S113128066E171E010DE89819A812B8142E066E19A
S113129071E009DE89819A812B8143E062E171E08A
S11312A002DE96C189819A812B8140E06AE171E076
S11312B0FADD89819A812B8141E06EE171E0F3DDF1
S11312C089819A812B8142E06EE171E0ECDD8981B4
S11312D09A812B8143E06EE171E0E5DD79C189817A
S11312E09A812B8140E062E171E0DDDD89819A81A0
S11312F02B8141E062E271E0D6DD89819A812B8104
S113130042E066E271E0CFDD89819A812B8143E07E
S113131062E171E0C8DD5CC189819A812B8140E082
S113132062E171E0C0DD89819A812B8141E062E252
S113133071E0B9DD89819A812B8142E06AE271E032
S1131340B2DD89819A812B8143E062E171E0ABDDFA
S11313503FC189819A812B8140E06EE271E0A3DD77
S113136089819A812B8141E062E371E09CDD89816E
S11313709A812B8142E066E371E095DD89819A814F
S11313802B8143E06AE371E08EDD22C189819A8179
S11313902B8140E062E171E086DD89819A812B81B5
S11313A041E06EE371E07FDD89819A812B8142E027
S11313B06AE271E078DD89819A812B8143E062E100
S11313C071E071DD05C189819A812B8140E062E180
S11313D071E069DD89819A812B8141E06EE371E0DE
S11313E062DD89819A812B8142E062E471E05BDDF8
S11313F089819A812B8143E062E171E054DDE8C088
S113140089819A812B8140E062E171E04CDD898120
S11314109A812B8141E06EE171E045DD89819A81F9
S11314202B8142E066E471E03EDD89819A812B8163
S113143043E066E471E037DDCBC089819A812B817A
S113144040E062E171E02FDD89819A812B8141E0E6
S11314506AE471E028DD89819A812B8142E062E4AB
S113146071E021DD89819A812B8143E06AE471E096
S11314701ADDAEC089819A812B8140E062E171E07E
S113148012DD89819A812B8141E06AE471E00BDDF0
S113149089819A812B8142E06AE271E004DD8981CD
S11314A09A812B8143E06EE171E0FDDC91C089817A
S11314B09A812B8140E06EE471E0F5DC89819A81A8
S11314C02B8141E06EE471E0EEDC89819A812B810D
S11314D042E06EE471E0E7DC89819A812B8143E08C
S11314E06EE471E0E0DC74C089819A812B8140E074
S11314F066E171E0D8DC89819A812B8141E066E163
S113150071E0D1DC89819A812B8142E062E571E04E
S1131510CADC89819A812B8143E066E471E0C3DCF3
S113152057C089819A812B8140E066E171E0BBDC80
S113153089819A812B8141E066E171E0B4DC898183
S11315409A812B8142E066E171E0ADDC89819A8168
S11315502B8143E062E171E0A6DC3AC089819A8183
S11315602B8140E062E171E09EDC89819A812B81CC
S113157041E066E571E097DC89819A812B8142E044
S113158066E571E090DC89819A812B8143E062E118
S113159071E089DC1DC089819A812B8140E062E180
S11315A071E081DC89819A812B8141E062E171E003
S11315B07ADC89819A812B8142E062E171E073DCFB
S11315C089819A812B8143E062E171E06CDC000047
S11315D000000F900F900F900F90DF91CF9108951E
S11315E0CF93DF9300D01F92CDB7DEB78B831982E0
S11315F01A8222C08B81882F90E02A81222F30E02A
S113160002C0959587952A95E2F7817099272A81DA
S1131610222F30E047E050E0BA01621B730B9B01BC
S113162002C0880F991F2A95E2F7982F8981892B88
S113163089838A818F5F8A838A818830D8F28981FD
S11316400F900F900F90DF91CF910895CF93DF9378
S1131650CDB7DEB7CD55D1400FB6F894DEBF0FBE7F
S1131660CDBF0E94221875DC46DB0E945A130E94EB
S113167098180E949E0077D818861982198682E0ED
S11316808A871B861A821B821C821D8278940E9480
S1131690B11487E00E94CD147BDA998B888BCE013C
S11316A0429684DACE01429620E040E06AE571E099
S11316B0FADBCE01429620E041E06FE671E0F3DB15
S11316C0CE01429620E042E064E871E0ECDBCE011A
S11316D0429620E043E069E971E0E5DBCE018E59F2
S11316E09F4F64DACE018E599F4F20E040E06EEAAE
S11316F071E0D9DBCE018E599F4F20E041E063ECCD
S113170071E0D1DBCE018E599F4F20E042E068EDBD
S113171071E0C9DBCE018E599F4F20E043E06DEEAE
S113172071E0C1DBCE018E549F4F40DACE018E5F53
S11317309E4F3CDACE018E5F9E4F20E040E062E097
S113174072E0B1DBCE018E5F9E4F20E041E06EEA95
S113175071E0A9DBCE018E5F9E4F20E042E063EC96
S113176071E0A1DBCE018E5F9E4F20E043E067E194
S113177072E099DBCE0142969F838E83CE0142961E
S1131780092E000CAA0BBB0B9E012E5A3E4FF901E9
S113179080839183A283B383CE018E5F9E4F092EF3
S11317A0000CAA0BBB0B9E012E5A3E4FF9018483F9
S11317B09583A683B783CE018E599F4F092E000CC3
S11317C0AA0BBB0B9E012E5A3E4FF90180879187CD
S11317D0A287B38780917302882349F01092730221
S11317E09E01205F3F4F8E819F81B9016FD9209167
S11317F06F023091700240917102509172028C8597
S11318009D85AE85BF85281739074A075B0779F0A0
S113181080916F0290917002A0917102B091720256
S11318208C879D87AE87BF8789818F5F89838981F4
S1131830843680F20E94DE010E947C010E9409022B
S1131840CE018E5F9E4F2E813F812817390709F004
S11318508DC340915102509152029A01ADECBCECFF
S11318600E94FF18969587959695879596958795E6
S1131870880F991F9C01220F331F220F331F820FE1
S1131880931F9A01281B390BC90120E3280FCE01AD
S11318908E5F9E4FFC01228B8091510290915202E7
S11318A09C01ADECBCEC0E94FF18AC015695479529
S11318B056954795569547959A01ADECBCEC0E9418
S11318C0FF18969587959695879596958795880F91
S11318D0991F9C01220F331F220F331F820F931F66
S11318E09A01281B390BC90120E3280FCE018E5F12
S11318F09E4FFC01208B809151029091520296954B
S11319008795969587959C01ABE7B4E10E94FF18F3
S1131910AC01569547959A01ADECBCEC0E94FF18BA
S1131920969587959695879596958795880F991F8F
S11319309C01220F331F220F331F820F931F9A0122
S1131940281B390BC90120E3280FCE018E5F9E4F5F
S1131950FC01278740915302509154029A01ADEC47
S1131960BCEC0E94FF189695879596958795969559
S11319708795880F991F9C01220F331F220F331F55
S1131980820F931F9A01281B390BC90120E3280FEA
S1131990CE018E5F9E4FFC0127838091530290916C
S11319A054029C01ADECBCEC0E94FF18AC015695AE
S11319B0479556954795569547959A01ADECBCECDD
S11319C00E94FF1896958795969587959695879585
S11319D0880F991F9C01220F331F220F331F820F80
S11319E0931F9A01281B390BC90120E3280FCE014C
S11319F08E5F9E4FFC012583809153029091540287
S1131A0096958795969587959C01ABE7B4E10E94DE
S1131A10FF18AC01569547959A01ADECBCEC0E94B9
S1131A20FF18969587959695879596958795880F2F
S1131A30991F9C01220F331F220F331F820F931F04
S1131A409A01281B390BC90120E3280FCE018E5FB0
S1131A509E4FFC01248340912C0250912D029A0147
S1131A60ADECBCEC0E94FF189695879596958795EA
S1131A7096958795880F991F9C01220F331F220F7B
S1131A80331F820F931F9A01281B390BC90120E3CE
S1131A90280FCE018E5F9E4FFC01228F80912C0275
S1131AA090912D029C01ADECBCEC0E94FF18AC019E
S1131AB05695479556954795569547959A01ADEC99
S1131AC0BCEC0E94FF1896958795969587959695F8
S1131AD08795880F991F9C01220F331F220F331FF4
S1131AE0820F931F9A01281B390BC90120E3280F89
S1131AF0CE018E5F9E4FFC01218F80912C0290912C
S1131B002D0296958795969587959C01ABE7B4E150
S1131B100E94FF18AC01569547959A01ADECBCECB8
S1131B200E94FF1896958795969587959695879523
S1131B30880F991F9C01220F331F220F331F820F1E
S1131B40931F9A01281B390BC90120E3280FCE01EA
S1131B508E5F9E4FFC01208F40913B0250913C02CE
S1131B609A01ADECBCEC0E94FF189695879596956A
S1131B70879596958795880F991F9C01220F331F8F
S1131B80220F331F820F931F9A01281B390BC9019F
S1131B9020E3280FCE018E5F9E4FFC0126A3809187
S1131BA03B0290913C029C01ADECBCEC0E94FF18FE
S1131BB0AC015695479556954795569547959A0184
S1131BC0ADECBCEC0E94FF18969587959695879589
S1131BD096958795880F991F9C01220F331F220F1A
S1131BE0331F820F931F9A01281B390BC90120E36D
S1131BF0280FCE018E5F9E4FFC0124A380913B02EF
S1131C0090913C0296958795969587959C01ABE7B4
S1131C10B4E10E94FF18AC01569547959A01ADECCA
S1131C20BCEC0E94FF189695879596958795969596
S1131C308795880F991F9C01220F331F220F331F92
S1131C40820F931F9A01281B390BC90120E3280F27
S1131C50CE018E5F9E4FFC0123A340915802509108
S1131C6059029A01ADECBCEC0E94FF189695879539
S1131C709695879596958795880F991F9C01220FB5
S1131C80331F220F331F820F931F9A01281B390B16
S1131C90C90120E3280FCE018E5F9E4FFC0127A7C8
S1131CA080915802909159029C01ADECBCEC0E94C9
S1131CB0FF18AC0156954795569547955695479507
S1131CC09A01ADECBCEC0E94FF1896958795969509
S1131CD0879596958795880F991F9C01220F331F2E
S1131CE0220F331F820F931F9A01281B390BC9013E
S1131CF020E3280FCE018E5F9E4FFC0125A7809123
S1131D0058029091590296958795969587959C01CE
S1131D10ABE7B4E10E94FF18AC01569547959A01D0
S1131D20ADECBCEC0E94FF18969587959695879527
S1131D3096958795880F991F9C01220F331F220FB8
S1131D40331F820F931F9A01281B390BC90120E30B
S1131D50280FCE018E5F9E4FFC0124A740914702BD
S1131D60509148029A01ADECBCEC0E94FF18969584
S1131D7087959695879596958795880F991F9C01C9
S1131D80220F331F220F331F820F931F9A01281B28
S1131D90390BC90120E3280FCE018E5F9E4FFC0151
S1131DA022AF80914702909148029C01ADECBCECBB
S1131DB00E94FF18AC015695479556954795569540
S1131DC047959A01ADECBCEC0E94FF189695879557
S1131DD09695879596958795880F991F9C01220F54
S1131DE0331F220F331F820F931F9A01281B390BB5
S1131DF0C90120E3280FCE018E5F9E4FFC0120AF66
S1131E00809147029091480296958795969587957B
S1131E109C01ABE7B4E10E94FF18AC0156954795CD
S1131E209A01ADECBCEC0E94FF18969587959695A7
S1131E30879596958795880F991F9C01220F331FCC
S1131E40220F331F820F931F9A01281B390BC901DC
S1131E5020E3280FCE018E5F9E4FFC0127AB4091FB
S1131E604102509142029A01ADECBCEC0E94FF1871
S1131E70969587959695879596958795880F991F3A
S1131E809C01220F331F220F331F820F931F9A01CD
S1131E90281B390BC90120E3280FCE018E5F9E4F0A
S1131EA08C5B9F4FFC012083809141029091420200
S1131EB09C01ADECBCEC0E94FF18AC015695479513
S1131EC056954795569547959A01ADECBCEC0E9402
S1131ED0FF18969587959695879596958795880F7B
S1131EE0991F9C01220F331F220F331F820F931F50
S1131EF09A01281B390BC90120E3280FCE018E5FFC
S1131F009E4F8D5B9F4FFC012083809141029091F5
S1131F10420296958795969587959C01ABE7B4E127
S1131F200E94FF18AC01569547959A01ADECBCECA4
S1131F300E94FF189695879596958795969587950F
S1131F40880F991F9C01220F331F220F331F820F0A
S1131F50931F9A01281B390BC90120E3280FCE01D6
S1131F608E5F9E4F8E5B9F4FFC012083CE018E5966
S1131F709F4F2E813F812817390709F041C34091B3
S1131F802C0250912D029A01ADECBCEC0E94FF187A
S1131F90969587959695879596958795880F991F19
S1131FA09C01220F331F220F331F820F931F9A01AC
S1131FB0281B390BC90120E3280FCE018E599F4FEE
S1131FC0FC01268380912C0290912D029C01ADECA2
S1131FD0BCEC0E94FF18AC01569547955695479561
S1131FE0569547959A01ADECBCEC0E94FF18969566
S1131FF087959695879596958795880F991F9C0147
S1132000220F331F220F331F820F931F9A01281BA5
S1132010390BC90120E3280FCE018E599F4FFC01D3
S1132020258380912C0290912D0296958795969503
S113203087959C01ABE7B4E10E94FF18AC0156956B
S113204047959A01ADECBCEC0E94FF1896958795D4
S11320509695879596958795880F991F9C01220FD1
S1132060331F220F331F820F931F9A01281B390B32
S1132070C90120E3280FCE018E599F4FFC01248310
S113208040913B0250913C029A01ADECBCEC0E94A1
S1132090FF18969587959695879596958795880FB9
S11320A0991F9C01220F331F220F331F820F931F8E
S11320B09A01281B390BC90120E3280FCE018E5940
S11320C09F4FFC01228B80913B0290913C029C012A
S11320D0ADECBCEC0E94FF18AC01569547955695A3
S11320E04795569547959A01ADECBCEC0E94FF18B4
S11320F0969587959695879596958795880F991FB8
S11321009C01220F331F220F331F820F931F9A014A
S1132110281B390BC90120E3280FCE018E599F4F8C
S1132120FC01208B80913B0290913C02969587950F
S1132130969587959C01ABE7B4E10E94FF18AC012A
S1132140569547959A01ADECBCEC0E94FF18969504
S113215087959695879596958795880F991F9C01E5
S1132160220F331F220F331F820F931F9A01281B44
S1132170390BC90120E3280FCE018E599F4FFC0172
S1132180278740915802509159029A01ADECBCEC5A
S11321900E94FF18969587959695879596958795AD
S11321A0880F991F9C01220F331F220F331F820FA8
S11321B0931F9A01281B390BC90120E3280FCE0174
S11321C08E599F4FFC01238F8091580290915902A0
S11321D09C01ADECBCEC0E94FF18AC0156954795F0
S11321E056954795569547959A01ADECBCEC0E94DF
S11321F0FF18969587959695879596958795880F58
S1132200991F9C01220F331F220F331F820F931F2C
S11322109A01281B390BC90120E3280FCE018E59DE
S11322209F4FFC01218F80915802909159029695FD
S11322308795969587959C01ABE7B4E1E0D7AC010F
S1132240569547959A01ADECBCECD9D796958795F0
S11322509695879596958795880F991F9C01220FCF
S1132260331F220F331F820F931F9A01281B390B30
S1132270C90120E3280FCE018E599F4FFC01208F06
S113228040914702509148029A01ADECBCECB7D79B
S1132290969587959695879596958795880F991F16
S11322A09C01220F331F220F331F820F931F9A01A9
S11322B0281B390BC90120E3280FCE018E599F4FEB
S11322C0FC0126A380914702909148029C01ADEC49
S11322D0BCEC95D7AC0156954795569547955695C0
S11322E047959A01ADECBCEC8AD79695879596955F
S11322F0879596958795880F991F9C01220F331F08
S1132300220F331F820F931F9A01281B390BC90117
S113231020E3280FCE018E599F4FFC0124A3809106
S113232047029091480296958795969587959C01CA
S1132330ABE7B4E164D7AC01569547959A01ADEC8F
S1132340BCEC5DD7969587959695879596958795D8
S1132350880F991F9C01220F331F220F331F820FF6
S1132360931F9A01281B390BC90120E3280FCE01C2
S11323708E599F4FFC0123A340913F02509140028C
S11323809A01ADECBCEC3BD79695879596958795CD
S113239096958795880F991F9C01220F331F220F52
S11323A0331F820F931F9A01281B390BC90120E3A5
S11323B0280FCE018E599F4FFC0127A780913F0221
S11323C0909140029C01ADECBCEC19D7AC01569540
S11323D0479556954795569547959A01ADECBCECB3
S11323E00ED7969587959695879596958795880F98
S11323F0991F9C01220F331F220F331F820F931F3B
S11324009A01281B390BC90120E3280FCE018E59EC
S11324109F4FFC0126A740914102509142029A012C
S1132420ADECBCECECD696958795969587959695EC
S11324308795880F991F9C01220F331F220F331F8A
S1132440820F931F9A01281B390BC90120E3280F1F
S1132450CE018E599F4FFC0121AF80914102909192
S113246042029C01ADECBCECCAD6AC015695479532
S113247056954795569547959A01ADECBCECBFD659
S1132480969587959695879596958795880F991F24
S11324909C01220F331F220F331F820F931F9A01B7
S11324A0281B390BC90120E3280FCE018E599F4FF9
S11324B0FC0120AF40914302509144029A01ADECDB
S11324C0BCEC9DD696958795969587959695879518
S11324D0880F991F9C01220F331F220F331F820F75
S11324E0931F9A01281B390BC90120E3280FCE0141
S11324F08E599F4F8F5B9F4FFC0120838091430235
S1132500909144029C01ADECBCEC79D6AC0156959B
S1132510479556954795569547959A01ADECBCEC71
S11325206ED6969587959695879596958795880FF7
S1132530991F9C01220F331F220F331F820F931FF9
S11325409A01281B390BC90120E3280FCE018E59AB
S11325509F4F805C9F4FFC01208340914502509126
S113256046029A01ADECBCEC4AD6969587959695B1
S1132570879596958795880F991F9C01220F331F85
S1132580220F331F820F931F9A01281B390BC90195
S113259020E3280FCE018E599F4F895B9F4FFC018A
S11325A0208380914502909146029C01ADECBCECE5
S11325B026D6AC0156954795569547955695479519
S11325C09A01ADECBCEC1BD69695879596958795AC
S11325D096958795880F991F9C01220F331F220F10
S11325E0331F820F931F9A01281B390BC90120E363
S11325F0280FCE018E599F4F8A5B9F4FFC01208389
S113260080910D01813059F481E0D0D482E290E0D0
S113261022E230E0F90120812460FC01208384E37C
S113262090E024E330E0F901308128E02327FC0125
S1132630208319828A819B81AC81BD810196A11D71
S1132640B11D8A839B83AC83BD838A819B81AC81CA
S1132650BD814E97A105B10508F4BCC80E94EB01E9
S1132660282F8BEA289F812D1124982F9695892F46
S1132670880F890F922F981B892F90E09E012E5A64
S11326803E4F880F991F880F991F820F931FFC01DB
S113269080819181A281B3819F838E8310920D01E9
S11326A082E290E022E230E0F90120812B7FFC01FC
S11326B0208390C8CF93DF93CDB7DEB784E290E058
S11326C024E230E0F90120812160FC01208384E2CE
S11326D090E024E230E0F90120812660FC012083AF
S11326E08CE490E020EDFC0120838CE490E02CE469
S11326F030E0F90120812160FC01208381E290E037
S113270021E230E0F90120812860FC01208384E289
S113271090E024E230E0F90120812068FC0120836C
S113272082E290E022E230E0F90120812860FC019D
S1132730208382E290E022E230E0F90120812860E7
S1132740FC0120830000DF91CF910895CF93DF93A4
S1132750CDB7DEB780916E02882311F481E001C009
S113276080E0DF91CF910895CF93DF9300D000D024
S1132770CDB7DEB789836A834B832C8389818093A9
S11327801C038B8180931E038A8180931D038C819B
S113279080931F0381E080936E028981882F90E0EB
S11327A0009719F00197A1F026C082E290E022E29E
S11327B030E0F9012081277FFC01208385E290E04D
S11327C025E230E0F90120812068FC01208313C058
S11327D085E290E025E230E0F90120812F77FC01C9
S11327E0208382E290E022E230E0F9012081286037
S11327F0FC01208300008EE490E02A81FC01208308
S113280000000F900F900F900F90DF91CF910895DB
S1132810CF93DF9300D000D01F92CDB7DEB78A8369
S11328206B834C832D8309C08FEF898303C0898117
S11328308150898389818823D1F788DF8823A1F394
S11328402D814C816B818A818FDF00000F900F9066
S11328500F900F900F90DF91CF910895CF93DF9356
S113286000D0CDB7DEB789836A838A818095282F0B
S11328704AE060E4898178DF00000F900F90DF91D7
S1132880CF910895CF93DF9300D0CDB7DEB789837E
S11328906A838A818095282F4AE060E48981B8DFC1
S11328A000000F900F90DF91CF9108951F920F9227
S11328B000905F000F92112400905B000F922F9301
S11328C03F938F939F93EF93FF93CF93DF93CDB772
S11328D0DEB780916E02882F90E08230910581F0FE
S11328E083309105B9F0019709F029C08EE490E096
S11328F020911E03FC01208382E080936E021FC09E
S11329008EE490E020911F03FC01208383E08093F8
S11329106E0215C085E290E025E230E0F9012081E5
S11329202068FC01208382E290E022E230E0F90199
S113293020812860FC01208310926E0200000000B8
S1132940DF91CF91FF91EF919F918F913F912F91C3
S11329500F9000925B000F9000925F000F901F9009
S11329601895CF93DF93CDB7DEB720E040E064E461
S113297080E04EDF20E040E062E481E049DF20E0D7
S113298045E064E480E044DF20E045E062E481E087
S11329903FDF0000DF91CF910895CF93DF931F9223
S11329A0CDB7DEB789838981882F90E0092E000C8A
S11329B0AA0BBB0B40E050E027E030E0841B950BF2
S11329C02817390708F43CC0885A9F4FFC010EC4ED
S11329D069E080E057DF69E081E054DF31C066E000
S11329E080E050DF66E081E04DDF2AC060E380E0F4
S11329F049DF60E381E046DF23C069E380E042DF32
S1132A0069E381E03FDF1CC066E380E03BDF66E30F
S1132A1081E038DF15C06FEF80E034DF6FEF81E0D5
S1132A2031DF0EC060E080E02DDF60E081E02ADF6E
S1132A3007C06FE080E026DF6FE081E023DF000065
S1132A4000000F90DF91CF910895CF93DF93CDB71E
S1132A50DEB782E290E022E230E0F90120812F70BB
S1132A60FC01208384E390E024E330E0F901208139
S1132A702B7FFC0120830000DF91CF910895CF9339
S1132A80DF93CDB7DEB788E290E0FC01108284E3E7
S1132A9090E024E330E0F90120812C7FFC012083C5
S1132AA00000DF91CF910895CF93DF93CDB7DEB7C8
S1132AB029970FB6F894DEBF0FBECDBF9D838C83DC
S1132AC07F836E8359874887C0DF2C813D818E8147
S1132AD09F81A901481B590BCA0196958795969524
S1132AE087959A838983288539858E819F81281BC0
S1132AF0390B89819A81820F931F29813A81B90107
S1132B0061D3CB018B838B8118161CF48B8154D039
S1132B1002C080E051D0000029960FB6F894DEBFC1
S1132B200FBECDBFDF91CF910895CF93DF93CDB783
S1132B30DEB729970FB6F894DEBF0FBECDBF9D83D5
S1132B408C837F836E835987488799DF2C813D81ED
S1132B508E819F81A901481B590BCA019C01AFE8D2
S1132B60B3EE4DD3969587959695879596958795CB
S1132B709A838983288539858E819F81281B390B07
S1132B8089819A81820F931F29813A81B9011AD3CD
S1132B90CB018B838B8118161CF48B8149D002C026
S1132BA080E046D0000029960FB6F894DEBF0FBE31
S1132BB0CDBFDF91CF910895CF93DF931F92CDB70F
S1132BC0DEB7898382E290E022E230E0F9012081DD
S1132BD0622F2981422F50E02FEF30E002C0220FF4
S1132BE0331F4A95E2F72095309522953295307F30
S1132BF03227207F3227262BFC01208384E390E0B8
S1132C0024E330E0F9012081622F2981422F50E032
S1132C1020E830E002C0359527954A95E2F7247004
S1132C20262BFC01208300000F90DF91CF910895A3
S1132C30CF93DF931F92CDB7DEB7898388E290E00C
S1132C4028E230E0F9012081622F2981422F50E0EF
S1132C502FEF30E002C0359527954A95E2F720958D
S1132C60262BFC01208384E390E024E330E0F90187
S1132C702081622F398129E3329F212D1124269549
S1132C80422F50E02FEF30E002C0220F331F4A954D
S1132C90E2F720953095598149E3549F412D112441
S1132CA04695442F50E002C0220F331F4A95E2F7A5
S1132CB0422F39812DEC329F212D11242695269502
S1132CC02695240F262BFC01208300000F90DF9112
S1132CD0CF910895CF93DF931F92CDB7DEB7898349
S1132CE08981882F90E0092E000CAA0BBB0B40E0D1
S1132CF050E02EE030E0841B950B2817390708F4C8
S1132D009AC0805A9F4FFC0171C282E290E022E295
S1132D1030E0F90120812061FC0120838CC082E233
S1132D2090E022E230E0F90120812062FC0120835E
S1132D3082C082E290E022E230E0F9012081206446
S1132D40FC01208378C082E290E022E230E0F901C5
S1132D5020812068FC0120836EC084E390E024E39A
S1132D6030E0F90120812460FC01208364C088E202
S1132D7090E028E230E0F90120812068FC01208302
S1132D805AC088E290E028E230E0F9012081206412
S1132D90FC01208350C088E290E028E230E0F90191
S1132DA020812062FC01208346C088E290E028E272
S1132DB030E0F90120812061FC0120833CC088E2DD
S1132DC090E028E230E0F90120812860FC012083B2
S1132DD032C088E290E028E230E0F90120812460EA
S1132DE0FC01208328C088E290E028E230E0F90169
S1132DF020812260FC0120831EC088E290E028E24A
S1132E0030E0F90120812160FC01208314C084E3B7
S1132E1090E024E330E0F90120812260FC0120836A
S1132E200AC084E390E024E330E0F90120812160CA
S1132E30FC012083000000000F90DF91CF910895E2
S1132E40CF93DF931F92CDB7DEB789838981882F13
S1132E5090E0092E000CAA0BBB0B40E050E02EE0E2
S1132E6030E0841B950B2817390708F49AC0815960
S1132E709F4FFC01BBC182E290E022E230E0F90105
S1132E8020812071FC0120838CC082E290E022E248
S1132E9030E0F90120812072FC01208382C082E2AB
S1132EA090E022E230E0F90120812074FC012083CB
S1132EB078C082E290E022E230E0F90120812078BB
S1132EC0FC0120836EC084E390E024E330E0F90148
S1132ED020812470FC01208364C088E290E028E211
S1132EE030E0F90120812078FC0120835AC088E277
S1132EF090E028E230E0F90120812074FC01208375
S1132F0050C088E290E028E230E0F901208120728C
S1132F10FC01208346C088E290E028E230E0F90119
S1132F2020812071FC0120833CC088E290E028E2EB
S1132F3030E0F90120812870FC01208332C088E24E
S1132F4090E028E230E0F90120812470FC01208324
S1132F5028C088E290E028E230E0F9012081227064
S1132F60FC0120831EC088E290E028E230E0F901F1
S1132F7020812170FC01208314C084E390E024E3C9
S1132F8030E0F90120812270FC0120830AC084E32F
S1132F9090E024E330E0F90120812170FC012083DA
S1132FA0000000000F90DF91CF910895CF93DF933D
S1132FB01F92CDB7DEB789838981882F90E000976F
S1132FC019F0019759F014C08BE290E02BE230E045
S1132FD0F90120812076FC0120830AC08BE290E075
S1132FE02BE230E0F90120812F69FC0120830000ED
S1132FF000000F90DF91CF910895CF93DF931F923C
S1133000CDB7DEB789838981895F64DE97E08981E2
S1133010292F281B822F5EDE8981883010F082E000
S1133020BCDC8981893010F081E0C0DF89818E3079
S113303020F087E0B2DC80E0B9DF00000F90DF9180
S1133040CF910895CF93DF93CDB7DEB781E290E0BF
S113305021E230E0F90120812C6FFC01208381E220
S113306090E021E230E0F90120812C7FFC012083F3
S113307084E290E024E230E0F9012081266FFC0133
S1133080208384E290E024E230E0F9012081277F6C
S1133090FC01208387E290E02FEFFC0120838AE289
S11330A090E02AE230E0F90120812F69FC012083BD
S11330B08DE290E02FEFFC01208380E390E020E399
S11330C030E0F9012081217FFC01208383E390E03B
S11330D023E330E0F90120812F61FC01208382E2A7
S11330E090E0FC01108285E290E0FC01108288E20D
S11330F090E0FC0110828BE290E0FC0110828EE2F1
S113310090E0FC01108281E390E0FC01108284E3F2
S113311090E0FC01108282E290E022E230E0F901CA
S113312020812360FC0120830000DF91CF9108956A
S1133130CF93DF93CDB7DEB784E490E02BE0FC01BE
S113314020838EE690E022E0FC01208387E490E077
S113315029EFFC0120830000DF91CF9108951F9295
S11331600F9200905F000F9211248F939F93AF935F
S1133170BF93CF93DF93CDB7DEB780916F02909169
S11331807002A0917102B09172020196A11DB11D4D
S113319080936F0290937002A0937102B0937202B5
S11331A0809173028F5F809373020000DF91CF914F
S11331B0BF91AF919F918F910F9000925F000F90FC
S11331C01F901895AA1BBB1B51E107C0AA1FBB1F68
S11331D0A617B70710F0A61BB70B881F991F5A959F
S11331E0A9F780959095BC01CD010895EE0FFF1FBE
S11331F00024001C0BBE0790F691E02D0994A29FB9
S1133200B001B39FC001A39F700D811D1124911DB6
S1133210B29F700D811D1124911D0895F894FFCF64
S1133220D1003908061700020CC094D480010700AD
S11332306F00FFFFFF00FF20FF0020FFFF002020A2
S1133240FF000707FF00FF0101000101FF00032049
S11332502000030220000405040020022000FF07D0
S11332600700FF01FF0020FF2000FF07FF002020D0
S1133270200002070300FF2020007C20202020578C
S1133280454C434F4D4520544F202020207C007C4A
S11332902020202020205459203235202020202096
S11332A020207C007C20202020424557415245208C
S11332B04F4620202020207C007C202020484947A5
S11332C04820544F52515545202020207C0054530F
S11332D0563A202020562020414343553A20202EA0
S11332E02043004C56563A20202E205620434F4F60
S11332F04C3A20202E20430041505053313A202094
S1133300252041505053323A202025200042504677
S11333103A20204250523A202020202020202020F1
S11333202000494E563A20202E2043204D54523A34
S11333302020202E204300415050533A20202020AA
S10F33402020202020202020202020001D
S9030000FC
