S00E00004449435F32332E7372656382
S11300005EC000007BC0000079C0000077C0000023
S113001075C0000073C0000071C000006FC0000014
S11300206DC000006BC0000069C0000067C0000024
S113003065C0000063C0000061C000005FC0000034
S11300400C940E0C5BC0000059C0000057C00000A7
S11300500C941D0B53C0000051C000004FC00000A1
S11300604DC000004BC0000049C0000047C0000064
S113007045C0000043C0000041C000003FC0000074
S11300803DC000003BC0000039C0000037C0000084
S113009035C000002A074707640781079E07BB078E
S11300A0D807F50712082F084C0869088608A30822
S11300B0AF0BBD0BB60BCB0BC40BD90BD20B11245E
S11300C01FBECFEFD0E1DEBFCDBF11E0A0E0B1E0B5
S11300D0E6EBF8E100E00BBF02C007900D92AC3AEA
S11300E0B107D9F722E0ACEAB1E001C01D92AA3011
S11300F0B207E1F70E941B090C94590C81CFCF93EE
S1130100DF93CDB7DEB780E597E09093BB01809392
S1130110BA018FEF9FEF9093BD018093BC011092C1
S1130120BF011092BE0180E096E09093010280939B
S113013000028FEF9FEF909303028093020281E00D
S113014090E0909305028093040286E997E09093EF
S1130150C1018093C0018FEF9FEF9093C3018093FF
S1130160C20182E090E09093C5018093C40186E9C6
S113017097E09093FB018093FA018FEF9FEF9093A8
S1130180FD018093FC0183E090E09093FF01809354
S1130190FE0182E092E09093F5018093F4018FEFE9
S11301A09FEF9093F7018093F60184E090E09093A1
S11301B0F9018093F80180E095E09093C701809362
S11301C0C6018FEF9FEF9093C9018093C80185E02A
S11301D090E09093CB018093CA010000DF91CF910E
S11301E00895CF93DF93CDB7DEB76CED71E080EC6B
S11301F091E04ED164EE71E08AEF91E049D164ED73
S113020071E080E092E044D16CEC71E08AEB91E023
S11302103FD16CEE71E084EF91E03AD10000DF91C0
S1130220CF910895CF93DF93CDB7DEB764EF71E03C
S113023086EC91E0C9D10000DF91CF910895CF936E
S1130240DF93CDB7DEB78091CC01DF91CF910895D4
S1130250CF93DF931F92CDB7DEB789838981882F2F
S113026090E0880F991F880F991F880F991F845356
S11302709E4F0F90DF91CF910895CF93DF93CDB729
S1130280DEB78091EC01282F30E08091ED01882FBA
S113029090E0982F8827822B932B9093AF01809323
S11302A0AE018091EE01282F30E08091EF01882F7C
S11302B090E0982F8827822B932B9093AD01809305
S11302C0AC018091F001282F30E08091F101882F5A
S11302D090E0982F8827822B932B9093B3018093DF
S11302E0B2018091F201282F30E08091F301882F30
S11302F090E0982F8827822B932B9093B1018093C1
S1130300B0010000DF91CF910895CF93DF9300D027
S1130310CDB7DEB78A8319828A818830C0F08DED2B
S113032090E0FC018081882F90E02A81222F30E028
S11303302850310902C0959587952A95E2F7817076
S1130340992721E0892B09F020E0298315C08CED41
S113035090E0FC018081882F90E02A81222F30E0F8
S113036002C0959587952A95E2F78170992721E037
S1130370892B09F020E0298389810F900F90DF9168
S1130380CF910895CF93DF9300D0CDB7DEB788ED3A
S113039090E0FC011082198256C08DEE90E0298114
S11303A0222F30E022953295307F3227207F32276A
S11303B02860FC0120838EEE90E0FC0110828FEE19
S11303C090E0FC01108280EF90E0FC01108281EF4C
S11303D090E0FC01108282EF90E0FC01108283EF38
S11303E090E0FC01108284EF90E0FC01108285EF24
S11303F090E0FC01108286EF90E0FC01108287EF10
S113040090E0FC0110821A8218C08DEE90E02981E0
S1130410222F30E022953295307F3227207F3227F9
S1130420322F2A81232B2860FC0120838AEF90E05D
S1130430FC0110828A818F5F8A838A81883028F345
S113044089818F5F898389818F3008F4A6CF82EEFA
S113045090E0FC01108283EE90E02CE0FC0120830C
S113046084EE90E026E3FC0120838BED90E0FC0118
S1130470108288ED90E028ED30E0F90120812260BF
S1130480FC01208300000F900F90DF91CF9108951D
S1130490CF93DF9300D000D01F92CDB7DEB79B83FC
S11304A08A837D836C838DEE90E02A813B81F90100
S11304B0248135812295207FFC0120838A819B81C0
S11304C0FC018481958121DF882309F450C083EFE6
S11304D090E02A813B81F90120813181369527956D
S11304E03695279536952795FC01208382EF90E079
S11304F02A813B81F901208131812295220F207EBE
S1130500FC01208381EF90E0FC01108280EF90E0F9
S113051024E0FC01208387EF90E02A813B81F901EC
S113052022813381369527953695279536952795DB
S1130530FC01208386EF90E02A813B81F90122812E
S113054033812295220F207EFC01208385EF90E0E9
S1130550FC01108284EF90E0FC0110828FEE90E0A9
S113056028ECFC0120838EEE90E0FC0110821982BD
S11305701FC08DEE90E02A813B81F90124813581F1
S1130580322F3295307F2981232B2860FC01208370
S11305908981882F90E02C813D81820F931F2AEF5F
S11305A030E0F9012081FC01208389818F5F8983F8
S11305B089818830F0F200000F900F900F900F9017
S11305C00F90DF91CF910895CF93DF9300D000D0A7
S11305D01F92CDB7DEB79B838A837D836C83198298
S11305E01FC08DEE90E02A813B81F9012481358181
S11305F0322F3295307F2981232B2860FC01208300
S11306008AEF90E02981222F30E04C815D81240F14
S1130610351FF9012081FC01208389818F5F898343
S113062089818830F0F28DEE90E02A813B81F901D6
S1130630248135812295207FFC0120838A819B813E
S1130640FC018481958161DE882309F444C08EEE27
S113065090E0FC01108283EF90E02A813B81F90154
S1130660208131813695279536952795369527959E
S1130670FC01208382EF90E02A813B81F9012081F3
S113068031812295220F207EFC01208381EF90E0AE
S1130690FC01108280EF90E0FC01108287EF90E073
S11306A0FC01108286EF90E0FC01108285EF90E05F
S11306B0FC01108284EF90E0FC0110828EEE90E049
S11306C0FC0110828FEE90E028E4FC0120838EEE82
S11306D090E0FC01108200000F900F900F900F909B
S11306E00F90DF91CF910895CF93DF9300D000D086
S11306F0CDB7DEB79A8389837C836B838B819C819E
S1130700FC0181818431D1F48B819C81FC01808145
S1130710882F90E0895F9E4FFC01808160E0AAD021
S11307208B819C81FC0111828B819C81FC018081E5
S113073021E0280F8B819C81FC0120838B819C818B
S1130740FC018081843021F48B819C81FC01108226
S11307508B819C81FC018081682F70E08B819C815E
S1130760FC018181882F90E049815A81E4E1E69F70
S11307709001E79F300D1124240F351F820F931F22
S1130780FC01808161E076D08B819C81FC018181B8
S113079021E0280F8B819C81FC01218300000F90B4
S11307A00F900F900F90DF91CF910895CF93DF9327
S11307B000D0CDB7DEB719821A8289819A810F9051
S11307C00F90DF91CF910895CF93DF93CDB7DEB72C
S11307D0C455D1090FB6F894DEBF0FBECDBF9E013C
S11307E02D5A3F4FF90191838083198222C01A82C6
S11307F01AC08981482F50E08A81882F90E064E1F3
S1130800649F9001659F300D1124AE014F5F5F4FCF
S1130810240F351F820F931F029620E1FC012083D1
S11308208A818F5F8A838A81843118F389818F5FFB
S1130830898389818430D8F2CE018D5A9F4FFC017F
S11308408081918120E5FE013396DC0101900D92B7
S11308502A95E1F7CE018D5A9F4FFC018081918149
S1130860CC5ADF4F0FB6F894DEBF0FBECDBFDF9179
S1130870CF9108950F931F93CF93DF9300D000D0AF
S1130880CDB7DEB78B836C830EE210E08B819DD4F1
S1130890F80180838C81813051F485E290E025E277
S11308A030E0F90120812064FC01208309C085E245
S11308B090E025E230E0F90120812F7BFC012083C8
S11308C085E290E025E230E0F90120812061FC011D
S11308D020831A8219820EC085E290E025E230E07E
S11308E0F90120812F7EFC01208389819A81019660
S11308F09A83898389819A81843691056CF30000F7
S11309000F900F900F900F90DF91CF911F910F9147
S113091008958F92AF92CF92EF920F93CF93DF937C
S1130920CDB7DEB7812CA12CC12CE12C00E020E056
S11309304FE16FE181E07AD00F2EFFEE8F2EF02D84
S11309400F2EFFEEAF2EF02D0F2EFFEECF2EF02D3B
S11309500F2EFFEEEF2EF02D0FEE2FEE4FEE6FEE7B
S113096082E064D00F2EFEE18F2EF02D0F2EFEE1DB
S1130970AF2EF02D0F2EFEE1CF2EF02D0F2EFEE127
S1130980EF2EF02D0EE12EE14EE16EE183E04ED02C
S1130990812CA12CC12CE12C0FEF2FEF4FEF6FEF27
S11309A084E044D00F2EFFEE8F2EF02D0F2EFFEE9D
S11309B0AF2EF02D0F2EFFEECF2EF02D0F2EFFEECB
S11309C0EF2EF02D0FEF2FEF4FEF6FEF85E02ED0CE
S11309D0812C6894AA24A1F80F2EF5E1CF2EF02DD6
S11309E00F2EFAE0EF2EF02D04E02AE045E168E056
S11309F086E01CD00F2EFFE18F2EF02D0F2EFFE18D
S1130A00AF2EF02D0F2EFFE1CF2EF02DE12C00E0C4
S1130A1020E040E060E087E009D00000DF91CF9162
S1130A200F91EF90CF90AF908F9008958F92AF92E7
S1130A30CF92EF920F93CF93DF93CDB7DEB7299781
S1130A400FB6F894DEBF0FBECDBF89836A834B8394
S1130A502C830D83EE82CF82A88689868981882F94
S1130A6090E00896880F880F880F60E003DF61E04C
S1130A708A8100DF61E08B81FDDE61E08C81FADE3A
S1130A8061E08D81F7DE61E08E81F4DE61E08F81CB
S1130A90F1DE61E08885EEDE61E08985EBDE60E011
S1130AA082E0E8DE000029960FB6F894DEBF0FBEA0
S1130AB0CDBFDF91CF910F91EF90CF90AF908F90FA
S1130AC00895CF93DF93CDB7DEB727970FB6F89489
S1130AD0DEBF0FBECDBF9B838A837D836C834E8331
S1130AE02F83198225C08E81682F70E08981282F79
S1130AF030E08F81882F90E0820F931F2981222F6D
S1130B0030E04C815D81240F351FD901EC914A817D
S1130B105B81F4E1F69F9001F79F300D1124240FBF
S1130B20351F820F931FDC01EC9389818F5F8983CA
S1130B308981882F90E02C813D81820F931FFC01D5
S1130B408081882351F08F81282F30E08981882F7C
S1130B5090E0820F931F449734F2000027960FB65B
S1130B60F894DEBF0FBECDBFDF91CF910895CF9330
S1130B70DF9300D0CDB7DEB71A8219820DC0898108
S1130B809A8180509F4FFC01808160E073DE8981EF
S1130B909A8101969A83898389819A8107977CF344
S1130BA000000F900F90DF91CF910895CF93DF93C2
S1130BB000D000D0CDB7DEB79A8389837C836B8362
S1130BC089819A814BE06EE026D189819A8124E063
S1130BD043E06BE071E075DF4B815C819A01ADEC21
S1130BE0BCEC58D696958795969587959695879556
S1130BF0880F991F9C01220F331F220F331F820F6E
S1130C00931F9A01281B390BC901282F89819A81C6
S1130C10422F6AE000D18B819C819C01ADECBCEC3D
S1130C2039D69695879596958795969587959C83BD
S1130C308B834B815C819A01ADECBCEC2BD69695F1
S1130C4087959695879596958795880F991F9C010A
S1130C50220F331F220F331F820F931F9A01281B69
S1130C60390BC901282F89819A81422F66E0D3D09C
S1130C708B819C819C01ADECBCEC0CD69695879540
S1130C8096958795969587959C838B834B815C81FC
S1130C909A01ADECBCECFED5969587959695879513
S1130CA096958795880F991F9C01220F331F220F59
S1130CB0331F820F931F9A01281B390BC901282F58
S1130CC089819A81422F60E0A6D000000F900F9096
S1130CD00F900F90DF91CF910895CF93DF9300D0C1
S1130CE000D0CDB7DEB79A8389837C836B838981F7
S1130CF09A814DE060E18FD089819A812EE040E0B5
S1130D006DE071E0DEDE89819A8128E043E06BE0EA
S1130D1071E0D7DE4B815C819A01ADECBCECBAD5B5
S1130D20969587959695879596958795880F991F9B
S1130D309C01220F331F220F331F820F931F9A012E
S1130D40281B390BC901282F89819A81422F6AE017
S1130D5062D08B819C819C01ADECBCEC9BD59695BB
S1130D60879596958795969587959C838B834B81DC
S1130D705C819A01ADECBCEC8DD5969587959695E2
S1130D80879596958795880F991F9C01220F331F8D
S1130D90220F331F820F931F9A01281B390BC9019D
S1130DA0282F89819A81422F64E035D08B819C81E0
S1130DB09C01ADECBCEC6ED5969587959695879580
S1130DC0969587959C838B834B815C819A01ADECCE
S1130DD0BCEC60D59695879596958795969587955D
S1130DE0880F991F9C01220F331F220F331F820F7C
S1130DF0931F9A01281B390BC901282F89819A81D5
S1130E00422F60E008D000000F900F900F900F90D9
S1130E10DF91CF910895CF93DF9300D000D0CDB769
S1130E20DEB79A8389836B834C838C81882F90E00F
S1130E30092E000CAA0BBB0B40E050E02DE030E083
S1130E40841B950B2817390708F49AC1865B9F4FBA
S1130E50FC0117C589819A812B8140E06FE071E024
S1130E6030DE89819A812B8141E063E171E029DEE2
S1130E7089819A812B8142E063E171E022DE8981DC
S1130E809A812B8143E06FE071E01BDE96C189817A
S1130E909A812B8140E067E171E013DE89819A81B8
S1130EA02B8141E06BE171E00CDE89819A812B8119
S1130EB042E06BE171E005DE89819A812B8143E098
S1130EC06BE171E0FEDD79C189819A812B8140E07B
S1130ED06FE071E0F6DD89819A812B8141E06FE159
S1130EE071E0EFDD89819A812B8142E063E271E058
S1130EF0E8DD89819A812B8143E06FE071E0E1DDD7
S1130F005CC189819A812B8140E06FE071E0D9DD79
S1130F1089819A812B8141E06FE171E0D2DD898181
S1130F209A812B8142E067E271E0CBDD89819A816D
S1130F302B8143E06FE071E0C4DD3FC189819A8178
S1130F402B8140E06BE271E0BCDD89819A812B81C9
S1130F5041E06FE271E0B5DD89819A812B8142E045
S1130F6063E371E0AEDD89819A812B8143E067E31D
S1130F7071E0A7DD22C189819A812B8140E06FE075
S1130F8071E09FDD89819A812B8141E06BE371E0FF
S1130F9098DD89819A812B8142E067E271E091DDDD
S1130FA089819A812B8143E06FE071E08ADD05C17C
S1130FB089819A812B8140E06FE071E082DD898133
S1130FC09A812B8141E06BE371E07BDD89819A8119
S1130FD02B8142E06FE371E074DD89819A812B817A
S1130FE043E06FE071E06DDDE8C089819A812B8177
S1130FF040E06FE071E065DD89819A812B8141E0F9
S11310006BE171E05EDD89819A812B8142E063E4CA
S113101071E057DD89819A812B8143E063E471E0BB
S113102050DDCBC089819A812B8140E06FE071E073
S113103048DD89819A812B8141E067E471E041DDDB
S113104089819A812B8142E06FE371E03ADD8981E5
S11310509A812B8143E067E471E033DDAEC089817E
S11310609A812B8140E06FE071E02BDD89819A81C8
S11310702B8141E067E471E024DD89819A812B8131
S113108042E067E271E01DDD89819A812B8143E0B2
S11310906BE171E016DD91C089819A812B8140E07A
S11310A06BE471E00EDD89819A812B8141E06BE470
S11310B071E007DD89819A812B8142E06BE471E064
S11310C000DD89819A812B8143E06BE471E0F9DCD6
S11310D074C089819A812B8140E063E171E0F1DC85
S11310E089819A812B8141E063E171E0EADC8981A5
S11310F09A812B8142E06FE471E0E3DC89819A817B
S11311002B8143E063E471E0DCDC57C089819A8180
S11311102B8140E063E171E0D4DC89819A812B81E9
S113112041E063E171E0CDDC89819A812B8142E069
S113113063E171E0C6DC89819A812B8143E06FE031
S113114071E0BFDC3AC089819A812B8140E06FE075
S113115071E0B7DC89819A812B8141E063E571E01C
S1131160B0DC89819A812B8142E063E571E0A9DCDE
S113117089819A812B8143E06FE071E0A2DC1DC07C
S113118089819A812B8140E06FE071E09ADC89814A
S11311909A812B8141E06FE071E093DC89819A812F
S11311A02B8142E06FE071E08CDC89819A812B8194
S11311B043E06FE071E085DC000000000F900F90C9
S11311C00F900F90DF91CF910895CF93DF9300D0CC
S11311D01F92CDB7DEB78B8319821A8222C08B810E
S11311E0882F90E02A81222F30E002C095958795C0
S11311F02A95E2F7817099272A81222F30E047E06F
S113120050E0BA01621B730B9B0102C0880F991F47
S11312102A95E2F7982F8981892B89838A818F5FA8
S11312208A838A818830D8F289810F900F900F9039
S1131230DF91CF910895CF93DF93CDB7DEB7CF5F22
S1131240D1090FB6F894DEBF0FBECDBFBED28FDC7E
S113125060DBF7D0CCD20E947F0094D819821A8226
S11312601B821C821D821E821F82789441D286E0DA
S11312705BD29CDA9F878E87CE014096A5DACE0199
S1131280805A9F4FA1DACE0180559F4F9DDACE013F
S1131290409620E040E067E571E013DCCE01409623
S11312A020E041E06CE671E00CDCCE01409620E0E9
S11312B042E061E871E005DCCE01409620E043E0C5
S11312C066E971E0FEDBCE014096998788878091BC
S11312D0B901882349F01092B9019E01225F3F4F62
S11312E088859985B90100DA2091B5013091B6015C
S11312F04091B7015091B8018A859B85AC85BD8525
S1131300281739074A075B0779F08091B501909156
S1131310B601A091B701B091B8018A879B87AC87C9
S1131320BD878A818F5F8A838A818A30A8F01A8276
S11313308B818F5F8B838C819D81AE81BF81019670
S1131340A11DB11D8C839D83AE83BF830E94F100D8
S11313500E943D010E9412018C819D81AE81BF815A
S11313608C329140A105B10508F4B1CF8981882F51
S113137090E08130910531F18230910509F441C04A
S1131380892B09F05DC0CE01805A9F4F99878887C9
S11313908091AC019091AD0196958795969587952E
S11313A09C01ABE7B4E176D29C01369527958885FC
S11313B09985B901FBDB81E089831C821D821E8231
S11313C01F823EC0CE0180559F4F998788878091A8
S11313D0B0019091B10196958795969587959C015A
S11313E0ABE7B4E157D29C0136952795888599855A
S11313F0B90173DC82E089831C821D821E821F82F4
S11314001FC0CE01805A9F4F998788878091AC0175
S11314109091AD0196958795969587959C01ABE73C
S1131420B4E138D29C013695279588859985B90110
S1131430BDDB81E089831C821D821E821F82000025
S113144046CFCF93DF93CDB7DEB784E290E024E2BA
S113145030E0F90120812160FC01208384E290E0E6
S113146024E230E0F90120812660FC0120838CE431
S113147090E020EDFC0120838CE490E02CE430E04B
S1131480F90120812160FC01208381E290E021E2C6
S113149030E0F90120812860FC01208384E290E09F
S11314A024E230E0F90120812068FC01208382E2FB
S11314B090E022E230E0F90120812860FC012083E1
S11314C082E290E022E230E0F90120812860FC0110
S11314D020830000DF91CF910895CF93DF93CDB7A0
S11314E0DEB78091B401882311F481E001C080E06B
S11314F0DF91CF910895CF93DF9300D000D0CDB783
S1131500DEB789836A834B832C83898180930602A7
S11315108B81809308028A81809307028C81809357
S1131520090281E08093B4018981882F90E00097BB
S113153019F00197A1F026C082E290E022E230E0A7
S1131540F9012081277FFC01208385E290E025E2D8
S113155030E0F90120812068FC01208313C085E27A
S113156090E025E230E0F90120812F77FC0120830F
S113157082E290E022E230E0F90120812860FC015F
S1131580208300008EE490E02A81FC012083000087
S11315900F900F900F900F90DF91CF910895CF93FC
S11315A0DF9300D000D01F92CDB7DEB78A836B8360
S11315B04C832D8309C08FEF898303C089818150B7
S11315C0898389818823D1F788DF8823A1F32D813A
S11315D04C816B818A818FDF00000F900F900F90F8
S11315E00F900F90DF91CF910895CF93DF9300D0A8
S11315F0CDB7DEB789836A838A818095282F4AE034
S113160060E4898178DF00000F900F90DF91CF9123
S11316100895CF93DF9300D0CDB7DEB789836A8373
S11316208A818095282F4AE060E48981B8DF000030
S11316300F900F90DF91CF9108951F920F92009019
S11316405F000F92112400905B000F922F933F9341
S11316508F939F93EF93FF93CF93DF93CDB7DEB731
S11316608091B401882F90E08230910581F083301D
S11316709105B9F0019709F029C08EE490E020911A
S11316800802FC01208382E08093B4011FC08EE431
S113169090E020910902FC01208383E08093B4014F
S11316A015C085E290E025E230E0F9012081206850
S11316B0FC01208382E290E022E230E0F901208103
S11316C02860FC0120831092B40100000000DF9127
S11316D0CF91FF91EF919F918F913F912F910F9017
S11316E000925B000F9000925F000F901F9018957E
S11316F0CF93DF93CDB7DEB720E040E064E480E031
S11317004EDF20E040E062E481E049DF20E045E094
S113171064E480E044DF20E045E062E481E03FDF10
S11317200000DF91CF910895CF93DF931F92CDB73F
S1131730DEB789838981882F90E0092E000CAA0BDB
S1131740BB0B40E050E026E030E0841B950B2817EB
S1131750390708F435C0885A9F4FFC0192C069E0EC
S113176080E057DF69E081E054DF2AC066E080E072
S113177050DF66E081E04DDF23C060E380E049DFB5
S113178060E381E046DF1CC069E380E042DF69E397
S113179081E03FDF15C06FEF80E03BDF6FEF81E05A
S11317A038DF0EC060E080E034DF60E081E031DFEC
S11317B007C06FE080E02DDF6FE081E02ADF0000EA
S11317C000000F90DF91CF910895CF93DF93CDB7B1
S11317D0DEB78DE290E02FEFFC01208384E290E0FD
S11317E028E7FC0120830000DF91CF910895CF9377
S11317F0DF93CDB7DEB784E490E02BE0FC012083D7
S11318008EE690E022E0FC01208387E490E02AEF5A
S1131810FC0120830000DF91CF9108951F920F9265
S113182000905F000F9211248F939F93AF93BF9307
S1131830CF93DF93CDB7DEB78091B5019091B60118
S1131840A091B701B091B8010196A11DB11D80937B
S1131850B5019093B601A093B701B093B8018091FC
S1131860B9018F5F8093B9010000DF91CF91BF91DF
S1131870AF919F918F910F9000925F000F901F90F6
S11318801895EE0FFF1F0024001C0BBE0790F69165
S1131890E02D0994A29FB001B39FC001A39F700DD6
S11318A0811D1124911DB29F700D811D1124911D64
S10918B00895F894FFCF37
S11318B63908061700020CC094D48007006F00FF95
S11318C6FFFF00FF20FF0020FFFF002020FF00078E
S11318D607FF00FF0101000101FF000320200003B0
S11318E60220000405040020022000FF070700FF71
S11318F601FF0020FF2000FF07FF00202020000238
S1131906070300FF20200020202042616C646967E1
S113191620526573696E6720202020002020202035
S1131926202020202E2D2D2E202020202020202077
S1131936002020202E2D2D2D2D27202020272D2D53
S11319462E2020202000202020272D28292D2D2D53
S10F19562D2D28292D2720202020000002
S9030000FC
