:1000000087C00000A4C00000A2C00000A0C0000083
:100010009EC000009CC000009AC0000098C0000074
:1000200096C0000094C0000092C0000090C0000084
:100030008EC000008CC000008AC0000088C0000094
:100040000C94451984C0000082C0000080C00000EC
:100050000C94EC147CC000007AC0000078C0000052
:1000600076C0000074C0000072C0000070C00000C4
:100070006EC000006CC000006AC0000068C00000D4
:1000800066C0000064C0000062C0000060C00000E4
:100090005EC0000062108310A410C510E6100711A6
:1000A000281149116A118B11AC11CD11EE110F12EB
:1000B0007A1283128C1295129E12A712B012B912E4
:1000C000C212CB127E158C158515A11593159A15A4
:1000D000AF15A8151B1725172F17391743174D17DD
:1000E000571761176B1775177F17891793179D1788
:1000F000A717D117DB17E517EF17F91703180D1816
:10010000171821182B1835183F18491853185D185F
:1001100011241FBECFEFD0E1DEBFCDBF12E0A0E0C3
:10012000B1E0E2E7F3E300E00BBF02C007900D92FD
:10013000A835B107D9F723E0A8E5B2E001C01D92C8
:10014000AD34B207E1F70E941C130C94B71958CFD5
:10015000CF93DF93CDB7DEB780E092E09093DE02DD
:100160008093DD028FEF9FEF9093E0028093DF0298
:100170001092E2021092E10281E092E09093C602B6
:100180008093C5028FEF9FEF9093C8028093C702C0
:1001900081E090E09093CA028093C90280E094E0ED
:1001A0009093AE028093AD028FEF9FEF9093B002D9
:1001B0008093AF0282E090E09093B2028093B1020C
:1001C00080E194E09093D8028093D7028FEF9FEF65
:1001D0009093DA028093D90283E090E09093DC025E
:1001E0008093DB0280E294E09093BA028093B9029C
:1001F0008FEF9FEF9093BC028093BB0284E090E06E
:100200009093BE028093BD0280E095E09093A2029D
:100210008093A1028FEF9FEF9093A4028093A3029B
:1002200085E090E09093A6028093A50280E096E09E
:1002300090934403809343038FEF9FEF9093460383
:100240008093450386E090E09093480380934703B2
:1002500080E597E09093A8028093A7028FEF9FEF2D
:100260009093AA028093A90287E090E09093AC0259
:100270008093AB028AE090E09093B4028093B30243
:100280008FEF9FEF9093B6028093B50288E090E0E5
:100290009093B8028093B7028AE490E09093D202E0
:1002A0008093D1028FEF9FEF9093D4028093D3027B
:1002B00089E090E09093D6028093D5028AE490E0A2
:1002C0009093C0028093BF028FEF9FEF9093C20282
:1002D0008093C1028AE090E09093C4028093C302AD
:1002E00084E590E09093CC028093CB028FEF9FEF58
:1002F0009093CE028093CD028BE090E09093D00259
:100300008093CF020000DF91CF910895CF93DF93C8
:100310001F92CDB7DEB763EE72E08DED92E0A4D20E
:100320008091EA02898380919A029981981731F429
:10033000809199028F5F8093990202C01092990276
:10034000898180939A0280919902873920F4809163
:100350005E02882321F081E00E946C1803C080E0D7
:100360000E946C186BEE72E085EC92E07DD263EF38
:1003700072E08DEA92E078D26BEF72E087ED92E066
:1003800073D263E073E089EB92E06ED263E173E0D5
:1003900083E493E069D26BE173E087EA92E064D290
:1003A0006BE273E081ED92E05FD26BE373E08BEC84
:1003B00092E05AD200000F90DF91CF910895CF9331
:1003C000DF93CDB7DEB76BE073E081EA92E0E8D26D
:1003D0000000DF91CF910895CF93DF93CDB7DEB7C3
:1003E00080911B03DF91CF910895CF93DF931F92EC
:1003F000CDB7DEB789838981882F90E0880F991F58
:10040000880F991F880F991F8D519D4F0F90DF9175
:10041000CF910895CF93DF93CDB7DEB78091E302FC
:10042000282F30E08091E402882F90E0982F8827D1
:10043000822B932B909359028093580280915802FB
:100440009091590296958795969587959C01ABE773
:10045000B4E10E94A81996958795909359028093CC
:1004600058028091E902881F8827881F80935E02C6
:100470008091E9028295869586958370817080933C
:100480005F0280915F02882349F482E290E022E2D9
:1004900030E0F9012081FC01208309C082E290E074
:1004A00022E230E0F90120812460FC012083809168
:1004B000E90282958F708170809361028091F102D0
:1004C000282F30E08091F202882F90E0982F882723
:1004D000822B932B24E630E0B9010E948C19CB01CA
:1004E00090936802809367028091F302282F30E096
:1004F0008091F402882F90E0982F8827822B932BED
:1005000090936C0280936B028091F502282F30E06B
:100510008091F602882F90E0982F8827822B932BCA
:1005200090936E0280936D028091FB02282F30E041
:100530008091FC02882F90E0982F8827822B932BA4
:100540009093700280936F028091FD02282F30E01B
:100550008091FE02882F90E0982F8827822B932B82
:10056000909372028093710280E290E0FC0180819E
:10057000882F90E08170992721E0892B09F020E0F5
:10058000822F809382021092810280917102909159
:1005900072020A9768F080E290E0FC018081882F67
:1005A00090E08095909595958795817080938102D4
:1005B00080911503282F30E080911603882F90E05A
:1005C000982F8827822B932B909385028093840207
:1005D00080912E03282F30E080912D03882F90E00A
:1005E000982F8827822B932B9093970280939602C3
:1005F00080913E03282F30E080913D03882F90E0CA
:10060000982F8827822B932B9093920280939102AC
:1006100020919602309197028091910290919202DE
:100620008217930748F480919602909197029093D5
:100630007E0280937D0208C0809191029091920287
:1006400090937E0280937D0280912C03282F30E0CE
:1006500080912B03882F90E0982F8827822B932B53
:100660009093900280938F0280913C03282F30E07A
:1006700080913B03882F90E0982F8827822B932B23
:100680009093950280939402209194023091950268
:1006900080918F02909190028217930748F4809185
:1006A0009402909195029093800280937F0208C0FB
:1006B00080918F02909190029093800280937F02AC
:1006C0008091820280930B038091810280930C03BE
:1006D0008091830280930D030000DF91CF910895F4
:1006E000CF93DF9300D0CDB7DEB78A8319828A819A
:1006F0008830C0F08DED90E0FC018081882F90E083
:100700002A81222F30E02850310902C09595879523
:100710002A95E2F78170992721E0892B09F020E0E2
:10072000298315C08CED90E0FC018081882F90E03A
:100730002A81222F30E002C0959587952A95E2F70D
:100740008170992721E0892B09F020E02983898194
:100750000F900F90DF91CF910895CF93DF9300D04A
:10076000CDB7DEB788ED90E0FC011082198256C04B
:100770008DEE90E02981222F30E022953295307F56
:100780003227207F32272860FC0120838EEE90E004
:10079000FC0110828FEE90E0FC01108280EF90E06F
:1007A000FC01108281EF90E0FC01108282EF90E06A
:1007B000FC01108283EF90E0FC01108284EF90E056
:1007C000FC01108285EF90E0FC01108286EF90E042
:1007D000FC01108287EF90E0FC0110821A8218C0A1
:1007E0008DEE90E02981222F30E022953295307FE6
:1007F0003227207F3227322F2A81232B2860FC01C9
:1008000020838AEF90E0FC0110828A818F5F8A83C7
:100810008A81883028F389818F5F898389818F302D
:1008200008F4A6CF82EE90E022E0FC01208383EE64
:1008300090E02CE0FC01208384EE90E027E3FC01B3
:1008400020838BED90E0FC01108288ED90E028ED94
:1008500030E0F90120812260FC01208300000F902C
:100860000F90DF91CF910895CF93DF9300D000D008
:100870001F92CDB7DEB79B838A837D836C838DEE19
:1008800090E02A813B81F901248135812295207FE6
:10089000FC0120838A819B81FC018481958120DF7A
:1008A000882309F450C083EF90E02A813B81F9014D
:1008B0002081318136952795369527953695279550
:1008C000FC01208382EF90E02A813B81F9012081A5
:1008D00031812295220F207EFC01208381EF90E060
:1008E000FC01108280EF90E024E0FC01208387EF80
:1008F00090E02A813B81F901228133813695279549
:100900003695279536952795FC01208386EF90E054
:100910002A813B81F901228133812295220F207E99
:10092000FC01208385EF90E0FC01108284EF90E0D1
:10093000FC0110828FEE90E028ECFC0120838EEE0B
:1009400090E0FC01108219821FC08DEE90E02A8198
:100950003B81F90124813581322F3295307F298105
:10096000232B2860FC0120838981882F90E02C8133
:100970003D81820F931F2AEF30E0F9012081FC01B5
:10098000208389818F5F898389818830F0F200001C
:100990000F900F900F900F900F90DF91CF910895CF
:1009A000CF93DF9300D000D01F92CDB7DEB79B83EB
:1009B0008A837D836C8319821FC08DEE90E02A812B
:1009C0003B81F90124813581322F3295307F298195
:1009D000232B2860FC0120838AEF90E02981222FBD
:1009E00030E04C815D81240F351FF9012081FC012D
:1009F000208389818F5F898389818830F0F28DEE31
:100A000090E02A813B81F901248135812295207F64
:100A1000FC0120838A819B81FC018481958160DEB9
:100A2000882309F444C08EEE90E0FC01108283EF2D
:100A300090E02A813B81F90120813181369527950B
:100A40003695279536952795FC01208382EF90E017
:100A50002A813B81F901208131812295220F207E5C
:100A6000FC01208381EF90E0FC01108280EF90E098
:100A7000FC01108287EF90E0FC01108286EF90E08D
:100A8000FC01108285EF90E0FC01108284EF90E081
:100A9000FC0110828EEE90E0FC0110828FEE90E05F
:100AA00028E4FC0120838EEE90E0FC01108200001F
:100AB0000F900F900F900F900F90DF91CF910895AE
:100AC000CF93DF9300D000D0CDB7DEB79A83898370
:100AD0007C836B838B819C81FC0181818431D1F487
:100AE0008B819C81FC018081882F90E0895F9E4FE3
:100AF000FC01808160E0AAD08B819C81FC01118285
:100B00008B819C81FC01808121E0280F8B819C815D
:100B1000FC0120838B819C81FC018081843021F445
:100B20008B819C81FC0110828B819C81FC018081E6
:100B3000682F70E08B819C81FC018181882F90E07F
:100B400049815A81E4E1E69F9001E79F300D11242D
:100B5000240F351F820F931FFC01808161E076D046
:100B60008B819C81FC01818121E0280F8B819C81FC
:100B7000FC01218300000F900F900F900F90DF91E8
:100B8000CF910895CF93DF9300D0CDB7DEB7198210
:100B90001A8289819A810F900F90DF91CF910895E9
:100BA000CF93DF93CDB7DEB7C455D1090FB6F89414
:100BB000DEBF0FBECDBF9E012D5A3F4FF90191837D
:100BC0008083198222C01A821AC08981482F50E07E
:100BD0008A81882F90E064E1649F9001659F300DC9
:100BE0001124AE014F5F5F4F240F351F820F931FFB
:100BF000029620E1FC0120838A818F5F8A838A81AB
:100C0000843118F389818F5F898389818430D8F298
:100C1000CE018D5A9F4FFC018081918120E5FE011C
:100C20003396DC0101900D922A95E1F7CE018D5AA1
:100C30009F4FFC0180819181CC5ADF4F0FB6F89411
:100C4000DEBF0FBECDBFDF91CF9108950F931F93ED
:100C5000CF93DF9300D000D0CDB7DEB78B836C830A
:100C60000EE210E08B810E94E612F80180838C81F5
:100C7000813051F485E290E025E230E0F9012081F5
:100C80002064FC01208309C085E290E025E230E089
:100C9000F90120812F7BFC01208385E290E025E291
:100CA00030E0F90120812061FC0120831A82198241
:100CB0000EC085E290E025E230E0F90120812F7E30
:100CC000FC01208389819A8101969A838983898195
:100CD0009A81843691056CF300000F900F900F906D
:100CE0000F90DF91CF911F910F9108958F92AF9246
:100CF000CF92EF920F93CF93DF93CDB7DEB7812CD6
:100D0000A12CC12CE12C00E020E04FE16FE181E05B
:100D10007AD00F2EFFEE8F2EF02D0F2EFFEEAF2E7E
:100D2000F02D0F2EFFEECF2EF02D0F2EFFEEEF2E1B
:100D3000F02D0FEE2FEE4FEE6FEE82E064D00F2E0F
:100D4000FEE18F2EF02D0F2EFEE1AF2EF02D0F2E97
:100D5000FEE1CF2EF02D0F2EFEE1EF2EF02D0EE155
:100D60002EE14EE16EE183E04ED0812CA12CC12C0E
:100D7000E12C0FEF2FEF4FEF6FEF84E044D00F2EF9
:100D8000FFEE8F2EF02D0F2EFFEEAF2EF02D0F2E3B
:100D9000FFEECF2EF02D0F2EFFEEEF2EF02D0FEFEA
:100DA0002FEF4FEF6FEF85E02ED0812C6894AA24AF
:100DB000A1F80F2EF5E1CF2EF02D0F2EFAE0EF2E39
:100DC000F02D04E02AE045E168E086E01CD00F2E1B
:100DD000FFE18F2EF02D0F2EFFE1AF2EF02D0F2E05
:100DE000FFE1CF2EF02DE12C00E020E040E060E0BC
:100DF00087E009D00000DF91CF910F91EF90CF9065
:100E0000AF908F9008958F92AF92CF92EF920F9301
:100E1000CF93DF93CDB7DEB729970FB6F894DEBF37
:100E20000FBECDBF89836A834B832C830D83EE82F3
:100E3000CF82A88689868981882F90E00896880FBE
:100E4000880F880F60E002DF61E08A81FFDE61E0E9
:100E50008B81FCDE61E08C81F9DE61E08D81F6DE64
:100E600061E08E81F3DE61E08F81F0DE61E08885F4
:100E7000EDDE61E08985EADE60E082E0E7DE000029
:100E800029960FB6F894DEBF0FBECDBFDF91CF918C
:100E90000F91EF90CF90AF908F900895CF93DF9305
:100EA000CDB7DEB727970FB6F894DEBF0FBECDBF24
:100EB0009B838A837D836C834E832F83198225C015
:100EC0008E81682F70E08981282F30E08F81882FF4
:100ED00090E0820F931F2981222F30E04C815D81A9
:100EE000240F351FD901EC914A815B81F4E1F69F13
:100EF0009001F79F300D1124240F351F820F931F8F
:100F0000DC01EC9389818F5F89838981882F90E050
:100F10002C813D81820F931FFC018081882351F039
:100F20008F81282F30E08981882F90E0820F931FD6
:100F3000449734F2000027960FB6F894DEBF0FBE38
:100F4000CDBFDF91CF910895CF93DF9300D0CDB780
:100F5000DEB71A8219820DC089819A8180509F4F15
:100F6000FC01808160E072DE89819A8101969A831A
:100F7000898389819A8107977CF300000F900F90F5
:100F8000DF91CF910895CF93DF9300D000D0CDB7FC
:100F9000DEB79C838B8319821A8280E290E0FC0189
:100FA0008081882F90E08170992721E0892B09F0BA
:100FB00020E0298380E290E0FC018081882F90E08E
:100FC0008095909582709927959587958A838B81D6
:100FD0009C8120E040E06CE071E060DF8B819C81CF
:100FE00020E041E061E271E059DF8B819C8120E0EB
:100FF00042E066E371E052DF8B819C8120E043E0B8
:101000006BE471E04BDF40917D0250917E029A01CA
:10101000ADECBCEC0E94A81996958795969587959E
:1010200096958795880F991F9C01220F331F220FD9
:10103000331F820F931F9A01281B390BC901282FD8
:101040008B819C8140E062E10E94591280917D0277
:1010500090917E029C01ADECBCEC0E94A819AC0101
:101060005695479556954795569547959A01ADECF7
:10107000BCEC0E94A81996958795969587959695AC
:101080008795880F991F9C01220F331F220F331F52
:10109000820F931FFA01E81BF90BCF01282F8B81D8
:1010A0009C8140E060E10E94591280917D02909104
:1010B0007E0296958795969587959C01ABE7B4E15E
:1010C0000E94A819AC01569547959A01ADECBCEC6D
:1010D0000E94A819969587959695879596958795D8
:1010E000880F991F9C01220F331F220F331F820F7D
:1010F000931F9A01281B390BC901282F8B819C81D2
:1011000040E06FE00E94591240917F0250918002AE
:101110009A01ADECBCEC0E94A8199695879596951E
:10112000879596958795880F991F9C01220F331FED
:10113000220F331F820F931FFA01E81BF90BCF0117
:10114000282F8B819C8140E067E00E94591280919A
:101150007F02909180029C01ADECBCEC0E94A8192A
:10116000AC015695479556954795569547959A01E2
:10117000ADECBCEC0E94A81996958795969587953D
:1011800096958795880F991F9C01220F331F220F78
:10119000331F820F931F9A01281B390BC901282F77
:1011A0008B819C8140E065E00E94591280917F0212
:1011B0009091800296958795969587959C01ABE7CF
:1011C000B4E10E94A819AC01569547959A01ADEC7F
:1011D000BCEC0E94A819969587959695879596954B
:1011E0008795880F991F9C01220F331F220F331FF1
:1011F000820F931FFA01E81BF90BCF01282F8B8177
:101200009C8140E064E00E94591240915802509144
:1012100059029A01ADECBCEC0E94A81996958795ED
:101220009695879596958795880F991F9C01220F13
:10123000331F220F331F820F931F9A01281B390B74
:10124000C901282F8B819C8141E066E00E945912E0
:1012500080915802909159029C01ADECBCEC0E9427
:10126000A819AC01569547955695479556954795BB
:101270009A01ADECBCEC0E94A819969587959695BD
:10128000879596958795880F991F9C01220F331F8C
:10129000220F331F820F931FFA01E81BF90BCF01B6
:1012A000282F8B819C8141E065E00E94591280913A
:1012B00058029091590296958795969587959C012D
:1012C000ABE7B4E10E94A819AC01569547959A0185
:1012D000ADECBCEC0E94A8199695879596958795DC
:1012E00096958795880F991F9C01220F331F220F17
:1012F000331F820F931F9A01281B390BC901282F16
:101300008B819C8141E064E00E9459124091670208
:10131000509168029A01ADECBCEC0E94A819969518
:1013200087959695879596958795880F991F9C0127
:10133000220F331F220F331F820F931FFA01E81B66
:10134000F90BCF01282F8B819C8141E062E10E9443
:10135000591280916702909168029C01ADECBCEC3F
:101360000E94A819AC0156954795569547955695F4
:1013700047959A01ADECBCEC0E94A819969587950B
:101380009695879596958795880F991F9C01220FB2
:10139000331F220F331F820F931F9A01281B390B13
:1013A000C901282F8B819C8141E060E10E94591284
:1013B000809167029091680296958795969587959A
:1013C0009C01ABE7B4E10E94A819AC015695479582
:1013D0009A01ADECBCEC0E94A8199695879596955C
:1013E000879596958795880F991F9C01220F331F2B
:1013F000220F331F820F931FFA01E81BF90BCF0155
:10140000282F8B819C8141E06FE00E94591240910E
:101410008402509185029A01ADECBCEC0E94A8199F
:10142000969587959695879596958795880F991F98
:101430009C01220F331F220F331F820F931F9A012B
:10144000281B390BC901282F8B819C8142E067E062
:101450000E94591280918402909185029C01ADEC0A
:10146000BCEC0E94A819AC01569547955695479536
:10147000569547959A01ADECBCEC0E94A81996953B
:1014800087959695879596958795880F991F9C01C6
:10149000220F331F220F331F820F931FFA01E81B05
:1014A000F90BCF01282F8B819C8142E065E00E94DF
:1014B0005912809184029091850296958795969510
:1014C00087959C01ABE7B4E10E94A819AC01569541
:1014D00047959A01ADECBCEC0E94A81996958795AA
:1014E0009695879596958795880F991F9C01220F51
:1014F000331F220F331F820F931F9A01281B390BB2
:10150000C901282F8B819C8142E064E0D2D74091B1
:101510006D0250916E029A01ADECBCEC0E94A819CC
:10152000969587959695879596958795880F991F97
:101530009C01220F331F220F331F820F931FFA01CA
:10154000E81BF90BCF01282F8B819C8143E066E0DB
:10155000B0D780916D0290916E029C01ADECBCEC15
:101560000E94A819AC0156954795569547955695F2
:1015700047959A01ADECBCEC0E94A8199695879509
:101580009695879596958795880F991F9C01220FB0
:10159000331F220F331F820F931F9A01281B390B11
:1015A000C901282F8B819C8143E065E082D7000030
:1015B0000F900F900F900F90DF91CF910895CF93E0
:1015C000DF9300D000D0CDB7DEB79C838B83198228
:1015D0001A8280E290E0FC018081882F90E0817087
:1015E000992721E0892B09F020E0298380E290E00F
:1015F000FC018081882F90E08095909582709927DA
:10160000959587958A838B819C8120E040E061E2FB
:1016100071E044DC8B819C8120E041E060E671E078
:101620003DDC8B819C8120E042E065E771E036DCA7
:101630008B819C8120E043E06AE871E02FDC4091DF
:101640005802509159029A01ADECBCEC0E94A819C5
:10165000969587959695879596958795880F991F66
:101660009C01220F331F220F331F820F931F9A01F9
:10167000281B390BC901282F8B819C8140E066E033
:1016800018D780915802909159029C01ADECBCECA6
:101690000E94A819AC0156954795569547955695C1
:1016A00047959A01ADECBCEC0E94A81996958795D8
:1016B0009695879596958795880F991F9C01220F7F
:1016C000331F220F331F820F931FFA01E81BF90B00
:1016D000CF01282F8B819C8140E065E0EAD6809184
:1016E00058029091590296958795969587959C01F9
:1016F000ABE7B4E10E94A819AC01569547959A0151
:10170000ADECBCEC0E94A8199695879596958795A7
:1017100096958795880F991F9C01220F331F220FE2
:10172000331F820F931F9A01281B390BC901282FE1
:101730008B819C8140E064E0BCD64091670250916F
:1017400068029A01ADECBCEC0E94A81996958795A9
:101750009695879596958795880F991F9C01220FDE
:10176000331F220F331F820F931FFA01E81BF90B5F
:10177000CF01282F8B819C8140E062E19AD6809135
:101780006702909168029C01ADECBCEC0E94A81924
:10179000AC015695479556954795569547959A01AC
:1017A000ADECBCEC0E94A819969587959695879507
:1017B00096958795880F991F9C01220F331F220F42
:1017C000331F820F931F9A01281B390BC901282F41
:1017D0008B819C8140E060E16CD6809167029091A2
:1017E000680296958795969587959C01ABE7B4E13D
:1017F0000E94A819AC01569547959A01ADECBCEC36
:101800000E94A819969587959695879596958795A0
:10181000880F991F9C01220F331F220F331F820F45
:10182000931FFA01E81BF90BCF01282F8B819C81B4
:1018300040E06FE03ED640918402509185029A01CB
:10184000ADECBCEC0E94A819969587959695879566
:1018500096958795880F991F9C01220F331F220FA1
:10186000331F820F931F9A01281B390BC901282FA0
:101870008B819C8141E067E01CD68091840290912D
:1018800085029C01ADECBCEC0E94A819AC015695F8
:10189000479556954795569547959A01ADECBCEC02
:1018A0000E94A81996958795969587959695879500
:1018B000880F991F9C01220F331F220F331F820FA5
:1018C000931FFA01E81BF90BCF01282F8B819C8114
:1018D00041E065E0EED58091840290918502969575
:1018E0008795969587959C01ABE7B4E10E94A8196E
:1018F000AC01569547959A01ADECBCEC0E94A81935
:10190000969587959695879596958795880F991FB3
:101910009C01220F331F220F331F820F931F9A0146
:10192000281B390BC901282F8B819C8141E064E081
:10193000C0D540917302509174029A01ADECBCEC99
:101940000E94A8199695879596958795969587955F
:10195000880F991F9C01220F331F220F331F820F04
:10196000931FFA01E81BF90BCF01282F8B819C8173
:1019700041E062E19ED580917302909174029C01D6
:10198000ADECBCEC0E94A819AC0156954795569554
:101990004795569547959A01ADECBCEC0E94A81965
:1019A000969587959695879596958795880F991F13
:1019B0009C01220F331F220F331F820F931F9A01A6
:1019C000281B390BC901282F8B819C8141E060E1E4
:1019D00070D5809173029091740296958795969533
:1019E00087959C01ABE7B4E10E94A819AC0156951C
:1019F00047959A01ADECBCEC0E94A8199695879585
:101A00009695879596958795880F991F9C01220F2B
:101A1000331F220F331F820F931FFA01E81BF90BAC
:101A2000CF01282F8B819C8141E06FE042D540910E
:101A30006B0250916C029A01ADECBCEC0E94A819AB
:101A4000969587959695879596958795880F991F72
:101A50009C01220F331F220F331F820F931F9A0105
:101A6000281B390BC901282F8B819C8142E067E03C
:101A700020D580916B0290916C029C01ADECBCEC86
:101A80000E94A819AC0156954795569547955695CD
:101A900047959A01ADECBCEC0E94A81996958795E4
:101AA0009695879596958795880F991F9C01220F8B
:101AB000331F220F331F820F931FFA01E81BF90B0C
:101AC000CF01282F8B819C8142E066E0F2D44091C7
:101AD0006D0250916E029A01ADECBCEC0E94A81907
:101AE000969587959695879596958795880F991FD2
:101AF0009C01220F331F220F331F820F931F9A0165
:101B0000281B390BC901282F8B819C8142E060E1A1
:101B1000D0D480916D0290916E029C01ADECBCEC32
:101B20000E94A819AC01569547955695479556952C
:101B300047959A01ADECBCEC0E94A8199695879543
:101B40009695879596958795880F991F9C01220FEA
:101B5000331F220F331F820F931FFA01E81BF90B6B
:101B6000CF01282F8B819C8142E06FE0A2D480912D
:101B70006F02909170029C01ADECBCEC0E94A81920
:101B8000AC015695479556954795569547959A01B8
:101B9000ADECBCEC0E94A819969587959695879513
:101BA00096958795880F991F9C01220F331F220F4E
:101BB000331F820F931F9A01281B390BC901282F4D
:101BC0008B819C8143E065E074D480916F02909199
:101BD000700296958795969587959C01ABE7B4E141
:101BE0000E94A819AC01569547959A01ADECBCEC42
:101BF0000E94A819969587959695879596958795AD
:101C0000880F991F9C01220F331F220F331F820F51
:101C1000931FFA01E81BF90BCF01282F8B819C81C0
:101C200043E064E046D480917102909172029C017D
:101C3000ADECBCEC0E94A819AC01569547955695A1
:101C40004795569547959A01ADECBCEC0E94A819B2
:101C5000969587959695879596958795880F991F60
:101C60009C01220F331F220F331F820F931F9A01F3
:101C7000281B390BC901282F8B819C8143E06BE025
:101C800018D48091710290917202969587959695DD
:101C900087959C01ABE7B4E10E94A819AC01569569
:101CA00047959A01ADECBCEC0E94A81996958795D2
:101CB0009695879596958795880F991F9C01220F79
:101CC000331F220F331F820F931FFA01E81BF90BFA
:101CD000CF01282F8B819C8143E06AE0EAD300008A
:101CE0000F900F900F900F90DF91CF910895CF93A9
:101CF000DF9300D0CDB7DEB79A8389830E94760642
:101D000000000F900F90DF91CF910895CF93DF9354
:101D100000D000D0CDB7DEB79A8389837C836B83F4
:101D200089819A814BE06EE0ADD189819A8124E06E
:101D300043E06FE971E0B2D84B815C819A01ADEC70
:101D4000BCEC0E94A81996958795969587959695CF
:101D50008795880F991F9C01220F331F220F331F75
:101D6000820F931F9A01281B390BC901282F8981E3
:101D70009A81422F6AE086D18B819C819C01ADECD7
:101D8000BCEC0E94A819969587959695879596958F
:101D900087959C838B834B815C819A01ADECBCEC75
:101DA0000E94A819969587959695879596958795FB
:101DB000880F991F9C01220F331F220F331F820FA0
:101DC000931F9A01281B390BC901282F89819A81F9
:101DD000422F66E057D18B819C819C01ADECBCEC1D
:101DE0000E94A819969587959695879596958795BB
:101DF0009C838B834B815C819A01ADECBCEC0E948F
:101E0000A819969587959695879596958795880FA5
:101E1000991F9C01220F331F220F331F820F931F24
:101E20009A01281B390BC901282F89819A81422FD9
:101E300060E028D100000F900F900F900F90DF917D
:101E4000CF910895CF93DF9300D000D0CDB7DEB708
:101E50009A8389837C836B8389819A814DE060E1D9
:101E600011D189819A812EE040E061EA71E016D8B3
:101E700089819A8128E043E06FE971E00FD84B81B6
:101E80005C819A01ADECBCEC0E94A81996958795EF
:101E90009695879596958795880F991F9C01220F97
:101EA000331F220F331F820F931F9A01281B390BF8
:101EB000C901282F89819A81422F6AE0E3D08B8162
:101EC0009C819C01ADECBCEC0E94A819969587956D
:101ED00096958795969587959C838B834B815C819E
:101EE0009A01ADECBCEC0E94A81996958795969541
:101EF000879596958795880F991F9C01220F331F10
:101F0000220F331F820F931F9A01281B390BC9011F
:101F1000282F89819A81422F64E0B4D08B819C81E3
:101F20009C01ADECBCEC0E94A819969587959695FE
:101F30008795969587959C838B834B815C819A01CD
:101F4000ADECBCEC0E94A81996958795969587955F
:101F500096958795880F991F9C01220F331F220F9A
:101F6000331F820F931F9A01281B390BC901282F99
:101F700089819A81422F60E085D000000F900F90F8
:101F80000F900F90DF91CF910895EF920F931F93D1
:101F9000CF93DF93CDB7DEB72A970FB6F894DEBFA5
:101FA0000FBECDBF9C838B836D834E832F83198798
:101FB0000887EA861A82198253C09A858981981700
:101FC000A8F09A858981981709F047C09E818D8174
:101FD000980F8981292F281B8B819C814F8163EA6F
:101FE00071E00E944E0781E08A8337C04885598599
:101FF0009A01ADECBCEC0E94A81996958795969530
:10200000879596958795880F991F9C01220F331FFE
:10201000220F331F820F931F9A01281B390BC9010E
:10202000282F9D818981981B8A81981B8E81392F49
:10203000380F8B819C814F81632F3BD28885998596
:102040009C01ADECBCEC0E94A819969587959695DD
:102050008795969587959987888789818F5F8983EA
:1020600099818D81981708F0A8CF00002A960FB6A5
:10207000F894DEBF0FBECDBFDF91CF911F910F91BE
:10208000EF900895CF93DF9300D000D0CDB7DEB7A7
:102090009A8389836B834C838C81882F90E0092EEF
:1020A000000CAA0BBB0B40E050E02DE030E0841B9D
:1020B000950B2817390708F4D3C1865B9F4FFC01A5
:1020C0000C949F1989819A812B8140E065EA71E027
:1020D0000E944E0789819A812B8141E069EA71E073
:1020E0000E944E0789819A812B8142E069EA71E062
:1020F0000E944E0789819A812B8143E065EA71E055
:102100000E944E07CEC189819A812B8140E06DEA01
:1021100071E00E944E0789819A812B8141E061EB39
:1021200071E00E944E0789819A812B8142E061EB28
:1021300071E00E944E0789819A812B8143E061EB17
:1021400071E00E944E07ADC189819A812B8140E0E8
:1021500065EA71E00E944E0789819A812B8141E0F6
:1021600065EB71E00E944E0789819A812B8142E0E4
:1021700069EB71E00E944E0789819A812B8143E0CF
:1021800065EA71E00E944E078CC189819A812B819A
:1021900040E065EA71E00E944E0789819A812B81B7
:1021A00041E065EB71E00E944E0789819A812B81A5
:1021B00042E06DEB71E00E944E0789819A812B818C
:1021C00043E065EA71E00E944E076BC189819A8104
:1021D0002B8140E061EC71E00E944E0789819A8179
:1021E0002B8141E065EC71E00E944E0789819A8164
:1021F0002B8142E069EC71E00E944E0789819A814F
:102200002B8143E06DEC71E00E944E074AC1898149
:102210009A812B8140E065EA71E00E944E07898136
:102220009A812B8141E061ED71E00E944E07898126
:102230009A812B8142E06DEB71E00E944E0789810B
:102240009A812B8143E065EA71E00E944E0729C123
:1022500089819A812B8140E065EA71E00E944E07F6
:1022600089819A812B8141E061ED71E00E944E07E6
:1022700089819A812B8142E065ED71E00E944E07D1
:1022800089819A812B8143E065EA71E00E944E07C3
:1022900008C189819A812B8140E065EA71E00E9442
:1022A0004E0789819A812B8141E061EB71E00E94A8
:1022B0004E0789819A812B8142E069ED71E00E948D
:1022C0004E0789819A812B8143E069ED71E00E947C
:1022D0004E07E7C089819A812B8140E065EA71E071
:1022E0000E944E0789819A812B8141E06DED71E05A
:1022F0000E944E0789819A812B8142E065ED71E051
:102300000E944E0789819A812B8143E06DED71E037
:102310000E944E07C6C089819A812B8140E065EA00
:1023200071E00E944E0789819A812B8141E06DED19
:1023300071E00E944E0789819A812B8142E06DEB0A
:1023400071E00E944E0789819A812B8143E061EB05
:1023500071E00E944E07A5C089819A812B8140E0DF
:1023600061EE71E00E944E0789819A812B8141E0E4
:1023700061EE71E00E944E0789819A812B8142E0D3
:1023800061EE71E00E944E0789819A812B8143E0C2
:1023900061EE71E00E944E0784C089819A812B8191
:1023A00040E069EA71E00E944E0789819A812B81A1
:1023B00041E069EA71E00E944E0789819A812B8190
:1023C00042E065EE71E00E944E0789819A812B817F
:1023D00043E069ED71E00E944E0763C089819A81F4
:1023E0002B8140E069EA71E00E944E0789819A8161
:1023F0002B8141E069EA71E00E944E0789819A8150
:102400002B8142E069EA71E00E944E0789819A813E
:102410002B8143E065EA71E00E944E0742C089814A
:102420009A812B8140E065EA71E00E944E07898124
:102430009A812B8141E069EE71E00E944E0789810B
:102440009A812B8142E069EE71E00E944E078981FA
:102450009A812B8143E065EA71E00E944E0721C01A
:1024600089819A812B8140E065EA71E00E944E07E4
:1024700089819A812B8141E065EA71E00E944E07D3
:1024800089819A812B8142E065EA71E00E944E07C2
:1024900089819A812B8143E065EA71E00E944E07B1
:1024A000000000000F900F900F900F90DF91CF91E0
:1024B0000895CF93DF9300D000D01F92CDB7DEB741
:1024C0009A8389836B834C832D838D81882F90E041
:1024D000092E000CAA0BBB0B40E050E029E030E0D5
:1024E000841B950B2817390708F45EC0885A9F4F44
:1024F000FC0125C789819A812B814C816DEE71E0A9
:102500000E944E075AC089819A812B814C816FEEBF
:1025100071E00E944E0751C089819A812B814C81C4
:1025200061EF71E00E944E0748C089819A812B813A
:102530004C8163EF71E00E944E073FC089819A8110
:102540002B814C8165EF71E00E944E0736C0898176
:102550009A812B814C8167EF71E00E944E072DC05C
:1025600089819A812B814C8169EF71E00E944E072D
:1025700024C089819A812B814C816BEF71E00E948C
:102580004E071BC089819A812B814C816DEF71E0D0
:102590000E944E0712C089819A812B814C816FEF76
:1025A00071E00E944E0709C089819A812B814C817C
:1025B00061E072E00E944E07000000000F900F9053
:1025C0000F900F900F90DF91CF910895CF93DF93ED
:1025D00000D01F92CDB7DEB78B8319821A8222C03A
:1025E0008B81882F90E02A81222F30E002C09595C0
:1025F00087952A95E2F7817099272A81222F30E06A
:1026000047E050E0BA01621B730B9B0102C0880FC8
:10261000991F2A95E2F7982F8981892B89838A81CE
:102620008F5F8A838A818830D8F289810F900F90DA
:102630000F90DF91CF910895CF93DF93CDB7DEB7A1
:10264000C155D1400FB6F894DEBF0FBECDBF90D5B7
:102650000E94A4070E947606C3D000D60E94A8005C
:102660000E94AD0318861982198682E08A871B862C
:102670001A821B821C821D82789409D287E023D2A1
:102680000E94C205998B888BCE0142960E94D0058C
:10269000CE018E599F4F0E94D005CE018E549F4F80
:1026A0000E94D005CE018E5F9E4F0E94D005CE01C4
:1026B000429620E040E063E072E00E944E07CE01C7
:1026C000429620E041E068E172E00E944E07CE01B0
:1026D000429620E042E06DE272E00E944E07CE0199
:1026E000429620E043E062E472E00E944E07CE0191
:1026F00042969F838E838091A002882351F010928E
:10270000A0029E01205F3F4F8E819F81B9010E94F0
:10271000600520919C0230919D0240919E02509153
:102720009F028C859D85AE85BF85281739074A078E
:102730005B0779F080919C0290919D02A0919E028E
:10274000B0919F028C879D87AE87BF8789818F5FFD
:10275000898389818A3008F10E94DF010E94860105
:102760000E940A0280910B01813059F481E0B4D4B7
:1027700082E290E022E230E0F90120812460FC0155
:10278000208319828A819B81AC81BD810196A11D24
:10279000B11D8A839B83AC83BD838A819B81AC817D
:1027A000BD818C329140A105B10508F4A4CFCE01C2
:1027B0008E5F9E4F9F838E838E819F810E94C30771
:1027C00010920B0182E290E022E230E0F9012081D8
:1027D0002B7FFC0120831A821B821C821D828BCFDF
:1027E000CF93DF93CDB7DEB784E290E024E230E010
:1027F000F90120812160FC01208384E290E024E241
:1028000030E0F90120812660FC0120838CE490E017
:1028100020EDFC0120838CE490E02CE430E0F90111
:1028200020812160FC01208381E290E021E230E000
:10283000F90120812860FC01208384E290E024E2F9
:1028400030E0F90120812068FC01208382E290E0E1
:1028500022E230E0F90120812860FC01208382E23D
:1028600090E022E230E0F90120812860FC01208321
:102870000000DF91CF910895CF93DF93CDB7DEB7FE
:1028800080919B02882311F481E001C080E0DF91F8
:10289000CF910895CF93DF9300D000D0CDB7DEB7AE
:1028A00089836A834B832C838981809349038B813D
:1028B00080934B038A8180934A038C8180934C03DD
:1028C00081E080939B028981882F90E0009719F026
:1028D0000197A1F026C082E290E022E230E0F90107
:1028E0002081277FFC01208385E290E025E230E013
:1028F000F90120812068FC01208313C085E290E06B
:1029000025E230E0F90120812F77FC01208382E26B
:1029100090E022E230E0F90120812860FC01208370
:1029200000008EE490E02A81FC01208300000F90DB
:102930000F900F900F90DF91CF910895CF93DF9379
:1029400000D000D01F92CDB7DEB78A836B834C8353
:102950002D8309C08FEF898303C0898181508983CA
:1029600089818823D1F788DF8823A1F32D814C81C9
:102970006B818A818FDF00000F900F900F900F9076
:102980000F90DF91CF910895CF93DF9300D0CDB713
:10299000DEB789836A838A818095282F4AE060E4C4
:1029A000898178DF00000F900F90DF91CF9108951B
:1029B000CF93DF9300D0CDB7DEB789836A838A8156
:1029C0008095282F4AE060E48981B8DF00000F90ED
:1029D0000F90DF91CF9108951F920F9200905F00AA
:1029E0000F92112400905B000F922F933F938F93CF
:1029F0009F93EF93FF93CF93DF93CDB7DEB7809193
:102A00009B02882F90E08230910581F08330910500
:102A1000B9F0019709F029C08EE490E020914B03B2
:102A2000FC01208382E080939B021FC08EE490E033
:102A300020914C03FC01208383E080939B0215C00E
:102A400085E290E025E230E0F90120812068FC0178
:102A5000208382E290E022E230E0F90120812860C8
:102A6000FC01208310929B0200000000DF91CF91B7
:102A7000FF91EF919F918F913F912F910F90009235
:102A80005B000F9000925F000F901F901895CF93FE
:102A9000DF93CDB7DEB720E040E064E480E04EDFB6
:102AA00020E040E062E481E049DF20E045E064E4CA
:102AB00080E044DF20E045E062E481E03FDF0000A9
:102AC000DF91CF910895CF93DF931F92CDB7DEB7FB
:102AD00089838981882F90E0092E000CAA0BBB0BFB
:102AE00040E050E027E030E0841B950B28173907C1
:102AF00008F43CC08E599F4FFC0121C469E080E07E
:102B000057DF69E081E054DF31C066E080E050DFEC
:102B100066E081E04DDF2AC060E380E049DF60E3EA
:102B200081E046DF23C069E380E042DF69E381E0C2
:102B30003FDF1CC066E380E03BDF66E381E038DF17
:102B400015C06FEF80E034DF6FEF81E031DF0EC042
:102B500060E080E02DDF60E081E02ADF07C06FE009
:102B600080E026DF6FE081E023DF000000000F90AF
:102B7000DF91CF910895CF93DF93CDB7DEB782E297
:102B800090E022E230E0F90120812F70FC012083E7
:102B900084E390E024E330E0F90120812B7FFC0105
:102BA00020830000DF91CF910895CF93DF93CDB7BD
:102BB000DEB788E290E0FC01108284E390E024E339
:102BC00030E0F90120812C7FFC0120830000DF919F
:102BD000CF910895CF93DF93CDB7DEB729970FB686
:102BE000F894DEBF0FBECDBF9D838C837F836E8341
:102BF00059874887C0DF2C813D818E819F81A90143
:102C0000481B590BCA0196958795969587959A8387
:102C10008983288539858E819F81281B390B89817D
:102C20009A81820F931F29813A81B90161D3CB0127
:102C30008B838B8118161CF48B8154D002C080E0EA
:102C400051D0000029960FB6F894DEBF0FBECDBF5D
:102C5000DF91CF910895CF93DF93CDB7DEB729975A
:102C60000FB6F894DEBF0FBECDBF9D838C837F83EC
:102C70006E835987488799DF2C813D818E819F81A2
:102C8000A901481B590BCA019C01AFE8B3EE60D300
:102C90009695879596958795969587959A83898336
:102CA000288539858E819F81281B390B89819A81DE
:102CB000820F931F29813A81B9011AD3CB018B83EB
:102CC0008B8118161CF48B8149D002C080E046D05D
:102CD000000029960FB6F894DEBF0FBECDBFDF917E
:102CE000CF910895CF93DF931F92CDB7DEB789833D
:102CF00082E290E022E230E0F9012081622F298116
:102D0000422F50E02FEF30E002C0220F331F4A95D0
:102D1000E2F72095309522953295307F3227207F3B
:102D20003227262BFC01208384E390E024E330E06B
:102D3000F9012081622F2981422F50E020E830E004
:102D400002C0359527954A95E2F72470262BFC01A1
:102D5000208300000F90DF91CF910895CF93DF93F0
:102D60001F92CDB7DEB7898388E290E028E230E099
:102D7000F9012081622F2981422F50E02FEF30E0AE
:102D800002C0359527954A95E2F72095262BFC0140
:102D9000208384E390E024E330E0F9012081622F76
:102DA000398129E3329F212D11242695422F50E0AD
:102DB0002FEF30E002C0220F331F4A95E2F7209533
:102DC0003095598149E3549F412D11244695442F54
:102DD00050E002C0220F331F4A95E2F7422F39819B
:102DE0002DEC329F212D1124269526952695240F12
:102DF000262BFC01208300000F90DF91CF910895D6
:102E0000CF93DF931F92CDB7DEB789838981882F57
:102E100090E0092E000CAA0BBB0B40E050E02EE026
:102E200030E0841B950B2817390708F49AC086599F
:102E30009F4FFC0184C282E290E022E230E0F9017F
:102E400020812061FC0120838CC082E290E022E29C
:102E500030E0F90120812062FC01208382C082E2FF
:102E600090E022E230E0F90120812064FC0120831F
:102E700078C082E290E022E230E0F901208120680F
:102E8000FC0120836EC084E390E024E330E0F9018C
:102E900020812460FC01208364C088E290E028E265
:102EA00030E0F90120812068FC0120835AC088E2CB
:102EB00090E028E230E0F90120812064FC012083C9
:102EC00050C088E290E028E230E0F90120812062E1
:102ED000FC01208346C088E290E028E230E0F9015E
:102EE00020812061FC0120833CC088E290E028E240
:102EF00030E0F90120812860FC01208332C088E2A3
:102F000090E028E230E0F90120812460FC01208378
:102F100028C088E290E028E230E0F90120812260B8
:102F2000FC0120831EC088E290E028E230E0F90135
:102F300020812160FC01208314C084E390E024E31D
:102F400030E0F90120812260FC0120830AC084E383
:102F500090E024E330E0F90120812160FC0120832E
:102F6000000000000F90DF91CF910895CF93DF9381
:102F70001F92CDB7DEB789838981882F90E0092E13
:102F8000000CAA0BBB0B40E050E02EE030E0841BAD
:102F9000950B2817390708F49AC087589F4FFC01F2
:102FA000CEC182E290E022E230E0F901208120717E
:102FB000FC0120838CC082E290E022E230E0F90143
:102FC00020812072FC01208382C082E290E022E214
:102FD00030E0F90120812074FC01208378C082E276
:102FE00090E022E230E0F90120812078FC0120838A
:102FF0006EC084E390E024E330E0F9012081247086
:10300000FC01208364C088E290E028E230E0F9010E
:1030100020812078FC0120835AC088E290E028E2D9
:1030200030E0F90120812074FC01208350C088E247
:1030300090E028E230E0F90120812072FC01208339
:1030400046C088E290E028E230E0F901208120715A
:10305000FC0120833CC088E290E028E230E0F901E6
:1030600020812870FC01208332C088E290E028E2B1
:1030700030E0F90120812470FC01208328C088E21F
:1030800090E028E230E0F90120812270FC012083E9
:103090001EC088E290E028E230E0F9012081217032
:1030A000FC01208314C084E390E024E330E0F901C4
:1030B00020812270FC0120830AC084E390E024E395
:1030C00030E0F90120812170FC0120830000000024
:1030D0000F90DF91CF910895CF93DF931F92CDB7DB
:1030E000DEB789838981882F90E0009719F00197D6
:1030F00059F014C08BE290E02BE230E0F90120811E
:103100002076FC0120830AC08BE290E02BE230E0C5
:10311000F90120812F69FC012083000000000F903D
:10312000DF91CF910895CF93DF931F92CDB7DEB794
:1031300089838981895F64DE97E08981292F281B33
:10314000822F5EDE8981883010F082E0BCDC8981CC
:10315000893010F081E0C0DF89818E3020F087E077
:10316000B2DC80E0B9DF00000F90DF91CF910895CD
:10317000CF93DF93CDB7DEB781E290E021E230E07C
:10318000F90120812C6FFC01208381E290E021E293
:1031900030E0F90120812C7FFC01208384E290E063
:1031A00024E230E0F9012081266FFC01208384E2D3
:1031B00090E024E230E0F9012081277FFC012083A8
:1031C00087E290E02FEFFC0120838AE290E02AE280
:1031D00030E0F90120812F69FC0120838DE290E02D
:1031E0002FEFFC01208380E390E020E330E0F90141
:1031F0002081217FFC01208383E390E023E330E002
:10320000F90120812F61FC01208382E290E0FC0122
:10321000108285E290E0FC01108288E290E0FC01DF
:1032200010828BE290E0FC0110828EE290E0FC01C3
:10323000108281E390E0FC01108284E390E0FC01C5
:10324000108282E290E022E230E0F90120812360E6
:10325000FC0120830000DF91CF910895CF93DF938D
:10326000CDB7DEB784E490E02BE0FC0120838EE64E
:1032700090E022E0FC01208387E490E02AEFFC014B
:1032800020830000DF91CF9108951F920F9200904C
:103290005F000F9211248F939F93AF93BF93CF93AF
:1032A000DF93CDB7DEB780919C0290919D02A091F3
:1032B0009E02B0919F020196A11DB11D80939C02B8
:1032C00090939D02A0939E02B0939F028091A002D2
:1032D0008F5F8093A0020000DF91CF91BF91AF91EB
:1032E0009F918F910F9000925F000F901F90189503
:1032F000AA1BBB1B51E107C0AA1FBB1FA617B7071C
:1033000010F0A61BB70B881F991F5A95A9F7809537
:103310009095BC01CD01089597FB072E16F40094FB
:1033200006D077FD08D0E4DF07FC05D03EF4909589
:1033300081959F4F0895709561957F4F0895EE0F89
:10334000FF1F0024001C0BBE0790F691E02D09948E
:10335000A29FB001B39FC001A39F700D811D1124D6
:10336000911DB29F700D811D1124911D0895F89437
:02337000FFCF8D
:103372003908061700020CC094D48001494E563A0F
:1033820020202E2043204D54523A2020202E20432C
:10339200005453563A202020562020414343553AA8
:1033A20020202E2043004C56563A20202E20562014
:1033B200434F4F4C3A32352E304300415050533A2E
:1033C200202020202020202020202020202020001B
:1033D2004C56563A20202E205620434F4F4C3A202E
:1033E200202E20430041505053313A2020252020E6
:1033F20041505053323A202025004250463A202074
:103402004250523A20202020202020202020000755
:10341200006F002C00FFFFFF00FF20FF0020FFFFD6
:10342200002020FF000707FF00FF0101000101FF4C
:1034320000032020000302200004050400200220D3
:1034420000FF070700FF01FF0020FF2000FF07FF2A
:10345200002020200002070300FF2020003000315E
:1034620000320033003400350036003700380039AE
:1034720000FF0020202042616C646967205265735E
:10348200696E67202020200020202020202020207C
:103492002E2D2D2E20202020202020200020202014
:1034A2002E2D2D2D2D27202020272D2D2E202020A2
:1034B2002000202020272D28292D2D2D2D2D2829B3
:0834C2002D272020202000002E
:00000001FF
