S00E00004449435F32332E7372656382
S11300008DC00000AAC00000A8C00000A6C0000067
S1130010A4C00000A2C00000A0C000009EC0000058
S11300209CC000009AC0000098C0000096C0000068
S113003094C0000092C0000090C000008EC0000078
S11300400C94E31C8AC0000088C0000086C0000035
S11300500C940C1882C0000080C000007EC0000018
S11300607CC000007AC0000078C0000076C00000A8
S113007074C0000072C0000070C000006EC00000B8
S11300806CC000006AC0000068C0000066C00000C8
S113009064C00000860AA30AC00ADD0AFA0A170B24
S11300A0340B510B6E0B8B0BA80BC50BE20BFF0B28
S11300B09D18A518A118B118A918AD18B918B51824
S11300C0DC18E418E018F018E818EC18F818F4181C
S11300D01C192A1923193F19311938194D194619B0
S11300E0B91AC31ACD1AD71AE11AEB1AF51AFF1A5C
S11300F0091B131B1D1B271B311B3B1B451B6F1BA4
S1130100791B831B8D1B971BA11BAB1BB51BBF1B33
S1130110C91BD31BDD1BE71BF11BFB1B11241FBEDB
S1130120CFEFD0E1DEBFCDBF13E0A0E0B1E0E6E069
S1130130FBE300E00BBF02C007900D92A038B107AB
S1130140D9F724E0A0E8B3E001C01D92A338B207B8
S1130150E1F70E94770C0C94811D52CFCF93DF936B
S1130160CDB7DEB780E092E090930E0480930D0447
S11301708FEF9FEF9093100480930F04109212045A
S11301801092110481E092E09093020480930104A0
S11301908FEF9FEF909304048093030481E090E039
S11301A0909306048093050480E094E09093EA031E
S11301B08093E9038FEF9FEF9093EC038093EB031D
S11301C082E090E09093EE038093ED0381E094E06D
S11301D090937404809373048FEF9FEF909376044D
S11301E08093750483E090E090937804809377047F
S11301F080E294E09093F6038093F5038FEF9FEFF2
S11302009093F8038093F70384E090E09093FA03CB
S11302108093F90380E095E09093DE038093DD03FF
S11302208FEF9FEF9093E0038093DF0385E090E0EE
S11302309093E2038093E10380E096E090937A0444
S1130240809379048FEF9FEF90937C0480937B04D9
S113025086E090E090937E0480937D0480E597E0AF
S11302609093E4038093E3038FEF9FEF9093E6036F
S11302708093E50387E090E09093E8038093E7039D
S113028080E093E09093FC038093FB038FEF9FEF58
S11302909093FE038093FD0388E090E09093000424
S11302A08093FF038AE494E09093F0038093EF0338
S11302B08FEF9FEF9093F2038093F10389E090E036
S11302C09093F4038093F30383E594E090930804FC
S11302D0809307048FEF9FEF90930A04809309049F
S11302E08AE090E090930C0480930B040000DF916B
S11302F0CF910895EF92FF920F931F93CF93DF93C3
S11303001F92CDB7DEB780911A0489838091CD0303
S11303109981981781F08091D8039091D903A09185
S1130320DA03B091DB038093CE039093CF03A093C1
S1130330D003B093D10389818093CD032091D80356
S11303403091D9034091DA035091DB038091CE03BD
S11303509091CF03A091D003B091D10379018A0188
S1130360E81AF90A0A0B1B0BD801C701883E93400F
S1130370A105B10518F081E00E940A1C80911904BE
S1130380881F8827881F8093860380918603813085
S113039051F480918B03882331F480918C038F5F17
S11303A080938C0306C080918603882311F41092F5
S11303B08C0380918C03823330F081E00E940A1C0C
S11303C081E080938B0380911904829586958695AC
S11303D0837081708093870380918703882381F4DD
S11303E08091D303882361F41092D20382E290E0D7
S11303F022E230E0F90120812B7FFC0120831DC023
S11304008091D3038823C9F48091D203883C28F4D3
S11304108091D2038F5F8093D2038091D203883C72
S113042060F081E08093D30382E290E022E230E046
S1130430F90120812460FC01208300000F90DF91EA
S1130440CF911F910F91FF90EF900895CF93DF9379
S1130450CDB7DEB763E174E08DE094E05CD36BE18B
S113046074E081E094E057D363E274E089EE93E0B2
S113047052D36BE274E083E794E04DD363E374E01A
S113048085EF93E048D363E474E089E794E043D3D1
S11304906BE474E083EE93E03ED363E574E08BEFAA
S11304A093E039D36BE574E08FEE93E034D363E6E5
S11304B074E087E094E02FD30000DF91CF9108959A
S11304C0CF93DF93CDB7DEB76BE374E08DED93E0AC
S11304D0BED30000DF91CF910895CF93DF93CDB7C2
S11304E0DEB780914C04DF91CF910895CF93DF93D1
S11304F01F92CDB7DEB7198280914D04282F8091C9
S11305004E04882F90E0880F991F282B80914F0468
S1130510882F90E081709927892B11F484E001C021
S113052080E0282B80915104882F90E081709927D6
S1130530892B11F488E001C080E0822B89838981B2
S11305400F90DF91CF910895CF93DF931F92CDB792
S1130550DEB789838981882F90E0880F991F880FDF
S1130560991F880F991F8D5E9B4F0F90DF91CF913C
S11305700895EF92FF920F931F93CF93DF93CDB71C
S1130580DEB780911304282F30E080911404882F63
S113059090E0982F8827822B932B9093810380934C
S11305A08003809180039091810396958795969519
S11305B087959C01ABE7B4E10E94681D96958795E9
S11305C0909381038093800380911904881F882766
S11305D0881F809386038091190482958695869559
S11305E083708170809387038091190482958F7042
S11305F081708093890380912104282F30E08091B9
S11306002204882F90E0982F8827822B932B909395
S11306109203809391038091910390919203969514
S11306208795969587959C01ABE7B4E10E94681D78
S113063096958795909392038093910380915304A8
S1130640282F30E080915404882F90E0982F882739
S1130650822B932B2AE030E0B9010E942A1DCB01A2
S1130660909396038093950380915504282F30E04E
S113067080915604882F90E0982F8827822B932B03
S11306802AE030E0B9010E942A1DCB01909398031F
S11306908093970380912B04282F30E080912C04C1
S11306A0882F90E0982F8827822B932B2AE030E024
S11306B0B9010E942A1DCB0190939A038093990358
S11306C080912D04282F30E080912E04882F90E013
S11306D0982F8827822B932B2AE030E0B9010E94BF
S11306E02A1DCB0190939C0380939B0380919903D3
S11306F090919A039C01220F331F80919B03909148
S11307009C03820F931F880F991F9093A2038093D9
S1130710A1038091A1039091A2030B9708F444C014
S11307208091990390919A03880F991F880F991FBC
S11307309C0140E050E084E690E0DC010E94771DDB
S11307407B018C018091A1039091A2039C0140E064
S113075050E0C801B7010E943D1DDA01C901909320
S11307609E0380939D0380919B0390919C03880F2B
S1130770991F9C0140E050E084E690E0DC010E9477
S1130780771D7B018C018091A1039091A2039C01B0
S113079040E050E0C801B7010E943D1DDA01C901E3
S11307A09093A00380939F0380912A048093A303D2
S11307B08091A303882324F48091A303819502C02C
S11307C08091A3038093A4038091A303882314F44A
S11307D08DE201C080E28093000180914504282FBE
S11307E030E080914604882F90E0982F8827822B50
S11307F0932B9093AD038093AC0380915E04282FD8
S113080030E080915D04882F90E0982F8827822B18
S1130810932B9093C9038093C80380916604282F77
S113082030E080916504882F90E0982F8827822BF0
S1130830932B90930201809301012091C80330917E
S1130840C90380910101909102018217930748F432
S11308508091C8039091C9039093A6038093A50344
S113086008C080910101909102019093A6038093A6
S1130870A50380915C04282F30E080915B04882FCD
S113088090E0982F8827822B932B9093C403809316
S1130890C30380916404282F30E080916304882F7F
S11308A090E0982F8827822B932B9093C7038093F3
S11308B0C6032091C6033091C7038091C30390916E
S11308C0C4038217930748F48091C6039091C70329
S11308D09093A8038093A70308C08091C3039091C9
S11308E0C4039093A8038093A7038091D8039091A5
S11308F0D903A091DA03B091DB0388399A43A105A7
S1130900B105E8F08091D5038823C9F480E290E032
S1130910FC018081882F90E08170992721E0892B48
S113092009F020E0822F8093AA038091AB038823EF
S113093019F487E00E94011981E08093AB0380E2FF
S113094090E0FC018081882F90E082709927892BA8
S113095021F481E08093A90302C01092A90380913D
S1130960AA0380933B048091A90380933C041092D2
S11309703D041092400480910F01809342040000D2
S1130980DF91CF911F910F91FF90EF900895CF9336
S1130990DF9300D0CDB7DEB78A8319828A8188308D
S11309A0C0F08DED90E0FC018081882F90E02A81D9
S11309B0222F30E02850310902C0959587952A9559
S11309C0E2F78170992721E0892B09F020E029833F
S11309D015C08CED90E0FC018081882F90E02A8185
S11309E0222F30E002C0959587952A95E2F7817011
S11309F0992721E0892B09F020E0298389810F9030
S1130A000F90DF91CF910895CF93DF9300D0CDB7AE
S1130A10DEB788ED90E0FC011082198256C08DEE9D
S1130A2090E02981222F30E022953295307F3227C1
S1130A30207F32272860FC0120838EEE90E0FC01A9
S1130A4010828FEE90E0FC01108280EF90E0FC01B8
S1130A50108281EF90E0FC01108282EF90E0FC01B3
S1130A60108283EF90E0FC01108284EF90E0FC019F
S1130A70108285EF90E0FC01108286EF90E0FC018B
S1130A80108287EF90E0FC0110821A8218C08DEE6C
S1130A9090E02981222F30E022953295307F322751
S1130AA0207F3227322F2A81232B2860FC012083C8
S1130AB08AEF90E0FC0110828A818F5F8A838A81A9
S1130AC0883028F389818F5F898389818F3008F486
S1130AD0A6CF82EE90E022E0FC01208383EE90E03A
S1130AE02CE0FC01208384EE90E027E3FC012083CA
S1130AF08BED90E0FC01108288ED90E028ED30E071
S1130B00F90120812260FC01208300000F900F90E6
S1130B10DF91CF910895CF93DF9300D000D01F923F
S1130B20CDB7DEB79B838A837D836C838DEE90E0A3
S1130B302A813B81F901248135812295207FFC01A2
S1130B4020838A819B81FC018481958120DF882315
S1130B5009F450C083EF90E02A813B81F9012081A0
S1130B603181369527953695279536952795FC013D
S1130B70208382EF90E02A813B81F9012081318139
S1130B802295220F207EFC01208381EF90E0FC015E
S1130B90108280EF90E024E0FC01208387EF90E056
S1130BA02A813B81F9012281338136952795369537
S1130BB0279536952795FC01208386EF90E02A81BE
S1130BC03B81F901228133812295220F207EFC0191
S1130BD0208385EF90E0FC01108284EF90E0FC011B
S1130BE010828FEE90E028ECFC0120838EEE90E0E2
S1130BF0FC01108219821FC08DEE90E02A813B8196
S1130C00F90124813581322F3295307F2981232BBC
S1130C102860FC0120838981882F90E02C813D810C
S1130C20820F931F2AEF30E0F9012081FC01208319
S1130C3089818F5F898389818830F0F200000F9069
S1130C400F900F900F900F90DF91CF910895CF9355
S1130C50DF9300D000D01F92CDB7DEB79B838A8389
S1130C607D836C8319821FC08DEE90E02A813B81C5
S1130C70F90124813581322F3295307F2981232B4C
S1130C802860FC0120838AEF90E02981222F30E044
S1130C904C815D81240F351FF9012081FC012083E3
S1130CA089818F5F898389818830F0F28DEE90E0AD
S1130CB02A813B81F901248135812295207FFC0121
S1130CC020838A819B81FC018481958160DE882355
S1130CD009F444C08EEE90E0FC01108283EF90E0B2
S1130CE02A813B81F90120813181369527953695FA
S1130CF0279536952795FC01208382EF90E02A8181
S1130D003B81F901208131812295220F207EFC0153
S1130D10208381EF90E0FC01108280EF90E0FC01E1
S1130D20108287EF90E0FC01108286EF90E0FC01D6
S1130D30108285EF90E0FC01108284EF90E0FC01CA
S1130D4010828EEE90E0FC0110828FEE90E028E499
S1130D50FC0120838EEE90E0FC01108200000F90D5
S1130D600F900F900F900F90DF91CF910895CF9334
S1130D70DF9300D000D0CDB7DEB79A8389837C831C
S1130D806B838B819C81FC0181818431D1F48B81C3
S1130D909C81FC018081882F90E0865F9E4FFC013E
S1130DA0808160E0AAD08B819C81FC0111828B81BF
S1130DB09C81FC01808121E0280F8B819C81FC01B6
S1130DC020838B819C81FC018081843021F48B8180
S1130DD09C81FC0110828B819C81FC018081682FA5
S1130DE070E08B819C81FC018181882F90E0498196
S1130DF05A81E4E1E69F9001E79F300D1124240F0E
S1130E00351F820F931FFC01808161E076D08B81B6
S1130E109C81FC01818121E0280F8B819C81FC0154
S1130E20218300000F900F900F900F90DF91CF91CE
S1130E300895CF93DF9300D0CDB7DEB719821A821D
S1130E4089819A810F900F90DF91CF910895CF936C
S1130E50DF93CDB7DEB7C455D1090FB6F894DEBF22
S1130E600FBECDBF9E012D5A3F4FF9019183808360
S1130E70198222C01A821AC08981482F50E08A81BF
S1130E80882F90E064E1649F9001659F300D1124E8
S1130E90AE014F5F5F4F240F351F820F931F0296E1
S1130EA020E1FC0120838A818F5F8A838A818431D7
S1130EB018F389818F5F898389818430D8F2CE01C8
S1130EC08D5A9F4FFC018081918120E5FE0133966C
S1130ED0DC0101900D922A95E1F7CE018D5A9F4FC6
S1130EE0FC0180819181CC5ADF4F0FB6F894DEBFAC
S1130EF00FBECDBFDF91CF9108950F931F93CF9372
S1130F00DF9300D000D0CDB7DEB78B836C830EE2C5
S1130F1010E08B81B6D4F80180838C81813051F448
S1130F2085E290E025E230E0F90120812064FC01B3
S1130F30208309C085E290E025E230E0F9012081B8
S1130F402F7BFC01208385E290E025E230E0F9016B
S1130F5020812061FC0120831A8219820EC085E25F
S1130F6090E025E230E0F90120812F7EFC0120830E
S1130F7089819A8101969A83898389819A818436A9
S1130F8091056CF300000F900F900F900F90DF917C
S1130F90CF911F910F9108958F92AF92CF92EF92BC
S1130FA00F93CF93DF93CDB7DEB7812CA12CC12C47
S1130FB0E12C00E020E04FE16FE181E07AD00F2ED8
S1130FC0FFEE8F2EF02D0F2EFFEEAF2EF02D0F2EF5
S1130FD0FFEECF2EF02D0F2EFFEEEF2EF02D0FEEA5
S1130FE02FEE4FEE6FEE82E064D00F2EFEE18F2ED7
S1130FF0F02D0F2EFEE1AF2EF02D0F2EFEE1CF2EA1
S1131000F02D0F2EFEE1EF2EF02D0EE12EE14EE13C
S11310106EE183E04ED0812CA12CC12CE12C0FEF8A
S11310202FEF4FEF6FEF84E044D00F2EFFEE8F2EA3
S1131030F02D0F2EFFEEAF2EF02D0F2EFFEECF2E44
S1131040F02D0F2EFFEEEF2EF02D0FEF2FEF4FEFC1
S11310506FEF85E02ED0812C6894AA24A1F80F2E7E
S1131060F5E1CF2EF02D0F2EFAE0EF2EF02D04E057
S11310702AE045E168E086E01CD00F2EFFE18F2EC8
S1131080F02D0F2EFFE1AF2EF02D0F2EFFE1CF2E0E
S1131090F02DE12C00E020E040E060E087E009D0A2
S11310A00000DF91CF910F91EF90CF90AF908F9090
S11310B008958F92AF92CF92EF920F93CF93DF93D5
S11310C0CDB7DEB729970FB6F894DEBF0FBECDBFFC
S11310D089836A834B832C830D83EE82CF82A88617
S11310E089868981882F90E00896880F880F880F59
S11310F060E003DF61E08A8100DF61E08B81FDDE77
S113110061E08C81FADE61E08D81F7DE61E08E8141
S1131110F4DE61E08F81F1DE61E08885EEDE61E07E
S11311208985EBDE60E082E0E8DE000029960FB6F8
S1131130F894DEBF0FBECDBFDF91CF910F91EF903A
S1131140CF90AF908F900895CF93DF93CDB7DEB754
S113115027970FB6F894DEBF0FBECDBF9B838A835B
S11311607D836C834E832F83198225C08E81682FE3
S113117070E08981282F30E08F81882F90E0820FE2
S1131180931F2981222F30E04C815D81240F351F6C
S1131190D901EC914A815B81F4E1F69F9001F79FBC
S11311A0300D1124240F351F820F931FDC01EC93A3
S11311B089818F5F89838981882F90E02C813D818B
S11311C0820F931FFC018081882351F08F81282F87
S11311D030E08981882F90E0820F931F449734F286
S11311E0000027960FB6F894DEBF0FBECDBFDF9187
S11311F0CF910895CF93DF9300D0CDB7DEB71A8295
S113120019820DC089819A818D5F9E4FFC01808176
S113121060E073DE89819A8101969A83898389814A
S11312209A8107977CF300000F900F90DF91CF9184
S11312300895CF93DF9300D0CDB7DEB79A83898327
S1131240ABDE00000F900F90DF91CF910895CF9304
S1131250DF9300D000D0CDB7DEB79A8389837C8337
S11312606B8389819A814BE06EE030D189819A81C8
S113127024E043E061E171E067DF4B815C819A0126
S1131280ADECBCEC0E94681D969587959695879564
S113129096958795880F991F9C01220F331F220F63
S11312A0331F820F931F9A01281B390BC901282F62
S11312B089819A81422F6AE009D18B819C819C01AA
S11312C0ADECBCEC0E94681D969587959695879524
S11312D0969587959C838B834B815C819A01ADECB9
S11312E0BCEC0E94681D9695879596958795969572
S11312F08795880F991F9C01220F331F220F331FDC
S1131300820F931F9A01281B390BC901282F898149
S11313109A81422F66E0DAD08B819C819C01ADECEE
S1131320BCEC0E94681D9695879596958795969531
S113133087959C838B834B815C819A01ADECBCECDB
S11313400E94681D9695879596958795969587959D
S1131350880F991F9C01220F331F220F331F820F06
S1131360931F9A01281B390BC901282F89819A815F
S1131370422F60E0ABD000000F900F900F900F90C1
S1131380DF91CF910895CF93DF9300D000D0CDB7F4
S1131390DEB79A8389837C836B8389819A814DE04C
S11313A060E194D089819A812EE040E063E171E0AC
S11313B0CBDE89819A8128E043E061E171E0C4DEFB
S11313C04B815C819A01ADECBCEC0E94681D969542
S11313D087959695879596958795880F991F9C0173
S11313E0220F331F220F331F820F931F9A01281BD2
S11313F0390BC901282F89819A81422F6AE066D06E
S11314008B819C819C01ADECBCEC0E94681D96957F
S1131410879596958795969587959C838B834B8125
S11314205C819A01ADECBCEC0E94681D9695879591
S11314309695879596958795880F991F9C01220FFD
S1131440331F220F331F820F931F9A01281B390B5E
S1131450C901282F89819A81422F64E037D08B817A
S11314609C819C01ADECBCEC0E94681D969587950F
S113147096958795969587959C838B834B815C8104
S11314809A01ADECBCEC0E94681D969587959695E3
S1131490879596958795880F991F9C01220F331F76
S11314A0220F331F820F931F9A01281B390BC90186
S11314B0282F89819A81422F60E008D000000F9084
S11314C00F900F900F90DF91CF910895CF93DF93FA
S11314D000D000D0CDB7DEB79A8389836B834C8369
S11314E08C81882F90E0092E000CAA0BBB0B40E0E6
S11314F050E02DE030E0841B950B2817390708F4E1
S11315009BC1865B9F4FFC010C945F1D89819A816E
S11315102B8140E065E171E017DE89819A812B819E
S113152041E069E171E010DE89819A812B8142E01A
S113153069E171E009DE89819A812B8143E065E1EB
S113154071E002DE96C189819A812B8140E06DE1D0
S113155071E0FADD89819A812B8141E061E271E0D9
S1131560F3DD89819A812B8142E061E271E0ECDD57
S113157089819A812B8143E061E271E0E5DD79C1E3
S113158089819A812B8140E065E171E0DDDD89810B
S11315909A812B8141E065E271E0D6DD89819A81EF
S11315A02B8142E069E271E0CFDD89819A812B8150
S11315B043E065E171E0C8DD5CC189819A812B81DA
S11315C040E065E171E0C0DD89819A812B8141E0D1
S11315D065E271E0B9DD89819A812B8142E06DE297
S11315E071E0B2DD89819A812B8143E065E171E08C
S11315F0ABDD3FC189819A812B8140E061E371E0D9
S1131600A3DD89819A812B8141E065E371E09CDD52
S113161089819A812B8142E069E371E095DD8981BA
S11316209A812B8143E06DE371E08EDD22C18981D3
S11316309A812B8140E065E171E086DD89819A81A0
S11316402B8141E061E471E07FDD89819A812B8106
S113165042E06DE271E078DD89819A812B8143E07B
S113166065E171E071DD05C189819A812B8140E0DA
S113167065E171E069DD89819A812B8141E061E452
S113168071E062DD89819A812B8142E065E471E039
S11316905BDD89819A812B8143E065E171E054DD52
S11316A0E8C089819A812B8140E065E171E04CDDDD
S11316B089819A812B8141E061E271E045DD898174
S11316C09A812B8142E069E471E03EDD89819A814F
S11316D02B8143E069E471E037DDCBC089819A81D5
S11316E02B8140E065E171E02FDD89819A812B81B6
S11316F041E06DE471E028DD89819A812B8142E02B
S113170065E471E021DD89819A812B8143E06DE4F8
S113171071E01ADDAEC089819A812B8140E065E1D8
S113172071E012DD89819A812B8141E06DE471E0E1
S11317300BDD89819A812B8142E06DE271E004DD49
S113174089819A812B8143E061E271E0FDDC91C0E3
S113175089819A812B8140E061E571E0F5DC898122
S11317609A812B8141E061E571E0EEDC89819A8107
S11317702B8142E061E571E0E7DC89819A812B816C
S113178043E061E571E0E0DC74C089819A812B81DA
S113179040E069E171E0D8DC89819A812B8141E0E4
S11317A069E171E0D1DC89819A812B8142E065E5B0
S11317B071E0CADC89819A812B8143E069E471E09C
S11317C0C3DC57C089819A812B8140E069E171E0D3
S11317D0BBDC89819A812B8141E069E171E0B4DC51
S11317E089819A812B8142E069E171E0ADDC8981D4
S11317F09A812B8143E065E171E0A6DC3AC08981DE
S11318009A812B8140E065E171E09EDC89819A81B7
S11318102B8141E069E571E097DC89819A812B8114
S113182042E069E571E090DC89819A812B8143E093
S113183065E171E089DC1DC089819A812B8140E0DA
S113184065E171E081DC89819A812B8141E065E168
S113185071E07ADC89819A812B8142E065E171E053
S113186073DC89819A812B8143E065E171E06CDC52
S1131870000000000F900F900F900F90DF91CF9118
S11318800895CF93DF9300D01F92CDB7DEB78B833B
S113189019821A8222C08B81882F90E02A81222FFC
S11318A030E002C0959587952A95E2F781709927D3
S11318B02A81222F30E047E050E0BA01621B730B0B
S11318C09B0102C0880F991F2A95E2F7982F8981FE
S11318D0892B89838A818F5F8A838A818830D8F2B1
S11318E089810F900F900F90DF91CF9108950F93FE
S11318F01F93CF93DF93CDB7DEB7C450D2400FB65A
S1131900F894DEBF0FBECDBF0E94561C73DC44DBCF
S11319100E9410170E94CC1C0E94AE0075D8198238
S11319201A8278940E94671884DA9C878B87CE0188
S11319300D968DDACE010D9620E040E06DE571E064
S113194003DCCE010D9620E041E062E771E0FCDBB0
S1131950CE010D9620E042E067E871E0F5DBCE01B0
S11319600D9620E043E06CE971E0EEDBCE01835A92
S11319709F4F6DDACE01835A9F4F20E040E061EB28
S113198071E0E2DBCE01835A9F4F20E041E066EC38
S113199071E0DADBCE01835A9F4F20E042E06BED29
S11319A071E0D2DBCE01835A9F4F20E043E060EF29
S11319B071E0CADBCE0183559F4F49DACE018355CE
S11319C09F4F20E040E065E072E0BEDBCE0183552E
S11319D09F4F20E041E06AE172E0B6DBCE0183551F
S11319E09F4F20E042E06FE272E0AEDBCE01835510
S11319F09F4F20E043E064E472E0A6DBCE01835015
S1131A009F4F25DACE0183509F4F20E040E069E5E7
S1131A1072E09ADBCE0183509F4F20E041E06EE6F6
S1131A2072E092DBCE0183509F4F20E042E063E8F6
S1131A3072E08ADBCE0183509F4F20E043E068E9E7
S1131A4072E082DBCE01835B9E4F01DACE01835BC1
S1131A509E4F20E040E06DEA72E076DBCE01835BCE
S1131A609E4F20E041E062EC72E06EDBCE01835BCE
S1131A709E4F20E042E067ED72E066DBCE01835BBF
S1131A809E4F20E043E062EC72E05EDBCE018356C1
S1131A909E4FDDD9CE0183569E4F20E040E06CEE90
S1131AA072E052DBCE0183569E4F20E041E061E0BC
S1131AB073E04ADBCE0183569E4F20E042E062ECA5
S1131AC072E042DBCE0183569E4F20E043E062EC9D
S1131AD072E03ADBCE010D969C838B83CE010D968A
S1131AE0092E000CAA0BBB0B9E0123513E4FF9019A
S1131AF080839183A283B383CE0183559F4F092EA4
S1131B00000CAA0BBB0B9E0123513E4FF9018483A9
S1131B109583A683B783CE01835A9F4F092E000C69
S1131B20AA0BBB0B9E0123513E4FF901808791877D
S1131B30A287B387CE0183509F4F092E000CAA0BB6
S1131B40BB0B9E0123513E4FF90184879587A687DD
S1131B50B787CE01835B9E4F092E000CAA0BBB0BEB
S1131B609E0123513E4FF901808B918BA28BB38B45
S1131B70CE0183569E4F092E000CAA0BBB0B9E016F
S1131B8023513E4FF901848B958BA68BB78BCE01E5
S1131B900D969C838B8380E00E94011981E00E9452
S1131BA00A1C82E290E022E230E0F9012081246004
S1131BB0FC0120838091DC03882349F01092DC032C
S1131BC09E01255F3F4F8B819C81B901D0D8209124
S1131BD0D8033091D9034091DA035091DB038F810C
S1131BE09885A985BA85281739074A075B0791F0B4
S1131BF08091D8039091D903A091DA03B091DB03CB
S1131C008F839887A987BA8789818F5F89838A811F
S1131C108F5F8A8389818A3010F40C9406170E949E
S1131C20260280910E01882311F40E947A010E94F9
S1131C30B902CE0183559F4F2B813C812817390768
S1131C4009F0A3C34091A7035091A8039A01ADECF6
S1131C50BCEC0E94681D96958795969587959695F8
S1131C608795880F991F9C01220F331F220F331F62
S1131C70820F931F9A01281B390BC90120E3280FF7
S1131C80CE0183559F4FFC0120878091A70390913B
S1131C90A8039C01ADECBCEC0E94681DAC015695F8
S1131CA0479556954795569547959A01ADECBCECEA
S1131CB00E94681D96958795969587959695879524
S1131CC0880F991F9C01220F331F220F331F820F8D
S1131CD0931F9A01281B390BC90120E3280FCE0159
S1131CE083559F4FFC0126838091A7039091A803FD
S1131CF096958795969587959C01ABE7B4E10E94EC
S1131D00681DAC01569547959A01ADECBCEC0E9458
S1131D10681D969587959695879596958795880FCE
S1131D20991F9C01220F331F220F331F820F931F11
S1131D309A01281B390BC90120E3280FCE018355D2
S1131D409F4FFC01258340919503509196039A017E
S1131D50ADECBCEC0E94681D969587959695879589
S1131D6096958795880F991F9C01220F331F220F88
S1131D70331F820F931F9A01281B390BC90120E3DB
S1131D80280FCE0183559F4FFC01238B809195032F
S1131D90909196039C01ADECBCEC0E94681DAC01D3
S1131DA05695479556954795569547959A01ADECA6
S1131DB0BCEC0E94681D9695879596958795969597
S1131DC08795880F991F9C01220F331F220F331F01
S1131DD0820F931F9A01281B390BC90120E3280F96
S1131DE0CE0183559F4FFC01228B809195039091E6
S1131DF0960396958795969587959C01ABE7B4E1F4
S1131E000E94681DAC01569547959A01ADECBCEC57
S1131E100E94681D969587959695879596958795C2
S1131E20880F991F9C01220F331F220F331F820F2B
S1131E30931F9A01281B390BC90120E3280FCE01F7
S1131E4083559F4FFC01218B4091A5035091A6031C
S1131E509A01ADECBCEC0E94681D96958795969509
S1131E60879596958795880F991F9C01220F331F9C
S1131E70220F331F820F931F9A01281B390BC901AC
S1131E8020E3280FCE0183559F4FFC01248F8091BE
S1131E90A5039091A6039C01ADECBCEC0E94681DC7
S1131EA0AC015695479556954795569547959A0191
S1131EB0ADECBCEC0E94681D969587959695879528
S1131EC096958795880F991F9C01220F331F220F27
S1131ED0331F820F931F9A01281B390BC90120E37A
S1131EE0280FCE0183559F4FFC01228F8091A503BB
S1131EF09091A60396958795969587959C01ABE757
S1131F00B4E10E94681DAC01569547959A01ADEC69
S1131F10BCEC0E94681D9695879596958795969535
S1131F208795880F991F9C01220F331F220F331F9F
S1131F30820F931F9A01281B390BC90120E3280F34
S1131F40CE0183559F4FFC01218F409199035091FD
S1131F509A039A01ADECBCEC0E94681D9695879596
S1131F609695879596958795880F991F9C01220FC2
S1131F70331F220F331F820F931F9A01281B390B23
S1131F80C90120E3280FCE0183559F4FFC0127A3ED
S1131F908091990390919A039C01ADECBCEC0E9452
S1131FA0681DAC01569547955695479556954795A6
S1131FB09A01ADECBCEC0E94681D969587959695A8
S1131FC0879596958795880F991F9C01220F331F3B
S1131FD0220F331F820F931F9A01281B390BC9014B
S1131FE020E3280FCE0183559F4FFC0126A3409187
S1131FF09103509192039A01ADECBCEC0E94681DD0
S1132000969587959695879596958795880F991FA8
S11320109C01220F331F220F331F820F931F9A013B
S1132020281B390BC90120E3280FCE0183559F4F8C
S1132030FC0120AB80919103909192039C01ADEC43
S1132040BCEC0E94681DAC01569547955695479582
S1132050569547959A01ADECBCEC0E94681D969587
S113206087959695879596958795880F991F9C01D6
S1132070220F331F220F331F820F931F9A01281B35
S1132080390BC90120E3280FCE0183559F4FFC0172
S113209026A78091910390919203969587959695A2
S11320A087959C01ABE7B4E10E94681DAC0156958D
S11320B047959A01ADECBCEC0E94681D96958795F6
S11320C09695879596958795880F991F9C01220F61
S11320D0331F220F331F820F931F9A01281B390BC2
S11320E0C90120E3280FCE0183559F4FFC0125A78A
S11320F09091A4038DEC989F812D1124869586954B
S11321008695880F282F220F220F820FF92FF81B94
S11321108F2F20E3280FCE0183559F4FFC0123AF5F
S11321209091A4038DEC989F812D1124982F96955E
S1132130969596958DEC989F812D1124869586957C
S11321408695880F282F220F220F820FF92FF81B54
S11321508F2F20E3280FCE0183559F4FFC0122AF20
S113216020910001CE0183559F4FFC0121AF409186
S1132170AC035091AD039A01ADECBCEC0E94681D18
S1132180969587959695879596958795880F991F27
S11321909C01220F331F220F331F820F931F9A01BA
S11321A0281B390BC90120E3280FCE0183559F4F0B
S11321B08C5B9F4FFC0120838091AC039091AD0315
S11321C09C01ADECBCEC0E94681DAC015695479592
S11321D056954795569547959A01ADECBCEC0E94EF
S11321E0681D969587959695879596958795880FFA
S11321F0991F9C01220F331F220F331F820F931F3D
S11322009A01281B390BC90120E3280FCE018355FD
S11322109F4F8E5B9F4FFC0120838091AC03909174
S1132220AD0396958795969587959C01ABE7B4E1A8
S11322300E94681DAC01569547959A01ADECBCEC23
S11322400E94681D9695879596958795969587958E
S1132250880F991F9C01220F331F220F331F820FF7
S1132260931F9A01281B390BC90120E3280FCE01C3
S113227083559F4F8F5B9F4FFC01208340918003C8
S1132280509181039A01ADECBCEC0E94681D9695B7
S113229087959695879596958795880F991F9C01A4
S11322A0220F331F220F331F820F931F9A01281B03
S11322B0390BC90120E3280FCE0183559F4F825B60
S11322C09F4FFC01208380918003909181039C01A6
S11322D0ADECBCEC0E94681DAC0156954795569533
S11322E04795569547959A01ADECBCEC0E94681D44
S11322F0969587959695879596958795880F991FB6
S11323009C01220F331F220F331F820F931F9A0148
S1132310281B390BC90120E3280FCE0183559F4F99
S1132320835B9F4FFC012083809180039091810304
S113233096958795969587959C01ABE7B4E10E94A5
S1132340681DAC01569547959A01ADECBCEC0E9412
S1132350681D969587959695879596958795880F88
S1132360991F9C01220F331F220F331F820F931FCB
S11323709A01281B390BC90120E3280FCE0183558C
S11323809F4F845B9F4FFC012083CE01835A9F4F54
S11323902B813C812817390709F0AEC2409195037F
S11323A0509196039A01ADECBCEC0E94681D969581
S11323B087959695879596958795880F991F9C0183
S11323C0220F331F220F331F820F931F9A01281BE2
S11323D0390BC90120E3280FCE01835A9F4FFC011A
S11323E0208780919503909196039C01ADECBCEC01
S11323F00E94681DAC01569547955695479556958C
S113240047959A01ADECBCEC0E94681D96958795A2
S11324109695879596958795880F991F9C01220F0D
S1132420331F220F331F820F931F9A01281B390B6E
S1132430C90120E3280FCE01835A9F4FFC01278353
S11324408091950390919603969587959695879597
S11324509C01ABE7B4E10E94681DAC015695479519
S11324609A01ADECBCEC0E94681D969587959695F3
S1132470879596958795880F991F9C01220F331F86
S1132480220F331F820F931F9A01281B390BC90196
S113249020E3280FCE01835A9F4FFC0126834091ED
S11324A09703509198039A01ADECBCEC0E94681D0F
S11324B0969587959695879596958795880F991FF4
S11324C09C01220F331F220F331F820F931F9A0187
S11324D0281B390BC90120E3280FCE01835A9F4FD3
S11324E0FC01248F80919703909198039C01ADEC9B
S11324F0BCEC0E94681DAC015695479556954795CE
S1132500569547959A01ADECBCEC0E94681D9695D2
S113251087959695879596958795880F991F9C0121
S1132520220F331F220F331F820F931F9A01281B80
S1132530390BC90120E3280FCE01835A9F4FFC01B8
S1132540238F8091970390919803969587959695FC
S113255087959C01ABE7B4E10E94681DAC015695D8
S113256047959A01ADECBCEC0E94681D9695879541
S11325709695879596958795880F991F9C01220FAC
S1132580331F220F331F820F931F9A01281B390B0D
S1132590C90120E3280FCE01835A9F4FFC01228FEB
S11325A04091990350919A039A01ADECBCEC0E94BE
S11325B0681D969587959695879596958795880F26
S11325C0991F9C01220F331F220F331F820F931F69
S11325D09A01281B390BC90120E3280FCE01835A25
S11325E09F4FFC01228B8091990390919A039C0147
S11325F0ADECBCEC0E94681DAC0156954795569510
S11326004795569547959A01ADECBCEC0E94681D20
S1132610969587959695879596958795880F991F92
S11326209C01220F331F220F331F820F931F9A0125
S1132630281B390BC90120E3280FCE01835A9F4F71
S1132640FC01218B40919B0350919C039A01ADECBA
S1132650BCEC0E94681D96958795969587959695EE
S11326608795880F991F9C01220F331F220F331F58
S1132670820F931F9A01281B390BC90120E3280FED
S1132680CE01835A9F4FFC0126A380919B03909116
S11326909C039C01ADECBCEC0E94681DAC015695FA
S11326A0479556954795569547959A01ADECBCECE0
S11326B00E94681D9695879596958795969587951A
S11326C0880F991F9C01220F331F220F331F820F83
S11326D0931F9A01281B390BC90120E3280FCE014F
S11326E0835A9F4FFC0125A340919D0350919E0363
S11326F09A01ADECBCEC0E94681D96958795969561
S1132700879596958795880F991F9C01220F331FF3
S1132710220F331F820F931F9A01281B390BC90103
S113272020E3280FCE01835A9F4FFC0122AF8091F2
S11327309D0390919E039C01ADECBCEC0E94681D2E
S1132740AC015695479556954795569547959A01E8
S1132750ADECBCEC0E94681D96958795969587957F
S113276096958795880F991F9C01220F331F220F7E
S1132770331F820F931F9A01281B390BC90120E3D1
S1132780280FCE01835A9F4FFC0121AF80919D03F6
S113279090919E0396958795969587959C01ABE7B6
S11327A0B4E10E94681DAC01569547959A01ADECC1
S11327B0BCEC0E94681D969587959695879596958D
S11327C08795880F991F9C01220F331F220F331FF7
S11327D0820F931F9A01281B390BC90120E3280F8C
S11327E0CE01835A9F4FFC0120AF40919F0350912B
S11327F0A0039A01ADECBCEC0E94681D96958795E8
S11328009695879596958795880F991F9C01220F19
S1132810331F220F331F820F931F9A01281B390B7A
S1132820C90120E3280FCE01835A9F4F825B9F4F3B
S1132830FC01208380919F039091A0039C01ADEC47
S1132840BCEC0E94681DAC0156954795569547957A
S1132850569547959A01ADECBCEC0E94681D96957F
S113286087959695879596958795880F991F9C01CE
S1132870220F331F220F331F820F931F9A01281B2D
S1132880390BC90120E3280FCE01835A9F4F835B84
S11328909F4FFC01208380919F039091A003969504
S11328A08795969587959C01ABE7B4E10E94681DD6
S11328B0AC01569547959A01ADECBCEC0E94681D9D
S11328C0969587959695879596958795880F991FE0
S11328D09C01220F331F220F331F820F931F9A0173
S11328E0281B390BC90120E3280FCE01835A9F4FBF
S11328F0845B9F4FFC012083CE0183509F4F2B812B
S11329003C812817390709F088C086E00E94A40298
S11329100496FC018081082F10E086E00E94A40246
S11329200596FC018081882F90E0982F8827802BC2
S1132930912B9E838D838D819E81992314F428E4A9
S113294001C020E2CE0183509F4FFC0126838D817C
S11329509E8188279074892B11F028E401C020E21D
S1132960CE0183509F4FFC01228F8D819E81882749
S11329709072892B11F028E401C020E2CE0183502B
S11329809F4FFC0126A78D819E8188279071892BFA
S113299011F028E401C020E2CE0183509F4F8E5BEA
S11329A09F4FFC0120838D819E8188279870892BFD
S11329B011F028E401C020E2CE0183509F4FFC01B6
S11329C0218B8D819E8188279170892B11F028E4B9
S11329D001C020E2CE0183509F4FFC0125A38D81CD
S11329E09E8180789927892B11F028E401C020E288
S11329F0CE0183509F4FFC0121AF8D819E81807455
S1132A009927892B11F028E401C020E2CE018350DC
S1132A109F4F835B9F4FFC012083CE01835B9E4FBE
S1132A202B813C812817390709F0FBC040918003B2
S1132A30509181039A01ADECBCEC0E94681D9695FF
S1132A4087959695879596958795880F991F9C01EC
S1132A50220F331F220F331F820F931F9A01281B4B
S1132A60390BC90120E3280FCE01835B9E4FFC0183
S1132A70228780918003909181039C01ADECBCEC92
S1132A800E94681DAC0156954795569547955695F5
S1132A9047959A01ADECBCEC0E94681D969587950C
S1132AA09695879596958795880F991F9C01220F77
S1132AB0331F220F331F820F931F9A01281B390BD8
S1132AC0C90120E3280FCE01835B9E4FFC012187BF
S1132AD0809180039091810396958795969587952B
S1132AE09C01ABE7B4E1F4D7AC01569547959A0144
S1132AF0ADECBCECEDD79695879596958795969514
S1132B008795880F991F9C01220F331F220F331FB3
S1132B10820F931F9A01281B390BC90120E3280F48
S1132B20CE01835B9E4FFC0120874091910350911D
S1132B3092039A01ADECBCECCBD79695879596950C
S1132B40879596958795880F991F9C01220F331FAF
S1132B50220F331F820F931F9A01281B390BC901BF
S1132B6020E3280FCE01835B9E4FFC0123AB8091B1
S1132B709103909192039C01ADECBCECA9D7AC01FC
S1132B805695479556954795569547959A01ADECB8
S1132B90BCEC9ED79695879596958795969587953F
S1132BA0880F991F9C01220F331F220F331F820F9E
S1132BB0931F9A01281B390BC90120E3280FCE016A
S1132BC0835B9E4FFC0121AB809191039091920312
S1132BD096958795969587959C01ABE7B4E178D750
S1132BE0AC01569547959A01ADECBCEC71D796951E
S1132BF087959695879596958795880F991F9C013B
S1132C00220F331F220F331F820F931F9A01281B99
S1132C10390BC90120E3280FCE01835B9E4FFC01D1
S1132C2020ABCE0183569E4F2B813C812817390758
S1132C3009F090C00E947602029741F486E0E1D246
S1132C4081E08093D60381E08093D5038091D603FD
S1132C508130F1F40E946D02282F8BEA289F812D88
S1132C601124982F96959695892F880F890F880F90
S1132C70922F981B909310010E947602019741F4C1
S1132C808091100180930F0182E0BBD21092D60391
S1132C900E9476020C9751F41092D6031092D50339
S1132CA087E0AFD280910F018093100180911001D1
S1132CB0882F90E08230910529F1833091052CF41E
S1132CC0009761F00197A1F045C08430910571F13E
S1132CD0843091050CF1059799F13CC0CE018356DF
S1132CE09E4F20E041E066E173E00E94A40832C0F8
S1132CF0CE0183569E4F20E041E06BE273E00E94D8
S1132D00A40828C0CE0183569E4F20E041E060E431
S1132D1073E00E94A4081EC0CE0183569E4F20E09B
S1132D2041E061E073E00E94A40814C0CE01835620
S1132D309E4F20E041E065E573E00E94A4080AC0CC
S1132D40CE0183569E4F20E041E06AE673E00E9484
S1132D50A408000080910E018823D1F08091D8034B
S1132D609091D903A091DA03B091DB03803D9740A1
S1132D70A105B10568F082E290E022E230E0F901B9
S1132D8020812B7FFC01208380E044D510920E012A
S1132D9084E390E024E330E0F901308128E0232744
S1132DA0FC01208319828091D8039091D903A091CA
S1132DB0DA03B091DB03803D9740A105B10530F102
S1132DC08091D503882311F50E946D02282F8BEA88
S1132DD0289F812D1124982F96959695892F880FD9
S1132DE0890F880F922F981B892F90E09E01235101
S1132DF03E4F880F991F880F991F820F931FFC0164
S1132E0080819181A281B3819C838B838A81843662
S1132E1010F40C94DA0D0E9460021A820C94DA0DFC
S1132E20CF93DF93CDB7DEB784E290E024E230E0C5
S1132E30F90120812160FC01208384E290E024E2F6
S1132E4030E0F90120812660FC0120838CE490E0CD
S1132E5020EDFC0120838CE490E02CE430E0F901C7
S1132E6020812160FC01208381E290E021E230E0B6
S1132E70F90120812860FC01208384E290E024E2AF
S1132E8030E0F90120812068FC01208382E290E097
S1132E9022E230E0F90120812860FC01208382E2F3
S1132EA090E022E230E0F90120812860FC012083D7
S1132EB00000DF91CF910895CF93DF93CDB7DEB7B4
S1132EC08091D703882311F481E001C080E0DF9171
S1132ED0CF910895CF93DF9300D000D0CDB7DEB764
S1132EE089836A834B832C83898180937F048B81BC
S1132EF0809381048A81809380048C8180938204EE
S1132F0081E08093D7038981882F90E0009719F09E
S1132F100197A1F026C082E290E022E230E0F901BC
S1132F202081277FFC01208385E290E025E230E0C8
S1132F30F90120812068FC01208313C085E290E020
S1132F4025E230E0F90120812F77FC01208382E221
S1132F5090E022E230E0F90120812860FC01208326
S1132F6000008EE490E02A81FC01208300000F9091
S1132F700F900F900F90DF91CF910895CF93DF932F
S1132F8000D000D01F92CDB7DEB78A836B834C8309
S1132F902D8309C08FEF898303C089818150898380
S1132FA089818823D1F788DF8823A1F32D814C817F
S1132FB06B818A818FDF00000F900F900F900F902C
S1132FC00F90DF91CF910895CF93DF9300D0CDB7C9
S1132FD0DEB789836A838A818095282F4AE060E47A
S1132FE0898178DF00000F900F90DF91CF910895D1
S1132FF0CF93DF9300D0CDB7DEB789836A838A810C
S11330008095282F4AE060E48981B8DF00000F90A2
S11330100F90DF91CF9108951F920F9200905F005F
S11330200F92112400905B000F922F933F938F9384
S11330309F93EF93FF93CF93DF93CDB7DEB7809148
S1133040D703882F90E08230910581F08330910579
S1133050B9F0019709F029C08EE490E02091810431
S1133060FC01208382E08093D7031FC08EE490E0AC
S113307020918204FC01208383E08093D70315C050
S113308085E290E025E230E0F90120812068FC012E
S1133090208382E290E022E230E0F901208128607E
S11330A0FC0120831092D70300000000DF91CF9130
S11330B0FF91EF919F918F913F912F910F900092EB
S11330C05B000F9000925F000F901F901895CF93B4
S11330D0DF93CDB7DEB720E040E064E480E04EDF6C
S11330E020E040E062E481E049DF20E045E064E480
S11330F080E044DF20E045E062E481E03FDF00005F
S1133100DF91CF910895CF93DF931F92CDB7DEB7B0
S113311089838981882F90E0092E000CAA0BBB0BB0
S113312040E050E027E030E0841B950B2817390776
S113313020F1885A9F4FFC01C2C469E081E058DF46
S11331401CC066E081E054DF18C060E381E050DF1A
S113315014C069E381E04CDF10C066E381E048DF1E
S11331600CC06FEF81E044DF08C060E081E040DF25
S113317004C06FE081E03CDF000000000F90DF91AD
S1133180CF910895CF93DF931F92CDB7DEB7898394
S11331908981882F90E0092E000CAA0BBB0B40E01C
S11331A050E027E030E0841B950B2817390720F105
S11331B0805A9F4FFC0183C469E080E019DF1CC082
S11331C066E080E015DF18C060E380E011DF14C022
S11331D069E380E00DDF10C066E380E009DF0CC026
S11331E06FEF80E005DF08C060E080E001DF04C02D
S11331F06FE080E0FDDE000000000F90DF91CF91D2
S11332000895CF93DF931F92CDB7DEB78983898169
S1133210882F90E0092E000CAA0BBB0B40E050E075
S113322027E030E0841B950B2817390708F43CC0CD
S113323088599F4FFC0143C469E080E0D9DE69E00E
S113324081E0D6DE31C066E080E0D2DE66E081E077
S1133250CFDE2AC060E380E0CBDE60E381E0C8DE3D
S113326023C069E380E0C4DE69E381E0C1DE1CC001
S113327066E380E0BDDE66E381E0BADE15C06FEF91
S113328080E0B6DE6FEF81E0B3DE0EC060E080E088
S1133290AFDE60E081E0ACDE07C06FE080E0A8DE76
S11332A06FE081E0A5DE000000000F90DF91CF9178
S11332B00895CF93DF93CDB7DEB782E290E022E2A8
S11332C030E0F90120812F70FC01208384E390E039
S11332D024E330E0F90120812B7FFC0120830000EE
S11332E0DF91CF910895CF93DF93CDB7DEB788E216
S11332F090E0FC01108284E390E024E330E0F901E3
S113330020812C7FFC0120830000DF91CF91089560
S1133310CF93DF93CDB7DEB729970FB6F894DEBF0E
S11333200FBECDBF9D838C837F836E83598748876F
S1133330C0DF2C813D818E819F81A901481B590BDF
S1133340CA0196958795969587959A83898328854A
S113335039858E819F81281B390B89819A81820F3F
S1133360931F29813A81B90161D3CB018B838B816E
S113337018161CF48B8154D002C080E051D0000098
S113338029960FB6F894DEBF0FBECDBFDF91CF9163
S11333900895CF93DF93CDB7DEB729970FB6F8948E
S11333A0DEBF0FBECDBF9D838C837F836E83598721
S11333B0488799DF2C813D818E819F81A901481B1B
S11333C0590BCA019C01AFE8B3EE82D39695879559
S11333D096958795969587959A83898328853985C7
S11333E08E819F81281B390B89819A81820F931FBB
S11333F029813A81B9011AD3CB018B838B811816A9
S11334001CF48B8149D002C080E046D0000029968C
S11334100FB6F894DEBF0FBECDBFDF91CF910895F4
S1133420CF93DF931F92CDB7DEB7898382E290E01A
S113343022E230E0F9012081622F2981422F50E0FD
S11334402FEF30E002C0220F331F4A95E2F7209598
S1133450309522953295307F3227207F3227262BD4
S1133460FC01208384E390E024E330E0F90120812F
S1133470622F2981422F50E020E830E002C03595C8
S113348027954A95E2F72470262BFC01208300003F
S11334900F90DF91CF910895CF93DF931F92CDB713
S11334A0DEB7898388E290E028E230E0F9012081E8
S11334B0622F2981422F50E02FEF30E002C0359572
S11334C027954A95E2F72095262BFC01208384E377
S11334D090E024E330E0F9012081622F398129E36F
S11334E0329F212D11242695422F50E02FEF30E0FA
S11334F002C0220F331F4A95E2F720953095598177
S113350049E3549F412D11244695442F50E002C0B5
S1133510220F331F4A95E2F7422F39812DEC329F57
S1133520212D1124269526952695240F262BFC0162
S1133530208300000F90DF91CF910895CF93DF9304
S11335401F92CDB7DEB789838981882F90E0092E39
S1133550000CAA0BBB0B40E050E02EE030E0841BD3
S1133560950B2817390708F49AC080599F4FFC011E
S1133570A6C282E290E022E230E0F90120812061DB
S1133580FC0120838CC082E290E022E230E0F90169
S113359020812062FC01208382C082E290E022E24A
S11335A030E0F90120812064FC01208378C082E2AC
S11335B090E022E230E0F90120812068FC012083C0
S11335C06EC084E390E024E330E0F90120812460BC
S11335D0FC01208364C088E290E028E230E0F90135
S11335E020812068FC0120835AC088E290E028E210
S11335F030E0F90120812064FC01208350C088E27E
S113360090E028E230E0F90120812062FC0120836F
S113361046C088E290E028E230E0F9012081206190
S1133620FC0120833CC088E290E028E230E0F9010C
S113363020812860FC01208332C088E290E028E2E7
S113364030E0F90120812460FC01208328C088E255
S113365090E028E230E0F90120812260FC0120831F
S11336601EC088E290E028E230E0F9012081216068
S1133670FC01208314C084E390E024E330E0F901EA
S113368020812260FC0120830AC084E390E024E3CB
S113369030E0F90120812160FC012083000000005A
S11336A00F90DF91CF910895CF93DF931F92CDB701
S11336B0DEB789838981882F90E0092E000CAA0B3C
S11336C0BB0B40E050E02EE030E0841B950B281744
S11336D0390708F49AC081589F4FFC01F0C182E277
S11336E090E022E230E0F90120812071FC01208386
S11336F08CC082E290E022E230E0F9012081207265
S1133700FC01208382C082E290E022E230E0F901F1
S113371020812074FC01208378C082E290E022E2C0
S113372030E0F90120812078FC0120836EC084E31D
S113373090E024E330E0F90120812470FC0120832F
S113374064C088E290E028E230E0F901208120782A
S1133750FC0120835AC088E290E028E230E0F901BD
S113376020812074FC01208350C088E290E028E28C
S113377030E0F90120812072FC01208346C088E2F8
S113378090E028E230E0F90120812071FC012083DF
S11337903CC088E290E028E230E0F9012081287002
S11337A0FC01208332C088E290E028E230E0F90195
S11337B020812470FC01208328C088E290E028E264
S11337C030E0F90120812270FC0120831EC088E2D0
S11337D090E028E230E0F90120812170FC0120838F
S11337E014C084E390E024E330E0F90120812270E6
S11337F0FC0120830AC084E390E024E330E0F90173
S113380020812170FC012083000000000F90DF91D3
S1133810CF910895CF93DF931F92CDB7DEB78983FD
S11338208981882F90E0009719F0019759F014C00E
S11338308BE290E02BE230E0F90120812076FC015C
S113384020830AC08BE290E02BE230E0F901208172
S11338502F69FC012083000000000F90DF91CF91BD
S11338600895CF93DF931F92CDB7DEB78983898103
S1133870895F64DE97E08981292F281B822F5EDE11
S11338808981883010F082E0BCDC8981893010F0B5
S113389081E0C0DF89818E3020F087E0B2DC80E0F7
S11338A0B9DF00000F90DF91CF910895CF93DF939C
S11338B0CDB7DEB781E290E021E230E0F90120816A
S11338C02C6FFC01208381E290E021E230E0F901D9
S11338D020812C7FFC01208384E290E024E230E00C
S11338E0F9012081266FFC01208384E290E024E228
S11338F030E0F9012081277FFC01208387E290E0FA
S11339002FEFFC0120838AE290E02AE230E0F90103
S113391020812F69FC0120838DE290E02FEFFC01D0
S1133920208380E390E020E330E0F9012081217FCF
S1133930FC01208383E390E023E330E0F90120815C
S11339402F61FC01208382E290E0FC01108285E279
S113395090E0FC01108288E290E0FC0110828BE28E
S113396090E0FC0110828EE290E0FC01108281E381
S113397090E0FC01108284E390E0FC01108282E27A
S113398090E022E230E0F90120812360FC012083F1
S11339900000DF91CF910895CF93DF93CDB7DEB7C9
S11339A084E490E02BE0FC0120838EE690E022E0AA
S11339B0FC01208387E490E029EFFC0120830000D0
S11339C0DF91CF9108951F920F9200905F000F92A4
S11339D011248F939F93AF93BF93CF93DF93CDB76E
S11339E0DEB78091D8039091D903A091DA03B09106
S11339F0DB030196A11DB11D8093D8039093D903D5
S1133A00A093DA03B093DB038091DC038F5F809390
S1133A10DC030000DF91CF91BF91AF919F918F9113
S1133A200F9000925F000F901F901895AA1BBB1B6C
S1133A3051E107C0AA1FBB1FA617B70710F0A61BAA
S1133A40B70B881F991F5A95A9F780959095BC01CB
S1133A50CD01089597FB072E16F4009406D077FD48
S1133A6008D0E4DF07FC05D03EF4909581959F4F84
S1133A700895709561957F4F0895A1E21A2EAA1BAF
S1133A80BB1BFD010DC0AA1FBB1FEE1FFF1FA2170A
S1133A90B307E407F50720F0A21BB30BE40BF50B07
S1133AA0661F771F881F991F1A9469F76095709590
S1133AB0809590959B01AC01BD01CF010895EE0F57
S1133AC0FF1F0024001C0BBE0790F691E02D099403
S1133AD0A29FB001B39FC001A39F700D811D11244B
S1133AE0911DB29F700D811D1124911D0895F0DF69
S1133AF0A59F900DB49F900DA49F800D911D11243E
S1093B000895F894FFCFC4
S1133B0620D1003908061700020CC094D4800103A2
S1133B160307006F00FFFFFF00FF20FF0020FFFFE9
S1133B26002020FF000707FF00FF0101000101FF3D
S1133B3600032020000302200004050400200220C4
S1133B4600FF070700FF01FF0020FF2000FF07FF1B
S1133B56002020200002070300FF2020007C2020F4
S1133B66202057454C434F4D4520544F20202020BC
S1133B767C007C202020202020545920323620200E
S1133B8620202020207C007C20202020544F44200C
S1133B9644454D2044454D2020207C007C20202097
S1133BA620204B4F524D4F52414E20202020207C46
S1133BB60041505053313A202020202020204250EA
S1133BC6463A2020200041505053323A20202020EB
S1133BD62020204250523A2020200042616C616E1F
S1133BE663653A202020202046203A202020250004
S1133BF62020202020202020202020202052203A6F
S1133C062020202500494E56203A20202E204320ED
S1133C16415050533A20202020004D5452203A203F
S1133C26202E204320425020203A202020200041EC
S1133C364343553A20202E204320534153203A2013
S1133C46202020004C5656203A20202E2056205460
S1133C565356203A2020205600425F44423A202000
S1133C6620202020444953543A2020202000494E45
S1133C7645523A202020202020545341433A202004
S1133C86202000424F54533A202020202020425F17
S1133C9652203A2020202000425F4C203A20202047
S1133CA620202054534D533A202020200020202049
S1133CB6545356203A20202020202020562020200D
S1133CC6200020202020202020202020202020200A
S1133CD620202020202000202020414343553A2044
S1133CE62020202E20204320202020002D2D2D2D85
S1133CF62D2D2D2D5345542D2D2D2D2D2D2D2D2D85
S1133D06004D4F44453A2020202020454E4455522C
S1133D16414E434520004D4F44453A202020202063
S1133D26414343454C2020202020004D4F44453A32
S1133D362020202020534B49445041442020200079
S1133D464D4F44453A20202020204155544F43529C
S1133D564F535320004D4F44453A202020202046FF
S1133D66554E31202020202020004D4F44453A2036
S1133D762020202046554E322020202020200000DE
S9030000FC
