S00E00004449435F32332E7372656382
S11300005EC000007BC0000079C0000077C0000023
S113001075C0000073C0000071C000006FC0000014
S11300206DC000006BC0000069C0000067C0000024
S113003065C0000063C0000061C000005FC0000034
S11300400C94FA0D5BC0000059C0000057C00000BA
S11300500C94090D53C0000051C000004FC00000B3
S11300604DC000004BC0000049C0000047C0000064
S113007045C0000043C0000041C000003FC0000074
S11300803DC000003BC0000039C0000037C0000084
S113009035C000009808B508D208EF080C092909F2
S11300A04609630980099D09BA09D709F409110AA7
S11300B09B0DA90DA20DB70DB00DC50DBE0D1124DC
S11300C01FBECFEFD0E1DEBFCDBF12E0A0E0B1E0B4
S11300D0E2E9FFE100E00BBF02C007900D92A030FF
S11300E0B107D9F722E0A0E0B2E001C01D92A73C1D
S11300F0B207E1F70E94890A0C94C70F81CFCF930E
S1130100DF93CDB7DEB780E092E090938A028093CC
S113011089028FEF9FEF90938C0280938B02109251
S11301208E0210928D0281E092E09093720280938D
S113013071028FEF9FEF909374028093730281E0BA
S113014090E0909376028093750280E094E090931F
S11301504E0280934D028FEF9FEF90935002809355
S11301604F0282E090E0909352028093510280E12A
S113017094E090938402809383028FEF9FEF909397
S113018086028093850283E090E0909388028093B6
S1130190870280E294E09093600280935F028FEF85
S11301A09FEF909362028093610284E090E09093C9
S11301B064028093630280E095E090933C02809314
S11301C03B028FEF9FEF90933E0280933D0285E0C8
S11301D090E09093400280933F0280E096E09093F9
S11301E0BE028093BD028FEF9FEF9093C002809375
S11301F0BF0286E090E09093C2028093C10280E542
S113020097E090934202809341028FEF9FEF909387
S113021044028093430287E090E0909346028093E7
S1130220450286E997E090935402809353028FEF3E
S11302309FEF909356028093550288E090E090934C
S113024058028093570287E997E09093480280937D
S113025047028FEF9FEF90934A028093490289E00F
S113026090E090934C0280934B0288E997E090933E
S1130270B8028093B7028FEF9FEF9093BA028093F6
S1130280B9028AE090E09093BC028093BB0289E9B2
S113029097E090936602809365028FEF9FEF9093AF
S11302A06802809367028BE090E090936A028093E7
S11302B069020000DF91CF910895CF93DF93CDB70A
S11302C0DEB767ED72E087E492E04CD26FED72E046
S11302D087EB92E047D26FEB72E08DEB92E042D273
S11302E067EC72E081E492E03DD267E972E081E775
S11302F092E038D26FEA72E08FE592E033D26FE990
S113030072E08DE492E02ED20000DF91CF91089547
S1130310CF93DF93CDB7DEB767EB72E08BE392E068
S1130320BDD20000DF91CF910895CF93DF93CDB775
S1130330DEB78091C702DF91CF910895CF93DF9309
S11303401F92CDB7DEB789838981882F90E0880F0B
S1130350991F880F991F880F991F81579D4F0F90E0
S1130360DF91CF910895CF93DF93CDB7DEB780911E
S11303708F02282F30E080919002882F90E0982FF0
S11303808827822B932B9093010280930002809103
S11303909102282F30E080919202882F90E0982FCC
S11303A08827822B932B90930302809302028091DF
S11303B09302282F30E080919402882F90E0982FA8
S11303C08827822B932B90930502809304028091BB
S11303D09502881F8827881F8093060280919502C2
S11303E082958695869583708170809307028091AB
S11303F0950282958695877081708093080280911A
S1130400950282958F708170809309028091950284
S1130410869586958695817080930A0280919702CD
S1130420282F30E080919802882F90E0982F882719
S1130430822B932B90930E0280930D02809199024C
S1130440282F30E080919A02882F90E0982F8827F7
S1130450822B932B90930C0280930B0280919B022E
S1130460282F30E080919C02882F90E0982F8827D5
S1130470822B932B909312028093110280919D0200
S1130480282F30E080919E02882F90E0982F8827B3
S1130490822B932B9093100280930F028091A702DA
S11304A0282F30E08091A802882F90E0982F882789
S11304B0822B932B90931402809313028091AF02AA
S11304C0282F30E08091B002882F90E0982F882761
S11304D0822B932B90931602809315028091B30282
S11304E0282F30E08091B402882F90E0982F88273D
S11304F0822B932B90931802809317028091A7026A
S1130500282F30E08091A802882F90E0982F882728
S1130510822B932B90931A02809319028091AB0241
S1130520282F30E08091AC02882F90E0982F882704
S1130530822B932B90931C0280931B0280E290E009
S1130540FC018081882F90E08170992721E0892B1C
S113055009F020E0822F80931E0280E290E0FC01EB
S11305608081882F90E08095909582709927959549
S1130570879580931D028091C102282F30E08091DD
S1130580C202882F90E0982F8827822B932B909378
S11305902102809320028091C302809322028091E1
S11305A0C502282F30E08091C602882F90E0982F52
S11305B08827822B932B909324028093230280918B
S11305C01E028093B70280911D028093B80280912D
S11305D01F028093B9020000DF91CF910895CF9359
S11305E0DF9300D0CDB7DEB78A8319828A81883041
S11305F0C0F08DED90E0FC018081882F90E02A818D
S1130600222F30E02850310902C0959587952A950C
S1130610E2F78170992721E0892B09F020E02983F2
S113062015C08CED90E0FC018081882F90E02A8138
S1130630222F30E002C0959587952A95E2F78170C4
S1130640992721E0892B09F020E0298389810F90E3
S11306500F90DF91CF910895CF93DF9300D0CDB762
S1130660DEB788ED90E0FC011082198256C08DEE51
S113067090E02981222F30E022953295307F322775
S1130680207F32272860FC0120838EEE90E0FC015D
S113069010828FEE90E0FC01108280EF90E0FC016C
S11306A0108281EF90E0FC01108282EF90E0FC0167
S11306B0108283EF90E0FC01108284EF90E0FC0153
S11306C0108285EF90E0FC01108286EF90E0FC013F
S11306D0108287EF90E0FC0110821A8218C08DEE20
S11306E090E02981222F30E022953295307F322705
S11306F0207F3227322F2A81232B2860FC0120837C
S11307008AEF90E0FC0110828A818F5F8A838A815C
S1130710883028F389818F5F898389818F3008F439
S1130720A6CF82EE90E0FC01108283EE90E02CE0F4
S1130730FC01208384EE90E026E3FC0120838BED12
S113074090E0FC01108288ED90E028ED30E0F901A2
S113075020812260FC01208300000F900F90DF9124
S1130760CF910895CF93DF9300D000D01F92CDB7DF
S1130770DEB79B838A837D836C838DEE90E02A8130
S11307803B81F901248135812295207FFC0120835E
S11307908A819B81FC018481958121DF882309F46E
S11307A050C083EF90E02A813B81F901208131819F
S11307B0369527953695279536952795FC01208300
S11307C082EF90E02A813B81F901208131812295D9
S11307D0220F207EFC01208381EF90E0FC01108237
S11307E080EF90E024E0FC01208387EF90E02A81F1
S11307F03B81F901228133813695279536952795DA
S113080036952795FC01208386EF90E02A813B8171
S1130810F901228133812295220F207EFC0120835D
S113082085EF90E0FC01108284EF90E0FC011082DF
S11308308FEE90E028ECFC0120838EEE90E0FC012A
S1130840108219821FC08DEE90E02A813B81F9014C
S113085024813581322F3295307F2981232B2860E2
S1130860FC0120838981882F90E02C813D81820FB7
S1130870931F2AEF30E0F9012081FC012083898154
S11308808F5F898389818830F0F200000F900F9088
S11308900F900F900F90DF91CF910895CF93DF9336
S11308A000D000D01F92CDB7DEB79B838A837D83AF
S11308B06C8319821FC08DEE90E02A813B81F9017F
S11308C024813581322F3295307F2981232B286072
S11308D0FC0120838AEF90E02981222F30E04C81B3
S11308E05D81240F351FF9012081FC01208389815A
S11308F08F5F898389818830F0F28DEE90E02A81C0
S11309003B81F901248135812295207FFC012083DC
S11309108A819B81FC018481958161DE882309F4AD
S113092044C08EEE90E0FC01108283EF90E02A81B7
S11309303B81F9012081318136952795369527959C
S113094036952795FC01208382EF90E02A813B8134
S1130950F901208131812295220F207EFC01208320
S113096081EF90E0FC01108280EF90E0FC011082A6
S113097087EF90E0FC01108286EF90E0FC0110828A
S113098085EF90E0FC01108284EF90E0FC0110827E
S11309908EEE90E0FC0110828FEE90E028E4FC01E2
S11309A020838EEE90E0FC01108200000F900F90E7
S11309B00F900F900F90DF91CF910895CF93DF9315
S11309C000D000D0CDB7DEB79A8389837C836B8354
S11309D08B819C81FC0181818431D1F48B819C8148
S11309E0FC018081882F90E0895F9E4FFC0180810B
S11309F060E0AAD08B819C81FC0111828B819C8157
S1130A00FC01808121E0280F8B819C81FC012083E3
S1130A108B819C81FC018081843021F48B819C81B9
S1130A20FC0110828B819C81FC018081682F70E025
S1130A308B819C81FC018181882F90E049815A81BE
S1130A40E4E1E69F9001E79F300D1124240F351F48
S1130A50820F931FFC01808161E076D08B819C81A1
S1130A60FC01818121E0280F8B819C81FC01218381
S1130A7000000F900F900F900F90DF91CF91089589
S1130A80CF93DF9300D0CDB7DEB719821A82898164
S1130A909A810F900F90DF91CF910895CF93DF93B8
S1130AA0CDB7DEB7C455D1090FB6F894DEBF0FBE7B
S1130AB0CDBF9E012D5A3F4FF90191838083198246
S1130AC022C01A821AC08981482F50E08A81882F57
S1130AD090E064E1649F9001659F300D1124AE01A4
S1130AE04F5F5F4F240F351F820F931F029620E143
S1130AF0FC0120838A818F5F8A838A81843118F381
S1130B0089818F5F898389818430D8F2CE018D5A9F
S1130B109F4FFC018081918120E5FE013396DC0129
S1130B2001900D922A95E1F7CE018D5A9F4FFC0159
S1130B3080819181CC5ADF4F0FB6F894DEBF0FBE8F
S1130B40CDBFDF91CF9108950F931F93CF93DF9380
S1130B5000D000D0CDB7DEB78B836C830EE210E0FB
S1130B608B81A1D4F80180838C81813051F485E29A
S1130B7090E025E230E0F90120812064FC0120832B
S1130B8009C085E290E025E230E0F90120812F7B65
S1130B90FC01208385E290E025E230E0F901208128
S1130BA02061FC0120831A8219820EC085E290E044
S1130BB025E230E0F90120812F7EFC012083898128
S1130BC09A8101969A83898389819A8184369105D1
S1130BD06CF300000F900F900F900F90DF91CF9166
S1130BE01F910F9108958F92AF92CF92EF920F932E
S1130BF0CF93DF93CDB7DEB7812CA12CC12CE12C90
S1130C0000E020E04FE16FE181E07AD00F2EFFEEAB
S1130C108F2EF02D0F2EFFEEAF2EF02D0F2EFFEEA8
S1130C20CF2EF02D0F2EFFEEEF2EF02D0FEE2FEE28
S1130C304FEE6FEE82E064D00F2EFEE18F2EF02D8A
S1130C400F2EFEE1AF2EF02D0F2EFEE1CF2EF02D54
S1130C500F2EFEE1EF2EF02D0EE12EE14EE16EE1BE
S1130C6083E04ED0812CA12CC12CE12C0FEF2FEF6F
S1130C704FEF6FEF84E044D00F2EFFEE8F2EF02D58
S1130C800F2EFFEEAF2EF02D0F2EFFEECF2EF02DF8
S1130C900F2EFFEEEF2EF02D0FEF2FEF4FEF6FEF34
S1130CA085E02ED0812C6894AA24A1F80F2EF5E1BA
S1130CB0CF2EF02D0F2EFAE0EF2EF02D04E02AE0D7
S1130CC045E168E086E01CD00F2EFFE18F2EF02D69
S1130CD00F2EFFE1AF2EF02D0F2EFFE1CF2EF02DC2
S1130CE0E12C00E020E040E060E087E009D0000073
S1130CF0DF91CF910F91EF90CF90AF908F900895A7
S1130D008F92AF92CF92EF920F93CF93DF93CDB7A1
S1130D10DEB729970FB6F894DEBF0FBECDBF898327
S1130D206A834B832C830D83EE82CF82A8868986C7
S1130D308981882F90E00896880F880F880F60E0DB
S1130D4003DF61E08A8100DF61E08B81FDDE61E029
S1130D508C81FADE61E08D81F7DE61E08E81F4DE64
S1130D6061E08F81F1DE61E08885EEDE61E08985F6
S1130D70EBDE60E082E0E8DE000029960FB6F8942E
S1130D80DEBF0FBECDBFDF91CF910F91EF90CF901B
S1130D90AF908F900895CF93DF93CDB7DEB72797A9
S1130DA00FB6F894DEBF0FBECDBF9B838A837D83CD
S1130DB06C834E832F83198225C08E81682F70E047
S1130DC08981282F30E08F81882F90E0820F931F34
S1130DD02981222F30E04C815D81240F351FD901F8
S1130DE0EC914A815B81F4E1F69F9001F79F300D0D
S1130DF01124240F351F820F931FDC01EC9389818A
S1130E008F5F89838981882F90E02C813D81820FB7
S1130E10931FFC018081882351F08F81282F30E0BB
S1130E208981882F90E0820F931F449734F2000049
S1130E3027960FB6F894DEBF0FBECDBFDF91CF91DA
S1130E400895CF93DF9300D0CDB7DEB71A8219820D
S1130E500DC089819A8180509F4FFC01808160E0A0
S1130E6073DE89819A8101969A83898389819A8123
S1130E7007977CF300000F900F90DF91CF910895B6
S1130E80CF93DF9300D000D0CDB7DEB79A838983A8
S1130E907C836B8389819A814BE06EE02AD18981BE
S1130EA09A8124E043E06BE071E075DF4B815C8163
S1130EB09A01ADECBCEC0E94B80F96958795969577
S1130EC0879596958795880F991F9C01220F331F4C
S1130ED0220F331F820F931F9A01281B390BC9015C
S1130EE0282F89819A81422F6AE003D18B819C81CA
S1130EF09C01ADECBCEC0E94B80F96958795969535
S1130F008795969587959C838B834B815C819A0109
S1130F10ADECBCEC0E94B80F969587959695879595
S1130F2096958795880F991F9C01220F331F220FD6
S1130F30331F820F931F9A01281B390BC901282FD5
S1130F4089819A81422F66E0D4D08B819C819C0157
S1130F50ADECBCEC0E94B80F969587959695879555
S1130F60969587959C838B834B815C819A01ADEC2C
S1130F70BCECFED79695879596958795969587951B
S1130F80880F991F9C01220F331F220F331F820FDA
S1130F90931F9A01281B390BC901282F89819A8133
S1130FA0422F60E0A6D000000F900F900F900F909A
S1130FB0DF91CF910895CF93DF9300D000D0CDB7C8
S1130FC0DEB79A8389837C836B8389819A814DE020
S1130FD060E18FD089819A812EE040E06DE071E07C
S1130FE0DADE89819A8128E043E06BE071E0D3DEA8
S1130FF04B815C819A01ADECBCECBAD79695879590
S11310009695879596958795880F991F9C01220F31
S1131010331F220F331F820F931F9A01281B390B92
S1131020C901282F89819A81422F6AE062D08B817D
S11310309C819C01ADECBCEC9BD7969587959695CD
S11310408795969587959C838B834B815C819A01C8
S1131050ADECBCEC8DD7969587959695879596952E
S11310608795880F991F9C01220F331F220F331F6E
S1131070820F931F9A01281B390BC901282F8981DC
S11310809A81422F64E035D08B819C819C01ADEC28
S1131090BCEC6ED79695879596958795969587958A
S11310A09C838B834B815C819A01ADECBCEC60D753
S11310B0969587959695879596958795880F991F08
S11310C09C01220F331F220F331F820F931F9A019B
S11310D0281B390BC901282F89819A81422F60E08E
S11310E008D000000F900F900F900F90DF91CF91D8
S11310F00895CF93DF9300D000D0CDB7DEB79A83A5
S113110089836B834C838C81882F90E0092E000C9B
S1131110AA0BBB0B40E050E02DE030E0841B950BA4
S11311202817390708F49AC1865B9F4FFC0117C73B
S113113089819A812B8140E06FE071E02CDE898106
S11311409A812B8141E063E171E025DE89819A81F6
S11311502B8142E063E171E01EDE89819A812B815B
S113116043E06FE071E017DE96C189819A812B819B
S113117040E067E171E00FDE89819A812B8141E0D3
S11311806BE171E008DE89819A812B8142E06BE199
S113119071E001DE89819A812B8143E06BE171E08A
S11311A0FADD79C189819A812B8140E06FE071E099
S11311B0F2DD89819A812B8141E06FE171E0EBDD01
S11311C089819A812B8142E063E271E0E4DD8981C7
S11311D09A812B8143E06FE071E0DDDD5CC18981A0
S11311E09A812B8140E06FE071E0D5DD89819A819D
S11311F02B8141E06FE171E0CEDD89819A812B8101
S113120042E067E271E0C7DD89819A812B8143E086
S11312106FE071E0C0DD3FC189819A812B8140E09C
S11312206BE271E0B8DD89819A812B8141E06FE244
S113123071E0B1DD89819A812B8142E063E371E041
S1131240AADD89819A812B8143E067E371E0A3DD04
S113125022C189819A812B8140E06FE071E09BDD9E
S113126089819A812B8141E06BE371E094DD89816E
S11312709A812B8142E067E271E08DDD89819A8158
S11312802B8143E06FE071E086DD05C189819A819D
S11312902B8140E06FE071E07EDD89819A812B81B2
S11312A041E06BE371E077DD89819A812B8142E033
S11312B06FE371E070DD89819A812B8143E06FE0F7
S11312C071E069DDE8C089819A812B8140E06FE09B
S11312D071E061DD89819A812B8141E06BE171E0EC
S11312E05ADD89819A812B8142E063E471E053DD08
S11312F089819A812B8143E063E471E04CDDCBC0AA
S113130089819A812B8140E06FE071E044DD89811D
S11313109A812B8141E067E471E03DDD89819A8106
S11313202B8142E06FE371E036DD89819A812B8164
S113133043E067E471E02FDDAEC089819A812B819F
S113134040E06FE071E027DD89819A812B8141E0E3
S113135067E471E020DD89819A812B8142E067E2B4
S113136071E019DD89819A812B8143E06BE171E0A1
S113137012DD91C089819A812B8140E06BE471E098
S11313800ADD89819A812B8141E06BE471E003DD00
S113139089819A812B8142E06BE471E0FCDC8981D4
S11313A09A812B8143E06BE471E0F5DC74C08981A0
S11313B09A812B8140E063E171E0EDDC89819A81BF
S11313C02B8141E063E171E0E6DC89819A812B8124
S11313D042E06FE471E0DFDC89819A812B8143E094
S11313E063E471E0D8DC57C089819A812B8140E0A5
S11313F063E171E0D0DC89819A812B8141E063E172
S113140071E0C9DC89819A812B8142E063E171E05A
S1131410C2DC89819A812B8143E06FE071E0BBDCFF
S11314203AC089819A812B8140E06FE071E0B3DC9E
S113143089819A812B8141E063E571E0ACDC89818B
S11314409A812B8142E063E571E0A5DC89819A8170
S11314502B8143E06FE071E09EDC1DC089819A819D
S11314602B8140E06FE071E096DC89819A812B81C9
S113147041E06FE071E08FDC89819A812B8142E049
S11314806FE071E088DC89819A812B8143E06FE011
S113149071E081DC000000000F900F900F900F901E
S11314A0DF91CF910895CF93DF9300D01F92CDB7F2
S11314B0DEB78B8319821A8222C08B81882F90E039
S11314C02A81222F30E002C0959587952A95E2F76C
S11314D0817099272A81222F30E047E050E0BA0139
S11314E0621B730B9B0102C0880F991F2A95E2F7B8
S11314F0982F8981892B89838A818F5F8A838A8146
S11315008830D8F289810F900F900F90DF91CF919E
S11315100895CF93DF93CDB7DEB7C555D1400FB64D
S1131520F894DEBF0FBECDBF3CD38BDC5CDB75D142
S11315304AD30E947F0090D81F8219821A821B828C
S11315401C821D821E827894BFD286E0D9D298DA9A
S11315509D8B8C8BCE014696A1DACE018A599F4F82
S11315609DDACE018A549F4F99DACE018A5F9E4F4D
S113157095DACE01469620E040E067E571E00BDCA9
S1131580CE01469620E041E06CE671E004DCCE0139
S1131590469620E042E061E871E0FDDBCE0146962C
S11315A020E043E066E971E0F6DBCE018A5F9E4FFE
S11315B020E040E06BEA71E0EEDBCE018A5F9E4FF3
S11315C020E041E060EC71E0E6DBCE018A5F9E4FF3
S11315D020E042E065ED71E0DEDBCE018A5F9E4FE4
S11315E020E043E06AEE71E0D6DBCE018A5F9E4FD5
S11315F09987888780913A02882349F010923A02A9
S11316009E012C5E3F4F88859985B901D7D92091D9
S1131610360230913702409138025091390288895C
S11316209989AA89BB89281739074A075B0779F082
S11316308091360290913702A0913802B09139021C
S1131640888B998BAA8BBB8B89818F5F89838981D6
S11316508A3080F219828A818F5F8A838B819C8190
S1131660AD81BE810196A11DB11D8B839C83AD8389
S1131670BE830E945D010E94B3010E948801809193
S1131680150290911602CC01A0E0B0E0BC01CD019E
S113169075D3DC01CB0120E030E943E05EE3BC011B
S11316A0CD01FAD3DC01CB0125E531E342E051E47D
S11316B0BC01CD01D2D2DC01CB01BC01CD0132D3BE
S11316C0DC01CB019B878A8784EF91E09D878C871F
S11316D084EF91E09F878E874A855B859A01ADEC04
S11316E0BCEC46D49695879596958795969587955F
S11316F0880F991F9C01220F331F220F331F820F63
S1131700931F9A01281B390BC90120E3280FCE012E
S11317108A5F9E4FFC0126A38A859B859C01ADECC4
S1131720BCEC26D49695879596958795969587953E
S11317309B878A874A855B859A01ADECBCEC18D4FB
S1131740969587959695879596958795880F991F71
S11317509C01220F331F220F331F820F931F9A0104
S1131760281B390BC90120E3280FCE018A5F9E4F45
S1131770FC0125A34C855D859A01ADECBCECF8D346
S1131780969587959695879596958795880F991F31
S11317909C01220F331F220F331F820F931F9A01C4
S11317A0281B390BC90120E3280FCE018A5F9E4F05
S11317B0845B9F4FFC0120838C859D859C01ADEC4F
S11317C0BCECD6D3969587959695879596958795EF
S11317D09D878C874C855D859A01ADECBCECC8D3A4
S11317E0969587959695879596958795880F991FD1
S11317F09C01220F331F220F331F820F931F9A0164
S1131800281B390BC90120E3280FCE018A5F9E4FA4
S1131810855B9F4FFC012083EDCECF93DF93CDB743
S1131820DEB784E290E024E230E0F9012081216017
S1131830FC01208384E290E024E230E0F90120817D
S11318402660FC0120838CE490E020EDFC012083E1
S11318508CE490E02CE430E0F90120812160FC016B
S1131860208381E290E021E230E0F90120812860C8
S1131870FC01208384E290E024E230E0F90120813D
S11318802068FC01208382E290E022E230E0F9014A
S113189020812860FC01208382E290E022E230E093
S11318A0F90120812860FC0120830000DF91CF91A1
S11318B00895CF93DF93CDB7DEB7809135028823A7
S11318C011F481E001C080E0DF91CF910895CF93BE
S11318D0DF9300D000D0CDB7DEB789836A834B8312
S11318E02C8389818093C3028B818093C5028A8172
S11318F08093C4028C818093C60281E08093350278
S11319008981882F90E0009719F00197A1F026C0F3
S113191082E290E022E230E0F9012081277FFC019D
S1131920208385E290E025E230E0F90120812068FF
S1131930FC01208313C085E290E025E230E0F90148
S113194020812F77FC01208382E290E022E230E0C4
S1131950F90120812860FC01208300008EE490E0DE
S11319602A81FC01208300000F900F900F900F90AC
S1131970DF91CF910895CF93DF9300D000D01F92D1
S1131980CDB7DEB78A836B834C832D8309C08FEF79
S1131990898303C089818150898389818823D1F710
S11319A088DF8823A1F32D814C816B818A818FDFAD
S11319B000000F900F900F900F900F90DF91CF9138
S11319C00895CF93DF9300D0CDB7DEB789836A83C0
S11319D08A818095282F4AE060E4898178DF0000BD
S11319E00F900F90DF91CF910895CF93DF9300D0A4
S11319F0CDB7DEB789836A838A818095282F4AE030
S1131A0060E48981B8DF00000F900F90DF91CF91DF
S1131A1008951F920F9200905F000F92112400907E
S1131A205B000F922F933F938F939F93EF93FF93BA
S1131A30CF93DF93CDB7DEB780913502882F90E046
S1131A408230910581F083309105B9F0019709F056
S1131A5029C08EE490E02091C502FC01208382E03D
S1131A60809335021FC08EE490E02091C602FC01F1
S1131A70208383E08093350215C085E290E025E25F
S1131A8030E0F90120812068FC01208382E290E0AB
S1131A9022E230E0F90120812860FC0120831092C9
S1131AA0350200000000DF91CF91FF91EF919F91EB
S1131AB08F913F912F910F9000925B000F900092B5
S1131AC05F000F901F901895CF93DF93CDB7DEB7CB
S1131AD020E040E064E480E04EDF20E040E062E4A7
S1131AE081E049DF20E045E064E480E044DF20E079
S1131AF045E062E481E03FDF0000DF91CF9108958B
S1131B00CF93DF931F92CDB7DEB789838981882F66
S1131B1090E0092E000CAA0BBB0B40E050E026E03D
S1131B2030E0841B950B2817390708F435C0885A10
S1131B309F4FFC0114C269E080E057DF69E081E057
S1131B4054DF2AC066E080E050DF66E081E04DDFCC
S1131B5023C060E380E049DF60E381E046DF1CC02E
S1131B6069E380E042DF69E381E03FDF15C06FEFA6
S1131B7080E03BDF6FEF81E038DF0EC060E080E0A3
S1131B8034DF60E081E031DF07C06FE080E02DDF0B
S1131B906FE081E02ADF000000000F90DF91CF9119
S1131BA00895CF93DF93CDB7DEB78DE290E02FEFAA
S1131BB0FC01208384E290E028E7FC0120830000FC
S1131BC0DF91CF910895CF93DF93CDB7DEB784E44F
S1131BD090E02BE0FC0120838EE690E022E0FC0103
S1131BE0208387E490E02AEFFC0120830000DF914A
S1131BF0CF9108951F920F9200905F000F921124CD
S1131C008F939F93AF93BF93CF93DF93CDB7DEB7FB
S1131C108091360290913702A0913802B091390236
S1131C200196A11DB11D8093360290933702A093B3
S1131C303802B093390280913A028F5F80933A025E
S1131C400000DF91CF91BF91AF919F918F910F9041
S1131C5000925F000F901F9018955058BB27AA2739
S1131C600ED0E0C0D1D030F0D6D020F031F49F3F78
S1131C7011F41EF4C6C00EF4E095E7FBBCC0E92FD6
S1131C80E2D080F3BA17620773078407950718F048
S1131C9071F49EF5FAC00EF4E0950B2EBA2FA02D28
S1131CA00B01B90190010C01CA01A0011124FF2705
S1131CB0591B99F0593F50F4503E68F11A16F04000
S1131CC0A22F232F342F4427585FF3CF46953795FF
S1131CD02795A795F0405395C9F77EF41F16BA0BC4
S1131CE0620B730B840BBAF09150A1F0FF0FBB1F72
S1131CF0661F771F881FC2F70EC0BA0F621F731FBB
S1131D00841F48F4879577956795B795F7959E3F17
S1131D1008F0B3CF9395880F08F09927EE0F9795A5
S1131D208795089598D088F09F5790F0B92F9927F8
S1131D30B751A0F0D1F0660F771F881F991F1AF0D2
S1131D40BA95C9F712C0B13081F09FD0B1E00895BF
S1131D509CC0672F782F8827B85F39F0B93FCCF340
S1131D60869577956795B395D9F73EF490958095C8
S1131D70709561957F4F8F4F9F4F0895E89409C0E8
S1131D8097FB3EF490958095709561957F4F8F4FAA
S1131D909F4F9923A9F0F92F96E9BB279395F695C0
S1131DA0879577956795B795F111F8CFFAF4BB0F3E
S1131DB011F460FF1BC06F5F7F4F8F4F9F4F16C0A2
S1131DC0882311F096E911C0772321F09EE8872F2C
S1131DD0762F05C0662371F096E8862F70E060E0E8
S1131DE02AF09A95660F771F881FDAF7880F969561
S1131DF0879597F9089597F99F6780E870E060E008
S1131E0008959FEF80EC089500240A94161617068F
S1131E1018060906089500240A94121613061406D7
S1131E2005060895092E0394000C11F4882352F03A
S1131E30BB0F40F4BF2B11F460FF04C06F5F7F4FF2
S1131E408F4F9F4F089557FD9058440F551F59F0D9
S1131E505F3F71F04795880F97FB991F61F09F3F93
S1131E6079F087950895121613061406551FF2CFBC
S1131E704695F1DF08C0161617061806991FF1CF0C
S1131E8086957105610508940895E894BB27662733
S1131E907727CB0197F908950BD0C4CFB5DF28F08D
S1131EA0BADF18F0952309F0A6CFABCF1124EECFFB
S1131EB0CADFA0F3959FD1F3950F50E0551F629FA1
S1131EC0F001729FBB27F00DB11D639FAA27F00D8F
S1131ED0B11DAA1F649F6627B00DA11D661F829FB6
S1131EE02227B00DA11D621F739FB00DA11D621F9B
S1131EF0839FA00D611D221F749F3327A00D611DB8
S1131F00231F849F600D211D822F762F6A2F112499
S1131F109F5750408AF0E1F088234AF0EE0FFF1FEC
S1131F20BB1F661F771F881F91505040A9F79E3F23
S1131F30510570F060CFAACF5F3FECF3983EDCF31D
S1131F40869577956795B795F795E7959F5FC1F760
S1131F50FE2B880F911D9695879597F90895EE0F9E
S1131F60FF1F0024001C0BBE0790F691E02D09947E
S1131F70A29FB001B39FC001A39F700D811D1124C6
S1131F80911DB29F700D811D1124911D0895F89427
S1051F90FFCF7D
S1131F923908061700020CC094D48007006F00FFB2
S1131FA2FFFF00FF20FF0020FFFF002020FF0007AB
S1131FB207FF00FF0101000101FF000320200003CD
S1131FC20220000405040020022000FF070700FF8E
S1131FD201FF0020FF2000FF07FF00202020000255
S1131FE2070300FF20200020202042616C646967FF
S1131FF220526573696E6720202020002020202053
S1132002202020202E2D2D2E202020202020202094
S1132012002020202E2D2D2D2D27202020272D2D70
S11320222E2020202000202020272D28292D2D2D70
S11320322D2D28292D2720202020005453563A588C
S113204258585620202020202041543A5858430002
S11320524C56563A58582E58562020202020435485
S11320623A5858430042423A58582020202020200F
S11320722043544D443A585843004552523A202082
S11320822020202042505F463A5858626172000074
S9030000FC
