:1000000069C0000086C0000084C0000082C00000FB
:1000100080C000007EC000007CC000007AC00000EC
:1000200078C0000076C0000074C0000072C00000FC
:1000300070C000006EC000006CC000006AC000000C
:100040000C94201166C0000064C0000062C0000073
:100050000C94BC0E5EC000005CC000005AC00000E2
:1000600058C0000056C0000054C0000052C000003C
:1000700050C000004EC000004CC000004AC000004C
:1000800048C0000046C0000044C0000042C000005C
:1000900040C00000980AB50AD20AEF0A0C0B290BDF
:1000A000460B630B800B9D0BBA0BD70BF40B110C9B
:1000B000740C7C0C840C8C0C940C9C0CA40CAC0C60
:1000C000B40CBC0C4E0F5C0F550F710F630F6A0F11
:1000D0007F0F780F11241FBECFEFD0E1DEBFCDBF61
:1000E00012E0A0E0B1E0E8E2F3E200E00BBF02C002
:1000F00007900D92A831B107D9F723E0A8E1B2E04B
:1001000001C01D92A931B207E1F70E940B0D0C94BA
:10011000921176CFCF93DF93CDB7DEB780E092E038
:100120009093A4028093A3028FEF9FEF9093A60277
:100130008093A5021092A8021092A70281E092E09B
:1001400090938C0280938B028FEF9FEF90938E029F
:1001500080938D0281E090E09093900280938F02D3
:1001600080E094E090936802809367028FEF9FEFA6
:1001700090936A028093690282E090E090936C020F
:1001800080936B0280E194E090939E0280939D02A5
:100190008FEF9FEF9093A00280939F0283E090E007
:1001A0009093A2028093A10280E294E090937A025D
:1001B000809379028FEF9FEF90937C0280937B0274
:1001C00084E090E090937E0280937D0280E095E051
:1001D00090935602809355028FEF9FEF90935802B1
:1001E0008093570285E090E090935A0280935902E1
:1001F00080E096E09093100380930F038FEF9FEFC2
:10020000909312038093110386E090E0909314037F
:100210008093130380E597E090935C0280935B02E8
:100220008FEF9FEF90935E0280935D0287E090E0F6
:100230009093600280935F0286E997E090936E024C
:1002400080936D028FEF9FEF9093700280936F0207
:1002500088E090E0909372028093710287E997E0C2
:1002600090936202809361028FEF9FEF90936402FC
:100270008093630289E090E0909366028093650228
:1002800088E997E090930A03809309038FEF9FEF2B
:1002900090930C0380930B038AE090E090930E03FD
:1002A00080930D0389E997E09093800280937F0209
:1002B0008FEF9FEF90938202809381028BE090E01A
:1002C00090938402809383020000DF91CF91089580
:1002D000CF93DF93CDB7DEB761EB72E083EA92E0B4
:1002E00097D161EB72E08BE892E092D169EC72E019
:1002F00087E692E08DD169EC72E08DE992E088D1D9
:1003000069EC72E089E792E083D169ED72E08FE0F9
:1003100093E07ED161EE72E08BE592E079D100004E
:10032000DF91CF910895CF93DF93CDB7DEB761ED25
:1003300072E085E592E008D20000DF91CF91089548
:10034000CF93DF93CDB7DEB78091E102DF91CF91FC
:100350000895CF93DF931F92CDB7DEB7898389814C
:10036000882F90E0880F991F880F991F880F991F79
:1003700087559D4F0F90DF91CF910895CF93DF93D5
:10038000CDB7DEB78091A902282F30E08091AA0274
:10039000882F90E0982F8827822B932B9093190217
:1003A000809318028091B702282F30E08091B80224
:1003B000882F90E0982F8827822B932B24E630E01B
:1003C000B9010E946711CB01909328028093270204
:1003D0008091C902282F30E08091CA02882F90E0D6
:1003E000982F8827822B932B90932E0280932D0297
:1003F0008091CB02282F30E08091CC02882F90E0B2
:10040000982F8827822B932B9093300280932F0272
:1004100080E290E0FC018081882F90E08170992734
:1004200021E0892B09F020E0822F8093380280E2BE
:1004300090E0FC018081882F90E0809590958270FB
:10044000992795958795809337028091DB02282F15
:1004500030E08091DC02882F90E0982F8827822B53
:10046000932B90933B0280933A02809138028093C1
:10047000D102809137028093D20280913902809319
:10048000D3020000DF91CF910895CF93DF9300D086
:10049000CDB7DEB78A8319828A818830C0F08DEDAE
:1004A00090E0FC018081882F90E02A81222F30E0AB
:1004B0002850310902C0959587952A95E2F78170F9
:1004C000992721E0892B09F020E0298315C08CEDC4
:1004D00090E0FC018081882F90E02A81222F30E07B
:1004E00002C0959587952A95E2F78170992721E0BA
:1004F000892B09F020E0298389810F900F90DF91EB
:10050000CF910895CF93DF9300D0CDB7DEB788EDBC
:1005100090E0FC011082198256C08DEE90E0298196
:10052000222F30E022953295307F3227207F3227EC
:100530002860FC0120838EEE90E0FC0110828FEE9B
:1005400090E0FC01108280EF90E0FC01108281EFCE
:1005500090E0FC01108282EF90E0FC01108283EFBA
:1005600090E0FC01108284EF90E0FC01108285EFA6
:1005700090E0FC01108286EF90E0FC01108287EF92
:1005800090E0FC0110821A8218C08DEE90E0298163
:10059000222F30E022953295307F3227207F32277C
:1005A000322F2A81232B2860FC0120838AEF90E0E0
:1005B000FC0110828A818F5F8A838A81883028F3C8
:1005C00089818F5F898389818F3008F4A6CF82EE7D
:1005D00090E0FC01108283EE90E02CE0FC0120838F
:1005E00084EE90E026E3FC0120838BED90E0FC019B
:1005F000108288ED90E028ED30E0F9012081226042
:10060000FC01208300000F900F90DF91CF9108959F
:10061000CF93DF9300D000D01F92CDB7DEB79B837E
:100620008A837D836C838DEE90E02A813B81F90182
:10063000248135812295207FFC0120838A819B8142
:10064000FC018481958121DF882309F450C083EF68
:1006500090E02A813B81F9012081318136952795EF
:100660003695279536952795FC01208382EF90E0FB
:100670002A813B81F901208131812295220F207E40
:10068000FC01208381EF90E0FC01108280EF90E07C
:1006900024E0FC01208387EF90E02A813B81F9016F
:1006A000228133813695279536952795369527955E
:1006B000FC01208386EF90E02A813B81F9012281B1
:1006C00033812295220F207EFC01208385EF90E06C
:1006D000FC01108284EF90E0FC0110828FEE90E02C
:1006E00028ECFC0120838EEE90E0FC011082198240
:1006F0001FC08DEE90E02A813B81F9012481358174
:10070000322F3295307F2981232B2860FC012083F2
:100710008981882F90E02C813D81820F931F2AEFE1
:1007200030E0F9012081FC01208389818F5F89837A
:1007300089818830F0F200000F900F900F900F9099
:100740000F90DF91CF910895CF93DF9300D000D029
:100750001F92CDB7DEB79B838A837D836C8319821A
:100760001FC08DEE90E02A813B81F9012481358103
:10077000322F3295307F2981232B2860FC01208382
:100780008AEF90E02981222F30E04C815D81240F97
:10079000351FF9012081FC01208389818F5F8983C6
:1007A00089818830F0F28DEE90E02A813B81F90159
:1007B000248135812295207FFC0120838A819B81C1
:1007C000FC018481958161DE882309F444C08EEEAA
:1007D00090E0FC01108283EF90E02A813B81F901D7
:1007E0002081318136952795369527953695279521
:1007F000FC01208382EF90E02A813B81F901208176
:1008000031812295220F207EFC01208381EF90E030
:10081000FC01108280EF90E0FC01108287EF90E0F5
:10082000FC01108286EF90E0FC01108285EF90E0E1
:10083000FC01108284EF90E0FC0110828EEE90E0CB
:10084000FC0110828FEE90E028E4FC0120838EEE04
:1008500090E0FC01108200000F900F900F900F901D
:100860000F90DF91CF910895CF93DF9300D000D008
:10087000CDB7DEB79A8389837C836B838B819C8120
:10088000FC0181818431D1F48B819C81FC018081C8
:10089000882F90E0895F9E4FFC01808160E0AAD0A4
:1008A0008B819C81FC0111828B819C81FC01808168
:1008B00021E0280F8B819C81FC0120838B819C810E
:1008C000FC018081843021F48B819C81FC011082A9
:1008D0008B819C81FC018081682F70E08B819C81E1
:1008E000FC018181882F90E049815A81E4E1E69FF3
:1008F0009001E79F300D1124240F351F820F931FA5
:10090000FC01808161E076D08B819C81FC0181813A
:1009100021E0280F8B819C81FC01218300000F9036
:100920000F900F900F90DF91CF910895CF93DF93A9
:1009300000D0CDB7DEB719821A8289819A810F90D3
:100940000F90DF91CF910895CF93DF93CDB7DEB7AE
:10095000C455D1090FB6F894DEBF0FBECDBF9E01BE
:100960002D5A3F4FF90191838083198222C01A8248
:100970001AC08981482F50E08A81882F90E064E175
:10098000649F9001659F300D1124AE014F5F5F4F52
:10099000240F351F820F931F029620E1FC01208354
:1009A0008A818F5F8A838A81843118F389818F5F7E
:1009B000898389818430D8F2CE018D5A9F4FFC0102
:1009C0008081918120E5FE013396DC0101900D923A
:1009D0002A95E1F7CE018D5A9F4FFC0180819181CC
:1009E000CC5ADF4F0FB6F894DEBF0FBECDBFDF91FC
:1009F000CF9108950F931F93CF93DF9300D000D032
:100A0000CDB7DEB78B836C830EE210E08B81CDD740
:100A1000F80180838C81813051F485E290E025E2F9
:100A200030E0F90120812064FC01208309C085E2C7
:100A300090E025E230E0F90120812F7BFC0120834A
:100A400085E290E025E230E0F90120812061FC019F
:100A500020831A8219820EC085E290E025E230E000
:100A6000F90120812F7EFC01208389819A810196E2
:100A70009A83898389819A81843691056CF3000079
:100A80000F900F900F900F90DF91CF911F910F91CA
:100A900008958F92AF92CF92EF920F93CF93DF93FF
:100AA000CDB7DEB7812CA12CC12CE12C00E020E0D9
:100AB0004FE16FE181E07AD00F2EFFEE8F2EF02D07
:100AC0000F2EFFEEAF2EF02D0F2EFFEECF2EF02DBE
:100AD0000F2EFFEEEF2EF02D0FEE2FEE4FEE6FEEFE
:100AE00082E064D00F2EFEE18F2EF02D0F2EFEE15E
:100AF000AF2EF02D0F2EFEE1CF2EF02D0F2EFEE1AA
:100B0000EF2EF02D0EE12EE14EE16EE183E04ED0AE
:100B1000812CA12CC12CE12C0FEF2FEF4FEF6FEFA9
:100B200084E044D00F2EFFEE8F2EF02D0F2EFFEE1F
:100B3000AF2EF02D0F2EFFEECF2EF02D0F2EFFEE4D
:100B4000EF2EF02D0FEF2FEF4FEF6FEF85E02ED050
:100B5000812C6894AA24A1F80F2EF5E1CF2EF02D58
:100B60000F2EFAE0EF2EF02D04E02AE045E168E0D8
:100B700086E01CD00F2EFFE18F2EF02D0F2EFFE10F
:100B8000AF2EF02D0F2EFFE1CF2EF02DE12C00E047
:100B900020E040E060E087E009D00000DF91CF91E5
:100BA0000F91EF90CF90AF908F9008958F92AF926A
:100BB000CF92EF920F93CF93DF93CDB7DEB7299704
:100BC0000FB6F894DEBF0FBECDBF89836A834B8317
:100BD0002C830D83EE82CF82A88689868981882F17
:100BE00090E00896880F880F880F60E003DF61E0CF
:100BF0008A8100DF61E08B81FDDE61E08C81FADEBD
:100C000061E08D81F7DE61E08E81F4DE61E08F814D
:100C1000F1DE61E08885EEDE61E08985EBDE60E093
:100C200082E0E8DE000029960FB6F894DEBF0FBE22
:100C3000CDBFDF91CF910F91EF90CF90AF908F907C
:100C40000895CF93DF93CDB7DEB727970FB6F8940B
:100C5000DEBF0FBECDBF9B838A837D836C834E83B3
:100C60002F83198225C08E81682F70E08981282FFB
:100C700030E08F81882F90E0820F931F2981222FEF
:100C800030E04C815D81240F351FD901EC914A8100
:100C90005B81F4E1F69F9001F79F300D1124240F42
:100CA000351F820F931FDC01EC9389818F5F89834D
:100CB0008981882F90E02C813D81820F931FFC0158
:100CC0008081882351F08F81282F30E08981882FFF
:100CD00090E0820F931F449734F2000027960FB6DE
:100CE000F894DEBF0FBECDBFDF91CF910895CF93B3
:100CF000DF9300D0CDB7DEB71A8219820DC089818B
:100D00009A8180509F4FFC01808160E073DE898171
:100D10009A8101969A83898389819A8107977CF3C6
:100D200000000F900F90DF91CF910895CF93DF9344
:100D300000D0CDB7DEB79A83898389819A8120E07C
:100D400040E06BE071E07DDF89819A8120E041E045
:100D500060E271E076DF89819A8120E042E065E31C
:100D600071E06FDF89819A8120E043E06AE471E0FD
:100D700068DF40911802509119029A01ADECBCEC69
:100D80000E94831196958795969587959695879558
:100D9000880F991F9C01220F331F220F331F820FD0
:100DA000931F9A01281B390BC901282F89819A8129
:100DB00041E066E078D580911802909119029C017B
:100DC000ADECBCEC0E948311AC015695479556954D
:100DD0004795569547959A01ADECBCEC0E9483115E
:100DE000969587959695879596958795880F991FDF
:100DF0009C01220F331F220F331F820F931F9A0172
:100E0000281B390BC901282F89819A8141E065E0AF
:100E10004AD58091180290911902969587959695DA
:100E200087959C01ABE7B4E10E948311AC01569514
:100E300047959A01ADECBCEC0E948311969587957D
:100E40009695879596958795880F991F9C01220FF7
:100E5000331F220F331F820F931F9A01281B390B58
:100E6000C901282F89819A8141E064E01CD5409115
:100E70002702509128029A01ADECBCEC0E9483112C
:100E8000969587959695879596958795880F991F3E
:100E90009C01220F331F220F331F820F931F9A01D1
:100EA000281B390BC901282F89819A8141E062E111
:100EB000FAD480912702909128029C01ADECBCEC01
:100EC0000E948311AC0156954795569547955695C6
:100ED00047959A01ADECBCEC0E94831196958795DD
:100EE0009695879596958795880F991F9C01220F57
:100EF000331F220F331F820F931F9A01281B390BB8
:100F0000C901282F89819A8141E060E1CCD4809188
:100F100027029091280296958795969587959C0132
:100F2000ABE7B4E10E948311AC01569547959A0155
:100F3000ADECBCEC0E9483119695879596958795AC
:100F400096958795880F991F9C01220F331F220FBA
:100F5000331F820F931F9A01281B390BC901282FB9
:100F600089819A8141E06FE09ED440913A0250918C
:100F70003B029A01ADECBCEC0E94831196958795DB
:100F80009695879596958795880F991F9C01220FB6
:100F9000331F220F331F820F931F9A01281B390B17
:100FA000C901282F89819A8142E067E07CD4809131
:100FB0003A0290913B029C01ADECBCEC0E94831183
:100FC000AC015695479556954795569547959A0184
:100FD000ADECBCEC0E94831196958795969587950C
:100FE00096958795880F991F9C01220F331F220F1A
:100FF000331F820F931F9A01281B390BC901282F19
:1010000089819A8142E065E04ED480913A029091C4
:101010003B0296958795969587959C01ABE7B4E141
:101020000E948311AC01569547959A01ADECBCEC3A
:101030000E948311969587959695879596958795A5
:10104000880F991F9C01220F331F220F331F820F1D
:10105000931F9A01281B390BC901282F89819A8176
:1010600042E064E020D440912D0250912E029A017A
:10107000ADECBCEC0E94831196958795969587956B
:1010800096958795880F991F9C01220F331F220F79
:10109000331F820F931F9A01281B390BC901282F78
:1010A00089819A8142E062E1FED380912D02909184
:1010B0002E029C01ADECBCEC0E948311AC01569554
:1010C000479556954795569547959A01ADECBCECDA
:1010D0000E94831196958795969587959695879505
:1010E000880F991F9C01220F331F220F331F820F7D
:1010F000931F9A01281B390BC901282F89819A81D6
:1011000042E060E1D0D380912D0290912E0296951D
:101110008795969587959C01ABE7B4E10E94831172
:10112000AC01569547959A01ADECBCEC0E94831139
:10113000969587959695879596958795880F991F8B
:101140009C01220F331F220F331F820F931F9A011E
:10115000281B390BC901282F89819A8142E06FE051
:10116000A2D300000F900F90DF91CF910895CF93FD
:10117000DF9300D0CDB7DEB79A8389838ADC000085
:101180000F900F90DF91CF910895CF93DF9300D010
:1011900000D0CDB7DEB79A8389837C836B83898146
:1011A0009A814BE06EE0A5D189819A8124E043E0E9
:1011B0006FE571E046DD4B815C819A01ADECBCECE2
:1011C0000E94831196958795969587959695879514
:1011D000880F991F9C01220F331F220F331F820F8C
:1011E000931F9A01281B390BC901282F89819A81E5
:1011F000422F6AE07ED18B819C819C01ADECBCECDE
:101200000E948311969587959695879596958795D3
:101210009C838B834B815C819A01ADECBCEC0E947A
:101220008311969587959695879596958795880FBE
:10123000991F9C01220F331F220F331F820F931F10
:101240009A01281B390BC901282F89819A81422FC5
:1012500066E04FD18B819C819C01ADECBCEC0E947F
:1012600083119695879596958795969587959C83F6
:101270008B834B815C819A01ADECBCEC0E948311A5
:10128000969587959695879596958795880F991F3A
:101290009C01220F331F220F331F820F931F9A01CD
:1012A000281B390BC901282F89819A81422F60E0C0
:1012B00020D100000F900F900F900F90DF91CF91F1
:1012C0000895CF93DF9300D000D0CDB7DEB79A83D7
:1012D00089837C836B8389819A814DE060E109D1A8
:1012E00089819A812EE040E061E671E0AADC898183
:1012F0009A8128E043E06FE571E0A3DC4B815C81DB
:101300009A01ADECBCECFFD796958795969587959D
:1013100096958795880F991F9C01220F331F220FE6
:10132000331F820F931F9A01281B390BC901282FE5
:1013300089819A81422F6AE0DCD08B819C819C015B
:10134000ADECBCECE0D796958795969587959695EC
:1013500087959C838B834B815C819A01ADECBCECBF
:10136000D2D7969587959695879596958795880F68
:10137000991F9C01220F331F220F331F820F931FCF
:101380009A01281B390BC901282F89819A81422F84
:1013900064E0AFD08B819C819C01ADECBCECB3D7F9
:1013A0009695879596958795969587959C838B833B
:1013B0004B815C819A01ADECBCECA5D796958795E5
:1013C0009695879596958795880F991F9C01220F72
:1013D000331F220F331F820F931F9A01281B390BD3
:1013E000C901282F89819A81422F60E082D00000B4
:1013F0000F900F900F900F90DF91CF910895EF9283
:101400000F931F93CF93DF93CDB7DEB72A970FB615
:10141000F894DEBF0FBECDBF9C838B836D834E835C
:101420002F8319870887EA861A82198250C09A8505
:1014300089819817A0F09A858981981709F044C08E
:101440009E818D81980F8981292F281B8B819C81FA
:101450004F8163E671E0F5DB81E08A8335C0488522
:1014600059859A01ADECBCEC4ED79695879596952B
:10147000879596958795880F991F9C01220F331F9A
:10148000220F331F820F931F9A01281B390BC901AA
:10149000282F9D818981981B8A81981B8E81392FE5
:1014A000380F8B819C814F81632FFDD18885998571
:1014B0009C01ADECBCEC27D79695879596958795C2
:1014C000969587959987888789818F5F8983998188
:1014D0008D81981708F0ABCF00002A960FB6F894CC
:1014E000DEBF0FBECDBFDF91CF911F910F91EF9067
:1014F0000895CF93DF9300D000D0CDB7DEB79A83A5
:1015000089836B834C838C81882F90E0092E000C9B
:10151000AA0BBB0B40E050E02DE030E0841B950BA4
:101520002817390708F49AC1865B9F4FFC01E2C671
:1015300089819A812B8140E065E671E082DB8981B7
:101540009A812B8141E069E671E07BDB89819A8198
:101550002B8142E069E671E074DB89819A812B81FD
:1015600043E065E671E06DDB96C189819A812B814C
:1015700040E06DE671E065DB89819A812B8141E075
:1015800061E771E05EDB89819A812B8142E061E74E
:1015900071E057DB89819A812B8143E061E771E03B
:1015A00050DB79C189819A812B8140E065E671E049
:1015B00048DB89819A812B8141E065E771E041DB5D
:1015C00089819A812B8142E069E771E03ADB898168
:1015D0009A812B8143E065E671E033DB5CC1898150
:1015E0009A812B8140E065E671E02BDB89819A814D
:1015F0002B8141E065E771E024DB89819A812B81B1
:1016000042E06DE771E01DDB89819A812B8143E027
:1016100065E671E016DB3FC189819A812B8140E04C
:1016200061E871E00EDB89819A812B8141E065E8F8
:1016300071E007DB89819A812B8142E069E871E0E2
:1016400000DB89819A812B8143E06DE871E0F9DA52
:1016500022C189819A812B8140E065E671E0F1DA4F
:1016600089819A812B8141E061E971E0EADA89811F
:101670009A812B8142E06DE771E0E3DA89819A81FA
:101680002B8143E065E671E0DCDA05C189819A814E
:101690002B8140E065E671E0D4DA89819A812B8163
:1016A00041E061E971E0CDDA89819A812B8142E0E4
:1016B00065E971E0C6DA89819A812B8143E065E6AC
:1016C00071E0BFDAE8C089819A812B8140E065E64C
:1016D00071E0B7DA89819A812B8141E061E771E09D
:1016E000B0DA89819A812B8142E069E971E0A9DA57
:1016F00089819A812B8143E069E971E0A2DACBC04C
:1017000089819A812B8140E065E671E09ADA8981CE
:101710009A812B8141E06DE971E093DA89819A81A8
:101720002B8142E065E971E08CDA89819A812B8115
:1017300043E06DE971E085DAAEC089819A812B8141
:1017400040E065E671E07DDA89819A812B8141E094
:101750006DE971E076DA89819A812B8142E06DE74B
:1017600071E06FDA89819A812B8143E061E771E052
:1017700068DA91C089819A812B8140E061EA71E049
:1017800060DA89819A812B8141E061EA71E059DA5E
:1017900089819A812B8142E061EA71E052DA898184
:1017A0009A812B8143E061EA71E04BDA74C0898150
:1017B0009A812B8140E069E671E043DA89819A8160
:1017C0002B8141E069E671E03CDA89819A812B81C5
:1017D00042E065EA71E035DA89819A812B8143E044
:1017E00069E971E02EDA57C089819A812B8140E046
:1017F00069E671E026DA89819A812B8141E069E608
:1018000071E01FDA89819A812B8142E069E671E0FB
:1018100018DA89819A812B8143E065E671E011DA5B
:101820003AC089819A812B8140E065E671E009DA4E
:1018300089819A812B8141E069EA71E002DA89812C
:101840009A812B8142E069EA71E0FBD989819A8112
:101850002B8143E065E671E0F4D91DC089819A814E
:101860002B8140E065E671E0ECD989819A812B817A
:1018700041E065E671E0E5D989819A812B8142E0FA
:1018800065E671E0DED989819A812B8143E065E6C6
:1018900071E0D7D9000000000F900F900F900F90CB
:1018A000DF91CF910895CF93DF9300D000D01F92A6
:1018B000CDB7DEB79A8389836B834C832D838D816B
:1018C000882F90E0092E000CAA0BBB0B40E050E0E3
:1018D00029E030E0841B950B2817390708F454C021
:1018E000885A9F4FFC0106C589819A812B814C81C2
:1018F0006DEA71E0A6D950C089819A812B814C8113
:101900006FEA71E09ED948C089819A812B814C8110
:1019100061EB71E096D940C089819A812B814C811D
:1019200063EB71E08ED938C089819A812B814C811B
:1019300065EB71E086D930C089819A812B814C8119
:1019400067EB71E07ED928C089819A812B814C8117
:1019500069EB71E076D920C089819A812B814C8115
:101960006BEB71E06ED918C089819A812B814C8113
:101970006DEB71E066D910C089819A812B814C8111
:101980006FEB71E05ED908C089819A812B814C810F
:1019900061EC71E056D9000000000F900F900F909D
:1019A0000F900F90DF91CF910895CF93DF9300D0E8
:1019B0001F92CDB7DEB78B8319821A8222C08B812A
:1019C000882F90E02A81222F30E002C095958795DC
:1019D0002A95E2F7817099272A81222F30E047E08B
:1019E00050E0BA01621B730B9B0102C0880F991F64
:1019F0002A95E2F7982F8981892B89838A818F5FC5
:101A00008A838A818830D8F289810F900F900F9055
:101A1000DF91CF910895CF93DF93CDB7DEB7CF5449
:101A2000D1400FB6F894DEBF0FBECDBFE0D35FD973
:101A300030D8A6D0EED30E948A000E948202198676
:101A400019821A821B821C821D821E827894EFD119
:101A500087E009D20E9496049F878E87CE01409628
:101A60000E94A404CE01805A9F4F0E94A404CE017C
:101A700080559F4F0E94A404CE0193950E94A40418
:101A8000CE01409620E040E063EC71E0DAD8CE0170
:101A9000409620E041E068ED71E0D3D8CE01409659
:101AA00020E042E06DEE71E0CCD8CE01409620E01F
:101AB00043E062E072E0C5D8CE01409698878F83FC
:101AC00080915402882351F0109254029E01225FAB
:101AD0003F4F8F819885B9010E94340420915002B4
:101AE0003091510240915202509153028A859B8558
:101AF000AC85BD85281739074A075B0779F08091C7
:101B0000500290915102A0915202B09153028A87E3
:101B10009B87AC87BD8789818F5F898389818A3064
:101B2000A8F019828A818F5F8A838B819C81AD8125
:101B3000BE810196A11DB11D8B839C83AD83BE83A5
:101B40000E9468010E94BE010E9493018B819C81CA
:101B5000AD81BE818C329140A105B10508F4B0CFB2
:101B6000CE01939598878F838F819885DFD886E003
:101B70007AD185E087D28AE0C1D281E011D3A0CFAB
:101B8000CF93DF93CDB7DEB784E290E024E230E07C
:101B9000F90120812160FC01208384E290E024E2AD
:101BA00030E0F90120812660FC0120838CE490E084
:101BB00020EDFC0120838CE490E02CE430E0F9017E
:101BC00020812160FC01208381E290E021E230E06D
:101BD000F90120812860FC01208384E290E024E266
:101BE00030E0F90120812068FC01208382E290E04E
:101BF00022E230E0F90120812860FC01208382E2AA
:101C000090E022E230E0F90120812860FC0120838D
:101C10000000DF91CF910895CF93DF93CDB7DEB76A
:101C200080914F02882311F481E001C080E0DF91B0
:101C3000CF910895CF93DF9300D000D0CDB7DEB71A
:101C400089836A834B832C838981809315038B81DD
:101C5000809317038A81809316038C8180931803E5
:101C600081E080934F028981882F90E0009719F0DE
:101C70000197A1F026C082E290E022E230E0F90173
:101C80002081277FFC01208385E290E025E230E07F
:101C9000F90120812068FC01208313C085E290E0D7
:101CA00025E230E0F90120812F77FC01208382E2D8
:101CB00090E022E230E0F90120812860FC012083DD
:101CC00000008EE490E02A81FC01208300000F9048
:101CD0000F900F900F90DF91CF910895CF93DF93E6
:101CE00000D000D01F92CDB7DEB78A836B834C83C0
:101CF0002D8309C08FEF898303C089818150898337
:101D000089818823D1F788DF8823A1F32D814C8135
:101D10006B818A818FDF00000F900F900F900F90E2
:101D20000F90DF91CF910895CF93DF9300D0CDB77F
:101D3000DEB789836A838A818095282F4AE060E430
:101D4000898178DF00000F900F90DF91CF91089587
:101D5000CF93DF9300D0CDB7DEB789836A838A81C2
:101D60008095282F4AE060E48981B8DF00000F9059
:101D70000F90DF91CF9108951F920F9200905F0016
:101D80000F92112400905B000F922F933F938F933B
:101D90009F93EF93FF93CF93DF93CDB7DEB78091FF
:101DA0004F02882F90E08230910581F083309105B9
:101DB000B9F0019709F029C08EE490E02091170353
:101DC000FC01208382E080934F021FC08EE490E0EC
:101DD00020911803FC01208383E080934F0215C0FB
:101DE00085E290E025E230E0F90120812068FC01E5
:101DF000208382E290E022E230E0F9012081286035
:101E0000FC01208310924F0200000000DF91CF916F
:101E1000FF91EF919F918F913F912F910F900092A1
:101E20005B000F9000925F000F901F901895CF936A
:101E3000DF93CDB7DEB720E040E064E480E04EDF22
:101E400020E040E062E481E049DF20E045E064E436
:101E500080E044DF20E045E062E481E03FDF000015
:101E6000DF91CF910895CF93DF931F92CDB7DEB767
:101E700089838981882F90E0092E000CAA0BBB0B67
:101E800040E050E027E030E0841B950B281739072D
:101E900008F43CC08E599F4FFC012CC269E080E0E1
:101EA00057DF69E081E054DF31C066E080E050DF59
:101EB00066E081E04DDF2AC060E380E049DF60E357
:101EC00081E046DF23C069E380E042DF69E381E02F
:101ED0003FDF1CC066E380E03BDF66E381E038DF84
:101EE00015C06FEF80E034DF6FEF81E031DF0EC0AF
:101EF00060E080E02DDF60E081E02ADF07C06FE076
:101F000080E026DF6FE081E023DF000000000F901B
:101F1000DF91CF910895CF93DF93CDB7DEB782E203
:101F200090E022E230E0F90120812F70FC01208353
:101F300084E390E024E330E0F90120812B7FFC0171
:101F400020830000DF91CF910895CF93DF93CDB729
:101F5000DEB788E290E0FC01108284E390E024E3A5
:101F600030E0F90120812C7FFC0120830000DF910B
:101F7000CF910895CF93DF93CDB7DEB729970FB6F2
:101F8000F894DEBF0FBECDBF9D838C837F836E83AD
:101F900059874887C0DF2C813D818E819F81A901AF
:101FA000481B590BCA0196958795969587959A83F4
:101FB0008983288539858E819F81281B390B8981EA
:101FC0009A81820F931F29813A81B9016CD1CB018B
:101FD0008B838B8118161CF48B8154D002C080E057
:101FE00051D0000029960FB6F894DEBF0FBECDBFCA
:101FF000DF91CF910895CF93DF93CDB7DEB72997C7
:102000000FB6F894DEBF0FBECDBF9D838C837F8358
:102010006E835987488799DF2C813D818E819F810E
:10202000A901481B590BCA019C01AFE8B3EE6BD163
:102030009695879596958795969587959A838983A2
:10204000288539858E819F81281B390B89819A814A
:10205000820F931F29813A81B90125D1CB018B834E
:102060008B8118161CF48B8149D002C080E046D0C9
:10207000000029960FB6F894DEBF0FBECDBFDF91EA
:10208000CF910895CF93DF931F92CDB7DEB78983A9
:1020900082E290E022E230E0F9012081622F298182
:1020A000422F50E02FEF30E002C0220F331F4A953D
:1020B000E2F72095309522953295307F3227207FA8
:1020C0003227262BFC01208384E390E024E330E0D8
:1020D000F9012081622F2981422F50E020E830E071
:1020E00002C0359527954A95E2F72470262BFC010E
:1020F000208300000F90DF91CF910895CF93DF935D
:102100001F92CDB7DEB7898388E290E028E230E005
:10211000F9012081622F2981422F50E02FEF30E01A
:1021200002C0359527954A95E2F72095262BFC01AC
:10213000208384E390E024E330E0F9012081622FE2
:10214000398129E3329F212D11242695422F50E019
:102150002FEF30E002C0220F331F4A95E2F720959F
:102160003095598149E3549F412D11244695442FC0
:1021700050E002C0220F331F4A95E2F7422F398107
:102180002DEC329F212D1124269526952695240F7E
:10219000262BFC01208300000F90DF91CF91089542
:1021A000CF93DF931F92CDB7DEB789838981882FC4
:1021B00090E0009719F0019759F014C08BE290E07D
:1021C0002BE230E0F90120812076FC0120830AC057
:1021D0008BE290E02BE230E0F90120812F69FC01D5
:1021E0002083000000000F90DF91CF910895CF93DE
:1021F000DF93CDB7DEB78DE290E02FEFFC012083B7
:1022000084E290E028E7FC0120830000DF91CF9179
:102210000895CF93DF93CDB7DEB784E490E02BE051
:10222000FC0120838EE690E022E0FC01208387E41D
:1022300090E02AEFFC0120830000DF91CF91089508
:102240001F920F9200905F000F9211248F939F9323
:10225000AF93BF93CF93DF93CDB7DEB7809150029A
:1022600090915102A0915202B09153020196A11D8A
:10227000B11D8093500290935102A0935202B093EB
:102280005302809154028F5F809354020000DF91CB
:10229000CF91BF91AF919F918F910F9000925F006E
:1022A0000F901F901895AA1BBB1B51E107C0AA1FD6
:1022B000BB1FA617B70710F0A61BB70B881F991FE7
:1022C0005A95A9F780959095BC01CD01089597FB8B
:1022D000072E16F4009406D077FD08D0E4DF07FC43
:1022E00005D03EF4909581959F4F08957095619526
:1022F0007F4F0895EE0FFF1F0024001C0BBE0790B8
:10230000F691E02D0994A29FB001B39FC001A39F55
:10231000700D811D1124911DB29F700D811D11241E
:08232000911D0895F894FFCF10
:102328003908061700020CC094D480202D2D2052A5
:102338004F4C4C4F55542054593234202D2D2000E9
:102348005453563A202020562020414343553A20E2
:10235800202E2043004C56563A20202E205620434B
:102368004F4F4C3A20202E2043004552523A20200D
:10237800202020204D54523A2020202E20430007B0
:10238800006F002C00FFFFFF00FF20FF0020FFFF71
:10239800002020FF000707FF00FF0101000101FFE7
:1023A800000320200003022000040504002002206E
:1023B80000FF070700FF01FF0020FF2000FF07FFC5
:1023C800002020200002070300FF202000300031F9
:1023D8000032003300340035003600370038003949
:1023E80000FF0020202042616C64696720526573F9
:1023F800696E672020202000202020202020202017
:102408002E2D2D2E202020202020202000202020AE
:102418002E2D2D2D2D27202020272D2D2E2020203C
:102428002000202020272D28292D2D2D2D2D28294D
:082438002D27202020200000C8
:00000001FF
