S00E00004449435F32332E7372656382
S11300007DC000009AC0000098C0000096C00000A7
S113001094C0000092C0000090C000008EC0000098
S11300208CC000008AC0000088C0000086C00000A8
S113003084C0000082C0000080C000007EC00000B8
S11300400C9442187AC0000078C0000076C000000A
S11300500C94E91372C0000070C000006EC0000070
S11300606CC000006AC0000068C0000066C00000E8
S113007064C0000062C0000060C000005EC00000F8
S11300805CC000005AC0000058C0000056C0000008
S113009054C00000C808E50802091F093C095909B1
S11300A076099309B009CD09EA09070A240A410A25
S11300B07B14891482149E1490149714AC14A51400
S11300C0181622162C16361640164A1654165E16A4
S11300D0681672167C16861690169A16A416CE16F4
S11300E0D816E216EC16F61600170A1714171E1780
S11300F0281732173C17461750175A1711241FBEDA
S1130100CFEFD0E1DEBFCDBF12E0A0E0B1E0ECE67E
S1130110F1E300E00BBF02C007900D92AC32B107CF
S1130120D9F723E0ACE2B2E001C01D92A632B207D7
S1130130E1F70E94B90A0C94B41862CFCF93DF930D
S1130140CDB7DEB780E092E09093B7028093B60219
S11301508FEF9FEF9093B9028093B8021092BB0285
S11301601092BA0281E092E090939F0280939E02E3
S11301708FEF9FEF9093A1028093A00281E090E023
S11301809093A3028093A20280E094E09093810272
S1130190809380028FEF9FEF90938302809382027B
S11301A082E090E0909385028093840280E194E061
S11301B09093B1028093B0028FEF9FEF9093B302BC
S11301C08093B20283E090E09093B5028093B402EE
S11301D080E294E090938D0280938C028FEF9FEFE6
S11301E090938F0280938E0284E090E0909391022A
S11301F08093900280E095E090937502809374025E
S11302008FEF9FEF909377028093760285E090E0E2
S1130210909379028093780280E096E090931D0396
S113022080931C038FEF9FEF90931F0380931E0313
S113023086E090E0909321038093200380E597E08B
S113024090937B0280937A028FEF9FEF90937D02CD
S113025080937C0287E090E090937F0280937E02FB
S113026080E093E090939302809392028FEF9FEF4C
S1130270909395028093940288E090E09093970283
S1130280809396020000DF91CF910895CF93DF937E
S11302901F92CDB7DEB76CEB72E086EB92E07DD2B5
S11302A08091C302898380916D029981981751F4DA
S11302B080916B0290916C02019690936C028093F2
S11302C06B0204C010926C0210926B0289818093BD
S11302D06D0280916B0290916C02893E934020F4F0
S11302E080913202882321F081E00E94691703C0C3
S11302F080E00E94691764EC72E08EE992E04DD2CE
S11303006CEC72E080E892E048D264ED72E080EB3D
S113031092E043D26CED72E08CE892E03ED26CEE57
S113032072E08CE193E039D264EF72E08AE792E004
S113033034D26CEF72E082E992E02FD200000F9089
S1130340DF91CF910895CF93DF93CDB7DEB764EEFD
S113035072E084E792E0BDD20000DF91CF9108956E
S1130360CF93DF93CDB7DEB78091F502DF91CF91C4
S11303700895CF93DF931F92CDB7DEB78983898128
S1130380882F90E0880F991F880F991F880F991F55
S113039084549D4F0F90DF91CF910895CF93DF93B5
S11303A0CDB7DEB78091BC02282F30E08091BD022A
S11303B0882F90E0982F8827822B932B90932D02DF
S11303C080932C0280912C0290912D029695879512
S11303D0969587959C01ABE7B4E10E94A518969584
S11303E0879590932D0280932C028091C202881FDE
S11303F08827881F809332028091C2028295869555
S113040086958370817080933302809133028823B0
S113041049F482E290E022E230E0F9012081FC011B
S1130420208309C082E290E022E230E0F9012081D9
S11304302460FC0120838091C20282958F708170B8
S1130440809335028091CA02282F30E08091CB023C
S1130450882F90E0982F8827822B932B90933C022F
S113046080933B0280913B0290913C029695879544
S1130470969587959C01ABE7B4E10E94A5189695E3
S1130480879590933C0280933B028091FC02282F35
S113049030E08091FD02882F90E0982F8827822BEE
S11304A0932B2AE030E0B9010E948918CB01909384
S11304B0400280933F028091FE02282F30E0809119
S11304C0FF02882F90E0982F8827822B932B2AE015
S11304D030E0B9010E948918CB01909342028093C5
S11304E041028091D402282F30E08091D502882FD8
S11304F090E0982F8827822B932B9093440280932B
S113050043028091D602282F30E08091D702882FB1
S113051090E0982F8827822B932B90934602809308
S1130520450280E290E0FC018081882F90E0817098
S1130530992721E0892B09F020E0822F809356022D
S11305401092550280E290E0FC018081882F90E0B7
S113055080959095959587958170809355028091AB
S1130560EE02282F30E08091EF02882F90E0982F40
S11305708827822B932B90935902809358022091C1
S11305806802309169028091000190910101821703
S1130590930748F480916802909169029093520203
S11305A08093510208C080910001909101019093C1
S11305B05202809351022091660230916702809129
S11305C06302909164028217930748F48091660253
S11305D090916702909354028093530208C08091D3
S11305E06302909164029093540280935302109298
S11305F0E402809155028093E50280915702809332
S1130600E602809156028093E9020000DF91CF91C7
S11306100895CF93DF9300D0CDB7DEB78A831982D4
S11306208A818830C0F08DED90E0FC018081882FB4
S113063090E02A81222F30E02850310902C095959C
S113064087952A95E2F78170992721E0892B09F093
S113065020E0298315C08CED90E0FC018081882F77
S113066090E02A81222F30E002C0959587952A9543
S1130670E2F78170992721E0892B09F020E0298392
S113068089810F900F90DF91CF910895CF93DF93DD
S113069000D0CDB7DEB788ED90E0FC01108219825E
S11306A056C08DEE90E02981222F30E022953295BC
S11306B0307F3227207F32272860FC0120838EEE92
S11306C090E0FC0110828FEE90E0FC01108280EF3C
S11306D090E0FC01108281EF90E0FC01108282EF37
S11306E090E0FC01108283EF90E0FC01108284EF23
S11306F090E0FC01108285EF90E0FC01108286EF0F
S113070090E0FC01108287EF90E0FC0110821A82D5
S113071018C08DEE90E02981222F30E02295329589
S1130720307F3227207F3227322F2A81232B2860E3
S1130730FC0120838AEF90E0FC0110828A818F5FA4
S11307408A838A81883028F389818F5F89838981AC
S11307508F3008F4A6CF82EE90E022E0FC012083E3
S113076083EE90E02CE0FC01208384EE90E027E30C
S1130770FC0120838BED90E0FC01108288ED90E079
S113078028ED30E0F90120812260FC012083000083
S11307900F900F90DF91CF910895CF93DF9300D006
S11307A000D01F92CDB7DEB79B838A837D836C8391
S11307B08DEE90E02A813B81F901248135812295D7
S11307C0207FFC0120838A819B81FC0184819581A7
S11307D020DF882309F450C083EF90E02A813B8115
S11307E0F9012081318136952795369527953695DF
S11307F02795FC01208382EF90E02A813B81F90157
S1130800208131812295220F207EFC01208381EFFB
S113081090E0FC01108280EF90E024E0FC01208352
S113082087EF90E02A813B81F9012281338136955B
S113083027953695279536952795FC01208386EFD5
S113084090E02A813B81F901228133812295220F94
S1130850207EFC01208385EF90E0FC01108284EF70
S113086090E0FC0110828FEE90E028ECFC012083E4
S11308708EEE90E0FC01108219821FC08DEE90E094
S11308802A813B81F90124813581322F3295307FD1
S11308902981232B2860FC0120838981882F90E003
S11308A02C813D81820F931F2AEF30E0F9012081D2
S11308B0FC01208389818F5F898389818830F0F2EC
S11308C000000F900F900F900F900F90DF91CF9139
S11308D00895CF93DF9300D000D01F92CDB7DEB739
S11308E09B838A837D836C8319821FC08DEE90E085
S11308F02A813B81F90124813581322F3295307F61
S11309002981232B2860FC0120838AEF90E0298130
S1130910222F30E04C815D81240F351FF9012081A5
S1130920FC01208389818F5F898389818830F0F27B
S11309308DEE90E02A813B81F90124813581229555
S1130940207FFC0120838A819B81FC018481958125
S113095060DE882309F444C08EEE90E0FC0110822E
S113096083EF90E02A813B81F90120813181369522
S113097027953695279536952795FC01208382EF98
S113098090E02A813B81F901208131812295220F57
S1130990207EFC01208381EF90E0FC01108280EF37
S11309A090E0FC01108287EF90E0FC01108286EF5A
S11309B090E0FC01108285EF90E0FC01108284EF4E
S11309C090E0FC0110828EEE90E0FC0110828FEE2C
S11309D090E028E4FC0120838EEE90E0FC0110827C
S11309E000000F900F900F900F900F90DF91CF9118
S11309F00895CF93DF9300D000D0CDB7DEB79A83AC
S1130A0089837C836B838B819C81FC01818184310C
S1130A10D1F48B819C81FC018081882F90E0875FD9
S1130A209E4FFC01808160E0AAD08B819C81FC01F7
S1130A3011828B819C81FC01808121E0280F8B81B4
S1130A409C81FC0120838B819C81FC01808184300A
S1130A5021F48B819C81FC0110828B819C81FC019F
S1130A608081682F70E08B819C81FC018181882FBB
S1130A7090E049815A81E4E1E69F9001E79F300DBF
S1130A801124240F351F820F931FFC01808161E024
S1130A9076D08B819C81FC01818121E0280F8B81A0
S1130AA09C81FC01218300000F900F900F900F9008
S1130AB0DF91CF910895CF93DF9300D0CDB7DEB708
S1130AC019821A8289819A810F900F90DF91CF91B8
S1130AD00895CF93DF93CDB7DEB7C455D1090FB6D0
S1130AE0F894DEBF0FBECDBF9E012D5A3F4FF901D2
S1130AF091838083198222C01A821AC08981482F67
S1130B0050E08A81882F90E064E1649F9001659FA2
S1130B10300D1124AE014F5F5F4F240F351F820F3C
S1130B20931F029620E1FC0120838A818F5F8A83D0
S1130B308A81843118F389818F5F89838981843024
S1130B40D8F2CE018D5A9F4FFC018081918120E51E
S1130B50FE013396DC0101900D922A95E1F7CE0156
S1130B608D5A9F4FFC0180819181CC5ADF4F0FB683
S1130B70F894DEBF0FBECDBFDF91CF9108950F93E0
S1130B801F93CF93DF9300D000D0CDB7DEB78B8314
S1130B906C830EE210E08B81B6D4F80180838C81E3
S1130BA0813051F485E290E025E230E0F9012081C2
S1130BB02064FC01208309C085E290E025E230E056
S1130BC0F90120812F7BFC01208385E290E025E25E
S1130BD030E0F90120812061FC0120831A8219820E
S1130BE00EC085E290E025E230E0F90120812F7EFD
S1130BF0FC01208389819A8101969A838983898162
S1130C009A81843691056CF300000F900F900F9039
S1130C100F90DF91CF911F910F9108958F92AF9212
S1130C20CF92EF920F93CF93DF93CDB7DEB7812CA2
S1130C30A12CC12CE12C00E020E04FE16FE181E028
S1130C407AD00F2EFFEE8F2EF02D0F2EFFEEAF2E4B
S1130C50F02D0F2EFFEECF2EF02D0F2EFFEEEF2EE8
S1130C60F02D0FEE2FEE4FEE6FEE82E064D00F2EDC
S1130C70FEE18F2EF02D0F2EFEE1AF2EF02D0F2E64
S1130C80FEE1CF2EF02D0F2EFEE1EF2EF02D0EE122
S1130C902EE14EE16EE183E04ED0812CA12CC12CDB
S1130CA0E12C0FEF2FEF4FEF6FEF84E044D00F2EC6
S1130CB0FFEE8F2EF02D0F2EFFEEAF2EF02D0F2E08
S1130CC0FFEECF2EF02D0F2EFFEEEF2EF02D0FEFB7
S1130CD02FEF4FEF6FEF85E02ED0812C6894AA247C
S1130CE0A1F80F2EF5E1CF2EF02D0F2EFAE0EF2E06
S1130CF0F02D04E02AE045E168E086E01CD00F2EE8
S1130D00FFE18F2EF02D0F2EFFE1AF2EF02D0F2ED1
S1130D10FFE1CF2EF02DE12C00E020E040E060E088
S1130D2087E009D00000DF91CF910F91EF90CF9031
S1130D30AF908F9008958F92AF92CF92EF920F93CE
S1130D40CF93DF93CDB7DEB729970FB6F894DEBF04
S1130D500FBECDBF89836A834B832C830D83EE82C0
S1130D60CF82A88689868981882F90E00896880F8B
S1130D70880F880F60E003DF61E08A8100DF61E0B3
S1130D808B81FDDE61E08C81FADE61E08D81F7DE2E
S1130D9061E08E81F4DE61E08F81F1DE61E08885BF
S1130DA0EEDE61E08985EBDE60E082E0E8DE0000F3
S1130DB029960FB6F894DEBF0FBECDBFDF91CF9159
S1130DC00F91EF90CF90AF908F900895CF93DF93D2
S1130DD0CDB7DEB727970FB6F894DEBF0FBECDBFF1
S1130DE09B838A837D836C834E832F83198225C0E2
S1130DF08E81682F70E08981282F30E08F81882FC1
S1130E0090E0820F931F2981222F30E04C815D8175
S1130E10240F351FD901EC914A815B81F4E1F69FDF
S1130E209001F79F300D1124240F351F820F931F5B
S1130E30DC01EC9389818F5F89838981882F90E01D
S1130E402C813D81820F931FFC018081882351F006
S1130E508F81282F30E08981882F90E0820F931FA3
S1130E60449734F2000027960FB6F894DEBF0FBE05
S1130E70CDBFDF91CF910895CF93DF9300D0CDB74D
S1130E80DEB71A8219820DC089819A818E5F9E4FC6
S1130E90FC01808160E073DE89819A8101969A83E6
S1130EA0898389819A8107977CF300000F900F90C2
S1130EB0DF91CF910895CF93DF9300D0CDB7DEB704
S1130EC09A838983ABDE00000F900F90DF91CF915E
S1130ED00895CF93DF9300D000D0CDB7DEB79A83C7
S1130EE089837C836B8389819A814BE06EE030D166
S1130EF089819A8124E043E06EE071E067DF4B81F1
S1130F005C819A01ADECBCEC0E94A518969587957E
S1130F109695879596958795880F991F9C01220F22
S1130F20331F220F331F820F931F9A01281B390B83
S1130F30C901282F89819A81422F6AE009D18B81C6
S1130F409C819C01ADECBCEC0E94A51896958795FC
S1130F5096958795969587959C838B834B815C8129
S1130F609A01ADECBCEC0E94A518969587959695D0
S1130F70879596958795880F991F9C01220F331F9B
S1130F80220F331F820F931F9A01281B390BC901AB
S1130F90282F89819A81422F66E0DAD08B819C8147
S1130FA09C01ADECBCEC0E94A5189695879596958E
S1130FB08795969587959C838B834B815C819A0159
S1130FC0ADECBCEC0E94A5189695879596958795EF
S1130FD096958795880F991F9C01220F331F220F26
S1130FE0331F820F931F9A01281B390BC901282F25
S1130FF089819A81422F60E0ABD000000F900F905E
S11310000F900F90DF91CF910895CF93DF9300D08D
S113101000D0CDB7DEB79A8389837C836B838981C3
S11310209A814DE060E194D089819A812EE040E07C
S113103060E171E0CBDE89819A8128E043E06EE0D3
S113104071E0C4DE4B815C819A01ADECBCEC0E9482
S1131050A518969587959695879596958795880F63
S1131060991F9C01220F331F220F331F820F931FDE
S11310709A01281B390BC901282F89819A81422F93
S11310806AE066D08B819C819C01ADECBCEC0E9433
S1131090A5189695879596958795969587959C839B
S11310A08B834B815C819A01ADECBCEC0E94A5184A
S11310B0969587959695879596958795880F991F08
S11310C09C01220F331F220F331F820F931F9A019B
S11310D0281B390BC901282F89819A81422F64E08A
S11310E037D08B819C819C01ADECBCEC0E94A5188F
S11310F09695879596958795969587959C838B83EA
S11311004B815C819A01ADECBCEC0E94A5189695CC
S113111087959695879596958795880F991F9C0135
S1131120220F331F220F331F820F931F9A01281B94
S1131130390BC901282F89819A81422F60E008D098
S113114000000F900F900F900F90DF91CF910895B2
S1131150CF93DF9300D000D0CDB7DEB79A838983D5
S11311606B834C838C81882F90E0092E000CAA0B92
S1131170BB0B40E050E02DE030E0841B950B2817BA
S1131180390708F49BC1865B9F4FFC010C949C18A3
S113119089819A812B8140E062E171E017DE8981C7
S11311A09A812B8141E066E171E010DE89819A81A8
S11311B02B8142E066E171E009DE89819A812B810D
S11311C043E062E171E002DE96C189819A812B815C
S11311D040E06AE171E0FADD89819A812B8141E086
S11311E06EE171E0F3DD89819A812B8142E06EE149
S11311F071E0ECDD89819A812B8143E06EE171E03D
S1131200E5DD79C189819A812B8140E062E171E059
S1131210DDDD89819A812B8141E062E271E0D6DDD6
S113122089819A812B8142E066E271E0CFDD898178
S11312309A812B8143E062E171E0C8DD5CC1898160
S11312409A812B8140E062E171E0C0DD89819A815D
S11312502B8141E062E271E0B9DD89819A812B81C1
S113126042E06AE271E0B2DD89819A812B8143E038
S113127062E171E0ABDD3FC189819A812B8140E05D
S11312806EE271E0A3DD89819A812B8141E062E302
S113129071E09CDD89819A812B8142E066E371E0F3
S11312A095DD89819A812B8143E06AE371E08EDDCB
S11312B022C189819A812B8140E062E171E086DD5F
S11312C089819A812B8141E06EE371E07FDD898120
S11312D09A812B8142E06AE271E078DD89819A810A
S11312E02B8143E062E171E071DD05C189819A815E
S11312F02B8140E062E171E069DD89819A812B8173
S113130041E06EE371E062DD89819A812B8142E0E4
S113131062E471E05BDD89819A812B8143E062E1C3
S113132071E054DDE8C089819A812B8140E062E15B
S113133071E04CDD89819A812B8141E06EE171E09D
S113134045DD89819A812B8142E066E471E03EDDCE
S113135089819A812B8143E066E471E037DDCBC05B
S113136089819A812B8140E062E171E02FDD8981DE
S11313709A812B8141E06AE471E028DD89819A81B8
S11313802B8142E062E471E021DD89819A812B8125
S113139043E06AE471E01ADDAEC089819A812B8151
S11313A040E062E171E012DD89819A812B8141E0A4
S11313B06AE471E00BDD89819A812B8142E06AE263
S11313C071E004DD89819A812B8143E06EE171E053
S11313D0FDDC91C089819A812B8140E06EE471E04B
S11313E0F5DC89819A812B8141E06EE471E0EEDCC9
S11313F089819A812B8142E06EE471E0E7DC898186
S11314009A812B8143E06EE471E0E0DC74C0898151
S11314109A812B8140E066E171E0D8DC89819A8170
S11314202B8141E066E171E0D1DC89819A812B81D5
S113143042E062E571E0CADC89819A812B8143E054
S113144066E471E0C3DC57C089819A812B8140E056
S113145066E171E0BBDC89819A812B8141E066E120
S113146071E0B4DC89819A812B8142E066E171E00C
S1131470ADDC89819A812B8143E062E171E0A6DCD5
S11314803AC089819A812B8140E062E171E09EDC5F
S113149089819A812B8141E066E571E097DC89813D
S11314A09A812B8142E066E571E090DC89819A8122
S11314B02B8143E062E171E089DC1DC089819A815E
S11314C02B8140E062E171E081DC89819A812B818A
S11314D041E062E171E07ADC89819A812B8142E00A
S11314E062E171E073DC89819A812B8143E062E1DE
S11314F071E06CDC000000000F900F900F900F90D3
S1131500DF91CF910895CF93DF9300D01F92CDB791
S1131510DEB78B8319821A8222C08B81882F90E0D8
S11315202A81222F30E002C0959587952A95E2F70B
S1131530817099272A81222F30E047E050E0BA01D8
S1131540621B730B9B0102C0880F991F2A95E2F757
S1131550982F8981892B89838A818F5F8A838A81E5
S11315608830D8F289810F900F900F90DF91CF913E
S11315700895CF93DF93CDB7DEB7CD55D1400FB6E5
S1131580F894DEBF0FBECDBF0E94B51775DC46DBF5
S11315900E94ED120E942B180E949E0077D8188694
S11315A01982198682E08A871B861A821B821C8212
S11315B01D8278940E94441487E00E9460147BDAB0
S11315C0998B888BCE01429684DACE01429620E034
S11315D040E06AE571E0FADBCE01429620E041E0AA
S11315E06FE671E0F3DBCE01429620E042E064E86E
S11315F071E0ECDBCE01429620E043E069E971E062
S1131600E5DBCE018E599F4F64DACE018E599F4F90
S113161020E040E06EEA71E0D9DBCE018E599F4FA5
S113162020E041E063EC71E0D1DBCE018E599F4FA5
S113163020E042E068ED71E0C9DBCE018E599F4F96
S113164020E043E06DEE71E0C1DBCE018E549F4F8C
S113165040DACE018E5F9E4F3CDACE018E5F9E4F04
S113166020E040E062E072E0B1DBCE018E5F9E4F8D
S113167020E041E06EEA71E0A9DBCE018E5F9E4F6F
S113168020E042E063EC71E0A1DBCE018E5F9E4F6F
S113169020E043E067E172E099DBCE0142969F834C
S11316A08E83CE014296092E000CAA0BBB0B9E0121
S11316B02E5A3E4FF90180839183A283B383CE01D6
S11316C08E5F9E4F092E000CAA0BBB0B9E012E5A57
S11316D03E4FF90184839583A683B783CE018E5947
S11316E09F4F092E000CAA0BBB0B9E012E5A3E4F96
S11316F0F90180879187A287B38780917302882339
S113170049F0109273029E01205F3F4F8E819F81AA
S1131710B9016FD920916F0230917002409171022A
S1131720509172028C859D85AE85BF852817390737
S11317304A075B0779F080916F0290917002A09143
S11317407102B09172028C879D87AE87BF878981B1
S11317508F5F898389818A3080F20E94A3010E946D
S113176046010E94CE01CE018E5F9E4F2E813F81A5
S11317702817390709F08DC3409151025091520244
S11317809A01ADECBCEC0E94A518969587959695A8
S1131790879596958795880F991F9C01220F331F73
S11317A0220F331F820F931F9A01281B390BC90183
S11317B020E3280FCE018E5F9E4FFC01228B809187
S11317C05102909152029C01ADECBCEC0E94A51810
S11317D0AC015695479556954795569547959A0168
S11317E0ADECBCEC0E94A5189695879596958795C7
S11317F096958795880F991F9C01220F331F220FFE
S1131800331F820F931F9A01281B390BC90120E350
S1131810280FCE018E5F9E4FFC01208B80915102D8
S11318209091520296958795969587959C01ABE782
S1131830B4E10E94A518AC01569547959A01ADEC08
S1131840BCEC0E94A51896958795969587959695D4
S11318508795880F991F9C01220F331F220F331F76
S1131860820F931F9A01281B390BC90120E3280F0B
S1131870CE018E5F9E4FFC01278740915302509109
S113188054029A01ADECBCEC0E94A518969587957C
S11318909695879596958795880F991F9C01220F99
S11318A0331F220F331F820F931F9A01281B390BFA
S11318B0C90120E3280FCE018E5F9E4FFC012783D0
S11318C080915302909154029C01ADECBCEC0E94B7
S11318D0A518AC0156954795569547955695479545
S11318E09A01ADECBCEC0E94A51896958795969547
S11318F0879596958795880F991F9C01220F331F12
S1131900220F331F820F931F9A01281B390BC90121
S113191020E3280FCE018E5F9E4FFC01258380912A
S113192053029091540296958795969587959C01BC
S1131930ABE7B4E10E94A518AC01569547959A010E
S1131940ADECBCEC0E94A518969587959695879565
S113195096958795880F991F9C01220F331F220F9C
S1131960331F820F931F9A01281B390BC90120E3EF
S1131970280FCE018E5F9E4FFC01248340912C02E0
S113198050912D029A01ADECBCEC0E94A5189695DD
S113199087959695879596958795880F991F9C01AD
S11319A0220F331F220F331F820F931F9A01281B0C
S11319B0390BC90120E3280FCE018E5F9E4FFC0135
S11319C0228F80912C0290912D029C01ADECBCECF5
S11319D00E94A518AC01569547955695479556957E
S11319E047959A01ADECBCEC0E94A5189695879595
S11319F09695879596958795880F991F9C01220F38
S1131A00331F220F331F820F931F9A01281B390B98
S1131A10C90120E3280FCE018E5F9E4FFC01218F68
S1131A2080912C0290912D02969587959695879595
S1131A309C01ABE7B4E10E94A518AC01569547950B
S1131A409A01ADECBCEC0E94A518969587959695E5
S1131A50879596958795880F991F9C01220F331FB0
S1131A60220F331F820F931F9A01281B390BC901C0
S1131A7020E3280FCE018E5F9E4FFC01208F409102
S1131A803B0250913C029A01ADECBCEC0E94A518BB
S1131A90969587959695879596958795880F991F1E
S1131AA09C01220F331F220F331F820F931F9A01B1
S1131AB0281B390BC90120E3280FCE018E5F9E4FEE
S1131AC0FC0126A380913B0290913C029C01ADEC69
S1131AD0BCEC0E94A518AC015695479556954795C0
S1131AE0569547959A01ADECBCEC0E94A5189695C5
S1131AF087959695879596958795880F991F9C014C
S1131B00220F331F220F331F820F931F9A01281BAA
S1131B10390BC90120E3280FCE018E5F9E4FFC01D3
S1131B2024A380913B0290913C02969587959695CB
S1131B3087959C01ABE7B4E10E94A518AC015695CA
S1131B4047959A01ADECBCEC0E94A5189695879533
S1131B509695879596958795880F991F9C01220FD6
S1131B60331F220F331F820F931F9A01281B390B37
S1131B70C90120E3280FCE018E5F9E4FFC0123A3F1
S1131B8040915802509159029A01ADECBCEC0E946C
S1131B90A518969587959695879596958795880F18
S1131BA0991F9C01220F331F220F331F820F931F93
S1131BB09A01281B390BC90120E3280FCE018E5F3F
S1131BC09E4FFC0127A780915802909159029C01D5
S1131BD0ADECBCEC0E94A518AC0156954795569502
S1131BE04795569547959A01ADECBCEC0E94A51813
S1131BF0969587959695879596958795880F991FBD
S1131C009C01220F331F220F331F820F931F9A014F
S1131C10281B390BC90120E3280FCE018E5F9E4F8C
S1131C20FC0125A7809158029091590296958795B9
S1131C30969587959C01ABE7B4E10E94A518AC0189
S1131C40569547959A01ADECBCEC0E94A518969563
S1131C5087959695879596958795880F991F9C01EA
S1131C60220F331F220F331F820F931F9A01281B49
S1131C70390BC90120E3280FCE018E5F9E4FFC0172
S1131C8024A740914702509148029A01ADECBCEC64
S1131C900E94A5189695879596958795969587950C
S1131CA0880F991F9C01220F331F220F331F820FAD
S1131CB0931F9A01281B390BC90120E3280FCE0179
S1131CC08E5F9E4FFC0122AF8091470290914802A3
S1131CD09C01ADECBCEC0E94A518AC01569547954F
S1131CE056954795569547959A01ADECBCEC0E94E4
S1131CF0A518969587959695879596958795880FB7
S1131D00991F9C01220F331F220F331F820F931F31
S1131D109A01281B390BC90120E3280FCE018E5FDD
S1131D209E4FFC0120AF8091470290914802969506
S1131D308795969587959C01ABE7B4E10E94A51819
S1131D40AC01569547959A01ADECBCEC0E94A518E0
S1131D50969587959695879596958795880F991F5B
S1131D609C01220F331F220F331F820F931F9A01EE
S1131D70281B390BC90120E3280FCE018E5F9E4F2B
S1131D80FC0127AB40914102509142029A01ADEC13
S1131D90BCEC0E94A518969587959695879596957F
S1131DA08795880F991F9C01220F331F220F331F21
S1131DB0820F931F9A01281B390BC90120E3280FB6
S1131DC0CE018E5F9E4F8C5B9F4FFC0120838091E0
S1131DD04102909142029C01ADECBCEC0E94A5181A
S1131DE0AC015695479556954795569547959A0152
S1131DF0ADECBCEC0E94A5189695879596958795B1
S1131E0096958795880F991F9C01220F331F220FE7
S1131E10331F820F931F9A01281B390BC90120E33A
S1131E20280FCE018E5F9E4F8D5B9F4FFC01208358
S1131E308091410290914202969587959695879557
S1131E409C01ABE7B4E10E94A518AC0156954795F7
S1131E509A01ADECBCEC0E94A518969587959695D1
S1131E60879596958795880F991F9C01220F331F9C
S1131E70220F331F820F931F9A01281B390BC901AC
S1131E8020E3280FCE018E5F9E4F8E5B9F4FFC0197
S1131E902083CE018E599F4F2E813F812817390709
S1131EA009F041C340912C0250912D029A01ADECEE
S1131EB0BCEC0E94A518969587959695879596955E
S1131EC08795880F991F9C01220F331F220F331F00
S1131ED0820F931F9A01281B390BC90120E3280F95
S1131EE0CE018E599F4FFC01268380912C02909144
S1131EF02D029C01ADECBCEC0E94A518AC015695DA
S1131F00479556954795569547959A01ADECBCEC87
S1131F100E94A51896958795969587959695879589
S1131F20880F991F9C01220F331F220F331F820F2A
S1131F30931F9A01281B390BC90120E3280FCE01F6
S1131F408E599F4FFC01258380912C0290912D0284
S1131F5096958795969587959C01ABE7B4E10E9489
S1131F60A518AC01569547959A01ADECBCEC0E94BE
S1131F70A518969587959695879596958795880F34
S1131F80991F9C01220F331F220F331F820F931FAF
S1131F909A01281B390BC90120E3280FCE018E5961
S1131FA09F4FFC01248340913B0250913C029A01D3
S1131FB0ADECBCEC0E94A5189695879596958795EF
S1131FC096958795880F991F9C01220F331F220F26
S1131FD0331F820F931F9A01281B390BC90120E379
S1131FE0280FCE018E599F4FFC01228B80913B021A
S1131FF090913C029C01ADECBCEC0E94A518AC0194
S11320005695479556954795569547959A01ADEC43
S1132010BCEC0E94A51896958795969587959695FC
S11320208795880F991F9C01220F331F220F331F9E
S1132030820F931F9A01281B390BC90120E3280F33
S1132040CE018E599F4FFC01208B80913B029091D1
S11320503C0296958795969587959C01ABE7B4E1EC
S11320600E94A518AC01569547959A01ADECBCECBD
S11320700E94A51896958795969587959695879528
S1132080880F991F9C01220F331F220F331F820FC9
S1132090931F9A01281B390BC90120E3280FCE0195
S11320A08E599F4FFC012787409158025091590245
S11320B09A01ADECBCEC0E94A5189695879596956F
S11320C0879596958795880F991F9C01220F331F3A
S11320D0220F331F820F931F9A01281B390BC9014A
S11320E020E3280FCE018E599F4FFC01238F80914E
S11320F05802909159029C01ADECBCEC0E94A518C9
S1132100AC015695479556954795569547959A012E
S1132110ADECBCEC0E94A51896958795969587958D
S113212096958795880F991F9C01220F331F220FC4
S1132130331F820F931F9A01281B390BC90120E317
S1132140280FCE018E599F4FFC01218F8091580298
S11321509091590296958795969587959C01ABE742
S1132160B4E1F3D7AC01569547959A01ADECBCECBC
S1132170ECD7969587959695879596958795880F2C
S1132180991F9C01220F331F220F331F820F931FAD
S11321909A01281B390BC90120E3280FCE018E595F
S11321A09F4FFC01208F40914702509148029A01B1
S11321B0ADECBCECCAD79695879596958795969580
S11321C08795880F991F9C01220F331F220F331FFD
S11321D0820F931F9A01281B390BC90120E3280F92
S11321E0CE018E599F4FFC0126A380914702909106
S11321F048029C01ADECBCECA8D7AC0156954795C0
S113220056954795569547959A01ADECBCEC9DD7EC
S1132210969587959695879596958795880F991F96
S11322209C01220F331F220F331F820F931F9A0129
S1132230281B390BC90120E3280FCE018E599F4F6B
S1132240FC0124A3809147029091480296958795BA
S1132250969587959C01ABE7B4E177D7AC01569589
S113226047959A01ADECBCEC70D7969587959695F9
S1132270879596958795880F991F9C01220F331F88
S1132280220F331F820F931F9A01281B390BC90198
S113229020E3280FCE018E599F4FFC0123A34091C8
S11322A03F02509140029A01ADECBCEC4ED796959A
S11322B087959695879596958795880F991F9C0184
S11322C0220F331F220F331F820F931F9A01281BE3
S11322D0390BC90120E3280FCE018E599F4FFC0111
S11322E027A780913F02909140029C01ADECBCEC89
S11322F02CD7AC01569547955695479556954795D5
S11323009A01ADECBCEC21D7969587959695879567
S113231096958795880F991F9C01220F331F220FD2
S1132320331F820F931F9A01281B390BC90120E325
S1132330280FCE018E599F4FFC0126A740914102E0
S1132340509142029A01ADECBCECFFD6969587956C
S11323509695879596958795880F991F9C01220FCE
S1132360331F220F331F820F931F9A01281B390B2F
S1132370C90120E3280FCE018E599F4FFC0121AFE4
S113238080914102909142029C01ADECBCECDDD6FF
S1132390AC015695479556954795569547959A019C
S11323A0ADECBCECD2D69695879596958795969587
S11323B08795880F991F9C01220F331F220F331F0B
S11323C0820F931F9A01281B390BC90120E3280FA0
S11323D0CE018E599F4FFC0120AF40914302509192
S11323E044029A01ADECBCECB0D6969587959695CF
S11323F0879596958795880F991F9C01220F331F07
S1132400220F331F820F931F9A01281B390BC90116
S113241020E3280FCE018E599F4F8F5B9F4FFC0105
S1132420208380914302909144029C01ADECBCEC6A
S11324308CD6AC0156954795569547955695479534
S11324409A01ADECBCEC81D69695879596958795C7
S113245096958795880F991F9C01220F331F220F91
S1132460331F820F931F9A01281B390BC90120E3E4
S1132470280FCE018E599F4F805C9F4FFC01208313
S113248040914502509146029A01ADECBCEC5DD6F8
S1132490969587959695879596958795880F991F14
S11324A09C01220F331F220F331F820F931F9A01A7
S11324B0281B390BC90120E3280FCE018E599F4FE9
S11324C0895B9F4FFC0120838091450290914602D5
S11324D09C01ADECBCEC39D6AC01569547955695AC
S11324E04795569547959A01ADECBCEC2ED696953A
S11324F087959695879596958795880F991F9C0142
S1132500220F331F220F331F820F931F9A01281BA0
S1132510390BC90120E3280FCE018E599F4F8A5BE6
S11325209F4FFC01208380910D01813059F481E09B
S1132530D0D482E290E022E230E0F90120812460EC
S1132540FC01208384E390E024E330E0F90130814E
S113255028E02327FC01208319828A819B81AC8196
S1132560BD810196A11DB11D8A839B83AC83BD836C
S11325708A819B81AC81BD814E97A105B10508F488
S1132580BCC80E94B001282F8BEA289F812D1124FA
S1132590982F9695892F880F890F922F981B892F32
S11325A090E09E012E5A3E4F880F991F880F991F65
S11325B0820F931FFC0180819181A281B3819F834B
S11325C08E8310920D0182E290E022E230E0F90164
S11325D020812B7FFC01208390C8CF93DF93CDB75C
S11325E0DEB784E290E024E230E0F901208121604A
S11325F0FC01208384E290E024E230E0F9012081B0
S11326002660FC0120838CE490E020EDFC01208313
S11326108CE490E02CE430E0F90120812160FC019D
S1132620208381E290E021E230E0F90120812860FA
S1132630FC01208384E290E024E230E0F90120816F
S11326402068FC01208382E290E022E230E0F9017C
S113265020812860FC01208382E290E022E230E0C5
S1132660F90120812860FC0120830000DF91CF91D3
S11326700895CF93DF93CDB7DEB780916E028823A0
S113268011F481E001C080E0DF91CF910895CF93F0
S1132690DF9300D000D0CDB7DEB789836A834B8344
S11326A02C838981809322038B81809324038A81E4
S11326B0809323038C818093250381E080936E02B1
S11326C08981882F90E0009719F00197A1F026C026
S11326D082E290E022E230E0F9012081277FFC01D0
S11326E0208385E290E025E230E0F9012081206832
S11326F0FC01208313C085E290E025E230E0F9017B
S113270020812F77FC01208382E290E022E230E0F6
S1132710F90120812860FC01208300008EE490E010
S11327202A81FC01208300000F900F900F900F90DE
S1132730DF91CF910895CF93DF9300D000D01F9203
S1132740CDB7DEB78A836B834C832D8309C08FEFAB
S1132750898303C089818150898389818823D1F742
S113276088DF8823A1F32D814C816B818A818FDFDF
S113277000000F900F900F900F900F90DF91CF916A
S11327800895CF93DF9300D0CDB7DEB789836A83F2
S11327908A818095282F4AE060E4898178DF0000EF
S11327A00F900F90DF91CF910895CF93DF9300D0D6
S11327B0CDB7DEB789836A838A818095282F4AE062
S11327C060E48981B8DF00000F900F90DF91CF9112
S11327D008951F920F9200905F000F9211240090B1
S11327E05B000F922F933F938F939F93EF93FF93ED
S11327F0CF93DF93CDB7DEB780916E02882F90E040
S11328008230910581F083309105B9F0019709F088
S113281029C08EE490E020912403FC01208382E00F
S113282080936E021FC08EE490E020912503FC018A
S1132830208383E080936E0215C085E290E025E258
S113284030E0F90120812068FC01208382E290E0DD
S113285022E230E0F90120812860FC0120831092FB
S11328606E0200000000DF91CF91FF91EF919F91E4
S11328708F913F912F910F9000925B000F900092E7
S11328805F000F901F901895CF93DF93CDB7DEB7FD
S113289020E040E064E480E04EDF20E040E062E4D9
S11328A081E049DF20E045E064E480E044DF20E0AB
S11328B045E062E481E03FDF0000DF91CF910895BD
S11328C0CF93DF931F92CDB7DEB789838981882F99
S11328D090E0092E000CAA0BBB0B40E050E027E06F
S11328E030E0841B950B2817390708F43CC0885A3C
S11328F09F4FFC0121C469E080E057DF69E081E07B
S113290054DF31C066E080E050DF66E081E04DDFF7
S11329102AC060E380E049DF60E381E046DF23C052
S113292069E380E042DF69E381E03FDF1CC066E3E6
S113293080E03BDF66E381E038DF15C06FEF80E0C5
S113294034DF6FEF81E031DF0EC060E080E02DDF27
S113295060E081E02ADF07C06FE080E026DF6FE0FF
S113296081E023DF000000000F90DF91CF910895F4
S1132970CF93DF93CDB7DEB782E290E022E230E07E
S1132980F90120812F70FC01208384E390E024E38B
S113299030E0F90120812B7FFC0120830000DF91CE
S11329A0CF910895CF93DF93CDB7DEB788E290E05F
S11329B0FC01108284E390E024E330E0F9012081FB
S11329C02C7FFC0120830000DF91CF910895CF93E9
S11329D0DF93CDB7DEB729970FB6F894DEBF0FBEED
S11329E0CDBF9D838C837F836E8359874887C0DFE7
S11329F02C813D818E819F81A901481B590BCA01FD
S1132A0096958795969587959A83898328853985A0
S1132A108E819F81281B390B89819A81820F931F94
S1132A2029813A81B90161D3CB018B838B8118163B
S1132A301CF48B8154D002C080E051D00000299650
S1132A400FB6F894DEBF0FBECDBFDF91CF910895CE
S1132A50CF93DF93CDB7DEB729970FB6F894DEBFD7
S1132A600FBECDBF9D838C837F836E835987488738
S1132A7099DF2C813D818E819F81A901481B590BCF
S1132A80CA019C01AFE8B3EE60D3969587959695FD
S1132A908795969587959A838983288539858E812C
S1132AA09F81281B390B89819A81820F931F298169
S1132AB03A81B9011AD3CB018B838B8118161CF48C
S1132AC08B8149D002C080E046D0000029960FB621
S1132AD0F894DEBF0FBECDBFDF91CF910895CF93A1
S1132AE0DF931F92CDB7DEB7898382E290E022E2C2
S1132AF030E0F9012081622F2981422F50E02FEF2D
S1132B0030E002C0220F331F4A95E2F7209530953A
S1132B1022953295307F3227207F3227262BFC01E5
S1132B20208384E390E024E330E0F9012081622FE4
S1132B302981422F50E020E830E002C035952795E6
S1132B404A95E2F72470262BFC01208300000F90A5
S1132B50DF91CF910895CF93DF931F92CDB7DEB766
S1132B60898388E290E028E230E0F9012081622F35
S1132B702981422F50E02FEF30E002C03595279590
S1132B804A95E2F72095262BFC01208384E390E00C
S1132B9024E330E0F9012081622F398129E3329F57
S1132BA0212D11242695422F50E02FEF30E002C052
S1132BB0220F331F4A95E2F720953095598149E356
S1132BC0549F412D11244695442F50E002C0220FFA
S1132BD0331F4A95E2F7422F39812DEC329F212D84
S1132BE01124269526952695240F262BFC01208357
S1132BF000000F90DF91CF910895CF93DF931F9240
S1132C00CDB7DEB789838981882F90E0092E000C27
S1132C10AA0BBB0B40E050E02EE030E0841B950B88
S1132C202817390708F49AC0805A9F4FFC0184C2C0
S1132C3082E290E022E230E0F90120812061FC018F
S1132C4020838CC082E290E022E230E0F90120810E
S1132C502062FC01208382C082E290E022E230E024
S1132C60F90120812064FC01208378C082E290E095
S1132C7022E230E0F90120812068FC0120836EC04B
S1132C8084E390E024E330E0F90120812460FC0136
S1132C90208364C088E290E028E230E0F9012081DA
S1132CA02068FC0120835AC088E290E028E230E0EA
S1132CB0F90120812064FC01208350C088E290E067
S1132CC028E230E0F90120812062FC01208346C023
S1132CD088E290E028E230E0F90120812061FC01E3
S1132CE020833CC088E290E028E230E0F9012081B2
S1132CF02860FC01208332C088E290E028E230E0C2
S1132D00F90120812460FC01208328C088E290E03E
S1132D1028E230E0F90120812260FC0120831EC0FA
S1132D2088E290E028E230E0F90120812160FC0192
S1132D30208314C084E390E024E330E0F90120818F
S1132D402260FC0120830AC084E390E024E330E0A5
S1132D50F90120812160FC012083000000000F9014
S1132D60DF91CF910895CF93DF931F92CDB7DEB754
S1132D7089838981882F90E0092E000CAA0BBB0B54
S1132D8040E050E02EE030E0841B950B2817390713
S1132D9008F49AC081599F4FFC01CEC182E290E0B1
S1132DA022E230E0F90120812071FC0120838CC0F3
S1132DB082E290E022E230E0F90120812072FC01FD
S1132DC0208382C082E290E022E230E0F901208197
S1132DD02074FC01208378C082E290E022E230E09B
S1132DE0F90120812078FC0120836EC084E390E007
S1132DF024E330E0F90120812470FC01208364C0C5
S1132E0088E290E028E230E0F90120812078FC019A
S1132E1020835AC088E290E028E230E0F901208162
S1132E202074FC01208350C088E290E028E230E066
S1132E30F90120812072FC01208346C088E290E0E1
S1132E4028E230E0F90120812071FC0120833CC09C
S1132E5088E290E028E230E0F90120812870FC014A
S1132E60208332C088E290E028E230E0F90120813A
S1132E702470FC01208328C088E290E028E230E03E
S1132E80F90120812270FC0120831EC088E290E0B9
S1132E9028E230E0F90120812170FC01208314C074
S1132EA084E390E024E330E0F90120812270FC0106
S1132EB020830AC084E390E024E330E0F901208118
S1132EC02170FC012083000000000F90DF91CF915E
S1132ED00895CF93DF931F92CDB7DEB7898389819D
S1132EE0882F90E0009719F0019759F014C08BE2F5
S1132EF090E02BE230E0F90120812076FC01208370
S1132F000AC08BE290E02BE230E0F90120812F69C6
S1132F10FC012083000000000F90DF91CF91089501
S1132F20CF93DF931F92CDB7DEB789838981895F01
S1132F3064DE97E08981292F281B822F5EDE898138
S1132F40883010F082E0BCDC8981893010F081E0A7
S1132F50C0DF89818E3020F087E0B2DC80E0B9DF09
S1132F6000000F90DF91CF910895CF93DF93CDB7F9
S1132F70DEB781E290E021E230E0F90120812C6F9C
S1132F80FC01208381E290E021E230E0F90120811C
S1132F902C7FFC01208384E290E024E230E0F901FC
S1132FA02081266FFC01208384E290E024E230E05B
S1132FB0F9012081277FFC01208387E290E02FEF35
S1132FC0FC0120838AE290E02AE230E0F9012081CA
S1132FD02F69FC0120838DE290E02FEFFC01208318
S1132FE080E390E020E330E0F9012081217FFC01BF
S1132FF0208383E390E023E330E0F90120812F6113
S1133000FC01208382E290E0FC01108285E290E0E2
S1133010FC01108288E290E0FC0110828BE290E0D7
S1133020FC0110828EE290E0FC01108281E390E0CA
S1133030FC01108284E390E0FC01108282E290E0C3
S113304022E230E0F90120812360FC0120830000AA
S1133050DF91CF910895CF93DF93CDB7DEB784E4AA
S113306090E02BE0FC0120838EE690E022E0FC015E
S1133070208387E490E029EFFC0120830000DF91A6
S1133080CF9108951F920F9200905F000F92112428
S11330908F939F93AF93BF93CF93DF93CDB7DEB757
S11330A080916F0290917002A0917102B0917202AE
S11330B00196A11DB11D80936F0290937002A0939D
S11330C07102B0937202809173028F5F80937302D6
S11330D00000DF91CF91BF91AF919F918F910F909D
S11330E000925F000F901F901895AA1BBB1B51E123
S11330F007C0AA1FBB1FA617B70710F0A61BB70B64
S1133100881F991F5A95A9F780959095BC01CD0108
S1133110089597FB072E16F4009406D077FD08D087
S1133120E4DF07FC05D03EF4909581959F4F089508
S1133130709561957F4F0895EE0FFF1F0024001CCA
S11331400BBE0790F691E02D0994A29FB001B39FA6
S1133150C001A39F700D811D1124911DB29F700D9C
S10F3160811D1124911D0895F894FFCFE7
S113316CD1003908061700020CC094D48001070062
S113317C6F00FFFFFF00FF20FF0020FFFF00202057
S113318CFF000707FF00FF0101000101FF000320FE
S113319C2000030220000405040020022000FF0785
S11331AC0700FF01FF0020FF2000FF07FF00202085
S11331BC200002070300FF2020007C202020205741
S11331CC454C434F4D4520544F202020207C007CFF
S11331DC202020202020545920323520202020204B
S11331EC20207C007C202020204245574152452041
S11331FC4F4620202020207C007C2020204849475A
S113320C4820544F52515545202020207C005453C3
S113321C563A202020562020414343553A20202E54
S113322C2043004C56563A20202E205620434F4F14
S113323C4C3A20202E20430041505053313A202048
S113324C252041505053323A20202520004250462C
S113325C3A20204250523A202020202020202020A6
S113326C2000494E563A20202E2043204D54523AE9
S113327C2020202E204300415050533A202020205F
S10F328C202020202020202020202000D2
S9030000FC
