S00E00004449435F32332E7372656382
S11300007DC000009AC0000098C0000096C00000A7
S113001094C0000092C0000090C000008EC0000098
S11300208CC000008AC0000088C0000086C00000A8
S113003084C0000082C0000080C000007EC00000B8
S11300400C9444197AC0000078C0000076C0000007
S11300500C94EB1472C0000070C000006EC000006D
S11300606CC000006AC0000068C0000066C00000E8
S113007064C0000062C0000060C000005EC00000F8
S11300805CC000005AC0000058C0000056C0000008
S113009054C0000042095F097C099909B609D309D3
S11300A0F0090D0A2A0A470A640A810A9E0ABB0A51
S11300B07D158B158415A01592159915AE15A715E8
S11300C01A1724172E17381742174C17561760178C
S11300D06A1774177E17881792179C17A617D017DC
S11300E0DA17E417EE17F81702180C181618201868
S11300F02A1834183E18481852185C1811241FBEC8
S1130100CFEFD0E1DEBFCDBF12E0A0E0B1E0E0E789
S1130110F3E300E00BBF02C007900D92A230B107D9
S1130120D9F722E0A2E0B2E001C01D92A03FB207DD
S1130130E1F70E94330B0C94B61962CFCF93DF938F
S1130140CDB7DEB780E092E090937B0280937A0291
S11301508FEF9FEF90937D0280937C0210927F0239
S113016010927E0281E092E090936F0280936E027F
S11301708FEF9FEF909371028093700281E090E083
S1130180909373028093720280E094E090935702FC
S1130190809356028FEF9FEF9093590280935802F9
S11301A082E090E090935B0280935A0281E094E0B5
S11301B09093E1028093E0028FEF9FEF9093E3022C
S11301C08093E20283E090E09093E5028093E4025E
S11301D080E294E090936302809362028FEF9FEF3A
S11301E0909365028093640284E090E090936702A8
S11301F08093660280E095E090934B0280934A02DC
S11302008FEF9FEF90934D0280934C0285E090E036
S113021090934F0280934E0280E096E09093E70221
S11302208093E6028FEF9FEF9093E9028093E802B8
S113023086E090E09093EB028093EA0280E597E0F9
S113024090935102809350028FEF9FEF909353024B
S11302508093520287E090E0909355028093540279
S113026080E093E090936902809368028FEF9FEFA0
S113027090936B0280936A0288E090E090936D0201
S113028080936C028AE494E090935D0280935C0214
S11302908FEF9FEF90935F0280935E0289E090E07E
S11302A0909361028093600283E594E090937502D9
S11302B0809374028FEF9FEF90937702809376027E
S11302C08AE090E090937902809378020000DF91B5
S11302D0CF910895CF93DF931F92CDB7DEB760E837
S11302E072E08AE792E0D3D2809187028983809179
S11302F043029981981751F48091410290914202EE
S11303000196909342028093410204C010924202EB
S1130310109241028981809343028091410290911D
S11303204202893E934020F480910802882321F000
S113033081E00E946B1803C080E00E946B1868E89B
S113034072E08EE692E0A3D260E972E086E592E084
S11303509ED268E972E080EE92E099D260EA72E09F
S113036082E692E094D260EB72E086EE92E08FD265
S113037068EB72E080E592E08AD260EC72E088E695
S113038092E085D268EC72E08CE592E080D260ED78
S113039072E084E792E07BD200000F90DF91CF916E
S11303A00895CF93DF93CDB7DEB768EA72E08AE4AD
S11303B092E009D30000DF91CF910895CF93DF93AA
S11303C0CDB7DEB78091B902DF91CF910895CF9375
S11303D0DF931F92CDB7DEB789838981882F90E0A0
S11303E0880F991F880F991F880F991F80589D4F58
S11303F00F90DF91CF910895CF93DF93CDB7DEB700
S113040080918002282F30E080918102882F90E033
S1130410982F8827822B932B9093030280930202B8
S113042080910202909103029695879596958795FF
S11304309C01ABE7B4E10E94A71996958795909328
S113044003028093020280918602881F8827881FF6
S113045080930802809186028295869586958370A2
S113046081708093090280910902882349F482E211
S113047090E022E230E0F9012081FC01208309C0F0
S113048082E290E022E230E0F90120812460FC0164
S113049020838091860282958F70817080930B02F5
S11304A080918E02282F30E080918F02882F90E077
S11304B0982F8827822B932B9093120280931102FA
S11304C08091110290911202969587959695879541
S11304D09C01ABE7B4E10E94A71996958795909388
S11304E01202809311028091C002282F30E0809183
S11304F0C102882F90E0982F8827822B932B2AE023
S113050030E0B9010E948B19CB01909316028093BD
S113051015028091C202282F30E08091C302882FF7
S113052090E0982F8827822B932B2AE030E0B901A2
S11305300E948B19CB01909318028093170280912B
S11305409802282F30E080919902882F90E0982F0C
S11305508827822B932B2AE030E0B9010E948B1963
S1130560CB0190931A028093190280919A02282F4A
S113057030E080919B02882F90E0982F8827822B6F
S1130580932B2AE030E0B9010E948B19CB019093A0
S11305901C0280931B0280E290E0FC018081882F82
S11305A090E08170992721E0892B09F020E0822FC7
S11305B080932C0210922B0280E290E0FC01808157
S11305C0882F90E08095909595958795817080937C
S11305D02B028091B202282F30E08091B302882F41
S11305E090E0982F8827822B932B90932F0280934F
S11305F02E028091CB02282F30E08091CA02882FEE
S113060090E0982F8827822B932B90933F0280931E
S11306103E028091D302282F30E08091D202882FAD
S113062090E0982F8827822B932B9093010180933D
S1130630000120913E0230913F028091000190918F
S113064001018217930748F480913E0290913F0282
S1130650909328028093270208C080910001909112
S1130660010190932802809327028091C902282FC8
S113067030E08091C802882F90E0982F8827822B41
S1130680932B90933A02809339028091D102282FC0
S113069030E08091D002882F90E0982F8827822B19
S11306A0932B90933D0280933C0220913C02309125
S11306B03D028091390290913A028217930748F4DF
S11306C080913C0290913D0290932A0280932902EA
S11306D008C08091390290913A0290932A02809343
S11306E029021092A80280912B028093A902809182
S11306F02D028093AA0280912C028093AD02000007
S1130700DF91CF910895CF93DF9300D0CDB7DEB7BB
S11307108A8319828A818830C0F08DED90E0FC01D3
S11307208081882F90E02A81222F30E028503109DF
S113073002C0959587952A95E2F78170992721E063
S1130740892B09F020E0298315C08CED90E0FC0191
S11307508081882F90E02A81222F30E002C0959575
S113076087952A95E2F78170992721E0892B09F072
S113077020E0298389810F900F90DF91CF91089514
S1130780CF93DF9300D0CDB7DEB788ED90E0FC01C6
S11307901082198256C08DEE90E02981222F30E01C
S11307A022953295307F3227207F32272860FC0142
S11307B020838EEE90E0FC0110828FEE90E0FC012D
S11307C0108280EF90E0FC01108281EF90E0FC0148
S11307D0108282EF90E0FC01108283EF90E0FC0134
S11307E0108284EF90E0FC01108285EF90E0FC0120
S11307F0108286EF90E0FC01108287EF90E0FC010C
S113080010821A8218C08DEE90E02981222F30E0E8
S113081022953295307F3227207F3227322F2A814A
S1130820232B2860FC0120838AEF90E0FC011082D6
S11308308A818F5F8A838A81883028F389818F5FD8
S1130840898389818F3008F4A6CF82EE90E022E07C
S1130850FC01208383EE90E02CE0FC01208384EEF5
S113086090E027E3FC0120838BED90E0FC011082F3
S113087088ED90E028ED30E0F90120812260FC0150
S1130880208300000F900F90DF91CF910895CF93B4
S1130890DF9300D000D01F92CDB7DEB79B838A834D
S11308A07D836C838DEE90E02A813B81F901248164
S11308B035812295207FFC0120838A819B81FC0164
S11308C08481958120DF882309F450C083EF90E070
S11308D02A813B81F901208131813695279536950E
S11308E0279536952795FC01208382EF90E02A8195
S11308F03B81F901208131812295220F207EFC0168
S1130900208381EF90E0FC01108280EF90E024E0EE
S1130910FC01208387EF90E02A813B81F901228149
S11309203381369527953695279536952795FC017D
S1130930208386EF90E02A813B81F9012281338173
S11309402295220F207EFC01208385EF90E0FC019C
S1130950108284EF90E0FC0110828FEE90E028EC8E
S1130960FC0120838EEE90E0FC01108219821FC0EE
S11309708DEE90E02A813B81F90124813581322F6B
S11309803295307F2981232B2860FC0120838981C3
S1130990882F90E02C813D81820F931F2AEF30E055
S11309A0F9012081FC01208389818F5F89838981FA
S11309B08830F0F200000F900F900F900F900F907E
S11309C0DF91CF910895CF93DF9300D000D01F9291
S11309D0CDB7DEB79B838A837D836C8319821FC066
S11309E08DEE90E02A813B81F90124813581322FFB
S11309F03295307F2981232B2860FC0120838AEFE4
S1130A0090E02981222F30E04C815D81240F351F35
S1130A10F9012081FC01208389818F5F8983898189
S1130A208830F0F28DEE90E02A813B81F901248137
S1130A3035812295207FFC0120838A819B81FC01E2
S1130A408481958160DE882309F444C08EEE90E0B1
S1130A50FC01108283EF90E02A813B81F90120811F
S1130A603181369527953695279536952795FC013E
S1130A70208382EF90E02A813B81F901208131813A
S1130A802295220F207EFC01208381EF90E0FC015F
S1130A90108280EF90E0FC01108287EF90E0FC016F
S1130AA0108286EF90E0FC01108285EF90E0FC015B
S1130AB0108284EF90E0FC0110828EEE90E0FC0145
S1130AC010828FEE90E028E4FC0120838EEE90E00B
S1130AD0FC01108200000F900F900F900F900F9068
S1130AE0DF91CF910895CF93DF9300D000D0CDB79D
S1130AF0DEB79A8389837C836B838B819C81FC0121
S1130B0081818431D1F48B819C81FC018081882F87
S1130B1090E0875F9E4FFC01808160E0AAD08B81CA
S1130B209C81FC0111828B819C81FC01808121E0EC
S1130B30280F8B819C81FC0120838B819C81FC018B
S1130B408081843021F48B819C81FC0110828B8113
S1130B509C81FC018081682F70E08B819C81FC0169
S1130B608181882F90E049815A81E4E1E69F9001D8
S1130B70E79F300D1124240F351F820F931FFC01B2
S1130B80808161E076D08B819C81FC01818121E0B0
S1130B90280F8B819C81FC01218300000F900F9012
S1130BA00F900F90DF91CF910895CF93DF9300D0F2
S1130BB0CDB7DEB719821A8289819A810F900F907E
S1130BC0DF91CF910895CF93DF93CDB7DEB7C455AE
S1130BD0D1090FB6F894DEBF0FBECDBF9E012D5ACA
S1130BE03F4FF90191838083198222C01A821AC06F
S1130BF08981482F50E08A81882F90E064E1649FC6
S1130C009001659F300D1124AE014F5F5F4F240F9B
S1130C10351F820F931F029620E1FC0120838A81F5
S1130C208F5F8A838A81843118F389818F5F8983F6
S1130C3089818430D8F2CE018D5A9F4FFC01808186
S1130C40918120E5FE013396DC0101900D922A95F5
S1130C50E1F7CE018D5A9F4FFC0180819181CC5ADE
S1130C60DF4F0FB6F894DEBF0FBECDBFDF91CF913B
S1130C7008950F931F93CF93DF9300D000D0CDB787
S1130C80DEB78B836C830EE210E08B81B6D4F8015F
S1130C9080838C81813051F485E290E025E230E05C
S1130CA0F90120812064FC01208309C085E290E0E1
S1130CB025E230E0F90120812F7BFC01208385E2CD
S1130CC090E025E230E0F90120812061FC012083DD
S1130CD01A8219820EC085E290E025E230E0F90123
S1130CE020812F7EFC01208389819A8101969A8339
S1130CF0898389819A81843691056CF300000F9071
S1130D000F900F900F90DF91CF911F910F91089545
S1130D108F92AF92CF92EF920F93CF93DF93CDB791
S1130D20DEB7812CA12CC12CE12C00E020E04FE1A6
S1130D306FE181E07AD00F2EFFEE8F2EF02D0F2E73
S1130D40FFEEAF2EF02D0F2EFFEECF2EF02D0F2E37
S1130D50FFEEEF2EF02D0FEE2FEE4FEE6FEE82E052
S1130D6064D00F2EFEE18F2EF02D0F2EFEE1AF2E5C
S1130D70F02D0F2EFEE1CF2EF02D0F2EFEE1EF2EE3
S1130D80F02D0EE12EE14EE16EE183E04ED0812C98
S1130D90A12CC12CE12C0FEF2FEF4FEF6FEF84E06C
S1130DA044D00F2EFFEE8F2EF02D0F2EFFEEAF2E20
S1130DB0F02D0F2EFFEECF2EF02D0F2EFFEEEF2E87
S1130DC0F02D0FEF2FEF4FEF6FEF85E02ED0812C3A
S1130DD06894AA24A1F80F2EF5E1CF2EF02D0F2E42
S1130DE0FAE0EF2EF02D04E02AE045E168E086E029
S1130DF01CD00F2EFFE18F2EF02D0F2EFFE1AF2E12
S1130E00F02D0F2EFFE1CF2EF02DE12C00E020E09D
S1130E1040E060E087E009D00000DF91CF910F91BE
S1130E20EF90CF90AF908F9008958F92AF92CF9222
S1130E30EF920F93CF93DF93CDB7DEB729970FB619
S1130E40F894DEBF0FBECDBF89836A834B832C83A6
S1130E500D83EE82CF82A88689868981882F90E0CF
S1130E600896880F880F880F60E003DF61E08A81AD
S1130E7000DF61E08B81FDDE61E08C81FADE61E000
S1130E808D81F7DE61E08E81F4DE61E08F81F1DE39
S1130E9061E08885EEDE61E08985EBDE60E082E07A
S1130EA0E8DE000029960FB6F894DEBF0FBECDBF72
S1130EB0DF91CF910F91EF90CF90AF908F900895E5
S1130EC0CF93DF93CDB7DEB727970FB6F894DEBF85
S1130ED00FBECDBF9B838A837D836C834E832F8318
S1130EE0198225C08E81682F70E08981282F30E017
S1130EF08F81882F90E0820F931F2981222F30E069
S1130F004C815D81240F351FD901EC914A815B81AD
S1130F10F4E1F69F9001F79F300D1124240F351F43
S1130F20820F931FDC01EC9389818F5F8983898110
S1130F30882F90E02C813D81820F931FFC018081DA
S1130F40882351F08F81282F30E08981882F90E009
S1130F50820F931F449734F2000027960FB6F8943B
S1130F60DEBF0FBECDBFDF91CF910895CF93DF9346
S1130F7000D0CDB7DEB71A8219820DC089819A815B
S1130F808E5F9E4FFC01808160E073DE89819A81CF
S1130F9001969A83898389819A8107977CF300005B
S1130FA00F900F90DF91CF910895CF93DF9300D0EE
S1130FB0CDB7DEB79A838983ABDE00000F900F9024
S1130FC0DF91CF910895CF93DF9300D000D0CDB7B8
S1130FD0DEB79A8389837C836B8389819A814BE012
S1130FE06EE030D189819A8124E043E06EE071E0C3
S1130FF067DF4B815C819A01ADECBCEC0E94A719C0
S1131000969587959695879596958795880F991FB8
S11310109C01220F331F220F331F820F931F9A014B
S1131020281B390BC901282F89819A81422F6AE034
S113103009D18B819C819C01ADECBCEC0E94A71969
S11310409695879596958795969587959C838B839A
S11310504B815C819A01ADECBCEC0E94A71996957A
S113106087959695879596958795880F991F9C01E6
S1131070220F331F220F331F820F931F9A01281B45
S1131080390BC901282F89819A81422F66E0DAD071
S11310908B819C819C01ADECBCEC0E94A7199695B8
S11310A0879596958795969587959C838B834B8199
S11310B05C819A01ADECBCEC0E94A71996958795CA
S11310C09695879596958795880F991F9C01220F71
S11310D0331F220F331F820F931F9A01281B390BD2
S11310E0C901282F89819A81422F60E0ABD000008A
S11310F00F900F900F900F90DF91CF910895CF93A1
S1131100DF9300D000D0CDB7DEB79A8389837C8388
S11311106B8389819A814DE060E194D089819A81C1
S11311202EE040E060E171E0CBDE89819A8128E025
S113113043E06EE071E0C4DE4B815C819A01ADEC6A
S1131140BCEC0E94A71996958795969587959695D8
S11311508795880F991F9C01220F331F220F331F7D
S1131160820F931F9A01281B390BC901282F8981EB
S11311709A81422F6AE066D08B819C819C01ADEC00
S1131180BCEC0E94A7199695879596958795969598
S113119087959C838B834B815C819A01ADECBCEC7D
S11311A00E94A71996958795969587959695879504
S11311B0880F991F9C01220F331F220F331F820FA8
S11311C0931F9A01281B390BC901282F89819A8101
S11311D0422F64E037D08B819C819C01ADECBCEC48
S11311E00E94A719969587959695879596958795C4
S11311F09C838B834B815C819A01ADECBCEC0E9497
S1131200A719969587959695879596958795880FAE
S1131210991F9C01220F331F220F331F820F931F2C
S11312209A01281B390BC901282F89819A81422FE1
S113123060E008D000000F900F900F900F90DF91A6
S1131240CF910895CF93DF9300D000D0CDB7DEB710
S11312509A8389836B834C838C81882F90E0092E39
S1131260000CAA0BBB0B40E050E02DE030E0841BE7
S1131270950B2817390708F49BC1865B9F4FFC0127
S11312800C949E1989819A812B8140E062E171E07E
S113129017DE89819A812B8141E066E171E010DEDD
S11312A089819A812B8142E066E171E009DE8981BE
S11312B09A812B8143E062E171E002DE96C189816B
S11312C09A812B8140E06AE171E0FADD89819A819B
S11312D02B8141E06EE171E0F3DD89819A812B81FC
S11312E042E06EE171E0ECDD89819A812B8143E07B
S11312F06EE171E0E5DD79C189819A812B8140E05D
S113130062E171E0DDDD89819A812B8141E062E255
S113131071E0D6DD89819A812B8142E066E271E039
S1131320CFDD89819A812B8143E062E171E0C8DDE0
S11313305CC189819A812B8140E062E171E0C0DD6A
S113134089819A812B8141E062E271E0B9DD898172
S11313509A812B8142E06AE271E0B2DD89819A814F
S11313602B8143E062E171E0ABDD3FC189819A8169
S11313702B8140E06EE271E0A3DD89819A812B81AB
S113138041E062E371E09CDD89819A812B8142E036
S113139066E371E095DD89819A812B8143E06AE3FC
S11313A071E08EDD22C189819A812B8140E062E166
S11313B071E086DD89819A812B8141E06EE371E0E1
S11313C07FDD89819A812B8142E06AE271E078DDD8
S11313D089819A812B8143E062E171E071DD05C16D
S11313E089819A812B8140E062E171E069DD898124
S11313F09A812B8141E06EE371E062DD89819A81FB
S11314002B8142E062E471E05BDD89819A812B816A
S113141043E062E171E054DDE8C089819A812B8167
S113142040E062E171E04CDD89819A812B8141E0E9
S11314306EE171E045DD89819A812B8142E066E4A9
S113144071E03EDD89819A812B8143E066E471E09D
S113145037DDCBC089819A812B8140E062E171E064
S11314602FDD89819A812B8141E06AE471E028DDD6
S113147089819A812B8142E062E471E021DD8981D6
S11314809A812B8143E06AE471E01ADDAEC0898160
S11314909A812B8140E062E171E012DD89819A81B9
S11314A02B8141E06AE471E00BDD89819A812B8113
S11314B042E06AE271E004DD89819A812B8143E094
S11314C06EE171E0FDDC91C089819A812B8140E05D
S11314D06EE471E0F5DC89819A812B8141E06EE450
S11314E071E0EEDC89819A812B8142E06EE471E047
S11314F0E7DC89819A812B8143E06EE471E0E0DCD2
S113150074C089819A812B8140E066E171E0D8DC66
S113151089819A812B8141E066E171E0D1DC898186
S11315209A812B8142E062E571E0CADC89819A816B
S11315302B8143E066E471E0C3DC57C089819A8162
S11315402B8140E066E171E0BBDC89819A812B81CB
S113155041E066E171E0B4DC89819A812B8142E04B
S113156066E171E0ADDC89819A812B8143E062E11F
S113157071E0A6DC3AC089819A812B8140E062E166
S113158071E09EDC89819A812B8141E066E571E0FE
S113159097DC89819A812B8142E066E571E090DCD9
S11315A089819A812B8143E062E171E089DC1DC06D
S11315B089819A812B8140E062E171E081DC89813B
S11315C09A812B8141E062E171E07ADC89819A8120
S11315D02B8142E062E171E073DC89819A812B8185
S11315E043E062E171E06CDC000000000F900F90BA
S11315F00F900F90DF91CF910895CF93DF9300D098
S11316001F92CDB7DEB78B8319821A8222C08B81D9
S1131610882F90E02A81222F30E002C0959587958B
S11316202A95E2F7817099272A81222F30E047E03A
S113163050E0BA01621B730B9B0102C0880F991F13
S11316402A95E2F7982F8981892B89838A818F5F74
S11316508A838A818830D8F289810F900F900F9005
S1131660DF91CF910895CF93DF93CDB7DEB7CE55F9
S1131670D1400FB6F894DEBF0FBECDBF0E94B7189D
S113168075DC46DB0E94EF130E942D190E949E0018
S113169077D8198619821A861A8282E08B871C866B
S11316A01B821C821D821E8278940E94461587E04C
S11316B00E9462157ADA9A8B898BCE01439683DA7B
S11316C0CE01439620E040E06AE571E0F9DBCE010B
S11316D0439620E041E06FE671E0F2DBCE014396F1
S11316E020E042E06AE571E0EBDBCE01439620E0C6
S11316F043E06AE571E0E4DBCE018D599F4F63DA84
S1131700CE018D599F4F20E040E064E871E0D8DBC2
S1131710CE018D599F4F20E041E069E971E0D0DBB3
S1131720CE018D599F4F20E042E06EEA71E0C8DBA4
S1131730CE018D599F4F20E043E063EC71E0C0DBA4
S1131740CE018D549F4F3FDACE018D5F9E4F3BDA21
S1131750CE018D5F9E4F20E040E068ED71E0B0DB8C
S1131760CE018D5F9E4F20E041E064E871E0A8DB8C
S1131770CE018D5F9E4F20E042E069E971E0A0DB7D
S1131780CE018D5F9E4F20E043E06DEE71E098DB6B
S1131790CE01439698878F83CE014396092E000C81
S11317A0AA0BBB0B9E012D5A3E4FF90180839183F6
S11317B0A283B383CE018D5F9E4F092E000CAA0B2A
S11317C0BB0B9E012D5A3E4FF90184839583A6835A
S11317D0B783CE018D599F4F092E000CAA0BBB0B6A
S11317E09E012D5A3E4FF90180879187A287B387C6
S11317F0CE01439698878F8380914902882349F0CC
S1131800109249029E012F5E3F4F8F819885B90146
S11318106AD9209145023091460240914702509185
S113182048028D859E85AF85B889281739074A07F0
S11318305B0791F08091450290914602A091470286
S1131840B09148028D879E87AF87B88B89818F5F5F
S113185089838A818F5F8A8389818A3008F4B7C734
S11318600E946A010E94FC01CE0143962F813885B3
S11318702817390719F483E00E946215CE018D5FA1
S11318809E4F2F8138852817390709F08DC3409161
S11318902702509128029A01ADECBCEC0E94A719D2
S11318A0969587959695879596958795880F991F10
S11318B09C01220F331F220F331F820F931F9A01A3
S11318C0281B390BC90120E3280FCE018D5F9E4FE1
S11318D0FC01228B80912702909128029C01ADEC9F
S11318E0BCEC0E94A719AC015695479556954795AF
S11318F0569547959A01ADECBCEC0E94A7199695B4
S113190087959695879596958795880F991F9C013D
S1131910220F331F220F331F820F931F9A01281B9C
S1131920390BC90120E3280FCE018D5F9E4FFC01C6
S1131930208B809127029091280296958795969501
S113194087959C01ABE7B4E10E94A719AC015695B9
S113195047959A01ADECBCEC0E94A7199695879522
S11319609695879596958795880F991F9C01220FC8
S1131970331F220F331F820F931F9A01281B390B29
S1131980C90120E3280FCE018D5F9E4FFC012787FC
S11319904091290250912A029A01ADECBCEC0E94BC
S11319A0A719969587959695879596958795880F07
S11319B0991F9C01220F331F220F331F820F931F85
S11319C09A01281B390BC90120E3280FCE018D5F32
S11319D09E4FFC0127838091290290912A029C0149
S11319E0ADECBCEC0E94A719AC01569547955695F1
S11319F04795569547959A01ADECBCEC0E94A71902
S1131A00969587959695879596958795880F991FAE
S1131A109C01220F331F220F331F820F931F9A0141
S1131A20281B390BC90120E3280FCE018D5F9E4F7F
S1131A30FC0125838091290290912A02969587952D
S1131A40969587959C01ABE7B4E10E94A719AC0178
S1131A50569547959A01ADECBCEC0E94A719969552
S1131A6087959695879596958795880F991F9C01DC
S1131A70220F331F220F331F820F931F9A01281B3B
S1131A80390BC90120E3280FCE018D5F9E4FFC0165
S1131A90248340910202509103029A01ADECBCEC04
S1131AA00E94A719969587959695879596958795FB
S1131AB0880F991F9C01220F331F220F331F820F9F
S1131AC0931F9A01281B390BC90120E3280FCE016B
S1131AD08D5F9E4FFC01228F809102029091030240
S1131AE09C01ADECBCEC0E94A719AC01569547953E
S1131AF056954795569547959A01ADECBCEC0E94D6
S1131B00A719969587959695879596958795880FA5
S1131B10991F9C01220F331F220F331F820F931F23
S1131B209A01281B390BC90120E3280FCE018D5FD0
S1131B309E4FFC01218F80910202909103029695A1
S1131B408795969587959C01ABE7B4E10E94A71908
S1131B50AC01569547959A01ADECBCEC0E94A719CF
S1131B60969587959695879596958795880F991F4D
S1131B709C01220F331F220F331F820F931F9A01E0
S1131B80281B390BC90120E3280FCE018D5F9E4F1E
S1131B90FC01208F40911102509112029A01ADEC88
S1131BA0BCEC0E94A719969587959695879596956E
S1131BB08795880F991F9C01220F331F220F331F13
S1131BC0820F931F9A01281B390BC90120E3280FA8
S1131BD0CE018D5F9E4FFC0126A38091110290914E
S1131BE012029C01ADECBCEC0E94A719AC01569505
S1131BF0479556954795569547959A01ADECBCEC9B
S1131C000E94A71996958795969587959695879599
S1131C10880F991F9C01220F331F220F331F820F3D
S1131C20931F9A01281B390BC90120E3280FCE0109
S1131C308D5F9E4FFC0124A38091110290911202AA
S1131C4096958795969587959C01ABE7B4E10E949C
S1131C50A719AC01569547959A01ADECBCEC0E94CE
S1131C60A719969587959695879596958795880F44
S1131C70991F9C01220F331F220F331F820F931FC2
S1131C809A01281B390BC90120E3280FCE018D5F6F
S1131C909E4FFC0123A340912E0250912F029A01E2
S1131CA0ADECBCEC0E94A7199695879596958795FF
S1131CB096958795880F991F9C01220F331F220F39
S1131CC0331F820F931F9A01281B390BC90120E38C
S1131CD0280FCE018D5F9E4FFC0127A780912E0215
S1131CE090912F029C01ADECBCEC0E94A719AC01B1
S1131CF05695479556954795569547959A01ADEC57
S1131D00BCEC0E94A719969587959695879596950C
S1131D108795880F991F9C01220F331F220F331FB1
S1131D20820F931F9A01281B390BC90120E3280F46
S1131D30CE018D5F9E4FFC0125A780912E029091CC
S1131D402F0296958795969587959C01ABE7B4E10C
S1131D500E94A719AC01569547959A01ADECBCECCD
S1131D600E94A71996958795969587959695879538
S1131D70880F991F9C01220F331F220F331F820FDC
S1131D80931F9A01281B390BC90120E3280FCE01A8
S1131D908D5F9E4FFC0124A740911D0250911E02AD
S1131DA09A01ADECBCEC0E94A7199695879596957F
S1131DB0879596958795880F991F9C01220F331F4D
S1131DC0220F331F820F931F9A01281B390BC9015D
S1131DD020E3280FCE018D5F9E4FFC0122AF80913E
S1131DE01D0290911E029C01ADECBCEC0E94A7194F
S1131DF0AC015695479556954795569547959A0142
S1131E00ADECBCEC0E94A71996958795969587959D
S1131E1096958795880F991F9C01220F331F220FD7
S1131E20331F820F931F9A01281B390BC90120E32A
S1131E30280FCE018D5F9E4FFC0120AF80911D02C3
S1131E4090911E0296958795969587959C01ABE790
S1131E50B4E10E94A719AC01569547959A01ADECDF
S1131E60BCEC0E94A71996958795969587959695AB
S1131E708795880F991F9C01220F331F220F331F50
S1131E80820F931F9A01281B390BC90120E3280FE5
S1131E90CE018D5F9E4FFC0127AB409115025091FE
S1131EA016029A01ADECBCEC0E94A7199695879591
S1131EB09695879596958795880F991F9C01220F73
S1131EC0331F220F331F820F931F9A01281B390BD4
S1131ED0C90120E3280FCE018D5F9E4F8C5B9F4F7D
S1131EE0FC01208380911502909116029C01ADECB7
S1131EF0BCEC0E94A719AC01569547955695479599
S1131F00569547959A01ADECBCEC0E94A71996959D
S1131F1087959695879596958795880F991F9C0127
S1131F20220F331F220F331F820F931F9A01281B86
S1131F30390BC90120E3280FCE018D5F9E4F8D5BC5
S1131F409F4FFC0120838091150290911602969573
S1131F508795969587959C01ABE7B4E10E94A719F4
S1131F60AC01569547959A01ADECBCEC0E94A719BB
S1131F70969587959695879596958795880F991F39
S1131F809C01220F331F220F331F820F931F9A01CC
S1131F90281B390BC90120E3280FCE018D5F9E4F0A
S1131FA08E5B9F4FFC012083CE018D599F4F2F8163
S1131FB038852817390709F0A0C3409102025091CF
S1131FC003029A01ADECBCEC0E94A7199695879583
S1131FD09695879596958795880F991F9C01220F52
S1131FE0331F220F331F820F931F9A01281B390BB3
S1131FF0C90120E3280FCE018D599F4FFC01268390
S113200080910202909103029C01ADECBCEC0E9411
S1132010A719AC01569547955695479556954795FA
S11320209A01ADECBCEC0E94A719969587959695FC
S1132030879596958795880F991F9C01220F331FCA
S1132040220F331F820F931F9A01281B390BC901DA
S113205020E3280FCE018D599F4FFC0125838091E9
S113206002029091030296958795969587959C0117
S1132070ABE7B4E10E94A719AC01569547959A01C4
S1132080ADECBCEC0E94A71996958795969587951B
S113209096958795880F991F9C01220F331F220F55
S11320A0331F820F931F9A01281B390BC90120E3A8
S11320B0280FCE018D599F4FFC01248340911102BA
S11320C0509112029A01ADECBCEC0E94A7199695AE
S11320D087959695879596958795880F991F9C0166
S11320E0220F331F220F331F820F931F9A01281BC5
S11320F0390BC90120E3280FCE018D599F4FFC01F4
S1132100228B80911102909112029C01ADECBCECE7
S11321100E94A719AC015695479556954795569533
S113212047959A01ADECBCEC0E94A719969587954A
S11321309695879596958795880F991F9C01220FF0
S1132140331F220F331F820F931F9A01281B390B51
S1132150C90120E3280FCE018D599F4FFC01208B2C
S11321608091110290911202969587959695879584
S11321709C01ABE7B4E10E94A719AC0156954795C1
S11321809A01ADECBCEC0E94A7199695879596959B
S1132190879596958795880F991F9C01220F331F69
S11321A0220F331F820F931F9A01281B390BC90179
S11321B020E3280FCE018D599F4FFC0127874091C2
S11321C02E0250912F029A01ADECBCEC0E94A7198B
S11321D0969587959695879596958795880F991FD7
S11321E09C01220F331F220F331F820F931F9A016A
S11321F0281B390BC90120E3280FCE018D599F4FAD
S1132200FC01238F80912E0290912F029C01ADEC52
S1132210BCEC0E94A719AC01569547955695479575
S1132220569547959A01ADECBCEC0E94A71996957A
S113223087959695879596958795880F991F9C0104
S1132240220F331F220F331F820F931F9A01281B63
S1132250390BC90120E3280FCE018D599F4FFC0192
S1132260218F80912E0290912F02969587959695B5
S113227087959C01ABE7B4E10E94A719AC01569580
S113228047959A01ADECBCEC0E94A71996958795E9
S11322909695879596958795880F991F9C01220F8F
S11322A0331F220F331F820F931F9A01281B390BF0
S11322B0C90120E3280FCE018D599F4FFC01208FC7
S11322C040911D0250911E029A01ADECBCEC0E949B
S11322D0A719969587959695879596958795880FCE
S11322E0991F9C01220F331F220F331F820F931F4C
S11322F09A01281B390BC90120E3280FCE018D59FF
S11323009F4FFC0126A380911D0290911E029C0107
S1132310ADECBCEC0E94A719AC01569547955695B7
S11323204795569547959A01ADECBCEC0E94A719C8
S1132330969587959695879596958795880F991F75
S11323409C01220F331F220F331F820F931F9A0108
S1132350281B390BC90120E3280FCE018D599F4F4B
S1132360FC0124A380911D0290911E0296958795ED
S1132370969587959C01ABE7B4E1E9D7AC015695F6
S113238047959A01ADECBCECE2D796958795969566
S1132390879596958795880F991F9C01220F331F67
S11323A0220F331F820F931F9A01281B390BC90177
S11323B020E3280FCE018D599F4FFC0123A34091A8
S11323C01502509116029A01ADECBCECC0D796955B
S11323D087959695879596958795880F991F9C0163
S11323E0220F331F220F331F820F931F9A01281BC2
S11323F0390BC90120E3280FCE018D599F4FFC01F1
S113240020AB80911502909116029C01ADECBCECBE
S11324109ED7AC0156954795569547955695479541
S11324209A01ADECBCEC93D79695879596958795D4
S113243096958795880F991F9C01220F331F220FB1
S1132440331F820F931F9A01281B390BC90120E304
S1132450280FCE018D599F4FFC0127A780911502AB
S11324609091160296958795969587959C01ABE772
S1132470B4E16DD7AC01569547959A01ADECBCEC2F
S113248066D7969587959695879596958795880F9F
S1132490991F9C01220F331F220F331F820F931F9A
S11324A09A01281B390BC90120E3280FCE018D594D
S11324B09F4FFC0126A740911702509118029A01E0
S11324C0ADECBCEC44D796958795969587959695F3
S11324D08795880F991F9C01220F331F220F331FEA
S11324E0820F931F9A01281B390BC90120E3280F7F
S11324F0CE018D599F4FFC0122AF8091170290911C
S113250018029C01ADECBCEC22D7AC015695479562
S113251056954795569547959A01ADECBCEC17D75F
S1132520969587959695879596958795880F991F83
S11325309C01220F331F220F331F820F931F9A0116
S1132540281B390BC90120E3280FCE018D599F4F59
S1132550FC0121AF809117029091180296958795FE
S1132560969587959C01ABE7B4E1F1D6AC015695FD
S113257047959A01ADECBCECEAD69695879596956D
S1132580879596958795880F991F9C01220F331F75
S1132590220F331F820F931F9A01281B390BC90185
S11325A020E3280FCE018D599F4FFC0120AF4091AD
S11325B0190250911A029A01ADECBCECC8D696955A
S11325C087959695879596958795880F991F9C0171
S11325D0220F331F220F331F820F931F9A01281BD0
S11325E0390BC90120E3280FCE018D599F4F8F5B12
S11325F09F4FFC0120838091190290911A029C0143
S1132600ADECBCECA4D6AC015695479556954795D0
S1132610569547959A01ADECBCEC99D6969587955D
S11326209695879596958795880F991F9C01220FFB
S1132630331F220F331F820F931F9A01281B390B5C
S1132640C90120E3280FCE018D599F4F805C9F4F15
S1132650FC01208340911B0250911C029A01ADECB5
S1132660BCEC75D69695879596958795969587959E
S1132670880F991F9C01220F331F220F331F820FD3
S1132680931F9A01281B390BC90120E3280FCE019F
S11326908D599F4F895B9F4FFC01208380911B02C2
S11326A090911C029C01ADECBCEC51D6AC0156954A
S11326B0479556954795569547959A01ADECBCECD0
S11326C046D6969587959695879596958795880F7E
S11326D0991F9C01220F331F220F331F820F931F58
S11326E09A01281B390BC90120E3280FCE018D590B
S11326F09F4F8A5B9F4FFC01208380910D018823AB
S113270019F181E0E8D482E290E022E230E0F901BC
S113271020812460FC01208380914502909146022F
S1132720A0914702B0914802883B9B40A105B105A6
S113273058F082E290E022E230E0F90120812B7F20
S1132740FC01208310920D0184E390E024E330E047
S1132750F901308128E02327FC01208319828B8131
S11327609C81AD81BE810196A11DB11D8B839C838B
S1132770AD83BE838091450290914602A0914702A9
S1132780B0914802803A9F40A105B10500F10E9432
S1132790DE01282F8BEA289F812D1124982F9695EE
S11327A0892F880F890F922F981B892F90E09E0103
S11327B02D5A3E4F880F991F880F991F820F931F20
S11327C0FC0180819181A281B38198878F838A8162
S11327D0843608F411C80E94D1011A820DC8CF931F
S11327E0DF93CDB7DEB784E290E024E230E0F90174
S11327F020812160FC01208384E290E024E230E027
S1132800F90120812660FC0120838CE490E020ED16
S1132810FC0120838CE490E02CE430E0F901208179
S11328202160FC01208381E290E021E230E0F901A3
S113283020812860FC01208384E290E024E230E0DF
S1132840F90120812068FC01208382E290E022E2E9
S113285030E0F90120812860FC01208382E290E0CD
S113286022E230E0F90120812860FC01208300008D
S1132870DF91CF910895CF93DF93CDB7DEB78091E9
S11328804402882311F481E001C080E0DF91CF91FC
S11328900895CF93DF9300D000D0CDB7DEB78983FE
S11328A06A834B832C8389818093EC028B81809390
S11328B0EE028A818093ED028C818093EF0281E0A5
S11328C0809344028981882F90E0009719F0019742
S11328D0A1F026C082E290E022E230E0F9012081FA
S11328E0277FFC01208385E290E025E230E0F901B6
S11328F020812068FC01208313C085E290E025E25A
S113290030E0F90120812F77FC01208382E290E0FE
S113291022E230E0F90120812860FC0120830000DC
S11329208EE490E02A81FC01208300000F900F9038
S11329300F900F90DF91CF910895CF93DF9300D044
S113294000D01F92CDB7DEB78A836B834C832D836F
S113295009C08FEF898303C089818150898389816C
S11329608823D1F788DF8823A1F32D814C816B81E3
S11329708A818FDF00000F900F900F900F900F90BF
S1132980DF91CF910895CF93DF9300D0CDB7DEB719
S113299089836A838A818095282F4AE060E489814B
S11329A078DF00000F900F90DF91CF910895CF93BF
S11329B0DF9300D0CDB7DEB789836A838A8180959F
S11329C0282F4AE060E48981B8DF00000F900F905F
S11329D0DF91CF9108951F920F9200905F000F92A4
S11329E0112400905B000F922F933F938F939F933A
S11329F0EF93FF93CF93DF93CDB7DEB7809144027B
S1132A00882F90E08230910581F083309105B9F0F0
S1132A10019709F029C08EE490E02091EE02FC01B8
S1132A20208382E0809344021FC08EE490E02091D2
S1132A30EF02FC01208383E08093440215C085E209
S1132A4090E025E230E0F90120812068FC01208338
S1132A5082E290E022E230E0F90120812860FC016A
S1132A6020831092440200000000DF91CF91FF9177
S1132A70EF919F918F913F912F910F9000925B0066
S1132A800F9000925F000F901F901895CF93DF93E3
S1132A90CDB7DEB720E040E064E480E04EDF20E024
S1132AA040E062E481E049DF20E045E064E480E066
S1132AB044DF20E045E062E481E03FDF0000DF9195
S1132AC0CF910895CF93DF931F92CDB7DEB789835B
S1132AD08981882F90E0092E000CAA0BBB0B40E0E3
S1132AE050E027E030E0841B950B2817390708F4E1
S1132AF03CC0885A9F4FFC0121C469E080E057DF45
S1132B0069E081E054DF31C066E080E050DF66E0D8
S1132B1081E04DDF2AC060E380E049DF60E381E0CB
S1132B2046DF23C069E380E042DF69E381E03FDF01
S1132B301CC066E380E03BDF66E381E038DF15C05C
S1132B406FEF80E034DF6FEF81E031DF0EC060E0D3
S1132B5080E02DDF60E081E02ADF07C06FE080E0E5
S1132B6026DF6FE081E023DF000000000F90DF919B
S1132B70CF910895CF93DF93CDB7DEB782E290E093
S1132B8022E230E0F90120812F70FC01208384E3EC
S1132B9090E024E330E0F90120812B7FFC012083C5
S1132BA00000DF91CF910895CF93DF93CDB7DEB7C7
S1132BB088E290E0FC01108284E390E024E330E0BA
S1132BC0F90120812C7FFC0120830000DF91CF914B
S1132BD00895CF93DF93CDB7DEB729970FB6F89456
S1132BE0DEBF0FBECDBF9D838C837F836E835987E9
S1132BF04887C0DF2C813D818E819F81A901481BBC
S1132C00590BCA0196958795969587959A838983DA
S1132C10288539858E819F81281B390B89819A816A
S1132C20820F931F29813A81B90161D3CB018B8330
S1132C308B8118161CF48B8154D002C080E051D0D3
S1132C40000029960FB6F894DEBF0FBECDBFDF910A
S1132C50CF910895CF93DF93CDB7DEB729970FB601
S1132C60F894DEBF0FBECDBF9D838C837F836E83BC
S1132C705987488799DF2C813D818E819F81A901E5
S1132C80481B590BCA019C01AFE8B3EE60D396957B
S1132C90879596958795969587959A8389832885B0
S1132CA039858E819F81281B390B89819A81820FF6
S1132CB0931F29813A81B9011AD3CB018B838B816C
S1132CC018161CF48B8149D002C080E046D0000065
S1132CD029960FB6F894DEBF0FBECDBFDF91CF911A
S1132CE00895CF93DF931F92CDB7DEB7898382E235
S1132CF090E022E230E0F9012081622F2981422F05
S1132D0050E02FEF30E002C0220F331F4A95E2F764
S1132D102095309522953295307F3227207F3227B7
S1132D20262BFC01208384E390E024E330E0F901C6
S1132D302081622F2981422F50E020E830E002C038
S1132D40359527954A95E2F72470262BFC012083BC
S1132D5000000F90DF91CF910895CF93DF931F92DE
S1132D60CDB7DEB7898388E290E028E230E0F9014C
S1132D702081622F2981422F50E02FEF30E002C0E2
S1132D80359527954A95E2F72095262BFC0120835B
S1132D9084E390E024E330E0F9012081622F39815B
S1132DA029E3329F212D11242695422F50E02FEF45
S1132DB030E002C0220F331F4A95E2F72095309588
S1132DC0598149E3549F412D11244695442F50E0E5
S1132DD002C0220F331F4A95E2F7422F39812DECAE
S1132DE0329F212D1124269526952695240F262BD6
S1132DF0FC01208300000F90DF91CF910895CF93C1
S1132E00DF931F92CDB7DEB789838981882F90E045
S1132E10092E000CAA0BBB0B40E050E02EE030E082
S1132E20841B950B2817390708F49AC0805A9F4FC2
S1132E30FC0184C282E290E022E230E0F9012081C8
S1132E402061FC0120838CC082E290E022E230E029
S1132E50F90120812062FC01208382C082E290E09B
S1132E6022E230E0F90120812064FC01208378C053
S1132E7082E290E022E230E0F90120812068FC0146
S1132E8020836EC084E390E024E330E0F9012081E4
S1132E902460FC01208364C088E290E028E230E0F2
S1132EA0F90120812068FC0120835AC088E290E067
S1132EB028E230E0F90120812064FC01208350C025
S1132EC088E290E028E230E0F90120812062FC01F0
S1132ED0208346C088E290E028E230E0F9012081B6
S1132EE02061FC0120833CC088E290E028E230E0CD
S1132EF0F90120812860FC01208332C088E290E03F
S1132F0028E230E0F90120812460FC01208328C0FC
S1132F1088E290E028E230E0F90120812260FC019F
S1132F2020831EC088E290E028E230E0F90120818D
S1132F302160FC01208314C084E390E024E330E0AA
S1132F40F90120812260FC0120830AC084E390E01F
S1132F5024E330E0F90120812160FC01208300009A
S1132F6000000F90DF91CF910895CF93DF931F92CC
S1132F70CDB7DEB789838981882F90E0092E000CB4
S1132F80AA0BBB0B40E050E02EE030E0841B950B15
S1132F902817390708F49AC081599F4FFC01CEC104
S1132FA082E290E022E230E0F90120812071FC010C
S1132FB020838CC082E290E022E230E0F90120819B
S1132FC02072FC01208382C082E290E022E230E0A1
S1132FD0F90120812074FC01208378C082E290E012
S1132FE022E230E0F90120812078FC0120836EC0C8
S1132FF084E390E024E330E0F90120812470FC01B3
S1133000208364C088E290E028E230E0F901208166
S11330102078FC0120835AC088E290E028E230E066
S1133020F90120812074FC01208350C088E290E0E3
S113303028E230E0F90120812072FC01208346C09F
S113304088E290E028E230E0F90120812071FC015F
S113305020833CC088E290E028E230E0F90120813E
S11330602870FC01208332C088E290E028E230E03E
S1133070F90120812470FC01208328C088E290E0BB
S113308028E230E0F90120812270FC0120831EC077
S113309088E290E028E230E0F90120812170FC010F
S11330A0208314C084E390E024E330E0F90120811C
S11330B02270FC0120830AC084E390E024E330E022
S11330C0F90120812170FC012083000000000F9091
S11330D0DF91CF910895CF93DF931F92CDB7DEB7E1
S11330E089838981882F90E0009719F0019759F01E
S11330F014C08BE290E02BE230E0F90120812076CD
S1133100FC0120830AC08BE290E02BE230E0F9015D
S113311020812F69FC012083000000000F90DF91C3
S1133120CF910895CF93DF931F92CDB7DEB78983F4
S11331308981895F64DE97E08981292F281B822F8A
S11331405EDE8981883010F082E0BCDC89818930C0
S113315010F081E0C0DF89818E3020F087E0B2DC9E
S113316080E0B9DF00000F90DF91CF910895CF93F5
S1133170DF93CDB7DEB781E290E021E230E0F901E0
S113318020812C6FFC01208381E290E021E230E079
S1133190F90120812C7FFC01208384E290E024E269
S11331A030E0F9012081266FFC01208384E290E065
S11331B024E230E0F9012081277FFC01208387E2AB
S11331C090E02FEFFC0120838AE290E02AE230E0D5
S11331D0F90120812F69FC0120838DE290E02FEF1B
S11331E0FC01208380E390E020E330E0F9012081BA
S11331F0217FFC01208383E390E023E330E0F901A5
S113320020812F61FC01208382E290E0FC01108286
S113321085E290E0FC01108288E290E0FC011082DB
S11332208BE290E0FC0110828EE290E0FC011082BF
S113323081E390E0FC01108284E390E0FC011082C1
S113324082E290E022E230E0F90120812360FC0177
S113325020830000DF91CF910895CF93DF93CDB702
S1133260DEB784E490E02BE0FC0120838EE690E05E
S113327022E0FC01208387E490E029EFFC01208315
S11332800000DF91CF9108951F920F9200905F008C
S11332900F9211248F939F93AF93BF93CF93DF9398
S11332A0CDB7DEB78091450290914602A0914702C6
S11332B0B09148020196A11DB11D809345029093DF
S11332C04602A0934702B0934802809149028F5F5F
S11332D0809349020000DF91CF91BF91AF919F91FC
S11332E08F910F9000925F000F901F901895AA1B6A
S11332F0BB1B51E107C0AA1FBB1FA617B70710F0DD
S1133300A61BB70B881F991F5A95A9F7809590950E
S1133310BC01CD01089597FB072E16F4009406D046
S113332077FD08D0E4DF07FC05D03EF49095819545
S11333309F4F0895709561957F4F0895EE0FFF1F7D
S11333400024001C0BBE0790F691E02D0994A29F67
S1133350B001B39FC001A39F700D811D1124911D65
S1133360B29F700D811D1124911D0895F894FFCF13
S1133370D1003908061700020CC094D4800107005C
S11333806F00FFFFFF00FF20FF0020FFFF00202051
S1133390FF000707FF00FF0101000101FF000320F8
S11333A02000030220000405040020022000FF077F
S11333B00700FF01FF0020FF2000FF07FF0020207F
S11333C0200002070300FF2020007C202020202072
S11333D0202020202020202020202020207C007C51
S11333E02020202020202E6B6F747A202020202083
S11333F020207C005453563A20202056202041435C
S113340043553A20202E2043004C56563A20202E75
S1133410205620434F4F4C3A20202E204300415049
S11334205053313A2020202541505053323A202025
S11334302025004250463A20204250523A20202073
S11334402020202020202000494E563A20202E20E3
S113345043204D54523A2020202E20430041505006
S1133460533A20202020202020202020202020200B
S1053470200036
S9030000FC
